{
  "data": {
    "bytecode": {
      "linkReferences": {},
      "object": "60c06040523480156200001157600080fd5b50604051620051c2380380620051c283398181016040528101906200003791906200041e565b82600073ffffffffffffffffffffffffffffffffffffffff168173ffffffffffffffffffffffffffffffffffffffff161415620000a0576040517fe6c4247b00000000000000000000000000000000000000000000000000000000815260040160405180910390fd5b8073ffffffffffffffffffffffffffffffffffffffff1660808173ffffffffffffffffffffffffffffffffffffffff1681525050508173ffffffffffffffffffffffffffffffffffffffff1660a08173ffffffffffffffffffffffffffffffffffffffff168152505033600160006101000a81548173ffffffffffffffffffffffffffffffffffffffff021916908373ffffffffffffffffffffffffffffffffffffffff1602179055508060009080519060200190620001629291906200016c565b50505050620004fe565b8280546200017a90620004c8565b90600052602060002090601f0160209004810192826200019e5760008555620001ea565b82601f10620001b957805160ff1916838001178555620001ea565b82800160010185558215620001ea579182015b82811115620001e9578251825591602001919060010190620001cc565b5b509050620001f99190620001fd565b5090565b5b8082111562000218576000816000905550600101620001fe565b5090565b6000604051905090565b600080fd5b600080fd5b600073ffffffffffffffffffffffffffffffffffffffff82169050919050565b60006200025d8262000230565b9050919050565b6200026f8162000250565b81146200027b57600080fd5b50565b6000815190506200028f8162000264565b92915050565b600080fd5b600080fd5b6000601f19601f8301169050919050565b7f4e487b7100000000000000000000000000000000000000000000000000000000600052604160045260246000fd5b620002ea826200029f565b810181811067ffffffffffffffff821117156200030c576200030b620002b0565b5b80604052505050565b6000620003216200021c565b90506200032f8282620002df565b919050565b600067ffffffffffffffff821115620003525762000351620002b0565b5b6200035d826200029f565b9050602081019050919050565b60005b838110156200038a5780820151818401526020810190506200036d565b838111156200039a576000848401525b50505050565b6000620003b7620003b18462000334565b62000315565b905082815260208101848484011115620003d657620003d56200029a565b5b620003e38482856200036a565b509392505050565b600082601f83011262000403576200040262000295565b5b815162000415848260208601620003a0565b91505092915050565b6000806000606084860312156200043a576200043962000226565b5b60006200044a868287016200027e565b93505060206200045d868287016200027e565b925050604084015167ffffffffffffffff8111156200048157620004806200022b565b5b6200048f86828701620003eb565b9150509250925092565b7f4e487b7100000000000000000000000000000000000000000000000000000000600052602260045260246000fd5b60006002820490506001821680620004e157607f821691505b60208210811415620004f857620004f762000499565b5b50919050565b60805160a051614c666200055c60003960008181611275015281816113a3015261194701526000818161090101528181610a6701528181610add01528181610e670152818161130a0152818161188801526119e10152614c666000f3fe6080604052600436106101f95760003560e01c806386a1f8581161010d578063c0d78655116100a0578063d07767a61161006f578063d07767a614610707578063dbcf091814610732578063e541b13c1461076f578063f2dbd96c146107ac578063f851a440146107e9576101f9565b8063c0d786551461064a578063c3dfdae614610673578063c48028021461069e578063c9e96f91146106dc576101f9565b8063ae48ddbe116100dc578063ae48ddbe146105aa578063b0fa8444146105e7578063b41b7a8314610612578063b79c4cca1461062e576101f9565b806386a1f85814610519578063879d5af0146105355780638f405ac614610551578063910035781461058e576101f9565b806345cd2699116101905780636a22d8cc1161015f5780636a22d8cc1461040d5780636d20931a1461043857806372aa03ab146104755780638164ef53146104b257806385cd0756146104f0576101f9565b806345cd269914610376578063491606581461039f578063553e2cfc146103c85780635c51474e146103f1576101f9565b80631a98b2e0116101cc5780631a98b2e0146102cc5780631c6ffa46146102f55780631c93b03a146103205780633268cc561461034b576101f9565b806301a7644f146101fe57806306f6f8671461023b578063116191b61461026457806311f423881461028f575b600080fd5b34801561020a57600080fd5b50610225600480360381019061022091906135ca565b610814565b604051610232919061365d565b60405180910390f35b34801561024757600080fd5b50610262600480360381019061025d9190613678565b61086f565b005b34801561027057600080fd5b50610279610a65565b6040516102869190613740565b60405180910390f35b34801561029b57600080fd5b506102b660048036038101906102b19190613678565b610a89565b6040516102c3919061365d565b60405180910390f35b3480156102d857600080fd5b506102f360048036038101906102ee919061387d565b610abf565b005b34801561030157600080fd5b5061030a610bea565b6040516103179190613a15565b60405180910390f35b34801561032c57600080fd5b50610335610c78565b6040516103429190613a15565b60405180910390f35b34801561035757600080fd5b50610360610d06565b60405161036d9190613a58565b60405180910390f35b34801561038257600080fd5b5061039d60048036038101906103989190613a73565b610d2c565b005b3480156103ab57600080fd5b506103c660048036038101906103c19190613acf565b610e49565b005b3480156103d457600080fd5b506103ef60048036038101906103ea9190613678565b610f68565b005b61040b60048036038101906104069190613bc4565b61123e565b005b34801561041957600080fd5b506104226113a1565b60405161042f9190613d13565b60405180910390f35b34801561044457600080fd5b5061045f600480360381019061045a9190613678565b6113c5565b60405161046c919061365d565b60405180910390f35b34801561048157600080fd5b5061049c60048036038101906104979190613678565b6113fb565b6040516104a99190613a58565b60405180910390f35b3480156104be57600080fd5b506104d960048036038101906104d49190613678565b611444565b6040516104e7929190613d2e565b60405180910390f35b3480156104fc57600080fd5b5061051760048036038101906105129190613d91565b61158e565b005b610533600480360381019061052e9190613ded565b611723565b005b61054f600480360381019061054a9190613ece565b611848565b005b34801561055d57600080fd5b5061057860048036038101906105739190613678565b611a7a565b604051610585919061365d565b60405180910390f35b6105a860048036038101906105a39190613f89565b611ab0565b005b3480156105b657600080fd5b506105d160048036038101906105cc9190614058565b611b9e565b6040516105de9190613a15565b60405180910390f35b3480156105f357600080fd5b506105fc611c4a565b6040516106099190613a15565b60405180910390f35b61062c60048036038101906106279190614085565b611cd8565b005b61064860048036038101906106439190613678565b611d80565b005b34801561065657600080fd5b50610671600480360381019061066c9190614110565b611f00565b005b34801561067f57600080fd5b50610688612015565b604051610695919061415e565b60405180910390f35b3480156106aa57600080fd5b506106c560048036038101906106c091906135ca565b61203b565b6040516106d3929190613d2e565b60405180910390f35b3480156106e857600080fd5b506106f16121a8565b6040516106fe9190613a58565b60405180910390f35b34801561071357600080fd5b5061071c6121ce565b6040516107299190613a15565b60405180910390f35b34801561073e57600080fd5b50610759600480360381019061075491906135ca565b61225c565b604051610766919061365d565b60405180910390f35b34801561077b57600080fd5b5061079660048036038101906107919190614058565b6122b7565b6040516107a39190613a15565b60405180910390f35b3480156107b857600080fd5b506107d360048036038101906107ce9190613678565b612363565b6040516107e09190614188565b60405180910390f35b3480156107f557600080fd5b506107fe612391565b60405161080b9190613a58565b60405180910390f35b601382805160208101820180518482526020830160208501208183528095505050505050818051602081018201805184825260208301602085012081835280955050505050506000915091509054906101000a900460ff1681565b600160009054906101000a900473ffffffffffffffffffffffffffffffffffffffff1673ffffffffffffffffffffffffffffffffffffffff163373ffffffffffffffffffffffffffffffffffffffff16146108ff576040517f08c379a00000000000000000000000000000000000000000000000000000000081526004016108f6906141ef565b60405180910390fd5b7f000000000000000000000000000000000000000000000000000000000000000073ffffffffffffffffffffffffffffffffffffffff1663935b13f6826040518263ffffffff1660e01b81526004016109589190613a15565b60206040518083038186803b15801561097057600080fd5b505afa158015610984573d6000803e3d6000fd5b505050506040513d601f19601f820116820180604052508101906109a89190614224565b600960006101000a81548173ffffffffffffffffffffffffffffffffffffffff021916908373ffffffffffffffffffffffffffffffffffffffff16021790555080600b90805190602001906109fe929190613283565b50600960009054906101000a900473ffffffffffffffffffffffffffffffffffffffff16600a60006101000a81548173ffffffffffffffffffffffffffffffffffffffff021916908373ffffffffffffffffffffffffffffffffffffffff16021790555050565b7f000000000000000000000000000000000000000000000000000000000000000081565b600d818051602081018201805184825260208301602085012081835280955050505050506000915054906101000a900460ff1681565b60008585604051610ad1929190614281565b604051809103902090507f000000000000000000000000000000000000000000000000000000000000000073ffffffffffffffffffffffffffffffffffffffff16631876eed98c8c8c8c8c878b8b8b6040518a63ffffffff1660e01b8152600401610b44999897969594939291906142d6565b602060405180830381600087803b158015610b5e57600080fd5b505af1158015610b72573d6000803e3d6000fd5b505050506040513d601f19601f82011682018060405250810190610b969190614367565b610bcc576040517f500c44b400000000000000000000000000000000000000000000000000000000815260040160405180910390fd5b610bdd8a8a8a8a8a8a8a8a8a6123b7565b5050505050505050505050565b60048054610bf7906143c3565b80601f0160208091040260200160405190810160405280929190818152602001828054610c23906143c3565b8015610c705780601f10610c4557610100808354040283529160200191610c70565b820191906000526020600020905b815481529060010190602001808311610c5357829003601f168201915b505050505081565b60008054610c85906143c3565b80601f0160208091040260200160405190810160405280929190818152602001828054610cb1906143c3565b8015610cfe5780601f10610cd357610100808354040283529160200191610cfe565b820191906000526020600020905b815481529060010190602001808311610ce157829003601f168201915b505050505081565b600260009054906101000a900473ffffffffffffffffffffffffffffffffffffffff1681565b600c82604051610d3c9190614431565b908152602001604051809103902060009054906101000a900460ff1615610e4557600a60009054906101000a900473ffffffffffffffffffffffffffffffffffffffff1673ffffffffffffffffffffffffffffffffffffffff166323b872dd3330846040518463ffffffff1660e01b8152600401610dbc93929190614448565b602060405180830381600087803b158015610dd657600080fd5b505af1158015610dea573d6000803e3d6000fd5b505050506040513d601f19601f82011682018060405250810190610e0e9190614367565b5080601083604051610e209190614431565b90815260200160405180910390206000828254610e3d91906144ae565b925050819055505b5050565b60008282604051610e5b929190614281565b604051809103902090507f000000000000000000000000000000000000000000000000000000000000000073ffffffffffffffffffffffffffffffffffffffff16635f6970c38989898989876040518763ffffffff1660e01b8152600401610ec896959493929190614504565b602060405180830381600087803b158015610ee257600080fd5b505af1158015610ef6573d6000803e3d6000fd5b505050506040513d601f19601f82011682018060405250810190610f1a9190614367565b610f50576040517f500c44b400000000000000000000000000000000000000000000000000000000815260040160405180910390fd5b610f5e878787878787612460565b5050505050505050565b600c81604051610f789190614431565b908152602001604051809103902060009054906101000a900460ff16158015610fca5750600d81604051610fac9190614431565b908152602001604051809103902060009054906101000a900460ff16155b1561123b576000611083600f83604051610fe49190614431565b90815260200160405180910390206000018054611000906143c3565b80601f016020809104026020016040519081016040528092919081815260200182805461102c906143c3565b80156110795780601f1061104e57610100808354040283529160200191611079565b820191906000526020600020905b81548152906001019060200180831161105c57829003601f168201915b5050505050612823565b905060006010836040516110979190614431565b908152602001604051809103902054905060006010846040516110ba9190614431565b908152602001604051809103902081905550600a60009054906101000a900473ffffffffffffffffffffffffffffffffffffffff1673ffffffffffffffffffffffffffffffffffffffff1663095ea7b3600260009054906101000a900473ffffffffffffffffffffffffffffffffffffffff16836040518363ffffffff1660e01b815260040161114b92919061455b565b602060405180830381600087803b15801561116557600080fd5b505af1158015611179573d6000803e3d6000fd5b505050506040513d601f19601f8201168201806040525081019061119d9190614367565b50600360009054906101000a900473ffffffffffffffffffffffffffffffffffffffff1673ffffffffffffffffffffffffffffffffffffffff16630152907d8385846040518463ffffffff1660e01b81526004016111fd93929190614584565b600060405180830381600087803b15801561121757600080fd5b505af115801561122b573d6000803e3d6000fd5b5050505061123883612a71565b50505b50565b600085858585856040516020016112599594939291906145c2565b60405160208183030381529060405290506000341115611308577f000000000000000000000000000000000000000000000000000000000000000073ffffffffffffffffffffffffffffffffffffffff16630c93e3bb34308b8b86336040518763ffffffff1660e01b81526004016112d595949392919061467f565b6000604051808303818588803b1580156112ee57600080fd5b505af1158015611302573d6000803e3d6000fd5b50505050505b7f000000000000000000000000000000000000000000000000000000000000000073ffffffffffffffffffffffffffffffffffffffff16631c92115f8989846040518463ffffffff1660e01b8152600401611365939291906146e7565b600060405180830381600087803b15801561137f57600080fd5b505af1158015611393573d6000803e3d6000fd5b505050505050505050505050565b7f000000000000000000000000000000000000000000000000000000000000000081565b600c818051602081018201805184825260208301602085012081835280955050505050506000915054906101000a900460ff1681565b6006818051602081018201805184825260208301602085012081835280955050505050506000915054906101000a900473ffffffffffffffffffffffffffffffffffffffff1681565b600f8180516020810182018051848252602083016020850120818352809550505050505060009150905080600001805461147d906143c3565b80601f01602080910402602001604051908101604052809291908181526020018280546114a9906143c3565b80156114f65780601f106114cb576101008083540402835291602001916114f6565b820191906000526020600020905b8154815290600101906020018083116114d957829003601f168201915b50505050509080600101805461150b906143c3565b80601f0160208091040260200160405190810160405280929190818152602001828054611537906143c3565b80156115845780601f1061155957610100808354040283529160200191611584565b820191906000526020600020905b81548152906001019060200180831161156757829003601f168201915b5050505050905082565b600160009054906101000a900473ffffffffffffffffffffffffffffffffffffffff1673ffffffffffffffffffffffffffffffffffffffff163373ffffffffffffffffffffffffffffffffffffffff161461161e576040517f08c379a0000000000000000000000000000000000000000000000000000000008152600401611615906141ef565b60405180910390fd5b60078160405161162e9190614431565b908152602001604051809103902060009054906101000a900460ff166116c25760016007826040516116609190614431565b908152602001604051809103902060006101000a81548160ff0219169083151502179055506008819080600181540180825580915050600190039060005260206000200160009091909190915090805190602001906116c0929190613283565b505b816006826040516116d39190614431565b908152602001604051809103902060006101000a81548173ffffffffffffffffffffffffffffffffffffffff021916908373ffffffffffffffffffffffffffffffffffffffff1602179055505050565b60006008878154811061173957611738614733565b5b90600052602060002001805461174e906143c3565b80601f016020809104026020016040519081016040528092919081815260200182805461177a906143c3565b80156117c75780601f1061179c576101008083540402835291602001916117c7565b820191906000526020600020905b8154815290600101906020018083116117aa57829003601f168201915b50505050509050600061182d6006836040516117e39190614431565b908152602001604051809103902060009054906101000a900473ffffffffffffffffffffffffffffffffffffffff1673ffffffffffffffffffffffffffffffffffffffff16612b43565b905061183e8282898989898961123e565b5050505050505050565b600a60009054906101000a900473ffffffffffffffffffffffffffffffffffffffff1673ffffffffffffffffffffffffffffffffffffffff1663095ea7b37f0000000000000000000000000000000000000000000000000000000000000000846040518363ffffffff1660e01b81526004016118c592919061455b565b602060405180830381600087803b1580156118df57600080fd5b505af11580156118f3573d6000803e3d6000fd5b505050506040513d601f19601f820116820180604052508101906119179190614367565b5060008160405160200161192b9190613a15565b604051602081830303815290604052905060003411156119df577f000000000000000000000000000000000000000000000000000000000000000073ffffffffffffffffffffffffffffffffffffffff1663c62c20023430888886600b8a336040518963ffffffff1660e01b81526004016119ac97969594939291906147f7565b6000604051808303818588803b1580156119c557600080fd5b505af11580156119d9573d6000803e3d6000fd5b50505050505b7f000000000000000000000000000000000000000000000000000000000000000073ffffffffffffffffffffffffffffffffffffffff1663b5417084868684600b886040518663ffffffff1660e01b8152600401611a41959493929190614882565b600060405180830381600087803b158015611a5b57600080fd5b505af1158015611a6f573d6000803e3d6000fd5b505050505050505050565b6007818051602081018201805184825260208301602085012081835280955050505050506000915054906101000a900460ff1681565b6001851415611b69578215611b5a57611ac884612e66565b600360009054906101000a900473ffffffffffffffffffffffffffffffffffffffff1673ffffffffffffffffffffffffffffffffffffffff16635cc00f7e856040518263ffffffff1660e01b8152600401611b239190613a15565b600060405180830381600087803b158015611b3d57600080fd5b505af1158015611b51573d6000803e3d6000fd5b50505050611b64565b611b6384612f98565b5b611b97565b6002851415611b8257611b7d84828461320e565b611b96565b6003851415611b9557611b9484611d80565b5b5b5b5050505050565b60088181548110611bae57600080fd5b906000526020600020016000915090508054611bc9906143c3565b80601f0160208091040260200160405190810160405280929190818152602001828054611bf5906143c3565b8015611c425780601f10611c1757610100808354040283529160200191611c42565b820191906000526020600020905b815481529060010190602001808311611c2557829003601f168201915b505050505081565b60058054611c57906143c3565b80601f0160208091040260200160405190810160405280929190818152602001828054611c83906143c3565b8015611cd05780601f10611ca557610100808354040283529160200191611cd0565b820191906000526020600020905b815481529060010190602001808311611cb357829003601f168201915b505050505081565b600c83604051611ce89190614431565b908152602001604051809103902060009054906101000a900460ff16611d7b576000601084604051611d1a9190614431565b90815260200160405180910390205490506000601085604051611d3d9190614431565b908152602001604051809103902081905550611d7983611d728473ffffffffffffffffffffffffffffffffffffffff16612b43565b8387611848565b505b505050565b6000600f82604051611d929190614431565b90815260200160405180910390206001018054611dae906143c3565b80601f0160208091040260200160405190810160405280929190818152602001828054611dda906143c3565b8015611e275780601f10611dfc57610100808354040283529160200191611e27565b820191906000526020600020905b815481529060010190602001808311611e0a57829003601f168201915b505050505090506000604051611e3d9190614985565b604051809103902081805190602001201415611eac576001601383604051611e659190614431565b90815260200160405180910390206000604051611e829190614a1b565b908152602001604051809103902060006101000a81548160ff021916908315150217905550611efc565b6000600682604051611ebe9190614431565b908152602001604051809103902060009054906101000a900473ffffffffffffffffffffffffffffffffffffffff169050611efa838383611cd8565b505b5050565b600160009054906101000a900473ffffffffffffffffffffffffffffffffffffffff1673ffffffffffffffffffffffffffffffffffffffff163373ffffffffffffffffffffffffffffffffffffffff1614611f90576040517f08c379a0000000000000000000000000000000000000000000000000000000008152600401611f87906141ef565b60405180910390fd5b80600260006101000a81548173ffffffffffffffffffffffffffffffffffffffff021916908373ffffffffffffffffffffffffffffffffffffffff16021790555080600360006101000a81548173ffffffffffffffffffffffffffffffffffffffff021916908373ffffffffffffffffffffffffffffffffffffffff16021790555050565b600a60009054906101000a900473ffffffffffffffffffffffffffffffffffffffff1681565b6012828051602081018201805184825260208301602085012081835280955050505050508180516020810182018051848252602083016020850120818352809550505050505060009150915050806000018054612097906143c3565b80601f01602080910402602001604051908101604052809291908181526020018280546120c3906143c3565b80156121105780601f106120e557610100808354040283529160200191612110565b820191906000526020600020905b8154815290600101906020018083116120f357829003601f168201915b505050505090806001018054612125906143c3565b80601f0160208091040260200160405190810160405280929190818152602001828054612151906143c3565b801561219e5780601f106121735761010080835404028352916020019161219e565b820191906000526020600020905b81548152906001019060200180831161218157829003601f168201915b5050505050905082565b600960009054906101000a900473ffffffffffffffffffffffffffffffffffffffff1681565b600b80546121db906143c3565b80601f0160208091040260200160405190810160405280929190818152602001828054612207906143c3565b80156122545780601f1061222957610100808354040283529160200191612254565b820191906000526020600020905b81548152906001019060200180831161223757829003601f168201915b505050505081565b601182805160208101820180518482526020830160208501208183528095505050505050818051602081018201805184825260208301602085012081835280955050505050506000915091509054906101000a900460ff1681565b600e81815481106122c757600080fd5b9060005260206000200160009150905080546122e2906143c3565b80601f016020809104026020016040519081016040528092919081815260200182805461230e906143c3565b801561235b5780601f106123305761010080835404028352916020019161235b565b820191906000526020600020905b81548152906001019060200180831161233e57829003601f168201915b505050505081565b6010818051602081018201805184825260208301602085012081835280955050505050506000915090505481565b600160009054906101000a900473ffffffffffffffffffffffffffffffffffffffff1681565b600085858101906123c89190613678565b905060016013826040516123dc9190614431565b90815260200160405180910390208b8b6040516123fa929190614a57565b908152602001604051809103902060006101000a81548160ff021916908315150217905550816010826040516124309190614431565b9081526020016040518091039020600082825461244d91906144ae565b9250508190555050505050505050505050565b600080600080600086868101906124779190613f89565b945094509450945094508a8a60049190612492929190613309565b508888600591906124a4929190613309565b5060018514156125f657821561254f576124bd84612e66565b600360009054906101000a900473ffffffffffffffffffffffffffffffffffffffff1673ffffffffffffffffffffffffffffffffffffffff16635cc00f7e856040518263ffffffff1660e01b81526004016125189190613a15565b600060405180830381600087803b15801561253257600080fd5b505af1158015612546573d6000803e3d6000fd5b50505050612559565b61255884612f98565b5b6125f18b8b8080601f016020809104026020016040519081016040528093929190818152602001838380828437600081840152601f19601f820116905080830192505050505050508a8a8080601f016020809104026020016040519081016040528093929190818152602001838380828437600081840152601f19601f8201169050808301925050505050505060008787878761123e565b6127ad565b60028514156126a75761260a84828461320e565b6126a28b8b8080601f016020809104026020016040519081016040528093929190818152602001838380828437600081840152601f19601f820116905080830192505050505050508a8a8080601f016020809104026020016040519081016040528093929190818152602001838380828437600081840152601f19601f8201169050808301925050505050505060008787878761123e565b6127ac565b60038514156126be576126b984611d80565b6127ab565b60008514156127aa57826011856040516126d89190614431565b90815260200160405180910390208c8c6040516126f6929190614a57565b908152602001604051809103902060006101000a81548160ff0219169083151502179055506040518060400160405280828152602001838152506012856040516127409190614431565b90815260200160405180910390208c8c60405161275e929190614a57565b90815260200160405180910390206000820151816000019080519060200190612788929190613283565b5060208201518160010190805190602001906127a5929190613283565b509050505b5b5b5b836040516127bb9190614431565b6040518091039020853373ffffffffffffffffffffffffffffffffffffffff167f8a40688851e91e3bd6baf89a23ffaa0bcf0b0f6f442cc9052ccb46ded80c20a386868660405161280e93929190614a70565b60405180910390a45050505050505050505050565b600080829050600080602a835114158061289d57507f30000000000000000000000000000000000000000000000000000000000000008360008151811061286d5761286c614733565b5b602001015160f81c60f81b7effffffffffffffffffffffffffffffffffffffffffffffffffffffffffffff191614155b8061290857507f7800000000000000000000000000000000000000000000000000000000000000836001815181106128d8576128d7614733565b5b602001015160f81c60f81b7effffffffffffffffffffffffffffffffffffffffffffffffffffffffffffff191614155b1561293f576040517fdf48f19e00000000000000000000000000000000000000000000000000000000815260040160405180910390fd5b6000600290505b602a811015612a655783818151811061296257612961614733565b5b602001015160f81c60f81b60f81c915060618260ff161015801561298a575060668260ff1611155b156129a35760578261299c9190614ac2565b9150612a39565b60418260ff16101580156129bb575060468260ff1611155b156129d4576037826129cd9190614ac2565b9150612a38565b60308260ff16101580156129ec575060398260ff1611155b15612a05576030826129fe9190614ac2565b9150612a37565b6040517fdf48f19e00000000000000000000000000000000000000000000000000000000815260040160405180910390fd5b5b5b6002816029612a489190614af6565b901b8260ff16901b8317925080612a5e90614b2a565b9050612946565b50819350505050919050565b60006001905060005b600880549050811015612b0857601383604051612a979190614431565b908152602001604051809103902060088281548110612ab957612ab8614733565b5b90600052602060002001604051612ad09190614a1b565b908152602001604051809103902060009054906101000a900460ff16612af557600091505b8080612b0090614b2a565b915050612a7a565b5080600d83604051612b1a9190614431565b908152602001604051809103902060006101000a81548160ff0219169083151502179055505050565b6060600082604051602001612b589190614bbb565b604051602081830303815290604052905060008151905060006040518060400160405280601081526020017f30313233343536373839616263646566000000000000000000000000000000008152509050600060028451612bb99190614bd6565b6002612bc591906144ae565b67ffffffffffffffff811115612bde57612bdd61349f565b5b6040519080825280601f01601f191660200182016040528015612c105781602001600182028036833780820191505090505b5090507f300000000000000000000000000000000000000000000000000000000000000081600081518110612c4857612c47614733565b5b60200101907effffffffffffffffffffffffffffffffffffffffffffffffffffffffffffff1916908160001a9053507f780000000000000000000000000000000000000000000000000000000000000081600181518110612cac57612cab614733565b5b60200101907effffffffffffffffffffffffffffffffffffffffffffffffffffffffffffff1916908160001a90535060005b83811015612e5957826004868381518110612cfc57612cfb614733565b5b602001015160f81c60f81b7effffffffffffffffffffffffffffffffffffffffffffffffffffffffffffff1916901c60f81c60ff1681518110612d4257612d41614733565b5b602001015160f81c60f81b82600283612d5b9190614bd6565b6002612d6791906144ae565b81518110612d7857612d77614733565b5b60200101907effffffffffffffffffffffffffffffffffffffffffffffffffffffffffffff1916908160001a90535082600f60f81b868381518110612dc057612dbf614733565b5b602001015160f81c60f81b1660f81c60ff1681518110612de357612de2614733565b5b602001015160f81c60f81b82600283612dfc9190614bd6565b6003612e0891906144ae565b81518110612e1957612e18614733565b5b60200101907effffffffffffffffffffffffffffffffffffffffffffffffffffffffffffff1916908160001a90535080612e5290614b2a565b9050612cde565b5080945050505050919050565b600c81604051612e769190614431565b908152602001604051809103902060009054906101000a900460ff16158015612ec85750600d81604051612eaa9190614431565b908152602001604051809103902060009054906101000a900460ff16155b15612f95576001600c82604051612edf9190614431565b908152602001604051809103902060006101000a81548160ff021916908315150217905550600e81908060018154018082558091505060019003906000526020600020016000909190919091509080519060200190612f3f929190613283565b506001601182604051612f529190614431565b90815260200160405180910390206000604051612f6f9190614a1b565b908152602001604051809103902060006101000a81548160ff0219169083151502179055505b50565b600c81604051612fa89190614431565b908152602001604051809103902060009054906101000a900460ff161561320b576000600c82604051612fdb9190614431565b908152602001604051809103902060006101000a81548160ff02191690831515021790555060006011826040516130129190614431565b9081526020016040518091039020600060405161302f9190614a1b565b908152602001604051809103902060006101000a81548160ff02191690831515021790555060006001600e805490506130689190614af6565b67ffffffffffffffff8111156130815761308061349f565b5b6040519080825280602002602001820160405280156130b457816020015b606081526020019060019003908161309f5790505b5090506000805b600e805490508110156131f0578380519060200120600e82815481106130e4576130e3614733565b5b906000526020600020016040516130fb9190614985565b6040518091039020146131dd57600e818154811061311c5761311b614733565b5b906000526020600020018054613131906143c3565b80601f016020809104026020016040519081016040528092919081815260200182805461315d906143c3565b80156131aa5780601f1061317f576101008083540402835291602001916131aa565b820191906000526020600020905b81548152906001019060200180831161318d57829003601f168201915b50505050508383815181106131c2576131c1614733565b5b60200260200101819052506001826131da91906144ae565b91505b80806131e890614b2a565b9150506130bb565b5081600e908051906020019061320792919061338f565b5050505b50565b604051806040016040528083815260200182815250600f846040516132339190614431565b9081526020016040518091039020600082015181600001908051906020019061325d929190613283565b50602082015181600101908051906020019061327a929190613283565b50905050505050565b82805461328f906143c3565b90600052602060002090601f0160209004810192826132b157600085556132f8565b82601f106132ca57805160ff19168380011785556132f8565b828001600101855582156132f8579182015b828111156132f75782518255916020019190600101906132dc565b5b50905061330591906133ef565b5090565b828054613315906143c3565b90600052602060002090601f016020900481019282613337576000855561337e565b82601f1061335057803560ff191683800117855561337e565b8280016001018555821561337e579182015b8281111561337d578235825591602001919060010190613362565b5b50905061338b91906133ef565b5090565b8280548282559060005260206000209081019282156133de579160200282015b828111156133dd5782518290805190602001906133cd929190613283565b50916020019190600101906133af565b5b5090506133eb919061340c565b5090565b5b808211156134085760008160009055506001016133f0565b5090565b5b8082111561342c57600081816134239190613430565b5060010161340d565b5090565b50805461343c906143c3565b6000825580601f1061344e575061346d565b601f01602090049060005260206000209081019061346c91906133ef565b5b50565b6000604051905090565b600080fd5b600080fd5b600080fd5b600080fd5b6000601f19601f8301169050919050565b7f4e487b7100000000000000000000000000000000000000000000000000000000600052604160045260246000fd5b6134d78261348e565b810181811067ffffffffffffffff821117156134f6576134f561349f565b5b80604052505050565b6000613509613470565b905061351582826134ce565b919050565b600067ffffffffffffffff8211156135355761353461349f565b5b61353e8261348e565b9050602081019050919050565b82818337600083830152505050565b600061356d6135688461351a565b6134ff565b90508281526020810184848401111561358957613588613489565b5b61359484828561354b565b509392505050565b600082601f8301126135b1576135b0613484565b5b81356135c184826020860161355a565b91505092915050565b600080604083850312156135e1576135e061347a565b5b600083013567ffffffffffffffff8111156135ff576135fe61347f565b5b61360b8582860161359c565b925050602083013567ffffffffffffffff81111561362c5761362b61347f565b5b6136388582860161359c565b9150509250929050565b60008115159050919050565b61365781613642565b82525050565b6000602082019050613672600083018461364e565b92915050565b60006020828403121561368e5761368d61347a565b5b600082013567ffffffffffffffff8111156136ac576136ab61347f565b5b6136b88482850161359c565b91505092915050565b600073ffffffffffffffffffffffffffffffffffffffff82169050919050565b6000819050919050565b60006137066137016136fc846136c1565b6136e1565b6136c1565b9050919050565b6000613718826136eb565b9050919050565b600061372a8261370d565b9050919050565b61373a8161371f565b82525050565b60006020820190506137556000830184613731565b92915050565b6000819050919050565b61376e8161375b565b811461377957600080fd5b50565b60008135905061378b81613765565b92915050565b600080fd5b600080fd5b60008083601f8401126137b1576137b0613484565b5b8235905067ffffffffffffffff8111156137ce576137cd613791565b5b6020830191508360018202830111156137ea576137e9613796565b5b9250929050565b60008083601f84011261380757613806613484565b5b8235905067ffffffffffffffff81111561382457613823613791565b5b6020830191508360018202830111156138405761383f613796565b5b9250929050565b6000819050919050565b61385a81613847565b811461386557600080fd5b50565b60008135905061387781613851565b92915050565b60008060008060008060008060008060c08b8d0312156138a05761389f61347a565b5b60006138ae8d828e0161377c565b9a505060208b013567ffffffffffffffff8111156138cf576138ce61347f565b5b6138db8d828e0161379b565b995099505060408b013567ffffffffffffffff8111156138fe576138fd61347f565b5b61390a8d828e0161379b565b975097505060608b013567ffffffffffffffff81111561392d5761392c61347f565b5b6139398d828e016137f1565b955095505060808b013567ffffffffffffffff81111561395c5761395b61347f565b5b6139688d828e0161379b565b935093505060a061397b8d828e01613868565b9150509295989b9194979a5092959850565b600081519050919050565b600082825260208201905092915050565b60005b838110156139c75780820151818401526020810190506139ac565b838111156139d6576000848401525b50505050565b60006139e78261398d565b6139f18185613998565b9350613a018185602086016139a9565b613a0a8161348e565b840191505092915050565b60006020820190508181036000830152613a2f81846139dc565b905092915050565b6000613a42826136c1565b9050919050565b613a5281613a37565b82525050565b6000602082019050613a6d6000830184613a49565b92915050565b60008060408385031215613a8a57613a8961347a565b5b600083013567ffffffffffffffff811115613aa857613aa761347f565b5b613ab48582860161359c565b9250506020613ac585828601613868565b9150509250929050565b60008060008060008060006080888a031215613aee57613aed61347a565b5b6000613afc8a828b0161377c565b975050602088013567ffffffffffffffff811115613b1d57613b1c61347f565b5b613b298a828b0161379b565b9650965050604088013567ffffffffffffffff811115613b4c57613b4b61347f565b5b613b588a828b0161379b565b9450945050606088013567ffffffffffffffff811115613b7b57613b7a61347f565b5b613b878a828b016137f1565b925092505092959891949750929550565b613ba181613642565b8114613bac57600080fd5b50565b600081359050613bbe81613b98565b92915050565b600080600080600080600060e0888a031215613be357613be261347a565b5b600088013567ffffffffffffffff811115613c0157613c0061347f565b5b613c0d8a828b0161359c565b975050602088013567ffffffffffffffff811115613c2e57613c2d61347f565b5b613c3a8a828b0161359c565b9650506040613c4b8a828b01613868565b955050606088013567ffffffffffffffff811115613c6c57613c6b61347f565b5b613c788a828b0161359c565b9450506080613c898a828b01613baf565b93505060a088013567ffffffffffffffff811115613caa57613ca961347f565b5b613cb68a828b0161359c565b92505060c088013567ffffffffffffffff811115613cd757613cd661347f565b5b613ce38a828b0161359c565b91505092959891949750929550565b6000613cfd8261370d565b9050919050565b613d0d81613cf2565b82525050565b6000602082019050613d286000830184613d04565b92915050565b60006040820190508181036000830152613d4881856139dc565b90508181036020830152613d5c81846139dc565b90509392505050565b613d6e81613a37565b8114613d7957600080fd5b50565b600081359050613d8b81613d65565b92915050565b60008060408385031215613da857613da761347a565b5b6000613db685828601613d7c565b925050602083013567ffffffffffffffff811115613dd757613dd661347f565b5b613de38582860161359c565b9150509250929050565b60008060008060008060c08789031215613e0a57613e0961347a565b5b6000613e1889828a01613868565b9650506020613e2989828a01613868565b955050604087013567ffffffffffffffff811115613e4a57613e4961347f565b5b613e5689828a0161359c565b9450506060613e6789828a01613baf565b935050608087013567ffffffffffffffff811115613e8857613e8761347f565b5b613e9489828a0161359c565b92505060a087013567ffffffffffffffff811115613eb557613eb461347f565b5b613ec189828a0161359c565b9150509295509295509295565b60008060008060808587031215613ee857613ee761347a565b5b600085013567ffffffffffffffff811115613f0657613f0561347f565b5b613f128782880161359c565b945050602085013567ffffffffffffffff811115613f3357613f3261347f565b5b613f3f8782880161359c565b9350506040613f5087828801613868565b925050606085013567ffffffffffffffff811115613f7157613f7061347f565b5b613f7d8782880161359c565b91505092959194509250565b600080600080600060a08688031215613fa557613fa461347a565b5b6000613fb388828901613868565b955050602086013567ffffffffffffffff811115613fd457613fd361347f565b5b613fe08882890161359c565b9450506040613ff188828901613baf565b935050606086013567ffffffffffffffff8111156140125761401161347f565b5b61401e8882890161359c565b925050608086013567ffffffffffffffff81111561403f5761403e61347f565b5b61404b8882890161359c565b9150509295509295909350565b60006020828403121561406e5761406d61347a565b5b600061407c84828501613868565b91505092915050565b60008060006060848603121561409e5761409d61347a565b5b600084013567ffffffffffffffff8111156140bc576140bb61347f565b5b6140c88682870161359c565b935050602084013567ffffffffffffffff8111156140e9576140e861347f565b5b6140f58682870161359c565b925050604061410686828701613d7c565b9150509250925092565b6000602082840312156141265761412561347a565b5b600061413484828501613d7c565b91505092915050565b60006141488261370d565b9050919050565b6141588161413d565b82525050565b6000602082019050614173600083018461414f565b92915050565b61418281613847565b82525050565b600060208201905061419d6000830184614179565b92915050565b7f616374696f6e206f6e6c7920666f722061646d696e0000000000000000000000600082015250565b60006141d9601583613998565b91506141e4826141a3565b602082019050919050565b60006020820190508181036000830152614208816141cc565b9050919050565b60008151905061421e81613d65565b92915050565b60006020828403121561423a5761423961347a565b5b60006142488482850161420f565b91505092915050565b600081905092915050565b60006142688385614251565b935061427583858461354b565b82840190509392505050565b600061428e82848661425c565b91508190509392505050565b6142a38161375b565b82525050565b60006142b58385613998565b93506142c283858461354b565b6142cb8361348e565b840190509392505050565b600060c0820190506142eb600083018c61429a565b81810360208301526142fe818a8c6142a9565b9050818103604083015261431381888a6142a9565b9050614322606083018761429a565b81810360808301526143358185876142a9565b905061434460a0830184614179565b9a9950505050505050505050565b60008151905061436181613b98565b92915050565b60006020828403121561437d5761437c61347a565b5b600061438b84828501614352565b91505092915050565b7f4e487b7100000000000000000000000000000000000000000000000000000000600052602260045260246000fd5b600060028204905060018216806143db57607f821691505b602082108114156143ef576143ee614394565b5b50919050565b600081905092915050565b600061440b8261398d565b61441581856143f5565b93506144258185602086016139a9565b80840191505092915050565b600061443d8284614400565b915081905092915050565b600060608201905061445d6000830186613a49565b61446a6020830185613a49565b6144776040830184614179565b949350505050565b7f4e487b7100000000000000000000000000000000000000000000000000000000600052601160045260246000fd5b60006144b982613847565b91506144c483613847565b9250827fffffffffffffffffffffffffffffffffffffffffffffffffffffffffffffffff038211156144f9576144f861447f565b5b828201905092915050565b6000608082019050614519600083018961429a565b818103602083015261452c8187896142a9565b905081810360408301526145418185876142a9565b9050614550606083018461429a565b979650505050505050565b60006040820190506145706000830185613a49565b61457d6020830184614179565b9392505050565b60006060820190506145996000830186613a49565b81810360208301526145ab81856139dc565b90506145ba6040830184614179565b949350505050565b600060a0820190506145d76000830188614179565b81810360208301526145e981876139dc565b90506145f8604083018661364e565b818103606083015261460a81856139dc565b9050818103608083015261461e81846139dc565b90509695505050505050565b600081519050919050565b600082825260208201905092915050565b60006146518261462a565b61465b8185614635565b935061466b8185602086016139a9565b6146748161348e565b840191505092915050565b600060a0820190506146946000830188613a49565b81810360208301526146a681876139dc565b905081810360408301526146ba81866139dc565b905081810360608301526146ce8185614646565b90506146dd6080830184613a49565b9695505050505050565b6000606082019050818103600083015261470181866139dc565b9050818103602083015261471581856139dc565b905081810360408301526147298184614646565b9050949350505050565b7f4e487b7100000000000000000000000000000000000000000000000000000000600052603260045260246000fd5b60008190508160005260206000209050919050565b60008154614784816143c3565b61478e8186613998565b945060018216600081146147a957600181146147bb576147ee565b60ff19831686526020860193506147ee565b6147c485614762565b60005b838110156147e6578154818901526001820191506020810190506147c7565b808801955050505b50505092915050565b600060e08201905061480c600083018a613a49565b818103602083015261481e81896139dc565b9050818103604083015261483281886139dc565b905081810360608301526148468187614646565b9050818103608083015261485a8186614777565b905061486960a0830185614179565b61487660c0830184613a49565b98975050505050505050565b600060a082019050818103600083015261489c81886139dc565b905081810360208301526148b081876139dc565b905081810360408301526148c48186614646565b905081810360608301526148d88185614777565b90506148e76080830184614179565b9695505050505050565b60008190508160005260206000209050919050565b60008154614913816143c3565b61491d8186614251565b9450600182166000811461493857600181146149495761497c565b60ff1983168652818601935061497c565b614952856148f1565b60005b8381101561497457815481890152600182019150602081019050614955565b838801955050505b50505092915050565b60006149918284614906565b915081905092915050565b600081546149a9816143c3565b6149b381866143f5565b945060018216600081146149ce57600181146149df57614a12565b60ff19831686528186019350614a12565b6149e885614762565b60005b83811015614a0a578154818901526001820191506020810190506149eb565b838801955050505b50505092915050565b6000614a27828461499c565b915081905092915050565b6000614a3e83856143f5565b9350614a4b83858461354b565b82840190509392505050565b6000614a64828486614a32565b91508190509392505050565b6000606082019050614a85600083018661364e565b8181036020830152614a9781856139dc565b90508181036040830152614aab81846139dc565b9050949350505050565b600060ff82169050919050565b6000614acd82614ab5565b9150614ad883614ab5565b925082821015614aeb57614aea61447f565b5b828203905092915050565b6000614b0182613847565b9150614b0c83613847565b925082821015614b1f57614b1e61447f565b5b828203905092915050565b6000614b3582613847565b91507fffffffffffffffffffffffffffffffffffffffffffffffffffffffffffffffff821415614b6857614b6761447f565b5b600182019050919050565b60008160601b9050919050565b6000614b8b82614b73565b9050919050565b6000614b9d82614b80565b9050919050565b614bb5614bb082613a37565b614b92565b82525050565b6000614bc78284614ba4565b60148201915081905092915050565b6000614be182613847565b9150614bec83613847565b9250817fffffffffffffffffffffffffffffffffffffffffffffffffffffffffffffffff0483118215151615614c2557614c2461447f565b5b82820290509291505056fea264697066735822122032e25fcfaf2bd794e855deed0bf6fb50567f44ffdc4b20274db4c5e38edc6c2664736f6c63430008090033",
      "opcodes": "PUSH1 0xC0 PUSH1 0x40 MSTORE CALLVALUE DUP1 ISZERO PUSH3 0x11 JUMPI PUSH1 0x0 DUP1 REVERT JUMPDEST POP PUSH1 0x40 MLOAD PUSH3 0x51C2 CODESIZE SUB DUP1 PUSH3 0x51C2 DUP4 CODECOPY DUP2 DUP2 ADD PUSH1 0x40 MSTORE DUP2 ADD SWAP1 PUSH3 0x37 SWAP2 SWAP1 PUSH3 0x41E JUMP JUMPDEST DUP3 PUSH1 0x0 PUSH20 0xFFFFFFFFFFFFFFFFFFFFFFFFFFFFFFFFFFFFFFFF AND DUP2 PUSH20 0xFFFFFFFFFFFFFFFFFFFFFFFFFFFFFFFFFFFFFFFF AND EQ ISZERO PUSH3 0xA0 JUMPI PUSH1 0x40 MLOAD PUSH32 0xE6C4247B00000000000000000000000000000000000000000000000000000000 DUP2 MSTORE PUSH1 0x4 ADD PUSH1 0x40 MLOAD DUP1 SWAP2 SUB SWAP1 REVERT JUMPDEST DUP1 PUSH20 0xFFFFFFFFFFFFFFFFFFFFFFFFFFFFFFFFFFFFFFFF AND PUSH1 0x80 DUP2 PUSH20 0xFFFFFFFFFFFFFFFFFFFFFFFFFFFFFFFFFFFFFFFF AND DUP2 MSTORE POP POP POP DUP2 PUSH20 0xFFFFFFFFFFFFFFFFFFFFFFFFFFFFFFFFFFFFFFFF AND PUSH1 0xA0 DUP2 PUSH20 0xFFFFFFFFFFFFFFFFFFFFFFFFFFFFFFFFFFFFFFFF AND DUP2 MSTORE POP POP CALLER PUSH1 0x1 PUSH1 0x0 PUSH2 0x100 EXP DUP2 SLOAD DUP2 PUSH20 0xFFFFFFFFFFFFFFFFFFFFFFFFFFFFFFFFFFFFFFFF MUL NOT AND SWAP1 DUP4 PUSH20 0xFFFFFFFFFFFFFFFFFFFFFFFFFFFFFFFFFFFFFFFF AND MUL OR SWAP1 SSTORE POP DUP1 PUSH1 0x0 SWAP1 DUP1 MLOAD SWAP1 PUSH1 0x20 ADD SWAP1 PUSH3 0x162 SWAP3 SWAP2 SWAP1 PUSH3 0x16C JUMP JUMPDEST POP POP POP POP PUSH3 0x4FE JUMP JUMPDEST DUP3 DUP1 SLOAD PUSH3 0x17A SWAP1 PUSH3 0x4C8 JUMP JUMPDEST SWAP1 PUSH1 0x0 MSTORE PUSH1 0x20 PUSH1 0x0 KECCAK256 SWAP1 PUSH1 0x1F ADD PUSH1 0x20 SWAP1 DIV DUP2 ADD SWAP3 DUP3 PUSH3 0x19E JUMPI PUSH1 0x0 DUP6 SSTORE PUSH3 0x1EA JUMP JUMPDEST DUP3 PUSH1 0x1F LT PUSH3 0x1B9 JUMPI DUP1 MLOAD PUSH1 0xFF NOT AND DUP4 DUP1 ADD OR DUP6 SSTORE PUSH3 0x1EA JUMP JUMPDEST DUP3 DUP1 ADD PUSH1 0x1 ADD DUP6 SSTORE DUP3 ISZERO PUSH3 0x1EA JUMPI SWAP2 DUP3 ADD JUMPDEST DUP3 DUP2 GT ISZERO PUSH3 0x1E9 JUMPI DUP3 MLOAD DUP3 SSTORE SWAP2 PUSH1 0x20 ADD SWAP2 SWAP1 PUSH1 0x1 ADD SWAP1 PUSH3 0x1CC JUMP JUMPDEST JUMPDEST POP SWAP1 POP PUSH3 0x1F9 SWAP2 SWAP1 PUSH3 0x1FD JUMP JUMPDEST POP SWAP1 JUMP JUMPDEST JUMPDEST DUP1 DUP3 GT ISZERO PUSH3 0x218 JUMPI PUSH1 0x0 DUP2 PUSH1 0x0 SWAP1 SSTORE POP PUSH1 0x1 ADD PUSH3 0x1FE JUMP JUMPDEST POP SWAP1 JUMP JUMPDEST PUSH1 0x0 PUSH1 0x40 MLOAD SWAP1 POP SWAP1 JUMP JUMPDEST PUSH1 0x0 DUP1 REVERT JUMPDEST PUSH1 0x0 DUP1 REVERT JUMPDEST PUSH1 0x0 PUSH20 0xFFFFFFFFFFFFFFFFFFFFFFFFFFFFFFFFFFFFFFFF DUP3 AND SWAP1 POP SWAP2 SWAP1 POP JUMP JUMPDEST PUSH1 0x0 PUSH3 0x25D DUP3 PUSH3 0x230 JUMP JUMPDEST SWAP1 POP SWAP2 SWAP1 POP JUMP JUMPDEST PUSH3 0x26F DUP2 PUSH3 0x250 JUMP JUMPDEST DUP2 EQ PUSH3 0x27B JUMPI PUSH1 0x0 DUP1 REVERT JUMPDEST POP JUMP JUMPDEST PUSH1 0x0 DUP2 MLOAD SWAP1 POP PUSH3 0x28F DUP2 PUSH3 0x264 JUMP JUMPDEST SWAP3 SWAP2 POP POP JUMP JUMPDEST PUSH1 0x0 DUP1 REVERT JUMPDEST PUSH1 0x0 DUP1 REVERT JUMPDEST PUSH1 0x0 PUSH1 0x1F NOT PUSH1 0x1F DUP4 ADD AND SWAP1 POP SWAP2 SWAP1 POP JUMP JUMPDEST PUSH32 0x4E487B7100000000000000000000000000000000000000000000000000000000 PUSH1 0x0 MSTORE PUSH1 0x41 PUSH1 0x4 MSTORE PUSH1 0x24 PUSH1 0x0 REVERT JUMPDEST PUSH3 0x2EA DUP3 PUSH3 0x29F JUMP JUMPDEST DUP2 ADD DUP2 DUP2 LT PUSH8 0xFFFFFFFFFFFFFFFF DUP3 GT OR ISZERO PUSH3 0x30C JUMPI PUSH3 0x30B PUSH3 0x2B0 JUMP JUMPDEST JUMPDEST DUP1 PUSH1 0x40 MSTORE POP POP POP JUMP JUMPDEST PUSH1 0x0 PUSH3 0x321 PUSH3 0x21C JUMP JUMPDEST SWAP1 POP PUSH3 0x32F DUP3 DUP3 PUSH3 0x2DF JUMP JUMPDEST SWAP2 SWAP1 POP JUMP JUMPDEST PUSH1 0x0 PUSH8 0xFFFFFFFFFFFFFFFF DUP3 GT ISZERO PUSH3 0x352 JUMPI PUSH3 0x351 PUSH3 0x2B0 JUMP JUMPDEST JUMPDEST PUSH3 0x35D DUP3 PUSH3 0x29F JUMP JUMPDEST SWAP1 POP PUSH1 0x20 DUP2 ADD SWAP1 POP SWAP2 SWAP1 POP JUMP JUMPDEST PUSH1 0x0 JUMPDEST DUP4 DUP2 LT ISZERO PUSH3 0x38A JUMPI DUP1 DUP3 ADD MLOAD DUP2 DUP5 ADD MSTORE PUSH1 0x20 DUP2 ADD SWAP1 POP PUSH3 0x36D JUMP JUMPDEST DUP4 DUP2 GT ISZERO PUSH3 0x39A JUMPI PUSH1 0x0 DUP5 DUP5 ADD MSTORE JUMPDEST POP POP POP POP JUMP JUMPDEST PUSH1 0x0 PUSH3 0x3B7 PUSH3 0x3B1 DUP5 PUSH3 0x334 JUMP JUMPDEST PUSH3 0x315 JUMP JUMPDEST SWAP1 POP DUP3 DUP2 MSTORE PUSH1 0x20 DUP2 ADD DUP5 DUP5 DUP5 ADD GT ISZERO PUSH3 0x3D6 JUMPI PUSH3 0x3D5 PUSH3 0x29A JUMP JUMPDEST JUMPDEST PUSH3 0x3E3 DUP5 DUP3 DUP6 PUSH3 0x36A JUMP JUMPDEST POP SWAP4 SWAP3 POP POP POP JUMP JUMPDEST PUSH1 0x0 DUP3 PUSH1 0x1F DUP4 ADD SLT PUSH3 0x403 JUMPI PUSH3 0x402 PUSH3 0x295 JUMP JUMPDEST JUMPDEST DUP2 MLOAD PUSH3 0x415 DUP5 DUP3 PUSH1 0x20 DUP7 ADD PUSH3 0x3A0 JUMP JUMPDEST SWAP2 POP POP SWAP3 SWAP2 POP POP JUMP JUMPDEST PUSH1 0x0 DUP1 PUSH1 0x0 PUSH1 0x60 DUP5 DUP7 SUB SLT ISZERO PUSH3 0x43A JUMPI PUSH3 0x439 PUSH3 0x226 JUMP JUMPDEST JUMPDEST PUSH1 0x0 PUSH3 0x44A DUP7 DUP3 DUP8 ADD PUSH3 0x27E JUMP JUMPDEST SWAP4 POP POP PUSH1 0x20 PUSH3 0x45D DUP7 DUP3 DUP8 ADD PUSH3 0x27E JUMP JUMPDEST SWAP3 POP POP PUSH1 0x40 DUP5 ADD MLOAD PUSH8 0xFFFFFFFFFFFFFFFF DUP2 GT ISZERO PUSH3 0x481 JUMPI PUSH3 0x480 PUSH3 0x22B JUMP JUMPDEST JUMPDEST PUSH3 0x48F DUP7 DUP3 DUP8 ADD PUSH3 0x3EB JUMP JUMPDEST SWAP2 POP POP SWAP3 POP SWAP3 POP SWAP3 JUMP JUMPDEST PUSH32 0x4E487B7100000000000000000000000000000000000000000000000000000000 PUSH1 0x0 MSTORE PUSH1 0x22 PUSH1 0x4 MSTORE PUSH1 0x24 PUSH1 0x0 REVERT JUMPDEST PUSH1 0x0 PUSH1 0x2 DUP3 DIV SWAP1 POP PUSH1 0x1 DUP3 AND DUP1 PUSH3 0x4E1 JUMPI PUSH1 0x7F DUP3 AND SWAP2 POP JUMPDEST PUSH1 0x20 DUP3 LT DUP2 EQ ISZERO PUSH3 0x4F8 JUMPI PUSH3 0x4F7 PUSH3 0x499 JUMP JUMPDEST JUMPDEST POP SWAP2 SWAP1 POP JUMP JUMPDEST PUSH1 0x80 MLOAD PUSH1 0xA0 MLOAD PUSH2 0x4C66 PUSH3 0x55C PUSH1 0x0 CODECOPY PUSH1 0x0 DUP2 DUP2 PUSH2 0x1275 ADD MSTORE DUP2 DUP2 PUSH2 0x13A3 ADD MSTORE PUSH2 0x1947 ADD MSTORE PUSH1 0x0 DUP2 DUP2 PUSH2 0x901 ADD MSTORE DUP2 DUP2 PUSH2 0xA67 ADD MSTORE DUP2 DUP2 PUSH2 0xADD ADD MSTORE DUP2 DUP2 PUSH2 0xE67 ADD MSTORE DUP2 DUP2 PUSH2 0x130A ADD MSTORE DUP2 DUP2 PUSH2 0x1888 ADD MSTORE PUSH2 0x19E1 ADD MSTORE PUSH2 0x4C66 PUSH1 0x0 RETURN INVALID PUSH1 0x80 PUSH1 0x40 MSTORE PUSH1 0x4 CALLDATASIZE LT PUSH2 0x1F9 JUMPI PUSH1 0x0 CALLDATALOAD PUSH1 0xE0 SHR DUP1 PUSH4 0x86A1F858 GT PUSH2 0x10D JUMPI DUP1 PUSH4 0xC0D78655 GT PUSH2 0xA0 JUMPI DUP1 PUSH4 0xD07767A6 GT PUSH2 0x6F JUMPI DUP1 PUSH4 0xD07767A6 EQ PUSH2 0x707 JUMPI DUP1 PUSH4 0xDBCF0918 EQ PUSH2 0x732 JUMPI DUP1 PUSH4 0xE541B13C EQ PUSH2 0x76F JUMPI DUP1 PUSH4 0xF2DBD96C EQ PUSH2 0x7AC JUMPI DUP1 PUSH4 0xF851A440 EQ PUSH2 0x7E9 JUMPI PUSH2 0x1F9 JUMP JUMPDEST DUP1 PUSH4 0xC0D78655 EQ PUSH2 0x64A JUMPI DUP1 PUSH4 0xC3DFDAE6 EQ PUSH2 0x673 JUMPI DUP1 PUSH4 0xC4802802 EQ PUSH2 0x69E JUMPI DUP1 PUSH4 0xC9E96F91 EQ PUSH2 0x6DC JUMPI PUSH2 0x1F9 JUMP JUMPDEST DUP1 PUSH4 0xAE48DDBE GT PUSH2 0xDC JUMPI DUP1 PUSH4 0xAE48DDBE EQ PUSH2 0x5AA JUMPI DUP1 PUSH4 0xB0FA8444 EQ PUSH2 0x5E7 JUMPI DUP1 PUSH4 0xB41B7A83 EQ PUSH2 0x612 JUMPI DUP1 PUSH4 0xB79C4CCA EQ PUSH2 0x62E JUMPI PUSH2 0x1F9 JUMP JUMPDEST DUP1 PUSH4 0x86A1F858 EQ PUSH2 0x519 JUMPI DUP1 PUSH4 0x879D5AF0 EQ PUSH2 0x535 JUMPI DUP1 PUSH4 0x8F405AC6 EQ PUSH2 0x551 JUMPI DUP1 PUSH4 0x91003578 EQ PUSH2 0x58E JUMPI PUSH2 0x1F9 JUMP JUMPDEST DUP1 PUSH4 0x45CD2699 GT PUSH2 0x190 JUMPI DUP1 PUSH4 0x6A22D8CC GT PUSH2 0x15F JUMPI DUP1 PUSH4 0x6A22D8CC EQ PUSH2 0x40D JUMPI DUP1 PUSH4 0x6D20931A EQ PUSH2 0x438 JUMPI DUP1 PUSH4 0x72AA03AB EQ PUSH2 0x475 JUMPI DUP1 PUSH4 0x8164EF53 EQ PUSH2 0x4B2 JUMPI DUP1 PUSH4 0x85CD0756 EQ PUSH2 0x4F0 JUMPI PUSH2 0x1F9 JUMP JUMPDEST DUP1 PUSH4 0x45CD2699 EQ PUSH2 0x376 JUMPI DUP1 PUSH4 0x49160658 EQ PUSH2 0x39F JUMPI DUP1 PUSH4 0x553E2CFC EQ PUSH2 0x3C8 JUMPI DUP1 PUSH4 0x5C51474E EQ PUSH2 0x3F1 JUMPI PUSH2 0x1F9 JUMP JUMPDEST DUP1 PUSH4 0x1A98B2E0 GT PUSH2 0x1CC JUMPI DUP1 PUSH4 0x1A98B2E0 EQ PUSH2 0x2CC JUMPI DUP1 PUSH4 0x1C6FFA46 EQ PUSH2 0x2F5 JUMPI DUP1 PUSH4 0x1C93B03A EQ PUSH2 0x320 JUMPI DUP1 PUSH4 0x3268CC56 EQ PUSH2 0x34B JUMPI PUSH2 0x1F9 JUMP JUMPDEST DUP1 PUSH4 0x1A7644F EQ PUSH2 0x1FE JUMPI DUP1 PUSH4 0x6F6F867 EQ PUSH2 0x23B JUMPI DUP1 PUSH4 0x116191B6 EQ PUSH2 0x264 JUMPI DUP1 PUSH4 0x11F42388 EQ PUSH2 0x28F JUMPI JUMPDEST PUSH1 0x0 DUP1 REVERT JUMPDEST CALLVALUE DUP1 ISZERO PUSH2 0x20A JUMPI PUSH1 0x0 DUP1 REVERT JUMPDEST POP PUSH2 0x225 PUSH1 0x4 DUP1 CALLDATASIZE SUB DUP2 ADD SWAP1 PUSH2 0x220 SWAP2 SWAP1 PUSH2 0x35CA JUMP JUMPDEST PUSH2 0x814 JUMP JUMPDEST PUSH1 0x40 MLOAD PUSH2 0x232 SWAP2 SWAP1 PUSH2 0x365D JUMP JUMPDEST PUSH1 0x40 MLOAD DUP1 SWAP2 SUB SWAP1 RETURN JUMPDEST CALLVALUE DUP1 ISZERO PUSH2 0x247 JUMPI PUSH1 0x0 DUP1 REVERT JUMPDEST POP PUSH2 0x262 PUSH1 0x4 DUP1 CALLDATASIZE SUB DUP2 ADD SWAP1 PUSH2 0x25D SWAP2 SWAP1 PUSH2 0x3678 JUMP JUMPDEST PUSH2 0x86F JUMP JUMPDEST STOP JUMPDEST CALLVALUE DUP1 ISZERO PUSH2 0x270 JUMPI PUSH1 0x0 DUP1 REVERT JUMPDEST POP PUSH2 0x279 PUSH2 0xA65 JUMP JUMPDEST PUSH1 0x40 MLOAD PUSH2 0x286 SWAP2 SWAP1 PUSH2 0x3740 JUMP JUMPDEST PUSH1 0x40 MLOAD DUP1 SWAP2 SUB SWAP1 RETURN JUMPDEST CALLVALUE DUP1 ISZERO PUSH2 0x29B JUMPI PUSH1 0x0 DUP1 REVERT JUMPDEST POP PUSH2 0x2B6 PUSH1 0x4 DUP1 CALLDATASIZE SUB DUP2 ADD SWAP1 PUSH2 0x2B1 SWAP2 SWAP1 PUSH2 0x3678 JUMP JUMPDEST PUSH2 0xA89 JUMP JUMPDEST PUSH1 0x40 MLOAD PUSH2 0x2C3 SWAP2 SWAP1 PUSH2 0x365D JUMP JUMPDEST PUSH1 0x40 MLOAD DUP1 SWAP2 SUB SWAP1 RETURN JUMPDEST CALLVALUE DUP1 ISZERO PUSH2 0x2D8 JUMPI PUSH1 0x0 DUP1 REVERT JUMPDEST POP PUSH2 0x2F3 PUSH1 0x4 DUP1 CALLDATASIZE SUB DUP2 ADD SWAP1 PUSH2 0x2EE SWAP2 SWAP1 PUSH2 0x387D JUMP JUMPDEST PUSH2 0xABF JUMP JUMPDEST STOP JUMPDEST CALLVALUE DUP1 ISZERO PUSH2 0x301 JUMPI PUSH1 0x0 DUP1 REVERT JUMPDEST POP PUSH2 0x30A PUSH2 0xBEA JUMP JUMPDEST PUSH1 0x40 MLOAD PUSH2 0x317 SWAP2 SWAP1 PUSH2 0x3A15 JUMP JUMPDEST PUSH1 0x40 MLOAD DUP1 SWAP2 SUB SWAP1 RETURN JUMPDEST CALLVALUE DUP1 ISZERO PUSH2 0x32C JUMPI PUSH1 0x0 DUP1 REVERT JUMPDEST POP PUSH2 0x335 PUSH2 0xC78 JUMP JUMPDEST PUSH1 0x40 MLOAD PUSH2 0x342 SWAP2 SWAP1 PUSH2 0x3A15 JUMP JUMPDEST PUSH1 0x40 MLOAD DUP1 SWAP2 SUB SWAP1 RETURN JUMPDEST CALLVALUE DUP1 ISZERO PUSH2 0x357 JUMPI PUSH1 0x0 DUP1 REVERT JUMPDEST POP PUSH2 0x360 PUSH2 0xD06 JUMP JUMPDEST PUSH1 0x40 MLOAD PUSH2 0x36D SWAP2 SWAP1 PUSH2 0x3A58 JUMP JUMPDEST PUSH1 0x40 MLOAD DUP1 SWAP2 SUB SWAP1 RETURN JUMPDEST CALLVALUE DUP1 ISZERO PUSH2 0x382 JUMPI PUSH1 0x0 DUP1 REVERT JUMPDEST POP PUSH2 0x39D PUSH1 0x4 DUP1 CALLDATASIZE SUB DUP2 ADD SWAP1 PUSH2 0x398 SWAP2 SWAP1 PUSH2 0x3A73 JUMP JUMPDEST PUSH2 0xD2C JUMP JUMPDEST STOP JUMPDEST CALLVALUE DUP1 ISZERO PUSH2 0x3AB JUMPI PUSH1 0x0 DUP1 REVERT JUMPDEST POP PUSH2 0x3C6 PUSH1 0x4 DUP1 CALLDATASIZE SUB DUP2 ADD SWAP1 PUSH2 0x3C1 SWAP2 SWAP1 PUSH2 0x3ACF JUMP JUMPDEST PUSH2 0xE49 JUMP JUMPDEST STOP JUMPDEST CALLVALUE DUP1 ISZERO PUSH2 0x3D4 JUMPI PUSH1 0x0 DUP1 REVERT JUMPDEST POP PUSH2 0x3EF PUSH1 0x4 DUP1 CALLDATASIZE SUB DUP2 ADD SWAP1 PUSH2 0x3EA SWAP2 SWAP1 PUSH2 0x3678 JUMP JUMPDEST PUSH2 0xF68 JUMP JUMPDEST STOP JUMPDEST PUSH2 0x40B PUSH1 0x4 DUP1 CALLDATASIZE SUB DUP2 ADD SWAP1 PUSH2 0x406 SWAP2 SWAP1 PUSH2 0x3BC4 JUMP JUMPDEST PUSH2 0x123E JUMP JUMPDEST STOP JUMPDEST CALLVALUE DUP1 ISZERO PUSH2 0x419 JUMPI PUSH1 0x0 DUP1 REVERT JUMPDEST POP PUSH2 0x422 PUSH2 0x13A1 JUMP JUMPDEST PUSH1 0x40 MLOAD PUSH2 0x42F SWAP2 SWAP1 PUSH2 0x3D13 JUMP JUMPDEST PUSH1 0x40 MLOAD DUP1 SWAP2 SUB SWAP1 RETURN JUMPDEST CALLVALUE DUP1 ISZERO PUSH2 0x444 JUMPI PUSH1 0x0 DUP1 REVERT JUMPDEST POP PUSH2 0x45F PUSH1 0x4 DUP1 CALLDATASIZE SUB DUP2 ADD SWAP1 PUSH2 0x45A SWAP2 SWAP1 PUSH2 0x3678 JUMP JUMPDEST PUSH2 0x13C5 JUMP JUMPDEST PUSH1 0x40 MLOAD PUSH2 0x46C SWAP2 SWAP1 PUSH2 0x365D JUMP JUMPDEST PUSH1 0x40 MLOAD DUP1 SWAP2 SUB SWAP1 RETURN JUMPDEST CALLVALUE DUP1 ISZERO PUSH2 0x481 JUMPI PUSH1 0x0 DUP1 REVERT JUMPDEST POP PUSH2 0x49C PUSH1 0x4 DUP1 CALLDATASIZE SUB DUP2 ADD SWAP1 PUSH2 0x497 SWAP2 SWAP1 PUSH2 0x3678 JUMP JUMPDEST PUSH2 0x13FB JUMP JUMPDEST PUSH1 0x40 MLOAD PUSH2 0x4A9 SWAP2 SWAP1 PUSH2 0x3A58 JUMP JUMPDEST PUSH1 0x40 MLOAD DUP1 SWAP2 SUB SWAP1 RETURN JUMPDEST CALLVALUE DUP1 ISZERO PUSH2 0x4BE JUMPI PUSH1 0x0 DUP1 REVERT JUMPDEST POP PUSH2 0x4D9 PUSH1 0x4 DUP1 CALLDATASIZE SUB DUP2 ADD SWAP1 PUSH2 0x4D4 SWAP2 SWAP1 PUSH2 0x3678 JUMP JUMPDEST PUSH2 0x1444 JUMP JUMPDEST PUSH1 0x40 MLOAD PUSH2 0x4E7 SWAP3 SWAP2 SWAP1 PUSH2 0x3D2E JUMP JUMPDEST PUSH1 0x40 MLOAD DUP1 SWAP2 SUB SWAP1 RETURN JUMPDEST CALLVALUE DUP1 ISZERO PUSH2 0x4FC JUMPI PUSH1 0x0 DUP1 REVERT JUMPDEST POP PUSH2 0x517 PUSH1 0x4 DUP1 CALLDATASIZE SUB DUP2 ADD SWAP1 PUSH2 0x512 SWAP2 SWAP1 PUSH2 0x3D91 JUMP JUMPDEST PUSH2 0x158E JUMP JUMPDEST STOP JUMPDEST PUSH2 0x533 PUSH1 0x4 DUP1 CALLDATASIZE SUB DUP2 ADD SWAP1 PUSH2 0x52E SWAP2 SWAP1 PUSH2 0x3DED JUMP JUMPDEST PUSH2 0x1723 JUMP JUMPDEST STOP JUMPDEST PUSH2 0x54F PUSH1 0x4 DUP1 CALLDATASIZE SUB DUP2 ADD SWAP1 PUSH2 0x54A SWAP2 SWAP1 PUSH2 0x3ECE JUMP JUMPDEST PUSH2 0x1848 JUMP JUMPDEST STOP JUMPDEST CALLVALUE DUP1 ISZERO PUSH2 0x55D JUMPI PUSH1 0x0 DUP1 REVERT JUMPDEST POP PUSH2 0x578 PUSH1 0x4 DUP1 CALLDATASIZE SUB DUP2 ADD SWAP1 PUSH2 0x573 SWAP2 SWAP1 PUSH2 0x3678 JUMP JUMPDEST PUSH2 0x1A7A JUMP JUMPDEST PUSH1 0x40 MLOAD PUSH2 0x585 SWAP2 SWAP1 PUSH2 0x365D JUMP JUMPDEST PUSH1 0x40 MLOAD DUP1 SWAP2 SUB SWAP1 RETURN JUMPDEST PUSH2 0x5A8 PUSH1 0x4 DUP1 CALLDATASIZE SUB DUP2 ADD SWAP1 PUSH2 0x5A3 SWAP2 SWAP1 PUSH2 0x3F89 JUMP JUMPDEST PUSH2 0x1AB0 JUMP JUMPDEST STOP JUMPDEST CALLVALUE DUP1 ISZERO PUSH2 0x5B6 JUMPI PUSH1 0x0 DUP1 REVERT JUMPDEST POP PUSH2 0x5D1 PUSH1 0x4 DUP1 CALLDATASIZE SUB DUP2 ADD SWAP1 PUSH2 0x5CC SWAP2 SWAP1 PUSH2 0x4058 JUMP JUMPDEST PUSH2 0x1B9E JUMP JUMPDEST PUSH1 0x40 MLOAD PUSH2 0x5DE SWAP2 SWAP1 PUSH2 0x3A15 JUMP JUMPDEST PUSH1 0x40 MLOAD DUP1 SWAP2 SUB SWAP1 RETURN JUMPDEST CALLVALUE DUP1 ISZERO PUSH2 0x5F3 JUMPI PUSH1 0x0 DUP1 REVERT JUMPDEST POP PUSH2 0x5FC PUSH2 0x1C4A JUMP JUMPDEST PUSH1 0x40 MLOAD PUSH2 0x609 SWAP2 SWAP1 PUSH2 0x3A15 JUMP JUMPDEST PUSH1 0x40 MLOAD DUP1 SWAP2 SUB SWAP1 RETURN JUMPDEST PUSH2 0x62C PUSH1 0x4 DUP1 CALLDATASIZE SUB DUP2 ADD SWAP1 PUSH2 0x627 SWAP2 SWAP1 PUSH2 0x4085 JUMP JUMPDEST PUSH2 0x1CD8 JUMP JUMPDEST STOP JUMPDEST PUSH2 0x648 PUSH1 0x4 DUP1 CALLDATASIZE SUB DUP2 ADD SWAP1 PUSH2 0x643 SWAP2 SWAP1 PUSH2 0x3678 JUMP JUMPDEST PUSH2 0x1D80 JUMP JUMPDEST STOP JUMPDEST CALLVALUE DUP1 ISZERO PUSH2 0x656 JUMPI PUSH1 0x0 DUP1 REVERT JUMPDEST POP PUSH2 0x671 PUSH1 0x4 DUP1 CALLDATASIZE SUB DUP2 ADD SWAP1 PUSH2 0x66C SWAP2 SWAP1 PUSH2 0x4110 JUMP JUMPDEST PUSH2 0x1F00 JUMP JUMPDEST STOP JUMPDEST CALLVALUE DUP1 ISZERO PUSH2 0x67F JUMPI PUSH1 0x0 DUP1 REVERT JUMPDEST POP PUSH2 0x688 PUSH2 0x2015 JUMP JUMPDEST PUSH1 0x40 MLOAD PUSH2 0x695 SWAP2 SWAP1 PUSH2 0x415E JUMP JUMPDEST PUSH1 0x40 MLOAD DUP1 SWAP2 SUB SWAP1 RETURN JUMPDEST CALLVALUE DUP1 ISZERO PUSH2 0x6AA JUMPI PUSH1 0x0 DUP1 REVERT JUMPDEST POP PUSH2 0x6C5 PUSH1 0x4 DUP1 CALLDATASIZE SUB DUP2 ADD SWAP1 PUSH2 0x6C0 SWAP2 SWAP1 PUSH2 0x35CA JUMP JUMPDEST PUSH2 0x203B JUMP JUMPDEST PUSH1 0x40 MLOAD PUSH2 0x6D3 SWAP3 SWAP2 SWAP1 PUSH2 0x3D2E JUMP JUMPDEST PUSH1 0x40 MLOAD DUP1 SWAP2 SUB SWAP1 RETURN JUMPDEST CALLVALUE DUP1 ISZERO PUSH2 0x6E8 JUMPI PUSH1 0x0 DUP1 REVERT JUMPDEST POP PUSH2 0x6F1 PUSH2 0x21A8 JUMP JUMPDEST PUSH1 0x40 MLOAD PUSH2 0x6FE SWAP2 SWAP1 PUSH2 0x3A58 JUMP JUMPDEST PUSH1 0x40 MLOAD DUP1 SWAP2 SUB SWAP1 RETURN JUMPDEST CALLVALUE DUP1 ISZERO PUSH2 0x713 JUMPI PUSH1 0x0 DUP1 REVERT JUMPDEST POP PUSH2 0x71C PUSH2 0x21CE JUMP JUMPDEST PUSH1 0x40 MLOAD PUSH2 0x729 SWAP2 SWAP1 PUSH2 0x3A15 JUMP JUMPDEST PUSH1 0x40 MLOAD DUP1 SWAP2 SUB SWAP1 RETURN JUMPDEST CALLVALUE DUP1 ISZERO PUSH2 0x73E JUMPI PUSH1 0x0 DUP1 REVERT JUMPDEST POP PUSH2 0x759 PUSH1 0x4 DUP1 CALLDATASIZE SUB DUP2 ADD SWAP1 PUSH2 0x754 SWAP2 SWAP1 PUSH2 0x35CA JUMP JUMPDEST PUSH2 0x225C JUMP JUMPDEST PUSH1 0x40 MLOAD PUSH2 0x766 SWAP2 SWAP1 PUSH2 0x365D JUMP JUMPDEST PUSH1 0x40 MLOAD DUP1 SWAP2 SUB SWAP1 RETURN JUMPDEST CALLVALUE DUP1 ISZERO PUSH2 0x77B JUMPI PUSH1 0x0 DUP1 REVERT JUMPDEST POP PUSH2 0x796 PUSH1 0x4 DUP1 CALLDATASIZE SUB DUP2 ADD SWAP1 PUSH2 0x791 SWAP2 SWAP1 PUSH2 0x4058 JUMP JUMPDEST PUSH2 0x22B7 JUMP JUMPDEST PUSH1 0x40 MLOAD PUSH2 0x7A3 SWAP2 SWAP1 PUSH2 0x3A15 JUMP JUMPDEST PUSH1 0x40 MLOAD DUP1 SWAP2 SUB SWAP1 RETURN JUMPDEST CALLVALUE DUP1 ISZERO PUSH2 0x7B8 JUMPI PUSH1 0x0 DUP1 REVERT JUMPDEST POP PUSH2 0x7D3 PUSH1 0x4 DUP1 CALLDATASIZE SUB DUP2 ADD SWAP1 PUSH2 0x7CE SWAP2 SWAP1 PUSH2 0x3678 JUMP JUMPDEST PUSH2 0x2363 JUMP JUMPDEST PUSH1 0x40 MLOAD PUSH2 0x7E0 SWAP2 SWAP1 PUSH2 0x4188 JUMP JUMPDEST PUSH1 0x40 MLOAD DUP1 SWAP2 SUB SWAP1 RETURN JUMPDEST CALLVALUE DUP1 ISZERO PUSH2 0x7F5 JUMPI PUSH1 0x0 DUP1 REVERT JUMPDEST POP PUSH2 0x7FE PUSH2 0x2391 JUMP JUMPDEST PUSH1 0x40 MLOAD PUSH2 0x80B SWAP2 SWAP1 PUSH2 0x3A58 JUMP JUMPDEST PUSH1 0x40 MLOAD DUP1 SWAP2 SUB SWAP1 RETURN JUMPDEST PUSH1 0x13 DUP3 DUP1 MLOAD PUSH1 0x20 DUP2 ADD DUP3 ADD DUP1 MLOAD DUP5 DUP3 MSTORE PUSH1 0x20 DUP4 ADD PUSH1 0x20 DUP6 ADD KECCAK256 DUP2 DUP4 MSTORE DUP1 SWAP6 POP POP POP POP POP POP DUP2 DUP1 MLOAD PUSH1 0x20 DUP2 ADD DUP3 ADD DUP1 MLOAD DUP5 DUP3 MSTORE PUSH1 0x20 DUP4 ADD PUSH1 0x20 DUP6 ADD KECCAK256 DUP2 DUP4 MSTORE DUP1 SWAP6 POP POP POP POP POP POP PUSH1 0x0 SWAP2 POP SWAP2 POP SWAP1 SLOAD SWAP1 PUSH2 0x100 EXP SWAP1 DIV PUSH1 0xFF AND DUP2 JUMP JUMPDEST PUSH1 0x1 PUSH1 0x0 SWAP1 SLOAD SWAP1 PUSH2 0x100 EXP SWAP1 DIV PUSH20 0xFFFFFFFFFFFFFFFFFFFFFFFFFFFFFFFFFFFFFFFF AND PUSH20 0xFFFFFFFFFFFFFFFFFFFFFFFFFFFFFFFFFFFFFFFF AND CALLER PUSH20 0xFFFFFFFFFFFFFFFFFFFFFFFFFFFFFFFFFFFFFFFF AND EQ PUSH2 0x8FF JUMPI PUSH1 0x40 MLOAD PUSH32 0x8C379A000000000000000000000000000000000000000000000000000000000 DUP2 MSTORE PUSH1 0x4 ADD PUSH2 0x8F6 SWAP1 PUSH2 0x41EF JUMP JUMPDEST PUSH1 0x40 MLOAD DUP1 SWAP2 SUB SWAP1 REVERT JUMPDEST PUSH32 0x0 PUSH20 0xFFFFFFFFFFFFFFFFFFFFFFFFFFFFFFFFFFFFFFFF AND PUSH4 0x935B13F6 DUP3 PUSH1 0x40 MLOAD DUP3 PUSH4 0xFFFFFFFF AND PUSH1 0xE0 SHL DUP2 MSTORE PUSH1 0x4 ADD PUSH2 0x958 SWAP2 SWAP1 PUSH2 0x3A15 JUMP JUMPDEST PUSH1 0x20 PUSH1 0x40 MLOAD DUP1 DUP4 SUB DUP2 DUP7 DUP1 EXTCODESIZE ISZERO DUP1 ISZERO PUSH2 0x970 JUMPI PUSH1 0x0 DUP1 REVERT JUMPDEST POP GAS STATICCALL ISZERO DUP1 ISZERO PUSH2 0x984 JUMPI RETURNDATASIZE PUSH1 0x0 DUP1 RETURNDATACOPY RETURNDATASIZE PUSH1 0x0 REVERT JUMPDEST POP POP POP POP PUSH1 0x40 MLOAD RETURNDATASIZE PUSH1 0x1F NOT PUSH1 0x1F DUP3 ADD AND DUP3 ADD DUP1 PUSH1 0x40 MSTORE POP DUP2 ADD SWAP1 PUSH2 0x9A8 SWAP2 SWAP1 PUSH2 0x4224 JUMP JUMPDEST PUSH1 0x9 PUSH1 0x0 PUSH2 0x100 EXP DUP2 SLOAD DUP2 PUSH20 0xFFFFFFFFFFFFFFFFFFFFFFFFFFFFFFFFFFFFFFFF MUL NOT AND SWAP1 DUP4 PUSH20 0xFFFFFFFFFFFFFFFFFFFFFFFFFFFFFFFFFFFFFFFF AND MUL OR SWAP1 SSTORE POP DUP1 PUSH1 0xB SWAP1 DUP1 MLOAD SWAP1 PUSH1 0x20 ADD SWAP1 PUSH2 0x9FE SWAP3 SWAP2 SWAP1 PUSH2 0x3283 JUMP JUMPDEST POP PUSH1 0x9 PUSH1 0x0 SWAP1 SLOAD SWAP1 PUSH2 0x100 EXP SWAP1 DIV PUSH20 0xFFFFFFFFFFFFFFFFFFFFFFFFFFFFFFFFFFFFFFFF AND PUSH1 0xA PUSH1 0x0 PUSH2 0x100 EXP DUP2 SLOAD DUP2 PUSH20 0xFFFFFFFFFFFFFFFFFFFFFFFFFFFFFFFFFFFFFFFF MUL NOT AND SWAP1 DUP4 PUSH20 0xFFFFFFFFFFFFFFFFFFFFFFFFFFFFFFFFFFFFFFFF AND MUL OR SWAP1 SSTORE POP POP JUMP JUMPDEST PUSH32 0x0 DUP2 JUMP JUMPDEST PUSH1 0xD DUP2 DUP1 MLOAD PUSH1 0x20 DUP2 ADD DUP3 ADD DUP1 MLOAD DUP5 DUP3 MSTORE PUSH1 0x20 DUP4 ADD PUSH1 0x20 DUP6 ADD KECCAK256 DUP2 DUP4 MSTORE DUP1 SWAP6 POP POP POP POP POP POP PUSH1 0x0 SWAP2 POP SLOAD SWAP1 PUSH2 0x100 EXP SWAP1 DIV PUSH1 0xFF AND DUP2 JUMP JUMPDEST PUSH1 0x0 DUP6 DUP6 PUSH1 0x40 MLOAD PUSH2 0xAD1 SWAP3 SWAP2 SWAP1 PUSH2 0x4281 JUMP JUMPDEST PUSH1 0x40 MLOAD DUP1 SWAP2 SUB SWAP1 KECCAK256 SWAP1 POP PUSH32 0x0 PUSH20 0xFFFFFFFFFFFFFFFFFFFFFFFFFFFFFFFFFFFFFFFF AND PUSH4 0x1876EED9 DUP13 DUP13 DUP13 DUP13 DUP13 DUP8 DUP12 DUP12 DUP12 PUSH1 0x40 MLOAD DUP11 PUSH4 0xFFFFFFFF AND PUSH1 0xE0 SHL DUP2 MSTORE PUSH1 0x4 ADD PUSH2 0xB44 SWAP10 SWAP9 SWAP8 SWAP7 SWAP6 SWAP5 SWAP4 SWAP3 SWAP2 SWAP1 PUSH2 0x42D6 JUMP JUMPDEST PUSH1 0x20 PUSH1 0x40 MLOAD DUP1 DUP4 SUB DUP2 PUSH1 0x0 DUP8 DUP1 EXTCODESIZE ISZERO DUP1 ISZERO PUSH2 0xB5E JUMPI PUSH1 0x0 DUP1 REVERT JUMPDEST POP GAS CALL ISZERO DUP1 ISZERO PUSH2 0xB72 JUMPI RETURNDATASIZE PUSH1 0x0 DUP1 RETURNDATACOPY RETURNDATASIZE PUSH1 0x0 REVERT JUMPDEST POP POP POP POP PUSH1 0x40 MLOAD RETURNDATASIZE PUSH1 0x1F NOT PUSH1 0x1F DUP3 ADD AND DUP3 ADD DUP1 PUSH1 0x40 MSTORE POP DUP2 ADD SWAP1 PUSH2 0xB96 SWAP2 SWAP1 PUSH2 0x4367 JUMP JUMPDEST PUSH2 0xBCC JUMPI PUSH1 0x40 MLOAD PUSH32 0x500C44B400000000000000000000000000000000000000000000000000000000 DUP2 MSTORE PUSH1 0x4 ADD PUSH1 0x40 MLOAD DUP1 SWAP2 SUB SWAP1 REVERT JUMPDEST PUSH2 0xBDD DUP11 DUP11 DUP11 DUP11 DUP11 DUP11 DUP11 DUP11 DUP11 PUSH2 0x23B7 JUMP JUMPDEST POP POP POP POP POP POP POP POP POP POP POP JUMP JUMPDEST PUSH1 0x4 DUP1 SLOAD PUSH2 0xBF7 SWAP1 PUSH2 0x43C3 JUMP JUMPDEST DUP1 PUSH1 0x1F ADD PUSH1 0x20 DUP1 SWAP2 DIV MUL PUSH1 0x20 ADD PUSH1 0x40 MLOAD SWAP1 DUP2 ADD PUSH1 0x40 MSTORE DUP1 SWAP3 SWAP2 SWAP1 DUP2 DUP2 MSTORE PUSH1 0x20 ADD DUP3 DUP1 SLOAD PUSH2 0xC23 SWAP1 PUSH2 0x43C3 JUMP JUMPDEST DUP1 ISZERO PUSH2 0xC70 JUMPI DUP1 PUSH1 0x1F LT PUSH2 0xC45 JUMPI PUSH2 0x100 DUP1 DUP4 SLOAD DIV MUL DUP4 MSTORE SWAP2 PUSH1 0x20 ADD SWAP2 PUSH2 0xC70 JUMP JUMPDEST DUP3 ADD SWAP2 SWAP1 PUSH1 0x0 MSTORE PUSH1 0x20 PUSH1 0x0 KECCAK256 SWAP1 JUMPDEST DUP2 SLOAD DUP2 MSTORE SWAP1 PUSH1 0x1 ADD SWAP1 PUSH1 0x20 ADD DUP1 DUP4 GT PUSH2 0xC53 JUMPI DUP3 SWAP1 SUB PUSH1 0x1F AND DUP3 ADD SWAP2 JUMPDEST POP POP POP POP POP DUP2 JUMP JUMPDEST PUSH1 0x0 DUP1 SLOAD PUSH2 0xC85 SWAP1 PUSH2 0x43C3 JUMP JUMPDEST DUP1 PUSH1 0x1F ADD PUSH1 0x20 DUP1 SWAP2 DIV MUL PUSH1 0x20 ADD PUSH1 0x40 MLOAD SWAP1 DUP2 ADD PUSH1 0x40 MSTORE DUP1 SWAP3 SWAP2 SWAP1 DUP2 DUP2 MSTORE PUSH1 0x20 ADD DUP3 DUP1 SLOAD PUSH2 0xCB1 SWAP1 PUSH2 0x43C3 JUMP JUMPDEST DUP1 ISZERO PUSH2 0xCFE JUMPI DUP1 PUSH1 0x1F LT PUSH2 0xCD3 JUMPI PUSH2 0x100 DUP1 DUP4 SLOAD DIV MUL DUP4 MSTORE SWAP2 PUSH1 0x20 ADD SWAP2 PUSH2 0xCFE JUMP JUMPDEST DUP3 ADD SWAP2 SWAP1 PUSH1 0x0 MSTORE PUSH1 0x20 PUSH1 0x0 KECCAK256 SWAP1 JUMPDEST DUP2 SLOAD DUP2 MSTORE SWAP1 PUSH1 0x1 ADD SWAP1 PUSH1 0x20 ADD DUP1 DUP4 GT PUSH2 0xCE1 JUMPI DUP3 SWAP1 SUB PUSH1 0x1F AND DUP3 ADD SWAP2 JUMPDEST POP POP POP POP POP DUP2 JUMP JUMPDEST PUSH1 0x2 PUSH1 0x0 SWAP1 SLOAD SWAP1 PUSH2 0x100 EXP SWAP1 DIV PUSH20 0xFFFFFFFFFFFFFFFFFFFFFFFFFFFFFFFFFFFFFFFF AND DUP2 JUMP JUMPDEST PUSH1 0xC DUP3 PUSH1 0x40 MLOAD PUSH2 0xD3C SWAP2 SWAP1 PUSH2 0x4431 JUMP JUMPDEST SWAP1 DUP2 MSTORE PUSH1 0x20 ADD PUSH1 0x40 MLOAD DUP1 SWAP2 SUB SWAP1 KECCAK256 PUSH1 0x0 SWAP1 SLOAD SWAP1 PUSH2 0x100 EXP SWAP1 DIV PUSH1 0xFF AND ISZERO PUSH2 0xE45 JUMPI PUSH1 0xA PUSH1 0x0 SWAP1 SLOAD SWAP1 PUSH2 0x100 EXP SWAP1 DIV PUSH20 0xFFFFFFFFFFFFFFFFFFFFFFFFFFFFFFFFFFFFFFFF AND PUSH20 0xFFFFFFFFFFFFFFFFFFFFFFFFFFFFFFFFFFFFFFFF AND PUSH4 0x23B872DD CALLER ADDRESS DUP5 PUSH1 0x40 MLOAD DUP5 PUSH4 0xFFFFFFFF AND PUSH1 0xE0 SHL DUP2 MSTORE PUSH1 0x4 ADD PUSH2 0xDBC SWAP4 SWAP3 SWAP2 SWAP1 PUSH2 0x4448 JUMP JUMPDEST PUSH1 0x20 PUSH1 0x40 MLOAD DUP1 DUP4 SUB DUP2 PUSH1 0x0 DUP8 DUP1 EXTCODESIZE ISZERO DUP1 ISZERO PUSH2 0xDD6 JUMPI PUSH1 0x0 DUP1 REVERT JUMPDEST POP GAS CALL ISZERO DUP1 ISZERO PUSH2 0xDEA JUMPI RETURNDATASIZE PUSH1 0x0 DUP1 RETURNDATACOPY RETURNDATASIZE PUSH1 0x0 REVERT JUMPDEST POP POP POP POP PUSH1 0x40 MLOAD RETURNDATASIZE PUSH1 0x1F NOT PUSH1 0x1F DUP3 ADD AND DUP3 ADD DUP1 PUSH1 0x40 MSTORE POP DUP2 ADD SWAP1 PUSH2 0xE0E SWAP2 SWAP1 PUSH2 0x4367 JUMP JUMPDEST POP DUP1 PUSH1 0x10 DUP4 PUSH1 0x40 MLOAD PUSH2 0xE20 SWAP2 SWAP1 PUSH2 0x4431 JUMP JUMPDEST SWAP1 DUP2 MSTORE PUSH1 0x20 ADD PUSH1 0x40 MLOAD DUP1 SWAP2 SUB SWAP1 KECCAK256 PUSH1 0x0 DUP3 DUP3 SLOAD PUSH2 0xE3D SWAP2 SWAP1 PUSH2 0x44AE JUMP JUMPDEST SWAP3 POP POP DUP2 SWAP1 SSTORE POP JUMPDEST POP POP JUMP JUMPDEST PUSH1 0x0 DUP3 DUP3 PUSH1 0x40 MLOAD PUSH2 0xE5B SWAP3 SWAP2 SWAP1 PUSH2 0x4281 JUMP JUMPDEST PUSH1 0x40 MLOAD DUP1 SWAP2 SUB SWAP1 KECCAK256 SWAP1 POP PUSH32 0x0 PUSH20 0xFFFFFFFFFFFFFFFFFFFFFFFFFFFFFFFFFFFFFFFF AND PUSH4 0x5F6970C3 DUP10 DUP10 DUP10 DUP10 DUP10 DUP8 PUSH1 0x40 MLOAD DUP8 PUSH4 0xFFFFFFFF AND PUSH1 0xE0 SHL DUP2 MSTORE PUSH1 0x4 ADD PUSH2 0xEC8 SWAP7 SWAP6 SWAP5 SWAP4 SWAP3 SWAP2 SWAP1 PUSH2 0x4504 JUMP JUMPDEST PUSH1 0x20 PUSH1 0x40 MLOAD DUP1 DUP4 SUB DUP2 PUSH1 0x0 DUP8 DUP1 EXTCODESIZE ISZERO DUP1 ISZERO PUSH2 0xEE2 JUMPI PUSH1 0x0 DUP1 REVERT JUMPDEST POP GAS CALL ISZERO DUP1 ISZERO PUSH2 0xEF6 JUMPI RETURNDATASIZE PUSH1 0x0 DUP1 RETURNDATACOPY RETURNDATASIZE PUSH1 0x0 REVERT JUMPDEST POP POP POP POP PUSH1 0x40 MLOAD RETURNDATASIZE PUSH1 0x1F NOT PUSH1 0x1F DUP3 ADD AND DUP3 ADD DUP1 PUSH1 0x40 MSTORE POP DUP2 ADD SWAP1 PUSH2 0xF1A SWAP2 SWAP1 PUSH2 0x4367 JUMP JUMPDEST PUSH2 0xF50 JUMPI PUSH1 0x40 MLOAD PUSH32 0x500C44B400000000000000000000000000000000000000000000000000000000 DUP2 MSTORE PUSH1 0x4 ADD PUSH1 0x40 MLOAD DUP1 SWAP2 SUB SWAP1 REVERT JUMPDEST PUSH2 0xF5E DUP8 DUP8 DUP8 DUP8 DUP8 DUP8 PUSH2 0x2460 JUMP JUMPDEST POP POP POP POP POP POP POP POP JUMP JUMPDEST PUSH1 0xC DUP2 PUSH1 0x40 MLOAD PUSH2 0xF78 SWAP2 SWAP1 PUSH2 0x4431 JUMP JUMPDEST SWAP1 DUP2 MSTORE PUSH1 0x20 ADD PUSH1 0x40 MLOAD DUP1 SWAP2 SUB SWAP1 KECCAK256 PUSH1 0x0 SWAP1 SLOAD SWAP1 PUSH2 0x100 EXP SWAP1 DIV PUSH1 0xFF AND ISZERO DUP1 ISZERO PUSH2 0xFCA JUMPI POP PUSH1 0xD DUP2 PUSH1 0x40 MLOAD PUSH2 0xFAC SWAP2 SWAP1 PUSH2 0x4431 JUMP JUMPDEST SWAP1 DUP2 MSTORE PUSH1 0x20 ADD PUSH1 0x40 MLOAD DUP1 SWAP2 SUB SWAP1 KECCAK256 PUSH1 0x0 SWAP1 SLOAD SWAP1 PUSH2 0x100 EXP SWAP1 DIV PUSH1 0xFF AND ISZERO JUMPDEST ISZERO PUSH2 0x123B JUMPI PUSH1 0x0 PUSH2 0x1083 PUSH1 0xF DUP4 PUSH1 0x40 MLOAD PUSH2 0xFE4 SWAP2 SWAP1 PUSH2 0x4431 JUMP JUMPDEST SWAP1 DUP2 MSTORE PUSH1 0x20 ADD PUSH1 0x40 MLOAD DUP1 SWAP2 SUB SWAP1 KECCAK256 PUSH1 0x0 ADD DUP1 SLOAD PUSH2 0x1000 SWAP1 PUSH2 0x43C3 JUMP JUMPDEST DUP1 PUSH1 0x1F ADD PUSH1 0x20 DUP1 SWAP2 DIV MUL PUSH1 0x20 ADD PUSH1 0x40 MLOAD SWAP1 DUP2 ADD PUSH1 0x40 MSTORE DUP1 SWAP3 SWAP2 SWAP1 DUP2 DUP2 MSTORE PUSH1 0x20 ADD DUP3 DUP1 SLOAD PUSH2 0x102C SWAP1 PUSH2 0x43C3 JUMP JUMPDEST DUP1 ISZERO PUSH2 0x1079 JUMPI DUP1 PUSH1 0x1F LT PUSH2 0x104E JUMPI PUSH2 0x100 DUP1 DUP4 SLOAD DIV MUL DUP4 MSTORE SWAP2 PUSH1 0x20 ADD SWAP2 PUSH2 0x1079 JUMP JUMPDEST DUP3 ADD SWAP2 SWAP1 PUSH1 0x0 MSTORE PUSH1 0x20 PUSH1 0x0 KECCAK256 SWAP1 JUMPDEST DUP2 SLOAD DUP2 MSTORE SWAP1 PUSH1 0x1 ADD SWAP1 PUSH1 0x20 ADD DUP1 DUP4 GT PUSH2 0x105C JUMPI DUP3 SWAP1 SUB PUSH1 0x1F AND DUP3 ADD SWAP2 JUMPDEST POP POP POP POP POP PUSH2 0x2823 JUMP JUMPDEST SWAP1 POP PUSH1 0x0 PUSH1 0x10 DUP4 PUSH1 0x40 MLOAD PUSH2 0x1097 SWAP2 SWAP1 PUSH2 0x4431 JUMP JUMPDEST SWAP1 DUP2 MSTORE PUSH1 0x20 ADD PUSH1 0x40 MLOAD DUP1 SWAP2 SUB SWAP1 KECCAK256 SLOAD SWAP1 POP PUSH1 0x0 PUSH1 0x10 DUP5 PUSH1 0x40 MLOAD PUSH2 0x10BA SWAP2 SWAP1 PUSH2 0x4431 JUMP JUMPDEST SWAP1 DUP2 MSTORE PUSH1 0x20 ADD PUSH1 0x40 MLOAD DUP1 SWAP2 SUB SWAP1 KECCAK256 DUP2 SWAP1 SSTORE POP PUSH1 0xA PUSH1 0x0 SWAP1 SLOAD SWAP1 PUSH2 0x100 EXP SWAP1 DIV PUSH20 0xFFFFFFFFFFFFFFFFFFFFFFFFFFFFFFFFFFFFFFFF AND PUSH20 0xFFFFFFFFFFFFFFFFFFFFFFFFFFFFFFFFFFFFFFFF AND PUSH4 0x95EA7B3 PUSH1 0x2 PUSH1 0x0 SWAP1 SLOAD SWAP1 PUSH2 0x100 EXP SWAP1 DIV PUSH20 0xFFFFFFFFFFFFFFFFFFFFFFFFFFFFFFFFFFFFFFFF AND DUP4 PUSH1 0x40 MLOAD DUP4 PUSH4 0xFFFFFFFF AND PUSH1 0xE0 SHL DUP2 MSTORE PUSH1 0x4 ADD PUSH2 0x114B SWAP3 SWAP2 SWAP1 PUSH2 0x455B JUMP JUMPDEST PUSH1 0x20 PUSH1 0x40 MLOAD DUP1 DUP4 SUB DUP2 PUSH1 0x0 DUP8 DUP1 EXTCODESIZE ISZERO DUP1 ISZERO PUSH2 0x1165 JUMPI PUSH1 0x0 DUP1 REVERT JUMPDEST POP GAS CALL ISZERO DUP1 ISZERO PUSH2 0x1179 JUMPI RETURNDATASIZE PUSH1 0x0 DUP1 RETURNDATACOPY RETURNDATASIZE PUSH1 0x0 REVERT JUMPDEST POP POP POP POP PUSH1 0x40 MLOAD RETURNDATASIZE PUSH1 0x1F NOT PUSH1 0x1F DUP3 ADD AND DUP3 ADD DUP1 PUSH1 0x40 MSTORE POP DUP2 ADD SWAP1 PUSH2 0x119D SWAP2 SWAP1 PUSH2 0x4367 JUMP JUMPDEST POP PUSH1 0x3 PUSH1 0x0 SWAP1 SLOAD SWAP1 PUSH2 0x100 EXP SWAP1 DIV PUSH20 0xFFFFFFFFFFFFFFFFFFFFFFFFFFFFFFFFFFFFFFFF AND PUSH20 0xFFFFFFFFFFFFFFFFFFFFFFFFFFFFFFFFFFFFFFFF AND PUSH4 0x152907D DUP4 DUP6 DUP5 PUSH1 0x40 MLOAD DUP5 PUSH4 0xFFFFFFFF AND PUSH1 0xE0 SHL DUP2 MSTORE PUSH1 0x4 ADD PUSH2 0x11FD SWAP4 SWAP3 SWAP2 SWAP1 PUSH2 0x4584 JUMP JUMPDEST PUSH1 0x0 PUSH1 0x40 MLOAD DUP1 DUP4 SUB DUP2 PUSH1 0x0 DUP8 DUP1 EXTCODESIZE ISZERO DUP1 ISZERO PUSH2 0x1217 JUMPI PUSH1 0x0 DUP1 REVERT JUMPDEST POP GAS CALL ISZERO DUP1 ISZERO PUSH2 0x122B JUMPI RETURNDATASIZE PUSH1 0x0 DUP1 RETURNDATACOPY RETURNDATASIZE PUSH1 0x0 REVERT JUMPDEST POP POP POP POP PUSH2 0x1238 DUP4 PUSH2 0x2A71 JUMP JUMPDEST POP POP JUMPDEST POP JUMP JUMPDEST PUSH1 0x0 DUP6 DUP6 DUP6 DUP6 DUP6 PUSH1 0x40 MLOAD PUSH1 0x20 ADD PUSH2 0x1259 SWAP6 SWAP5 SWAP4 SWAP3 SWAP2 SWAP1 PUSH2 0x45C2 JUMP JUMPDEST PUSH1 0x40 MLOAD PUSH1 0x20 DUP2 DUP4 SUB SUB DUP2 MSTORE SWAP1 PUSH1 0x40 MSTORE SWAP1 POP PUSH1 0x0 CALLVALUE GT ISZERO PUSH2 0x1308 JUMPI PUSH32 0x0 PUSH20 0xFFFFFFFFFFFFFFFFFFFFFFFFFFFFFFFFFFFFFFFF AND PUSH4 0xC93E3BB CALLVALUE ADDRESS DUP12 DUP12 DUP7 CALLER PUSH1 0x40 MLOAD DUP8 PUSH4 0xFFFFFFFF AND PUSH1 0xE0 SHL DUP2 MSTORE PUSH1 0x4 ADD PUSH2 0x12D5 SWAP6 SWAP5 SWAP4 SWAP3 SWAP2 SWAP1 PUSH2 0x467F JUMP JUMPDEST PUSH1 0x0 PUSH1 0x40 MLOAD DUP1 DUP4 SUB DUP2 DUP6 DUP9 DUP1 EXTCODESIZE ISZERO DUP1 ISZERO PUSH2 0x12EE JUMPI PUSH1 0x0 DUP1 REVERT JUMPDEST POP GAS CALL ISZERO DUP1 ISZERO PUSH2 0x1302 JUMPI RETURNDATASIZE PUSH1 0x0 DUP1 RETURNDATACOPY RETURNDATASIZE PUSH1 0x0 REVERT JUMPDEST POP POP POP POP POP JUMPDEST PUSH32 0x0 PUSH20 0xFFFFFFFFFFFFFFFFFFFFFFFFFFFFFFFFFFFFFFFF AND PUSH4 0x1C92115F DUP10 DUP10 DUP5 PUSH1 0x40 MLOAD DUP5 PUSH4 0xFFFFFFFF AND PUSH1 0xE0 SHL DUP2 MSTORE PUSH1 0x4 ADD PUSH2 0x1365 SWAP4 SWAP3 SWAP2 SWAP1 PUSH2 0x46E7 JUMP JUMPDEST PUSH1 0x0 PUSH1 0x40 MLOAD DUP1 DUP4 SUB DUP2 PUSH1 0x0 DUP8 DUP1 EXTCODESIZE ISZERO DUP1 ISZERO PUSH2 0x137F JUMPI PUSH1 0x0 DUP1 REVERT JUMPDEST POP GAS CALL ISZERO DUP1 ISZERO PUSH2 0x1393 JUMPI RETURNDATASIZE PUSH1 0x0 DUP1 RETURNDATACOPY RETURNDATASIZE PUSH1 0x0 REVERT JUMPDEST POP POP POP POP POP POP POP POP POP POP POP POP JUMP JUMPDEST PUSH32 0x0 DUP2 JUMP JUMPDEST PUSH1 0xC DUP2 DUP1 MLOAD PUSH1 0x20 DUP2 ADD DUP3 ADD DUP1 MLOAD DUP5 DUP3 MSTORE PUSH1 0x20 DUP4 ADD PUSH1 0x20 DUP6 ADD KECCAK256 DUP2 DUP4 MSTORE DUP1 SWAP6 POP POP POP POP POP POP PUSH1 0x0 SWAP2 POP SLOAD SWAP1 PUSH2 0x100 EXP SWAP1 DIV PUSH1 0xFF AND DUP2 JUMP JUMPDEST PUSH1 0x6 DUP2 DUP1 MLOAD PUSH1 0x20 DUP2 ADD DUP3 ADD DUP1 MLOAD DUP5 DUP3 MSTORE PUSH1 0x20 DUP4 ADD PUSH1 0x20 DUP6 ADD KECCAK256 DUP2 DUP4 MSTORE DUP1 SWAP6 POP POP POP POP POP POP PUSH1 0x0 SWAP2 POP SLOAD SWAP1 PUSH2 0x100 EXP SWAP1 DIV PUSH20 0xFFFFFFFFFFFFFFFFFFFFFFFFFFFFFFFFFFFFFFFF AND DUP2 JUMP JUMPDEST PUSH1 0xF DUP2 DUP1 MLOAD PUSH1 0x20 DUP2 ADD DUP3 ADD DUP1 MLOAD DUP5 DUP3 MSTORE PUSH1 0x20 DUP4 ADD PUSH1 0x20 DUP6 ADD KECCAK256 DUP2 DUP4 MSTORE DUP1 SWAP6 POP POP POP POP POP POP PUSH1 0x0 SWAP2 POP SWAP1 POP DUP1 PUSH1 0x0 ADD DUP1 SLOAD PUSH2 0x147D SWAP1 PUSH2 0x43C3 JUMP JUMPDEST DUP1 PUSH1 0x1F ADD PUSH1 0x20 DUP1 SWAP2 DIV MUL PUSH1 0x20 ADD PUSH1 0x40 MLOAD SWAP1 DUP2 ADD PUSH1 0x40 MSTORE DUP1 SWAP3 SWAP2 SWAP1 DUP2 DUP2 MSTORE PUSH1 0x20 ADD DUP3 DUP1 SLOAD PUSH2 0x14A9 SWAP1 PUSH2 0x43C3 JUMP JUMPDEST DUP1 ISZERO PUSH2 0x14F6 JUMPI DUP1 PUSH1 0x1F LT PUSH2 0x14CB JUMPI PUSH2 0x100 DUP1 DUP4 SLOAD DIV MUL DUP4 MSTORE SWAP2 PUSH1 0x20 ADD SWAP2 PUSH2 0x14F6 JUMP JUMPDEST DUP3 ADD SWAP2 SWAP1 PUSH1 0x0 MSTORE PUSH1 0x20 PUSH1 0x0 KECCAK256 SWAP1 JUMPDEST DUP2 SLOAD DUP2 MSTORE SWAP1 PUSH1 0x1 ADD SWAP1 PUSH1 0x20 ADD DUP1 DUP4 GT PUSH2 0x14D9 JUMPI DUP3 SWAP1 SUB PUSH1 0x1F AND DUP3 ADD SWAP2 JUMPDEST POP POP POP POP POP SWAP1 DUP1 PUSH1 0x1 ADD DUP1 SLOAD PUSH2 0x150B SWAP1 PUSH2 0x43C3 JUMP JUMPDEST DUP1 PUSH1 0x1F ADD PUSH1 0x20 DUP1 SWAP2 DIV MUL PUSH1 0x20 ADD PUSH1 0x40 MLOAD SWAP1 DUP2 ADD PUSH1 0x40 MSTORE DUP1 SWAP3 SWAP2 SWAP1 DUP2 DUP2 MSTORE PUSH1 0x20 ADD DUP3 DUP1 SLOAD PUSH2 0x1537 SWAP1 PUSH2 0x43C3 JUMP JUMPDEST DUP1 ISZERO PUSH2 0x1584 JUMPI DUP1 PUSH1 0x1F LT PUSH2 0x1559 JUMPI PUSH2 0x100 DUP1 DUP4 SLOAD DIV MUL DUP4 MSTORE SWAP2 PUSH1 0x20 ADD SWAP2 PUSH2 0x1584 JUMP JUMPDEST DUP3 ADD SWAP2 SWAP1 PUSH1 0x0 MSTORE PUSH1 0x20 PUSH1 0x0 KECCAK256 SWAP1 JUMPDEST DUP2 SLOAD DUP2 MSTORE SWAP1 PUSH1 0x1 ADD SWAP1 PUSH1 0x20 ADD DUP1 DUP4 GT PUSH2 0x1567 JUMPI DUP3 SWAP1 SUB PUSH1 0x1F AND DUP3 ADD SWAP2 JUMPDEST POP POP POP POP POP SWAP1 POP DUP3 JUMP JUMPDEST PUSH1 0x1 PUSH1 0x0 SWAP1 SLOAD SWAP1 PUSH2 0x100 EXP SWAP1 DIV PUSH20 0xFFFFFFFFFFFFFFFFFFFFFFFFFFFFFFFFFFFFFFFF AND PUSH20 0xFFFFFFFFFFFFFFFFFFFFFFFFFFFFFFFFFFFFFFFF AND CALLER PUSH20 0xFFFFFFFFFFFFFFFFFFFFFFFFFFFFFFFFFFFFFFFF AND EQ PUSH2 0x161E JUMPI PUSH1 0x40 MLOAD PUSH32 0x8C379A000000000000000000000000000000000000000000000000000000000 DUP2 MSTORE PUSH1 0x4 ADD PUSH2 0x1615 SWAP1 PUSH2 0x41EF JUMP JUMPDEST PUSH1 0x40 MLOAD DUP1 SWAP2 SUB SWAP1 REVERT JUMPDEST PUSH1 0x7 DUP2 PUSH1 0x40 MLOAD PUSH2 0x162E SWAP2 SWAP1 PUSH2 0x4431 JUMP JUMPDEST SWAP1 DUP2 MSTORE PUSH1 0x20 ADD PUSH1 0x40 MLOAD DUP1 SWAP2 SUB SWAP1 KECCAK256 PUSH1 0x0 SWAP1 SLOAD SWAP1 PUSH2 0x100 EXP SWAP1 DIV PUSH1 0xFF AND PUSH2 0x16C2 JUMPI PUSH1 0x1 PUSH1 0x7 DUP3 PUSH1 0x40 MLOAD PUSH2 0x1660 SWAP2 SWAP1 PUSH2 0x4431 JUMP JUMPDEST SWAP1 DUP2 MSTORE PUSH1 0x20 ADD PUSH1 0x40 MLOAD DUP1 SWAP2 SUB SWAP1 KECCAK256 PUSH1 0x0 PUSH2 0x100 EXP DUP2 SLOAD DUP2 PUSH1 0xFF MUL NOT AND SWAP1 DUP4 ISZERO ISZERO MUL OR SWAP1 SSTORE POP PUSH1 0x8 DUP2 SWAP1 DUP1 PUSH1 0x1 DUP2 SLOAD ADD DUP1 DUP3 SSTORE DUP1 SWAP2 POP POP PUSH1 0x1 SWAP1 SUB SWAP1 PUSH1 0x0 MSTORE PUSH1 0x20 PUSH1 0x0 KECCAK256 ADD PUSH1 0x0 SWAP1 SWAP2 SWAP1 SWAP2 SWAP1 SWAP2 POP SWAP1 DUP1 MLOAD SWAP1 PUSH1 0x20 ADD SWAP1 PUSH2 0x16C0 SWAP3 SWAP2 SWAP1 PUSH2 0x3283 JUMP JUMPDEST POP JUMPDEST DUP2 PUSH1 0x6 DUP3 PUSH1 0x40 MLOAD PUSH2 0x16D3 SWAP2 SWAP1 PUSH2 0x4431 JUMP JUMPDEST SWAP1 DUP2 MSTORE PUSH1 0x20 ADD PUSH1 0x40 MLOAD DUP1 SWAP2 SUB SWAP1 KECCAK256 PUSH1 0x0 PUSH2 0x100 EXP DUP2 SLOAD DUP2 PUSH20 0xFFFFFFFFFFFFFFFFFFFFFFFFFFFFFFFFFFFFFFFF MUL NOT AND SWAP1 DUP4 PUSH20 0xFFFFFFFFFFFFFFFFFFFFFFFFFFFFFFFFFFFFFFFF AND MUL OR SWAP1 SSTORE POP POP POP JUMP JUMPDEST PUSH1 0x0 PUSH1 0x8 DUP8 DUP2 SLOAD DUP2 LT PUSH2 0x1739 JUMPI PUSH2 0x1738 PUSH2 0x4733 JUMP JUMPDEST JUMPDEST SWAP1 PUSH1 0x0 MSTORE PUSH1 0x20 PUSH1 0x0 KECCAK256 ADD DUP1 SLOAD PUSH2 0x174E SWAP1 PUSH2 0x43C3 JUMP JUMPDEST DUP1 PUSH1 0x1F ADD PUSH1 0x20 DUP1 SWAP2 DIV MUL PUSH1 0x20 ADD PUSH1 0x40 MLOAD SWAP1 DUP2 ADD PUSH1 0x40 MSTORE DUP1 SWAP3 SWAP2 SWAP1 DUP2 DUP2 MSTORE PUSH1 0x20 ADD DUP3 DUP1 SLOAD PUSH2 0x177A SWAP1 PUSH2 0x43C3 JUMP JUMPDEST DUP1 ISZERO PUSH2 0x17C7 JUMPI DUP1 PUSH1 0x1F LT PUSH2 0x179C JUMPI PUSH2 0x100 DUP1 DUP4 SLOAD DIV MUL DUP4 MSTORE SWAP2 PUSH1 0x20 ADD SWAP2 PUSH2 0x17C7 JUMP JUMPDEST DUP3 ADD SWAP2 SWAP1 PUSH1 0x0 MSTORE PUSH1 0x20 PUSH1 0x0 KECCAK256 SWAP1 JUMPDEST DUP2 SLOAD DUP2 MSTORE SWAP1 PUSH1 0x1 ADD SWAP1 PUSH1 0x20 ADD DUP1 DUP4 GT PUSH2 0x17AA JUMPI DUP3 SWAP1 SUB PUSH1 0x1F AND DUP3 ADD SWAP2 JUMPDEST POP POP POP POP POP SWAP1 POP PUSH1 0x0 PUSH2 0x182D PUSH1 0x6 DUP4 PUSH1 0x40 MLOAD PUSH2 0x17E3 SWAP2 SWAP1 PUSH2 0x4431 JUMP JUMPDEST SWAP1 DUP2 MSTORE PUSH1 0x20 ADD PUSH1 0x40 MLOAD DUP1 SWAP2 SUB SWAP1 KECCAK256 PUSH1 0x0 SWAP1 SLOAD SWAP1 PUSH2 0x100 EXP SWAP1 DIV PUSH20 0xFFFFFFFFFFFFFFFFFFFFFFFFFFFFFFFFFFFFFFFF AND PUSH20 0xFFFFFFFFFFFFFFFFFFFFFFFFFFFFFFFFFFFFFFFF AND PUSH2 0x2B43 JUMP JUMPDEST SWAP1 POP PUSH2 0x183E DUP3 DUP3 DUP10 DUP10 DUP10 DUP10 DUP10 PUSH2 0x123E JUMP JUMPDEST POP POP POP POP POP POP POP POP JUMP JUMPDEST PUSH1 0xA PUSH1 0x0 SWAP1 SLOAD SWAP1 PUSH2 0x100 EXP SWAP1 DIV PUSH20 0xFFFFFFFFFFFFFFFFFFFFFFFFFFFFFFFFFFFFFFFF AND PUSH20 0xFFFFFFFFFFFFFFFFFFFFFFFFFFFFFFFFFFFFFFFF AND PUSH4 0x95EA7B3 PUSH32 0x0 DUP5 PUSH1 0x40 MLOAD DUP4 PUSH4 0xFFFFFFFF AND PUSH1 0xE0 SHL DUP2 MSTORE PUSH1 0x4 ADD PUSH2 0x18C5 SWAP3 SWAP2 SWAP1 PUSH2 0x455B JUMP JUMPDEST PUSH1 0x20 PUSH1 0x40 MLOAD DUP1 DUP4 SUB DUP2 PUSH1 0x0 DUP8 DUP1 EXTCODESIZE ISZERO DUP1 ISZERO PUSH2 0x18DF JUMPI PUSH1 0x0 DUP1 REVERT JUMPDEST POP GAS CALL ISZERO DUP1 ISZERO PUSH2 0x18F3 JUMPI RETURNDATASIZE PUSH1 0x0 DUP1 RETURNDATACOPY RETURNDATASIZE PUSH1 0x0 REVERT JUMPDEST POP POP POP POP PUSH1 0x40 MLOAD RETURNDATASIZE PUSH1 0x1F NOT PUSH1 0x1F DUP3 ADD AND DUP3 ADD DUP1 PUSH1 0x40 MSTORE POP DUP2 ADD SWAP1 PUSH2 0x1917 SWAP2 SWAP1 PUSH2 0x4367 JUMP JUMPDEST POP PUSH1 0x0 DUP2 PUSH1 0x40 MLOAD PUSH1 0x20 ADD PUSH2 0x192B SWAP2 SWAP1 PUSH2 0x3A15 JUMP JUMPDEST PUSH1 0x40 MLOAD PUSH1 0x20 DUP2 DUP4 SUB SUB DUP2 MSTORE SWAP1 PUSH1 0x40 MSTORE SWAP1 POP PUSH1 0x0 CALLVALUE GT ISZERO PUSH2 0x19DF JUMPI PUSH32 0x0 PUSH20 0xFFFFFFFFFFFFFFFFFFFFFFFFFFFFFFFFFFFFFFFF AND PUSH4 0xC62C2002 CALLVALUE ADDRESS DUP9 DUP9 DUP7 PUSH1 0xB DUP11 CALLER PUSH1 0x40 MLOAD DUP10 PUSH4 0xFFFFFFFF AND PUSH1 0xE0 SHL DUP2 MSTORE PUSH1 0x4 ADD PUSH2 0x19AC SWAP8 SWAP7 SWAP6 SWAP5 SWAP4 SWAP3 SWAP2 SWAP1 PUSH2 0x47F7 JUMP JUMPDEST PUSH1 0x0 PUSH1 0x40 MLOAD DUP1 DUP4 SUB DUP2 DUP6 DUP9 DUP1 EXTCODESIZE ISZERO DUP1 ISZERO PUSH2 0x19C5 JUMPI PUSH1 0x0 DUP1 REVERT JUMPDEST POP GAS CALL ISZERO DUP1 ISZERO PUSH2 0x19D9 JUMPI RETURNDATASIZE PUSH1 0x0 DUP1 RETURNDATACOPY RETURNDATASIZE PUSH1 0x0 REVERT JUMPDEST POP POP POP POP POP JUMPDEST PUSH32 0x0 PUSH20 0xFFFFFFFFFFFFFFFFFFFFFFFFFFFFFFFFFFFFFFFF AND PUSH4 0xB5417084 DUP7 DUP7 DUP5 PUSH1 0xB DUP9 PUSH1 0x40 MLOAD DUP7 PUSH4 0xFFFFFFFF AND PUSH1 0xE0 SHL DUP2 MSTORE PUSH1 0x4 ADD PUSH2 0x1A41 SWAP6 SWAP5 SWAP4 SWAP3 SWAP2 SWAP1 PUSH2 0x4882 JUMP JUMPDEST PUSH1 0x0 PUSH1 0x40 MLOAD DUP1 DUP4 SUB DUP2 PUSH1 0x0 DUP8 DUP1 EXTCODESIZE ISZERO DUP1 ISZERO PUSH2 0x1A5B JUMPI PUSH1 0x0 DUP1 REVERT JUMPDEST POP GAS CALL ISZERO DUP1 ISZERO PUSH2 0x1A6F JUMPI RETURNDATASIZE PUSH1 0x0 DUP1 RETURNDATACOPY RETURNDATASIZE PUSH1 0x0 REVERT JUMPDEST POP POP POP POP POP POP POP POP POP JUMP JUMPDEST PUSH1 0x7 DUP2 DUP1 MLOAD PUSH1 0x20 DUP2 ADD DUP3 ADD DUP1 MLOAD DUP5 DUP3 MSTORE PUSH1 0x20 DUP4 ADD PUSH1 0x20 DUP6 ADD KECCAK256 DUP2 DUP4 MSTORE DUP1 SWAP6 POP POP POP POP POP POP PUSH1 0x0 SWAP2 POP SLOAD SWAP1 PUSH2 0x100 EXP SWAP1 DIV PUSH1 0xFF AND DUP2 JUMP JUMPDEST PUSH1 0x1 DUP6 EQ ISZERO PUSH2 0x1B69 JUMPI DUP3 ISZERO PUSH2 0x1B5A JUMPI PUSH2 0x1AC8 DUP5 PUSH2 0x2E66 JUMP JUMPDEST PUSH1 0x3 PUSH1 0x0 SWAP1 SLOAD SWAP1 PUSH2 0x100 EXP SWAP1 DIV PUSH20 0xFFFFFFFFFFFFFFFFFFFFFFFFFFFFFFFFFFFFFFFF AND PUSH20 0xFFFFFFFFFFFFFFFFFFFFFFFFFFFFFFFFFFFFFFFF AND PUSH4 0x5CC00F7E DUP6 PUSH1 0x40 MLOAD DUP3 PUSH4 0xFFFFFFFF AND PUSH1 0xE0 SHL DUP2 MSTORE PUSH1 0x4 ADD PUSH2 0x1B23 SWAP2 SWAP1 PUSH2 0x3A15 JUMP JUMPDEST PUSH1 0x0 PUSH1 0x40 MLOAD DUP1 DUP4 SUB DUP2 PUSH1 0x0 DUP8 DUP1 EXTCODESIZE ISZERO DUP1 ISZERO PUSH2 0x1B3D JUMPI PUSH1 0x0 DUP1 REVERT JUMPDEST POP GAS CALL ISZERO DUP1 ISZERO PUSH2 0x1B51 JUMPI RETURNDATASIZE PUSH1 0x0 DUP1 RETURNDATACOPY RETURNDATASIZE PUSH1 0x0 REVERT JUMPDEST POP POP POP POP PUSH2 0x1B64 JUMP JUMPDEST PUSH2 0x1B63 DUP5 PUSH2 0x2F98 JUMP JUMPDEST JUMPDEST PUSH2 0x1B97 JUMP JUMPDEST PUSH1 0x2 DUP6 EQ ISZERO PUSH2 0x1B82 JUMPI PUSH2 0x1B7D DUP5 DUP3 DUP5 PUSH2 0x320E JUMP JUMPDEST PUSH2 0x1B96 JUMP JUMPDEST PUSH1 0x3 DUP6 EQ ISZERO PUSH2 0x1B95 JUMPI PUSH2 0x1B94 DUP5 PUSH2 0x1D80 JUMP JUMPDEST JUMPDEST JUMPDEST JUMPDEST POP POP POP POP POP JUMP JUMPDEST PUSH1 0x8 DUP2 DUP2 SLOAD DUP2 LT PUSH2 0x1BAE JUMPI PUSH1 0x0 DUP1 REVERT JUMPDEST SWAP1 PUSH1 0x0 MSTORE PUSH1 0x20 PUSH1 0x0 KECCAK256 ADD PUSH1 0x0 SWAP2 POP SWAP1 POP DUP1 SLOAD PUSH2 0x1BC9 SWAP1 PUSH2 0x43C3 JUMP JUMPDEST DUP1 PUSH1 0x1F ADD PUSH1 0x20 DUP1 SWAP2 DIV MUL PUSH1 0x20 ADD PUSH1 0x40 MLOAD SWAP1 DUP2 ADD PUSH1 0x40 MSTORE DUP1 SWAP3 SWAP2 SWAP1 DUP2 DUP2 MSTORE PUSH1 0x20 ADD DUP3 DUP1 SLOAD PUSH2 0x1BF5 SWAP1 PUSH2 0x43C3 JUMP JUMPDEST DUP1 ISZERO PUSH2 0x1C42 JUMPI DUP1 PUSH1 0x1F LT PUSH2 0x1C17 JUMPI PUSH2 0x100 DUP1 DUP4 SLOAD DIV MUL DUP4 MSTORE SWAP2 PUSH1 0x20 ADD SWAP2 PUSH2 0x1C42 JUMP JUMPDEST DUP3 ADD SWAP2 SWAP1 PUSH1 0x0 MSTORE PUSH1 0x20 PUSH1 0x0 KECCAK256 SWAP1 JUMPDEST DUP2 SLOAD DUP2 MSTORE SWAP1 PUSH1 0x1 ADD SWAP1 PUSH1 0x20 ADD DUP1 DUP4 GT PUSH2 0x1C25 JUMPI DUP3 SWAP1 SUB PUSH1 0x1F AND DUP3 ADD SWAP2 JUMPDEST POP POP POP POP POP DUP2 JUMP JUMPDEST PUSH1 0x5 DUP1 SLOAD PUSH2 0x1C57 SWAP1 PUSH2 0x43C3 JUMP JUMPDEST DUP1 PUSH1 0x1F ADD PUSH1 0x20 DUP1 SWAP2 DIV MUL PUSH1 0x20 ADD PUSH1 0x40 MLOAD SWAP1 DUP2 ADD PUSH1 0x40 MSTORE DUP1 SWAP3 SWAP2 SWAP1 DUP2 DUP2 MSTORE PUSH1 0x20 ADD DUP3 DUP1 SLOAD PUSH2 0x1C83 SWAP1 PUSH2 0x43C3 JUMP JUMPDEST DUP1 ISZERO PUSH2 0x1CD0 JUMPI DUP1 PUSH1 0x1F LT PUSH2 0x1CA5 JUMPI PUSH2 0x100 DUP1 DUP4 SLOAD DIV MUL DUP4 MSTORE SWAP2 PUSH1 0x20 ADD SWAP2 PUSH2 0x1CD0 JUMP JUMPDEST DUP3 ADD SWAP2 SWAP1 PUSH1 0x0 MSTORE PUSH1 0x20 PUSH1 0x0 KECCAK256 SWAP1 JUMPDEST DUP2 SLOAD DUP2 MSTORE SWAP1 PUSH1 0x1 ADD SWAP1 PUSH1 0x20 ADD DUP1 DUP4 GT PUSH2 0x1CB3 JUMPI DUP3 SWAP1 SUB PUSH1 0x1F AND DUP3 ADD SWAP2 JUMPDEST POP POP POP POP POP DUP2 JUMP JUMPDEST PUSH1 0xC DUP4 PUSH1 0x40 MLOAD PUSH2 0x1CE8 SWAP2 SWAP1 PUSH2 0x4431 JUMP JUMPDEST SWAP1 DUP2 MSTORE PUSH1 0x20 ADD PUSH1 0x40 MLOAD DUP1 SWAP2 SUB SWAP1 KECCAK256 PUSH1 0x0 SWAP1 SLOAD SWAP1 PUSH2 0x100 EXP SWAP1 DIV PUSH1 0xFF AND PUSH2 0x1D7B JUMPI PUSH1 0x0 PUSH1 0x10 DUP5 PUSH1 0x40 MLOAD PUSH2 0x1D1A SWAP2 SWAP1 PUSH2 0x4431 JUMP JUMPDEST SWAP1 DUP2 MSTORE PUSH1 0x20 ADD PUSH1 0x40 MLOAD DUP1 SWAP2 SUB SWAP1 KECCAK256 SLOAD SWAP1 POP PUSH1 0x0 PUSH1 0x10 DUP6 PUSH1 0x40 MLOAD PUSH2 0x1D3D SWAP2 SWAP1 PUSH2 0x4431 JUMP JUMPDEST SWAP1 DUP2 MSTORE PUSH1 0x20 ADD PUSH1 0x40 MLOAD DUP1 SWAP2 SUB SWAP1 KECCAK256 DUP2 SWAP1 SSTORE POP PUSH2 0x1D79 DUP4 PUSH2 0x1D72 DUP5 PUSH20 0xFFFFFFFFFFFFFFFFFFFFFFFFFFFFFFFFFFFFFFFF AND PUSH2 0x2B43 JUMP JUMPDEST DUP4 DUP8 PUSH2 0x1848 JUMP JUMPDEST POP JUMPDEST POP POP POP JUMP JUMPDEST PUSH1 0x0 PUSH1 0xF DUP3 PUSH1 0x40 MLOAD PUSH2 0x1D92 SWAP2 SWAP1 PUSH2 0x4431 JUMP JUMPDEST SWAP1 DUP2 MSTORE PUSH1 0x20 ADD PUSH1 0x40 MLOAD DUP1 SWAP2 SUB SWAP1 KECCAK256 PUSH1 0x1 ADD DUP1 SLOAD PUSH2 0x1DAE SWAP1 PUSH2 0x43C3 JUMP JUMPDEST DUP1 PUSH1 0x1F ADD PUSH1 0x20 DUP1 SWAP2 DIV MUL PUSH1 0x20 ADD PUSH1 0x40 MLOAD SWAP1 DUP2 ADD PUSH1 0x40 MSTORE DUP1 SWAP3 SWAP2 SWAP1 DUP2 DUP2 MSTORE PUSH1 0x20 ADD DUP3 DUP1 SLOAD PUSH2 0x1DDA SWAP1 PUSH2 0x43C3 JUMP JUMPDEST DUP1 ISZERO PUSH2 0x1E27 JUMPI DUP1 PUSH1 0x1F LT PUSH2 0x1DFC JUMPI PUSH2 0x100 DUP1 DUP4 SLOAD DIV MUL DUP4 MSTORE SWAP2 PUSH1 0x20 ADD SWAP2 PUSH2 0x1E27 JUMP JUMPDEST DUP3 ADD SWAP2 SWAP1 PUSH1 0x0 MSTORE PUSH1 0x20 PUSH1 0x0 KECCAK256 SWAP1 JUMPDEST DUP2 SLOAD DUP2 MSTORE SWAP1 PUSH1 0x1 ADD SWAP1 PUSH1 0x20 ADD DUP1 DUP4 GT PUSH2 0x1E0A JUMPI DUP3 SWAP1 SUB PUSH1 0x1F AND DUP3 ADD SWAP2 JUMPDEST POP POP POP POP POP SWAP1 POP PUSH1 0x0 PUSH1 0x40 MLOAD PUSH2 0x1E3D SWAP2 SWAP1 PUSH2 0x4985 JUMP JUMPDEST PUSH1 0x40 MLOAD DUP1 SWAP2 SUB SWAP1 KECCAK256 DUP2 DUP1 MLOAD SWAP1 PUSH1 0x20 ADD KECCAK256 EQ ISZERO PUSH2 0x1EAC JUMPI PUSH1 0x1 PUSH1 0x13 DUP4 PUSH1 0x40 MLOAD PUSH2 0x1E65 SWAP2 SWAP1 PUSH2 0x4431 JUMP JUMPDEST SWAP1 DUP2 MSTORE PUSH1 0x20 ADD PUSH1 0x40 MLOAD DUP1 SWAP2 SUB SWAP1 KECCAK256 PUSH1 0x0 PUSH1 0x40 MLOAD PUSH2 0x1E82 SWAP2 SWAP1 PUSH2 0x4A1B JUMP JUMPDEST SWAP1 DUP2 MSTORE PUSH1 0x20 ADD PUSH1 0x40 MLOAD DUP1 SWAP2 SUB SWAP1 KECCAK256 PUSH1 0x0 PUSH2 0x100 EXP DUP2 SLOAD DUP2 PUSH1 0xFF MUL NOT AND SWAP1 DUP4 ISZERO ISZERO MUL OR SWAP1 SSTORE POP PUSH2 0x1EFC JUMP JUMPDEST PUSH1 0x0 PUSH1 0x6 DUP3 PUSH1 0x40 MLOAD PUSH2 0x1EBE SWAP2 SWAP1 PUSH2 0x4431 JUMP JUMPDEST SWAP1 DUP2 MSTORE PUSH1 0x20 ADD PUSH1 0x40 MLOAD DUP1 SWAP2 SUB SWAP1 KECCAK256 PUSH1 0x0 SWAP1 SLOAD SWAP1 PUSH2 0x100 EXP SWAP1 DIV PUSH20 0xFFFFFFFFFFFFFFFFFFFFFFFFFFFFFFFFFFFFFFFF AND SWAP1 POP PUSH2 0x1EFA DUP4 DUP4 DUP4 PUSH2 0x1CD8 JUMP JUMPDEST POP JUMPDEST POP POP JUMP JUMPDEST PUSH1 0x1 PUSH1 0x0 SWAP1 SLOAD SWAP1 PUSH2 0x100 EXP SWAP1 DIV PUSH20 0xFFFFFFFFFFFFFFFFFFFFFFFFFFFFFFFFFFFFFFFF AND PUSH20 0xFFFFFFFFFFFFFFFFFFFFFFFFFFFFFFFFFFFFFFFF AND CALLER PUSH20 0xFFFFFFFFFFFFFFFFFFFFFFFFFFFFFFFFFFFFFFFF AND EQ PUSH2 0x1F90 JUMPI PUSH1 0x40 MLOAD PUSH32 0x8C379A000000000000000000000000000000000000000000000000000000000 DUP2 MSTORE PUSH1 0x4 ADD PUSH2 0x1F87 SWAP1 PUSH2 0x41EF JUMP JUMPDEST PUSH1 0x40 MLOAD DUP1 SWAP2 SUB SWAP1 REVERT JUMPDEST DUP1 PUSH1 0x2 PUSH1 0x0 PUSH2 0x100 EXP DUP2 SLOAD DUP2 PUSH20 0xFFFFFFFFFFFFFFFFFFFFFFFFFFFFFFFFFFFFFFFF MUL NOT AND SWAP1 DUP4 PUSH20 0xFFFFFFFFFFFFFFFFFFFFFFFFFFFFFFFFFFFFFFFF AND MUL OR SWAP1 SSTORE POP DUP1 PUSH1 0x3 PUSH1 0x0 PUSH2 0x100 EXP DUP2 SLOAD DUP2 PUSH20 0xFFFFFFFFFFFFFFFFFFFFFFFFFFFFFFFFFFFFFFFF MUL NOT AND SWAP1 DUP4 PUSH20 0xFFFFFFFFFFFFFFFFFFFFFFFFFFFFFFFFFFFFFFFF AND MUL OR SWAP1 SSTORE POP POP JUMP JUMPDEST PUSH1 0xA PUSH1 0x0 SWAP1 SLOAD SWAP1 PUSH2 0x100 EXP SWAP1 DIV PUSH20 0xFFFFFFFFFFFFFFFFFFFFFFFFFFFFFFFFFFFFFFFF AND DUP2 JUMP JUMPDEST PUSH1 0x12 DUP3 DUP1 MLOAD PUSH1 0x20 DUP2 ADD DUP3 ADD DUP1 MLOAD DUP5 DUP3 MSTORE PUSH1 0x20 DUP4 ADD PUSH1 0x20 DUP6 ADD KECCAK256 DUP2 DUP4 MSTORE DUP1 SWAP6 POP POP POP POP POP POP DUP2 DUP1 MLOAD PUSH1 0x20 DUP2 ADD DUP3 ADD DUP1 MLOAD DUP5 DUP3 MSTORE PUSH1 0x20 DUP4 ADD PUSH1 0x20 DUP6 ADD KECCAK256 DUP2 DUP4 MSTORE DUP1 SWAP6 POP POP POP POP POP POP PUSH1 0x0 SWAP2 POP SWAP2 POP POP DUP1 PUSH1 0x0 ADD DUP1 SLOAD PUSH2 0x2097 SWAP1 PUSH2 0x43C3 JUMP JUMPDEST DUP1 PUSH1 0x1F ADD PUSH1 0x20 DUP1 SWAP2 DIV MUL PUSH1 0x20 ADD PUSH1 0x40 MLOAD SWAP1 DUP2 ADD PUSH1 0x40 MSTORE DUP1 SWAP3 SWAP2 SWAP1 DUP2 DUP2 MSTORE PUSH1 0x20 ADD DUP3 DUP1 SLOAD PUSH2 0x20C3 SWAP1 PUSH2 0x43C3 JUMP JUMPDEST DUP1 ISZERO PUSH2 0x2110 JUMPI DUP1 PUSH1 0x1F LT PUSH2 0x20E5 JUMPI PUSH2 0x100 DUP1 DUP4 SLOAD DIV MUL DUP4 MSTORE SWAP2 PUSH1 0x20 ADD SWAP2 PUSH2 0x2110 JUMP JUMPDEST DUP3 ADD SWAP2 SWAP1 PUSH1 0x0 MSTORE PUSH1 0x20 PUSH1 0x0 KECCAK256 SWAP1 JUMPDEST DUP2 SLOAD DUP2 MSTORE SWAP1 PUSH1 0x1 ADD SWAP1 PUSH1 0x20 ADD DUP1 DUP4 GT PUSH2 0x20F3 JUMPI DUP3 SWAP1 SUB PUSH1 0x1F AND DUP3 ADD SWAP2 JUMPDEST POP POP POP POP POP SWAP1 DUP1 PUSH1 0x1 ADD DUP1 SLOAD PUSH2 0x2125 SWAP1 PUSH2 0x43C3 JUMP JUMPDEST DUP1 PUSH1 0x1F ADD PUSH1 0x20 DUP1 SWAP2 DIV MUL PUSH1 0x20 ADD PUSH1 0x40 MLOAD SWAP1 DUP2 ADD PUSH1 0x40 MSTORE DUP1 SWAP3 SWAP2 SWAP1 DUP2 DUP2 MSTORE PUSH1 0x20 ADD DUP3 DUP1 SLOAD PUSH2 0x2151 SWAP1 PUSH2 0x43C3 JUMP JUMPDEST DUP1 ISZERO PUSH2 0x219E JUMPI DUP1 PUSH1 0x1F LT PUSH2 0x2173 JUMPI PUSH2 0x100 DUP1 DUP4 SLOAD DIV MUL DUP4 MSTORE SWAP2 PUSH1 0x20 ADD SWAP2 PUSH2 0x219E JUMP JUMPDEST DUP3 ADD SWAP2 SWAP1 PUSH1 0x0 MSTORE PUSH1 0x20 PUSH1 0x0 KECCAK256 SWAP1 JUMPDEST DUP2 SLOAD DUP2 MSTORE SWAP1 PUSH1 0x1 ADD SWAP1 PUSH1 0x20 ADD DUP1 DUP4 GT PUSH2 0x2181 JUMPI DUP3 SWAP1 SUB PUSH1 0x1F AND DUP3 ADD SWAP2 JUMPDEST POP POP POP POP POP SWAP1 POP DUP3 JUMP JUMPDEST PUSH1 0x9 PUSH1 0x0 SWAP1 SLOAD SWAP1 PUSH2 0x100 EXP SWAP1 DIV PUSH20 0xFFFFFFFFFFFFFFFFFFFFFFFFFFFFFFFFFFFFFFFF AND DUP2 JUMP JUMPDEST PUSH1 0xB DUP1 SLOAD PUSH2 0x21DB SWAP1 PUSH2 0x43C3 JUMP JUMPDEST DUP1 PUSH1 0x1F ADD PUSH1 0x20 DUP1 SWAP2 DIV MUL PUSH1 0x20 ADD PUSH1 0x40 MLOAD SWAP1 DUP2 ADD PUSH1 0x40 MSTORE DUP1 SWAP3 SWAP2 SWAP1 DUP2 DUP2 MSTORE PUSH1 0x20 ADD DUP3 DUP1 SLOAD PUSH2 0x2207 SWAP1 PUSH2 0x43C3 JUMP JUMPDEST DUP1 ISZERO PUSH2 0x2254 JUMPI DUP1 PUSH1 0x1F LT PUSH2 0x2229 JUMPI PUSH2 0x100 DUP1 DUP4 SLOAD DIV MUL DUP4 MSTORE SWAP2 PUSH1 0x20 ADD SWAP2 PUSH2 0x2254 JUMP JUMPDEST DUP3 ADD SWAP2 SWAP1 PUSH1 0x0 MSTORE PUSH1 0x20 PUSH1 0x0 KECCAK256 SWAP1 JUMPDEST DUP2 SLOAD DUP2 MSTORE SWAP1 PUSH1 0x1 ADD SWAP1 PUSH1 0x20 ADD DUP1 DUP4 GT PUSH2 0x2237 JUMPI DUP3 SWAP1 SUB PUSH1 0x1F AND DUP3 ADD SWAP2 JUMPDEST POP POP POP POP POP DUP2 JUMP JUMPDEST PUSH1 0x11 DUP3 DUP1 MLOAD PUSH1 0x20 DUP2 ADD DUP3 ADD DUP1 MLOAD DUP5 DUP3 MSTORE PUSH1 0x20 DUP4 ADD PUSH1 0x20 DUP6 ADD KECCAK256 DUP2 DUP4 MSTORE DUP1 SWAP6 POP POP POP POP POP POP DUP2 DUP1 MLOAD PUSH1 0x20 DUP2 ADD DUP3 ADD DUP1 MLOAD DUP5 DUP3 MSTORE PUSH1 0x20 DUP4 ADD PUSH1 0x20 DUP6 ADD KECCAK256 DUP2 DUP4 MSTORE DUP1 SWAP6 POP POP POP POP POP POP PUSH1 0x0 SWAP2 POP SWAP2 POP SWAP1 SLOAD SWAP1 PUSH2 0x100 EXP SWAP1 DIV PUSH1 0xFF AND DUP2 JUMP JUMPDEST PUSH1 0xE DUP2 DUP2 SLOAD DUP2 LT PUSH2 0x22C7 JUMPI PUSH1 0x0 DUP1 REVERT JUMPDEST SWAP1 PUSH1 0x0 MSTORE PUSH1 0x20 PUSH1 0x0 KECCAK256 ADD PUSH1 0x0 SWAP2 POP SWAP1 POP DUP1 SLOAD PUSH2 0x22E2 SWAP1 PUSH2 0x43C3 JUMP JUMPDEST DUP1 PUSH1 0x1F ADD PUSH1 0x20 DUP1 SWAP2 DIV MUL PUSH1 0x20 ADD PUSH1 0x40 MLOAD SWAP1 DUP2 ADD PUSH1 0x40 MSTORE DUP1 SWAP3 SWAP2 SWAP1 DUP2 DUP2 MSTORE PUSH1 0x20 ADD DUP3 DUP1 SLOAD PUSH2 0x230E SWAP1 PUSH2 0x43C3 JUMP JUMPDEST DUP1 ISZERO PUSH2 0x235B JUMPI DUP1 PUSH1 0x1F LT PUSH2 0x2330 JUMPI PUSH2 0x100 DUP1 DUP4 SLOAD DIV MUL DUP4 MSTORE SWAP2 PUSH1 0x20 ADD SWAP2 PUSH2 0x235B JUMP JUMPDEST DUP3 ADD SWAP2 SWAP1 PUSH1 0x0 MSTORE PUSH1 0x20 PUSH1 0x0 KECCAK256 SWAP1 JUMPDEST DUP2 SLOAD DUP2 MSTORE SWAP1 PUSH1 0x1 ADD SWAP1 PUSH1 0x20 ADD DUP1 DUP4 GT PUSH2 0x233E JUMPI DUP3 SWAP1 SUB PUSH1 0x1F AND DUP3 ADD SWAP2 JUMPDEST POP POP POP POP POP DUP2 JUMP JUMPDEST PUSH1 0x10 DUP2 DUP1 MLOAD PUSH1 0x20 DUP2 ADD DUP3 ADD DUP1 MLOAD DUP5 DUP3 MSTORE PUSH1 0x20 DUP4 ADD PUSH1 0x20 DUP6 ADD KECCAK256 DUP2 DUP4 MSTORE DUP1 SWAP6 POP POP POP POP POP POP PUSH1 0x0 SWAP2 POP SWAP1 POP SLOAD DUP2 JUMP JUMPDEST PUSH1 0x1 PUSH1 0x0 SWAP1 SLOAD SWAP1 PUSH2 0x100 EXP SWAP1 DIV PUSH20 0xFFFFFFFFFFFFFFFFFFFFFFFFFFFFFFFFFFFFFFFF AND DUP2 JUMP JUMPDEST PUSH1 0x0 DUP6 DUP6 DUP2 ADD SWAP1 PUSH2 0x23C8 SWAP2 SWAP1 PUSH2 0x3678 JUMP JUMPDEST SWAP1 POP PUSH1 0x1 PUSH1 0x13 DUP3 PUSH1 0x40 MLOAD PUSH2 0x23DC SWAP2 SWAP1 PUSH2 0x4431 JUMP JUMPDEST SWAP1 DUP2 MSTORE PUSH1 0x20 ADD PUSH1 0x40 MLOAD DUP1 SWAP2 SUB SWAP1 KECCAK256 DUP12 DUP12 PUSH1 0x40 MLOAD PUSH2 0x23FA SWAP3 SWAP2 SWAP1 PUSH2 0x4A57 JUMP JUMPDEST SWAP1 DUP2 MSTORE PUSH1 0x20 ADD PUSH1 0x40 MLOAD DUP1 SWAP2 SUB SWAP1 KECCAK256 PUSH1 0x0 PUSH2 0x100 EXP DUP2 SLOAD DUP2 PUSH1 0xFF MUL NOT AND SWAP1 DUP4 ISZERO ISZERO MUL OR SWAP1 SSTORE POP DUP2 PUSH1 0x10 DUP3 PUSH1 0x40 MLOAD PUSH2 0x2430 SWAP2 SWAP1 PUSH2 0x4431 JUMP JUMPDEST SWAP1 DUP2 MSTORE PUSH1 0x20 ADD PUSH1 0x40 MLOAD DUP1 SWAP2 SUB SWAP1 KECCAK256 PUSH1 0x0 DUP3 DUP3 SLOAD PUSH2 0x244D SWAP2 SWAP1 PUSH2 0x44AE JUMP JUMPDEST SWAP3 POP POP DUP2 SWAP1 SSTORE POP POP POP POP POP POP POP POP POP POP POP JUMP JUMPDEST PUSH1 0x0 DUP1 PUSH1 0x0 DUP1 PUSH1 0x0 DUP7 DUP7 DUP2 ADD SWAP1 PUSH2 0x2477 SWAP2 SWAP1 PUSH2 0x3F89 JUMP JUMPDEST SWAP5 POP SWAP5 POP SWAP5 POP SWAP5 POP SWAP5 POP DUP11 DUP11 PUSH1 0x4 SWAP2 SWAP1 PUSH2 0x2492 SWAP3 SWAP2 SWAP1 PUSH2 0x3309 JUMP JUMPDEST POP DUP9 DUP9 PUSH1 0x5 SWAP2 SWAP1 PUSH2 0x24A4 SWAP3 SWAP2 SWAP1 PUSH2 0x3309 JUMP JUMPDEST POP PUSH1 0x1 DUP6 EQ ISZERO PUSH2 0x25F6 JUMPI DUP3 ISZERO PUSH2 0x254F JUMPI PUSH2 0x24BD DUP5 PUSH2 0x2E66 JUMP JUMPDEST PUSH1 0x3 PUSH1 0x0 SWAP1 SLOAD SWAP1 PUSH2 0x100 EXP SWAP1 DIV PUSH20 0xFFFFFFFFFFFFFFFFFFFFFFFFFFFFFFFFFFFFFFFF AND PUSH20 0xFFFFFFFFFFFFFFFFFFFFFFFFFFFFFFFFFFFFFFFF AND PUSH4 0x5CC00F7E DUP6 PUSH1 0x40 MLOAD DUP3 PUSH4 0xFFFFFFFF AND PUSH1 0xE0 SHL DUP2 MSTORE PUSH1 0x4 ADD PUSH2 0x2518 SWAP2 SWAP1 PUSH2 0x3A15 JUMP JUMPDEST PUSH1 0x0 PUSH1 0x40 MLOAD DUP1 DUP4 SUB DUP2 PUSH1 0x0 DUP8 DUP1 EXTCODESIZE ISZERO DUP1 ISZERO PUSH2 0x2532 JUMPI PUSH1 0x0 DUP1 REVERT JUMPDEST POP GAS CALL ISZERO DUP1 ISZERO PUSH2 0x2546 JUMPI RETURNDATASIZE PUSH1 0x0 DUP1 RETURNDATACOPY RETURNDATASIZE PUSH1 0x0 REVERT JUMPDEST POP POP POP POP PUSH2 0x2559 JUMP JUMPDEST PUSH2 0x2558 DUP5 PUSH2 0x2F98 JUMP JUMPDEST JUMPDEST PUSH2 0x25F1 DUP12 DUP12 DUP1 DUP1 PUSH1 0x1F ADD PUSH1 0x20 DUP1 SWAP2 DIV MUL PUSH1 0x20 ADD PUSH1 0x40 MLOAD SWAP1 DUP2 ADD PUSH1 0x40 MSTORE DUP1 SWAP4 SWAP3 SWAP2 SWAP1 DUP2 DUP2 MSTORE PUSH1 0x20 ADD DUP4 DUP4 DUP1 DUP3 DUP5 CALLDATACOPY PUSH1 0x0 DUP2 DUP5 ADD MSTORE PUSH1 0x1F NOT PUSH1 0x1F DUP3 ADD AND SWAP1 POP DUP1 DUP4 ADD SWAP3 POP POP POP POP POP POP POP DUP11 DUP11 DUP1 DUP1 PUSH1 0x1F ADD PUSH1 0x20 DUP1 SWAP2 DIV MUL PUSH1 0x20 ADD PUSH1 0x40 MLOAD SWAP1 DUP2 ADD PUSH1 0x40 MSTORE DUP1 SWAP4 SWAP3 SWAP2 SWAP1 DUP2 DUP2 MSTORE PUSH1 0x20 ADD DUP4 DUP4 DUP1 DUP3 DUP5 CALLDATACOPY PUSH1 0x0 DUP2 DUP5 ADD MSTORE PUSH1 0x1F NOT PUSH1 0x1F DUP3 ADD AND SWAP1 POP DUP1 DUP4 ADD SWAP3 POP POP POP POP POP POP POP PUSH1 0x0 DUP8 DUP8 DUP8 DUP8 PUSH2 0x123E JUMP JUMPDEST PUSH2 0x27AD JUMP JUMPDEST PUSH1 0x2 DUP6 EQ ISZERO PUSH2 0x26A7 JUMPI PUSH2 0x260A DUP5 DUP3 DUP5 PUSH2 0x320E JUMP JUMPDEST PUSH2 0x26A2 DUP12 DUP12 DUP1 DUP1 PUSH1 0x1F ADD PUSH1 0x20 DUP1 SWAP2 DIV MUL PUSH1 0x20 ADD PUSH1 0x40 MLOAD SWAP1 DUP2 ADD PUSH1 0x40 MSTORE DUP1 SWAP4 SWAP3 SWAP2 SWAP1 DUP2 DUP2 MSTORE PUSH1 0x20 ADD DUP4 DUP4 DUP1 DUP3 DUP5 CALLDATACOPY PUSH1 0x0 DUP2 DUP5 ADD MSTORE PUSH1 0x1F NOT PUSH1 0x1F DUP3 ADD AND SWAP1 POP DUP1 DUP4 ADD SWAP3 POP POP POP POP POP POP POP DUP11 DUP11 DUP1 DUP1 PUSH1 0x1F ADD PUSH1 0x20 DUP1 SWAP2 DIV MUL PUSH1 0x20 ADD PUSH1 0x40 MLOAD SWAP1 DUP2 ADD PUSH1 0x40 MSTORE DUP1 SWAP4 SWAP3 SWAP2 SWAP1 DUP2 DUP2 MSTORE PUSH1 0x20 ADD DUP4 DUP4 DUP1 DUP3 DUP5 CALLDATACOPY PUSH1 0x0 DUP2 DUP5 ADD MSTORE PUSH1 0x1F NOT PUSH1 0x1F DUP3 ADD AND SWAP1 POP DUP1 DUP4 ADD SWAP3 POP POP POP POP POP POP POP PUSH1 0x0 DUP8 DUP8 DUP8 DUP8 PUSH2 0x123E JUMP JUMPDEST PUSH2 0x27AC JUMP JUMPDEST PUSH1 0x3 DUP6 EQ ISZERO PUSH2 0x26BE JUMPI PUSH2 0x26B9 DUP5 PUSH2 0x1D80 JUMP JUMPDEST PUSH2 0x27AB JUMP JUMPDEST PUSH1 0x0 DUP6 EQ ISZERO PUSH2 0x27AA JUMPI DUP3 PUSH1 0x11 DUP6 PUSH1 0x40 MLOAD PUSH2 0x26D8 SWAP2 SWAP1 PUSH2 0x4431 JUMP JUMPDEST SWAP1 DUP2 MSTORE PUSH1 0x20 ADD PUSH1 0x40 MLOAD DUP1 SWAP2 SUB SWAP1 KECCAK256 DUP13 DUP13 PUSH1 0x40 MLOAD PUSH2 0x26F6 SWAP3 SWAP2 SWAP1 PUSH2 0x4A57 JUMP JUMPDEST SWAP1 DUP2 MSTORE PUSH1 0x20 ADD PUSH1 0x40 MLOAD DUP1 SWAP2 SUB SWAP1 KECCAK256 PUSH1 0x0 PUSH2 0x100 EXP DUP2 SLOAD DUP2 PUSH1 0xFF MUL NOT AND SWAP1 DUP4 ISZERO ISZERO MUL OR SWAP1 SSTORE POP PUSH1 0x40 MLOAD DUP1 PUSH1 0x40 ADD PUSH1 0x40 MSTORE DUP1 DUP3 DUP2 MSTORE PUSH1 0x20 ADD DUP4 DUP2 MSTORE POP PUSH1 0x12 DUP6 PUSH1 0x40 MLOAD PUSH2 0x2740 SWAP2 SWAP1 PUSH2 0x4431 JUMP JUMPDEST SWAP1 DUP2 MSTORE PUSH1 0x20 ADD PUSH1 0x40 MLOAD DUP1 SWAP2 SUB SWAP1 KECCAK256 DUP13 DUP13 PUSH1 0x40 MLOAD PUSH2 0x275E SWAP3 SWAP2 SWAP1 PUSH2 0x4A57 JUMP JUMPDEST SWAP1 DUP2 MSTORE PUSH1 0x20 ADD PUSH1 0x40 MLOAD DUP1 SWAP2 SUB SWAP1 KECCAK256 PUSH1 0x0 DUP3 ADD MLOAD DUP2 PUSH1 0x0 ADD SWAP1 DUP1 MLOAD SWAP1 PUSH1 0x20 ADD SWAP1 PUSH2 0x2788 SWAP3 SWAP2 SWAP1 PUSH2 0x3283 JUMP JUMPDEST POP PUSH1 0x20 DUP3 ADD MLOAD DUP2 PUSH1 0x1 ADD SWAP1 DUP1 MLOAD SWAP1 PUSH1 0x20 ADD SWAP1 PUSH2 0x27A5 SWAP3 SWAP2 SWAP1 PUSH2 0x3283 JUMP JUMPDEST POP SWAP1 POP POP JUMPDEST JUMPDEST JUMPDEST JUMPDEST DUP4 PUSH1 0x40 MLOAD PUSH2 0x27BB SWAP2 SWAP1 PUSH2 0x4431 JUMP JUMPDEST PUSH1 0x40 MLOAD DUP1 SWAP2 SUB SWAP1 KECCAK256 DUP6 CALLER PUSH20 0xFFFFFFFFFFFFFFFFFFFFFFFFFFFFFFFFFFFFFFFF AND PUSH32 0x8A40688851E91E3BD6BAF89A23FFAA0BCF0B0F6F442CC9052CCB46DED80C20A3 DUP7 DUP7 DUP7 PUSH1 0x40 MLOAD PUSH2 0x280E SWAP4 SWAP3 SWAP2 SWAP1 PUSH2 0x4A70 JUMP JUMPDEST PUSH1 0x40 MLOAD DUP1 SWAP2 SUB SWAP1 LOG4 POP POP POP POP POP POP POP POP POP POP POP JUMP JUMPDEST PUSH1 0x0 DUP1 DUP3 SWAP1 POP PUSH1 0x0 DUP1 PUSH1 0x2A DUP4 MLOAD EQ ISZERO DUP1 PUSH2 0x289D JUMPI POP PUSH32 0x3000000000000000000000000000000000000000000000000000000000000000 DUP4 PUSH1 0x0 DUP2 MLOAD DUP2 LT PUSH2 0x286D JUMPI PUSH2 0x286C PUSH2 0x4733 JUMP JUMPDEST JUMPDEST PUSH1 0x20 ADD ADD MLOAD PUSH1 0xF8 SHR PUSH1 0xF8 SHL PUSH31 0xFFFFFFFFFFFFFFFFFFFFFFFFFFFFFFFFFFFFFFFFFFFFFFFFFFFFFFFFFFFFFF NOT AND EQ ISZERO JUMPDEST DUP1 PUSH2 0x2908 JUMPI POP PUSH32 0x7800000000000000000000000000000000000000000000000000000000000000 DUP4 PUSH1 0x1 DUP2 MLOAD DUP2 LT PUSH2 0x28D8 JUMPI PUSH2 0x28D7 PUSH2 0x4733 JUMP JUMPDEST JUMPDEST PUSH1 0x20 ADD ADD MLOAD PUSH1 0xF8 SHR PUSH1 0xF8 SHL PUSH31 0xFFFFFFFFFFFFFFFFFFFFFFFFFFFFFFFFFFFFFFFFFFFFFFFFFFFFFFFFFFFFFF NOT AND EQ ISZERO JUMPDEST ISZERO PUSH2 0x293F JUMPI PUSH1 0x40 MLOAD PUSH32 0xDF48F19E00000000000000000000000000000000000000000000000000000000 DUP2 MSTORE PUSH1 0x4 ADD PUSH1 0x40 MLOAD DUP1 SWAP2 SUB SWAP1 REVERT JUMPDEST PUSH1 0x0 PUSH1 0x2 SWAP1 POP JUMPDEST PUSH1 0x2A DUP2 LT ISZERO PUSH2 0x2A65 JUMPI DUP4 DUP2 DUP2 MLOAD DUP2 LT PUSH2 0x2962 JUMPI PUSH2 0x2961 PUSH2 0x4733 JUMP JUMPDEST JUMPDEST PUSH1 0x20 ADD ADD MLOAD PUSH1 0xF8 SHR PUSH1 0xF8 SHL PUSH1 0xF8 SHR SWAP2 POP PUSH1 0x61 DUP3 PUSH1 0xFF AND LT ISZERO DUP1 ISZERO PUSH2 0x298A JUMPI POP PUSH1 0x66 DUP3 PUSH1 0xFF AND GT ISZERO JUMPDEST ISZERO PUSH2 0x29A3 JUMPI PUSH1 0x57 DUP3 PUSH2 0x299C SWAP2 SWAP1 PUSH2 0x4AC2 JUMP JUMPDEST SWAP2 POP PUSH2 0x2A39 JUMP JUMPDEST PUSH1 0x41 DUP3 PUSH1 0xFF AND LT ISZERO DUP1 ISZERO PUSH2 0x29BB JUMPI POP PUSH1 0x46 DUP3 PUSH1 0xFF AND GT ISZERO JUMPDEST ISZERO PUSH2 0x29D4 JUMPI PUSH1 0x37 DUP3 PUSH2 0x29CD SWAP2 SWAP1 PUSH2 0x4AC2 JUMP JUMPDEST SWAP2 POP PUSH2 0x2A38 JUMP JUMPDEST PUSH1 0x30 DUP3 PUSH1 0xFF AND LT ISZERO DUP1 ISZERO PUSH2 0x29EC JUMPI POP PUSH1 0x39 DUP3 PUSH1 0xFF AND GT ISZERO JUMPDEST ISZERO PUSH2 0x2A05 JUMPI PUSH1 0x30 DUP3 PUSH2 0x29FE SWAP2 SWAP1 PUSH2 0x4AC2 JUMP JUMPDEST SWAP2 POP PUSH2 0x2A37 JUMP JUMPDEST PUSH1 0x40 MLOAD PUSH32 0xDF48F19E00000000000000000000000000000000000000000000000000000000 DUP2 MSTORE PUSH1 0x4 ADD PUSH1 0x40 MLOAD DUP1 SWAP2 SUB SWAP1 REVERT JUMPDEST JUMPDEST JUMPDEST PUSH1 0x2 DUP2 PUSH1 0x29 PUSH2 0x2A48 SWAP2 SWAP1 PUSH2 0x4AF6 JUMP JUMPDEST SWAP1 SHL DUP3 PUSH1 0xFF AND SWAP1 SHL DUP4 OR SWAP3 POP DUP1 PUSH2 0x2A5E SWAP1 PUSH2 0x4B2A JUMP JUMPDEST SWAP1 POP PUSH2 0x2946 JUMP JUMPDEST POP DUP2 SWAP4 POP POP POP POP SWAP2 SWAP1 POP JUMP JUMPDEST PUSH1 0x0 PUSH1 0x1 SWAP1 POP PUSH1 0x0 JUMPDEST PUSH1 0x8 DUP1 SLOAD SWAP1 POP DUP2 LT ISZERO PUSH2 0x2B08 JUMPI PUSH1 0x13 DUP4 PUSH1 0x40 MLOAD PUSH2 0x2A97 SWAP2 SWAP1 PUSH2 0x4431 JUMP JUMPDEST SWAP1 DUP2 MSTORE PUSH1 0x20 ADD PUSH1 0x40 MLOAD DUP1 SWAP2 SUB SWAP1 KECCAK256 PUSH1 0x8 DUP3 DUP2 SLOAD DUP2 LT PUSH2 0x2AB9 JUMPI PUSH2 0x2AB8 PUSH2 0x4733 JUMP JUMPDEST JUMPDEST SWAP1 PUSH1 0x0 MSTORE PUSH1 0x20 PUSH1 0x0 KECCAK256 ADD PUSH1 0x40 MLOAD PUSH2 0x2AD0 SWAP2 SWAP1 PUSH2 0x4A1B JUMP JUMPDEST SWAP1 DUP2 MSTORE PUSH1 0x20 ADD PUSH1 0x40 MLOAD DUP1 SWAP2 SUB SWAP1 KECCAK256 PUSH1 0x0 SWAP1 SLOAD SWAP1 PUSH2 0x100 EXP SWAP1 DIV PUSH1 0xFF AND PUSH2 0x2AF5 JUMPI PUSH1 0x0 SWAP2 POP JUMPDEST DUP1 DUP1 PUSH2 0x2B00 SWAP1 PUSH2 0x4B2A JUMP JUMPDEST SWAP2 POP POP PUSH2 0x2A7A JUMP JUMPDEST POP DUP1 PUSH1 0xD DUP4 PUSH1 0x40 MLOAD PUSH2 0x2B1A SWAP2 SWAP1 PUSH2 0x4431 JUMP JUMPDEST SWAP1 DUP2 MSTORE PUSH1 0x20 ADD PUSH1 0x40 MLOAD DUP1 SWAP2 SUB SWAP1 KECCAK256 PUSH1 0x0 PUSH2 0x100 EXP DUP2 SLOAD DUP2 PUSH1 0xFF MUL NOT AND SWAP1 DUP4 ISZERO ISZERO MUL OR SWAP1 SSTORE POP POP POP JUMP JUMPDEST PUSH1 0x60 PUSH1 0x0 DUP3 PUSH1 0x40 MLOAD PUSH1 0x20 ADD PUSH2 0x2B58 SWAP2 SWAP1 PUSH2 0x4BBB JUMP JUMPDEST PUSH1 0x40 MLOAD PUSH1 0x20 DUP2 DUP4 SUB SUB DUP2 MSTORE SWAP1 PUSH1 0x40 MSTORE SWAP1 POP PUSH1 0x0 DUP2 MLOAD SWAP1 POP PUSH1 0x0 PUSH1 0x40 MLOAD DUP1 PUSH1 0x40 ADD PUSH1 0x40 MSTORE DUP1 PUSH1 0x10 DUP2 MSTORE PUSH1 0x20 ADD PUSH32 0x3031323334353637383961626364656600000000000000000000000000000000 DUP2 MSTORE POP SWAP1 POP PUSH1 0x0 PUSH1 0x2 DUP5 MLOAD PUSH2 0x2BB9 SWAP2 SWAP1 PUSH2 0x4BD6 JUMP JUMPDEST PUSH1 0x2 PUSH2 0x2BC5 SWAP2 SWAP1 PUSH2 0x44AE JUMP JUMPDEST PUSH8 0xFFFFFFFFFFFFFFFF DUP2 GT ISZERO PUSH2 0x2BDE JUMPI PUSH2 0x2BDD PUSH2 0x349F JUMP JUMPDEST JUMPDEST PUSH1 0x40 MLOAD SWAP1 DUP1 DUP3 MSTORE DUP1 PUSH1 0x1F ADD PUSH1 0x1F NOT AND PUSH1 0x20 ADD DUP3 ADD PUSH1 0x40 MSTORE DUP1 ISZERO PUSH2 0x2C10 JUMPI DUP2 PUSH1 0x20 ADD PUSH1 0x1 DUP3 MUL DUP1 CALLDATASIZE DUP4 CALLDATACOPY DUP1 DUP3 ADD SWAP2 POP POP SWAP1 POP JUMPDEST POP SWAP1 POP PUSH32 0x3000000000000000000000000000000000000000000000000000000000000000 DUP2 PUSH1 0x0 DUP2 MLOAD DUP2 LT PUSH2 0x2C48 JUMPI PUSH2 0x2C47 PUSH2 0x4733 JUMP JUMPDEST JUMPDEST PUSH1 0x20 ADD ADD SWAP1 PUSH31 0xFFFFFFFFFFFFFFFFFFFFFFFFFFFFFFFFFFFFFFFFFFFFFFFFFFFFFFFFFFFFFF NOT AND SWAP1 DUP2 PUSH1 0x0 BYTE SWAP1 MSTORE8 POP PUSH32 0x7800000000000000000000000000000000000000000000000000000000000000 DUP2 PUSH1 0x1 DUP2 MLOAD DUP2 LT PUSH2 0x2CAC JUMPI PUSH2 0x2CAB PUSH2 0x4733 JUMP JUMPDEST JUMPDEST PUSH1 0x20 ADD ADD SWAP1 PUSH31 0xFFFFFFFFFFFFFFFFFFFFFFFFFFFFFFFFFFFFFFFFFFFFFFFFFFFFFFFFFFFFFF NOT AND SWAP1 DUP2 PUSH1 0x0 BYTE SWAP1 MSTORE8 POP PUSH1 0x0 JUMPDEST DUP4 DUP2 LT ISZERO PUSH2 0x2E59 JUMPI DUP3 PUSH1 0x4 DUP7 DUP4 DUP2 MLOAD DUP2 LT PUSH2 0x2CFC JUMPI PUSH2 0x2CFB PUSH2 0x4733 JUMP JUMPDEST JUMPDEST PUSH1 0x20 ADD ADD MLOAD PUSH1 0xF8 SHR PUSH1 0xF8 SHL PUSH31 0xFFFFFFFFFFFFFFFFFFFFFFFFFFFFFFFFFFFFFFFFFFFFFFFFFFFFFFFFFFFFFF NOT AND SWAP1 SHR PUSH1 0xF8 SHR PUSH1 0xFF AND DUP2 MLOAD DUP2 LT PUSH2 0x2D42 JUMPI PUSH2 0x2D41 PUSH2 0x4733 JUMP JUMPDEST JUMPDEST PUSH1 0x20 ADD ADD MLOAD PUSH1 0xF8 SHR PUSH1 0xF8 SHL DUP3 PUSH1 0x2 DUP4 PUSH2 0x2D5B SWAP2 SWAP1 PUSH2 0x4BD6 JUMP JUMPDEST PUSH1 0x2 PUSH2 0x2D67 SWAP2 SWAP1 PUSH2 0x44AE JUMP JUMPDEST DUP2 MLOAD DUP2 LT PUSH2 0x2D78 JUMPI PUSH2 0x2D77 PUSH2 0x4733 JUMP JUMPDEST JUMPDEST PUSH1 0x20 ADD ADD SWAP1 PUSH31 0xFFFFFFFFFFFFFFFFFFFFFFFFFFFFFFFFFFFFFFFFFFFFFFFFFFFFFFFFFFFFFF NOT AND SWAP1 DUP2 PUSH1 0x0 BYTE SWAP1 MSTORE8 POP DUP3 PUSH1 0xF PUSH1 0xF8 SHL DUP7 DUP4 DUP2 MLOAD DUP2 LT PUSH2 0x2DC0 JUMPI PUSH2 0x2DBF PUSH2 0x4733 JUMP JUMPDEST JUMPDEST PUSH1 0x20 ADD ADD MLOAD PUSH1 0xF8 SHR PUSH1 0xF8 SHL AND PUSH1 0xF8 SHR PUSH1 0xFF AND DUP2 MLOAD DUP2 LT PUSH2 0x2DE3 JUMPI PUSH2 0x2DE2 PUSH2 0x4733 JUMP JUMPDEST JUMPDEST PUSH1 0x20 ADD ADD MLOAD PUSH1 0xF8 SHR PUSH1 0xF8 SHL DUP3 PUSH1 0x2 DUP4 PUSH2 0x2DFC SWAP2 SWAP1 PUSH2 0x4BD6 JUMP JUMPDEST PUSH1 0x3 PUSH2 0x2E08 SWAP2 SWAP1 PUSH2 0x44AE JUMP JUMPDEST DUP2 MLOAD DUP2 LT PUSH2 0x2E19 JUMPI PUSH2 0x2E18 PUSH2 0x4733 JUMP JUMPDEST JUMPDEST PUSH1 0x20 ADD ADD SWAP1 PUSH31 0xFFFFFFFFFFFFFFFFFFFFFFFFFFFFFFFFFFFFFFFFFFFFFFFFFFFFFFFFFFFFFF NOT AND SWAP1 DUP2 PUSH1 0x0 BYTE SWAP1 MSTORE8 POP DUP1 PUSH2 0x2E52 SWAP1 PUSH2 0x4B2A JUMP JUMPDEST SWAP1 POP PUSH2 0x2CDE JUMP JUMPDEST POP DUP1 SWAP5 POP POP POP POP POP SWAP2 SWAP1 POP JUMP JUMPDEST PUSH1 0xC DUP2 PUSH1 0x40 MLOAD PUSH2 0x2E76 SWAP2 SWAP1 PUSH2 0x4431 JUMP JUMPDEST SWAP1 DUP2 MSTORE PUSH1 0x20 ADD PUSH1 0x40 MLOAD DUP1 SWAP2 SUB SWAP1 KECCAK256 PUSH1 0x0 SWAP1 SLOAD SWAP1 PUSH2 0x100 EXP SWAP1 DIV PUSH1 0xFF AND ISZERO DUP1 ISZERO PUSH2 0x2EC8 JUMPI POP PUSH1 0xD DUP2 PUSH1 0x40 MLOAD PUSH2 0x2EAA SWAP2 SWAP1 PUSH2 0x4431 JUMP JUMPDEST SWAP1 DUP2 MSTORE PUSH1 0x20 ADD PUSH1 0x40 MLOAD DUP1 SWAP2 SUB SWAP1 KECCAK256 PUSH1 0x0 SWAP1 SLOAD SWAP1 PUSH2 0x100 EXP SWAP1 DIV PUSH1 0xFF AND ISZERO JUMPDEST ISZERO PUSH2 0x2F95 JUMPI PUSH1 0x1 PUSH1 0xC DUP3 PUSH1 0x40 MLOAD PUSH2 0x2EDF SWAP2 SWAP1 PUSH2 0x4431 JUMP JUMPDEST SWAP1 DUP2 MSTORE PUSH1 0x20 ADD PUSH1 0x40 MLOAD DUP1 SWAP2 SUB SWAP1 KECCAK256 PUSH1 0x0 PUSH2 0x100 EXP DUP2 SLOAD DUP2 PUSH1 0xFF MUL NOT AND SWAP1 DUP4 ISZERO ISZERO MUL OR SWAP1 SSTORE POP PUSH1 0xE DUP2 SWAP1 DUP1 PUSH1 0x1 DUP2 SLOAD ADD DUP1 DUP3 SSTORE DUP1 SWAP2 POP POP PUSH1 0x1 SWAP1 SUB SWAP1 PUSH1 0x0 MSTORE PUSH1 0x20 PUSH1 0x0 KECCAK256 ADD PUSH1 0x0 SWAP1 SWAP2 SWAP1 SWAP2 SWAP1 SWAP2 POP SWAP1 DUP1 MLOAD SWAP1 PUSH1 0x20 ADD SWAP1 PUSH2 0x2F3F SWAP3 SWAP2 SWAP1 PUSH2 0x3283 JUMP JUMPDEST POP PUSH1 0x1 PUSH1 0x11 DUP3 PUSH1 0x40 MLOAD PUSH2 0x2F52 SWAP2 SWAP1 PUSH2 0x4431 JUMP JUMPDEST SWAP1 DUP2 MSTORE PUSH1 0x20 ADD PUSH1 0x40 MLOAD DUP1 SWAP2 SUB SWAP1 KECCAK256 PUSH1 0x0 PUSH1 0x40 MLOAD PUSH2 0x2F6F SWAP2 SWAP1 PUSH2 0x4A1B JUMP JUMPDEST SWAP1 DUP2 MSTORE PUSH1 0x20 ADD PUSH1 0x40 MLOAD DUP1 SWAP2 SUB SWAP1 KECCAK256 PUSH1 0x0 PUSH2 0x100 EXP DUP2 SLOAD DUP2 PUSH1 0xFF MUL NOT AND SWAP1 DUP4 ISZERO ISZERO MUL OR SWAP1 SSTORE POP JUMPDEST POP JUMP JUMPDEST PUSH1 0xC DUP2 PUSH1 0x40 MLOAD PUSH2 0x2FA8 SWAP2 SWAP1 PUSH2 0x4431 JUMP JUMPDEST SWAP1 DUP2 MSTORE PUSH1 0x20 ADD PUSH1 0x40 MLOAD DUP1 SWAP2 SUB SWAP1 KECCAK256 PUSH1 0x0 SWAP1 SLOAD SWAP1 PUSH2 0x100 EXP SWAP1 DIV PUSH1 0xFF AND ISZERO PUSH2 0x320B JUMPI PUSH1 0x0 PUSH1 0xC DUP3 PUSH1 0x40 MLOAD PUSH2 0x2FDB SWAP2 SWAP1 PUSH2 0x4431 JUMP JUMPDEST SWAP1 DUP2 MSTORE PUSH1 0x20 ADD PUSH1 0x40 MLOAD DUP1 SWAP2 SUB SWAP1 KECCAK256 PUSH1 0x0 PUSH2 0x100 EXP DUP2 SLOAD DUP2 PUSH1 0xFF MUL NOT AND SWAP1 DUP4 ISZERO ISZERO MUL OR SWAP1 SSTORE POP PUSH1 0x0 PUSH1 0x11 DUP3 PUSH1 0x40 MLOAD PUSH2 0x3012 SWAP2 SWAP1 PUSH2 0x4431 JUMP JUMPDEST SWAP1 DUP2 MSTORE PUSH1 0x20 ADD PUSH1 0x40 MLOAD DUP1 SWAP2 SUB SWAP1 KECCAK256 PUSH1 0x0 PUSH1 0x40 MLOAD PUSH2 0x302F SWAP2 SWAP1 PUSH2 0x4A1B JUMP JUMPDEST SWAP1 DUP2 MSTORE PUSH1 0x20 ADD PUSH1 0x40 MLOAD DUP1 SWAP2 SUB SWAP1 KECCAK256 PUSH1 0x0 PUSH2 0x100 EXP DUP2 SLOAD DUP2 PUSH1 0xFF MUL NOT AND SWAP1 DUP4 ISZERO ISZERO MUL OR SWAP1 SSTORE POP PUSH1 0x0 PUSH1 0x1 PUSH1 0xE DUP1 SLOAD SWAP1 POP PUSH2 0x3068 SWAP2 SWAP1 PUSH2 0x4AF6 JUMP JUMPDEST PUSH8 0xFFFFFFFFFFFFFFFF DUP2 GT ISZERO PUSH2 0x3081 JUMPI PUSH2 0x3080 PUSH2 0x349F JUMP JUMPDEST JUMPDEST PUSH1 0x40 MLOAD SWAP1 DUP1 DUP3 MSTORE DUP1 PUSH1 0x20 MUL PUSH1 0x20 ADD DUP3 ADD PUSH1 0x40 MSTORE DUP1 ISZERO PUSH2 0x30B4 JUMPI DUP2 PUSH1 0x20 ADD JUMPDEST PUSH1 0x60 DUP2 MSTORE PUSH1 0x20 ADD SWAP1 PUSH1 0x1 SWAP1 SUB SWAP1 DUP2 PUSH2 0x309F JUMPI SWAP1 POP JUMPDEST POP SWAP1 POP PUSH1 0x0 DUP1 JUMPDEST PUSH1 0xE DUP1 SLOAD SWAP1 POP DUP2 LT ISZERO PUSH2 0x31F0 JUMPI DUP4 DUP1 MLOAD SWAP1 PUSH1 0x20 ADD KECCAK256 PUSH1 0xE DUP3 DUP2 SLOAD DUP2 LT PUSH2 0x30E4 JUMPI PUSH2 0x30E3 PUSH2 0x4733 JUMP JUMPDEST JUMPDEST SWAP1 PUSH1 0x0 MSTORE PUSH1 0x20 PUSH1 0x0 KECCAK256 ADD PUSH1 0x40 MLOAD PUSH2 0x30FB SWAP2 SWAP1 PUSH2 0x4985 JUMP JUMPDEST PUSH1 0x40 MLOAD DUP1 SWAP2 SUB SWAP1 KECCAK256 EQ PUSH2 0x31DD JUMPI PUSH1 0xE DUP2 DUP2 SLOAD DUP2 LT PUSH2 0x311C JUMPI PUSH2 0x311B PUSH2 0x4733 JUMP JUMPDEST JUMPDEST SWAP1 PUSH1 0x0 MSTORE PUSH1 0x20 PUSH1 0x0 KECCAK256 ADD DUP1 SLOAD PUSH2 0x3131 SWAP1 PUSH2 0x43C3 JUMP JUMPDEST DUP1 PUSH1 0x1F ADD PUSH1 0x20 DUP1 SWAP2 DIV MUL PUSH1 0x20 ADD PUSH1 0x40 MLOAD SWAP1 DUP2 ADD PUSH1 0x40 MSTORE DUP1 SWAP3 SWAP2 SWAP1 DUP2 DUP2 MSTORE PUSH1 0x20 ADD DUP3 DUP1 SLOAD PUSH2 0x315D SWAP1 PUSH2 0x43C3 JUMP JUMPDEST DUP1 ISZERO PUSH2 0x31AA JUMPI DUP1 PUSH1 0x1F LT PUSH2 0x317F JUMPI PUSH2 0x100 DUP1 DUP4 SLOAD DIV MUL DUP4 MSTORE SWAP2 PUSH1 0x20 ADD SWAP2 PUSH2 0x31AA JUMP JUMPDEST DUP3 ADD SWAP2 SWAP1 PUSH1 0x0 MSTORE PUSH1 0x20 PUSH1 0x0 KECCAK256 SWAP1 JUMPDEST DUP2 SLOAD DUP2 MSTORE SWAP1 PUSH1 0x1 ADD SWAP1 PUSH1 0x20 ADD DUP1 DUP4 GT PUSH2 0x318D JUMPI DUP3 SWAP1 SUB PUSH1 0x1F AND DUP3 ADD SWAP2 JUMPDEST POP POP POP POP POP DUP4 DUP4 DUP2 MLOAD DUP2 LT PUSH2 0x31C2 JUMPI PUSH2 0x31C1 PUSH2 0x4733 JUMP JUMPDEST JUMPDEST PUSH1 0x20 MUL PUSH1 0x20 ADD ADD DUP2 SWAP1 MSTORE POP PUSH1 0x1 DUP3 PUSH2 0x31DA SWAP2 SWAP1 PUSH2 0x44AE JUMP JUMPDEST SWAP2 POP JUMPDEST DUP1 DUP1 PUSH2 0x31E8 SWAP1 PUSH2 0x4B2A JUMP JUMPDEST SWAP2 POP POP PUSH2 0x30BB JUMP JUMPDEST POP DUP2 PUSH1 0xE SWAP1 DUP1 MLOAD SWAP1 PUSH1 0x20 ADD SWAP1 PUSH2 0x3207 SWAP3 SWAP2 SWAP1 PUSH2 0x338F JUMP JUMPDEST POP POP POP JUMPDEST POP JUMP JUMPDEST PUSH1 0x40 MLOAD DUP1 PUSH1 0x40 ADD PUSH1 0x40 MSTORE DUP1 DUP4 DUP2 MSTORE PUSH1 0x20 ADD DUP3 DUP2 MSTORE POP PUSH1 0xF DUP5 PUSH1 0x40 MLOAD PUSH2 0x3233 SWAP2 SWAP1 PUSH2 0x4431 JUMP JUMPDEST SWAP1 DUP2 MSTORE PUSH1 0x20 ADD PUSH1 0x40 MLOAD DUP1 SWAP2 SUB SWAP1 KECCAK256 PUSH1 0x0 DUP3 ADD MLOAD DUP2 PUSH1 0x0 ADD SWAP1 DUP1 MLOAD SWAP1 PUSH1 0x20 ADD SWAP1 PUSH2 0x325D SWAP3 SWAP2 SWAP1 PUSH2 0x3283 JUMP JUMPDEST POP PUSH1 0x20 DUP3 ADD MLOAD DUP2 PUSH1 0x1 ADD SWAP1 DUP1 MLOAD SWAP1 PUSH1 0x20 ADD SWAP1 PUSH2 0x327A SWAP3 SWAP2 SWAP1 PUSH2 0x3283 JUMP JUMPDEST POP SWAP1 POP POP POP POP POP JUMP JUMPDEST DUP3 DUP1 SLOAD PUSH2 0x328F SWAP1 PUSH2 0x43C3 JUMP JUMPDEST SWAP1 PUSH1 0x0 MSTORE PUSH1 0x20 PUSH1 0x0 KECCAK256 SWAP1 PUSH1 0x1F ADD PUSH1 0x20 SWAP1 DIV DUP2 ADD SWAP3 DUP3 PUSH2 0x32B1 JUMPI PUSH1 0x0 DUP6 SSTORE PUSH2 0x32F8 JUMP JUMPDEST DUP3 PUSH1 0x1F LT PUSH2 0x32CA JUMPI DUP1 MLOAD PUSH1 0xFF NOT AND DUP4 DUP1 ADD OR DUP6 SSTORE PUSH2 0x32F8 JUMP JUMPDEST DUP3 DUP1 ADD PUSH1 0x1 ADD DUP6 SSTORE DUP3 ISZERO PUSH2 0x32F8 JUMPI SWAP2 DUP3 ADD JUMPDEST DUP3 DUP2 GT ISZERO PUSH2 0x32F7 JUMPI DUP3 MLOAD DUP3 SSTORE SWAP2 PUSH1 0x20 ADD SWAP2 SWAP1 PUSH1 0x1 ADD SWAP1 PUSH2 0x32DC JUMP JUMPDEST JUMPDEST POP SWAP1 POP PUSH2 0x3305 SWAP2 SWAP1 PUSH2 0x33EF JUMP JUMPDEST POP SWAP1 JUMP JUMPDEST DUP3 DUP1 SLOAD PUSH2 0x3315 SWAP1 PUSH2 0x43C3 JUMP JUMPDEST SWAP1 PUSH1 0x0 MSTORE PUSH1 0x20 PUSH1 0x0 KECCAK256 SWAP1 PUSH1 0x1F ADD PUSH1 0x20 SWAP1 DIV DUP2 ADD SWAP3 DUP3 PUSH2 0x3337 JUMPI PUSH1 0x0 DUP6 SSTORE PUSH2 0x337E JUMP JUMPDEST DUP3 PUSH1 0x1F LT PUSH2 0x3350 JUMPI DUP1 CALLDATALOAD PUSH1 0xFF NOT AND DUP4 DUP1 ADD OR DUP6 SSTORE PUSH2 0x337E JUMP JUMPDEST DUP3 DUP1 ADD PUSH1 0x1 ADD DUP6 SSTORE DUP3 ISZERO PUSH2 0x337E JUMPI SWAP2 DUP3 ADD JUMPDEST DUP3 DUP2 GT ISZERO PUSH2 0x337D JUMPI DUP3 CALLDATALOAD DUP3 SSTORE SWAP2 PUSH1 0x20 ADD SWAP2 SWAP1 PUSH1 0x1 ADD SWAP1 PUSH2 0x3362 JUMP JUMPDEST JUMPDEST POP SWAP1 POP PUSH2 0x338B SWAP2 SWAP1 PUSH2 0x33EF JUMP JUMPDEST POP SWAP1 JUMP JUMPDEST DUP3 DUP1 SLOAD DUP3 DUP3 SSTORE SWAP1 PUSH1 0x0 MSTORE PUSH1 0x20 PUSH1 0x0 KECCAK256 SWAP1 DUP2 ADD SWAP3 DUP3 ISZERO PUSH2 0x33DE JUMPI SWAP2 PUSH1 0x20 MUL DUP3 ADD JUMPDEST DUP3 DUP2 GT ISZERO PUSH2 0x33DD JUMPI DUP3 MLOAD DUP3 SWAP1 DUP1 MLOAD SWAP1 PUSH1 0x20 ADD SWAP1 PUSH2 0x33CD SWAP3 SWAP2 SWAP1 PUSH2 0x3283 JUMP JUMPDEST POP SWAP2 PUSH1 0x20 ADD SWAP2 SWAP1 PUSH1 0x1 ADD SWAP1 PUSH2 0x33AF JUMP JUMPDEST JUMPDEST POP SWAP1 POP PUSH2 0x33EB SWAP2 SWAP1 PUSH2 0x340C JUMP JUMPDEST POP SWAP1 JUMP JUMPDEST JUMPDEST DUP1 DUP3 GT ISZERO PUSH2 0x3408 JUMPI PUSH1 0x0 DUP2 PUSH1 0x0 SWAP1 SSTORE POP PUSH1 0x1 ADD PUSH2 0x33F0 JUMP JUMPDEST POP SWAP1 JUMP JUMPDEST JUMPDEST DUP1 DUP3 GT ISZERO PUSH2 0x342C JUMPI PUSH1 0x0 DUP2 DUP2 PUSH2 0x3423 SWAP2 SWAP1 PUSH2 0x3430 JUMP JUMPDEST POP PUSH1 0x1 ADD PUSH2 0x340D JUMP JUMPDEST POP SWAP1 JUMP JUMPDEST POP DUP1 SLOAD PUSH2 0x343C SWAP1 PUSH2 0x43C3 JUMP JUMPDEST PUSH1 0x0 DUP3 SSTORE DUP1 PUSH1 0x1F LT PUSH2 0x344E JUMPI POP PUSH2 0x346D JUMP JUMPDEST PUSH1 0x1F ADD PUSH1 0x20 SWAP1 DIV SWAP1 PUSH1 0x0 MSTORE PUSH1 0x20 PUSH1 0x0 KECCAK256 SWAP1 DUP2 ADD SWAP1 PUSH2 0x346C SWAP2 SWAP1 PUSH2 0x33EF JUMP JUMPDEST JUMPDEST POP JUMP JUMPDEST PUSH1 0x0 PUSH1 0x40 MLOAD SWAP1 POP SWAP1 JUMP JUMPDEST PUSH1 0x0 DUP1 REVERT JUMPDEST PUSH1 0x0 DUP1 REVERT JUMPDEST PUSH1 0x0 DUP1 REVERT JUMPDEST PUSH1 0x0 DUP1 REVERT JUMPDEST PUSH1 0x0 PUSH1 0x1F NOT PUSH1 0x1F DUP4 ADD AND SWAP1 POP SWAP2 SWAP1 POP JUMP JUMPDEST PUSH32 0x4E487B7100000000000000000000000000000000000000000000000000000000 PUSH1 0x0 MSTORE PUSH1 0x41 PUSH1 0x4 MSTORE PUSH1 0x24 PUSH1 0x0 REVERT JUMPDEST PUSH2 0x34D7 DUP3 PUSH2 0x348E JUMP JUMPDEST DUP2 ADD DUP2 DUP2 LT PUSH8 0xFFFFFFFFFFFFFFFF DUP3 GT OR ISZERO PUSH2 0x34F6 JUMPI PUSH2 0x34F5 PUSH2 0x349F JUMP JUMPDEST JUMPDEST DUP1 PUSH1 0x40 MSTORE POP POP POP JUMP JUMPDEST PUSH1 0x0 PUSH2 0x3509 PUSH2 0x3470 JUMP JUMPDEST SWAP1 POP PUSH2 0x3515 DUP3 DUP3 PUSH2 0x34CE JUMP JUMPDEST SWAP2 SWAP1 POP JUMP JUMPDEST PUSH1 0x0 PUSH8 0xFFFFFFFFFFFFFFFF DUP3 GT ISZERO PUSH2 0x3535 JUMPI PUSH2 0x3534 PUSH2 0x349F JUMP JUMPDEST JUMPDEST PUSH2 0x353E DUP3 PUSH2 0x348E JUMP JUMPDEST SWAP1 POP PUSH1 0x20 DUP2 ADD SWAP1 POP SWAP2 SWAP1 POP JUMP JUMPDEST DUP3 DUP2 DUP4 CALLDATACOPY PUSH1 0x0 DUP4 DUP4 ADD MSTORE POP POP POP JUMP JUMPDEST PUSH1 0x0 PUSH2 0x356D PUSH2 0x3568 DUP5 PUSH2 0x351A JUMP JUMPDEST PUSH2 0x34FF JUMP JUMPDEST SWAP1 POP DUP3 DUP2 MSTORE PUSH1 0x20 DUP2 ADD DUP5 DUP5 DUP5 ADD GT ISZERO PUSH2 0x3589 JUMPI PUSH2 0x3588 PUSH2 0x3489 JUMP JUMPDEST JUMPDEST PUSH2 0x3594 DUP5 DUP3 DUP6 PUSH2 0x354B JUMP JUMPDEST POP SWAP4 SWAP3 POP POP POP JUMP JUMPDEST PUSH1 0x0 DUP3 PUSH1 0x1F DUP4 ADD SLT PUSH2 0x35B1 JUMPI PUSH2 0x35B0 PUSH2 0x3484 JUMP JUMPDEST JUMPDEST DUP2 CALLDATALOAD PUSH2 0x35C1 DUP5 DUP3 PUSH1 0x20 DUP7 ADD PUSH2 0x355A JUMP JUMPDEST SWAP2 POP POP SWAP3 SWAP2 POP POP JUMP JUMPDEST PUSH1 0x0 DUP1 PUSH1 0x40 DUP4 DUP6 SUB SLT ISZERO PUSH2 0x35E1 JUMPI PUSH2 0x35E0 PUSH2 0x347A JUMP JUMPDEST JUMPDEST PUSH1 0x0 DUP4 ADD CALLDATALOAD PUSH8 0xFFFFFFFFFFFFFFFF DUP2 GT ISZERO PUSH2 0x35FF JUMPI PUSH2 0x35FE PUSH2 0x347F JUMP JUMPDEST JUMPDEST PUSH2 0x360B DUP6 DUP3 DUP7 ADD PUSH2 0x359C JUMP JUMPDEST SWAP3 POP POP PUSH1 0x20 DUP4 ADD CALLDATALOAD PUSH8 0xFFFFFFFFFFFFFFFF DUP2 GT ISZERO PUSH2 0x362C JUMPI PUSH2 0x362B PUSH2 0x347F JUMP JUMPDEST JUMPDEST PUSH2 0x3638 DUP6 DUP3 DUP7 ADD PUSH2 0x359C JUMP JUMPDEST SWAP2 POP POP SWAP3 POP SWAP3 SWAP1 POP JUMP JUMPDEST PUSH1 0x0 DUP2 ISZERO ISZERO SWAP1 POP SWAP2 SWAP1 POP JUMP JUMPDEST PUSH2 0x3657 DUP2 PUSH2 0x3642 JUMP JUMPDEST DUP3 MSTORE POP POP JUMP JUMPDEST PUSH1 0x0 PUSH1 0x20 DUP3 ADD SWAP1 POP PUSH2 0x3672 PUSH1 0x0 DUP4 ADD DUP5 PUSH2 0x364E JUMP JUMPDEST SWAP3 SWAP2 POP POP JUMP JUMPDEST PUSH1 0x0 PUSH1 0x20 DUP3 DUP5 SUB SLT ISZERO PUSH2 0x368E JUMPI PUSH2 0x368D PUSH2 0x347A JUMP JUMPDEST JUMPDEST PUSH1 0x0 DUP3 ADD CALLDATALOAD PUSH8 0xFFFFFFFFFFFFFFFF DUP2 GT ISZERO PUSH2 0x36AC JUMPI PUSH2 0x36AB PUSH2 0x347F JUMP JUMPDEST JUMPDEST PUSH2 0x36B8 DUP5 DUP3 DUP6 ADD PUSH2 0x359C JUMP JUMPDEST SWAP2 POP POP SWAP3 SWAP2 POP POP JUMP JUMPDEST PUSH1 0x0 PUSH20 0xFFFFFFFFFFFFFFFFFFFFFFFFFFFFFFFFFFFFFFFF DUP3 AND SWAP1 POP SWAP2 SWAP1 POP JUMP JUMPDEST PUSH1 0x0 DUP2 SWAP1 POP SWAP2 SWAP1 POP JUMP JUMPDEST PUSH1 0x0 PUSH2 0x3706 PUSH2 0x3701 PUSH2 0x36FC DUP5 PUSH2 0x36C1 JUMP JUMPDEST PUSH2 0x36E1 JUMP JUMPDEST PUSH2 0x36C1 JUMP JUMPDEST SWAP1 POP SWAP2 SWAP1 POP JUMP JUMPDEST PUSH1 0x0 PUSH2 0x3718 DUP3 PUSH2 0x36EB JUMP JUMPDEST SWAP1 POP SWAP2 SWAP1 POP JUMP JUMPDEST PUSH1 0x0 PUSH2 0x372A DUP3 PUSH2 0x370D JUMP JUMPDEST SWAP1 POP SWAP2 SWAP1 POP JUMP JUMPDEST PUSH2 0x373A DUP2 PUSH2 0x371F JUMP JUMPDEST DUP3 MSTORE POP POP JUMP JUMPDEST PUSH1 0x0 PUSH1 0x20 DUP3 ADD SWAP1 POP PUSH2 0x3755 PUSH1 0x0 DUP4 ADD DUP5 PUSH2 0x3731 JUMP JUMPDEST SWAP3 SWAP2 POP POP JUMP JUMPDEST PUSH1 0x0 DUP2 SWAP1 POP SWAP2 SWAP1 POP JUMP JUMPDEST PUSH2 0x376E DUP2 PUSH2 0x375B JUMP JUMPDEST DUP2 EQ PUSH2 0x3779 JUMPI PUSH1 0x0 DUP1 REVERT JUMPDEST POP JUMP JUMPDEST PUSH1 0x0 DUP2 CALLDATALOAD SWAP1 POP PUSH2 0x378B DUP2 PUSH2 0x3765 JUMP JUMPDEST SWAP3 SWAP2 POP POP JUMP JUMPDEST PUSH1 0x0 DUP1 REVERT JUMPDEST PUSH1 0x0 DUP1 REVERT JUMPDEST PUSH1 0x0 DUP1 DUP4 PUSH1 0x1F DUP5 ADD SLT PUSH2 0x37B1 JUMPI PUSH2 0x37B0 PUSH2 0x3484 JUMP JUMPDEST JUMPDEST DUP3 CALLDATALOAD SWAP1 POP PUSH8 0xFFFFFFFFFFFFFFFF DUP2 GT ISZERO PUSH2 0x37CE JUMPI PUSH2 0x37CD PUSH2 0x3791 JUMP JUMPDEST JUMPDEST PUSH1 0x20 DUP4 ADD SWAP2 POP DUP4 PUSH1 0x1 DUP3 MUL DUP4 ADD GT ISZERO PUSH2 0x37EA JUMPI PUSH2 0x37E9 PUSH2 0x3796 JUMP JUMPDEST JUMPDEST SWAP3 POP SWAP3 SWAP1 POP JUMP JUMPDEST PUSH1 0x0 DUP1 DUP4 PUSH1 0x1F DUP5 ADD SLT PUSH2 0x3807 JUMPI PUSH2 0x3806 PUSH2 0x3484 JUMP JUMPDEST JUMPDEST DUP3 CALLDATALOAD SWAP1 POP PUSH8 0xFFFFFFFFFFFFFFFF DUP2 GT ISZERO PUSH2 0x3824 JUMPI PUSH2 0x3823 PUSH2 0x3791 JUMP JUMPDEST JUMPDEST PUSH1 0x20 DUP4 ADD SWAP2 POP DUP4 PUSH1 0x1 DUP3 MUL DUP4 ADD GT ISZERO PUSH2 0x3840 JUMPI PUSH2 0x383F PUSH2 0x3796 JUMP JUMPDEST JUMPDEST SWAP3 POP SWAP3 SWAP1 POP JUMP JUMPDEST PUSH1 0x0 DUP2 SWAP1 POP SWAP2 SWAP1 POP JUMP JUMPDEST PUSH2 0x385A DUP2 PUSH2 0x3847 JUMP JUMPDEST DUP2 EQ PUSH2 0x3865 JUMPI PUSH1 0x0 DUP1 REVERT JUMPDEST POP JUMP JUMPDEST PUSH1 0x0 DUP2 CALLDATALOAD SWAP1 POP PUSH2 0x3877 DUP2 PUSH2 0x3851 JUMP JUMPDEST SWAP3 SWAP2 POP POP JUMP JUMPDEST PUSH1 0x0 DUP1 PUSH1 0x0 DUP1 PUSH1 0x0 DUP1 PUSH1 0x0 DUP1 PUSH1 0x0 DUP1 PUSH1 0xC0 DUP12 DUP14 SUB SLT ISZERO PUSH2 0x38A0 JUMPI PUSH2 0x389F PUSH2 0x347A JUMP JUMPDEST JUMPDEST PUSH1 0x0 PUSH2 0x38AE DUP14 DUP3 DUP15 ADD PUSH2 0x377C JUMP JUMPDEST SWAP11 POP POP PUSH1 0x20 DUP12 ADD CALLDATALOAD PUSH8 0xFFFFFFFFFFFFFFFF DUP2 GT ISZERO PUSH2 0x38CF JUMPI PUSH2 0x38CE PUSH2 0x347F JUMP JUMPDEST JUMPDEST PUSH2 0x38DB DUP14 DUP3 DUP15 ADD PUSH2 0x379B JUMP JUMPDEST SWAP10 POP SWAP10 POP POP PUSH1 0x40 DUP12 ADD CALLDATALOAD PUSH8 0xFFFFFFFFFFFFFFFF DUP2 GT ISZERO PUSH2 0x38FE JUMPI PUSH2 0x38FD PUSH2 0x347F JUMP JUMPDEST JUMPDEST PUSH2 0x390A DUP14 DUP3 DUP15 ADD PUSH2 0x379B JUMP JUMPDEST SWAP8 POP SWAP8 POP POP PUSH1 0x60 DUP12 ADD CALLDATALOAD PUSH8 0xFFFFFFFFFFFFFFFF DUP2 GT ISZERO PUSH2 0x392D JUMPI PUSH2 0x392C PUSH2 0x347F JUMP JUMPDEST JUMPDEST PUSH2 0x3939 DUP14 DUP3 DUP15 ADD PUSH2 0x37F1 JUMP JUMPDEST SWAP6 POP SWAP6 POP POP PUSH1 0x80 DUP12 ADD CALLDATALOAD PUSH8 0xFFFFFFFFFFFFFFFF DUP2 GT ISZERO PUSH2 0x395C JUMPI PUSH2 0x395B PUSH2 0x347F JUMP JUMPDEST JUMPDEST PUSH2 0x3968 DUP14 DUP3 DUP15 ADD PUSH2 0x379B JUMP JUMPDEST SWAP4 POP SWAP4 POP POP PUSH1 0xA0 PUSH2 0x397B DUP14 DUP3 DUP15 ADD PUSH2 0x3868 JUMP JUMPDEST SWAP2 POP POP SWAP3 SWAP6 SWAP9 SWAP12 SWAP2 SWAP5 SWAP8 SWAP11 POP SWAP3 SWAP6 SWAP9 POP JUMP JUMPDEST PUSH1 0x0 DUP2 MLOAD SWAP1 POP SWAP2 SWAP1 POP JUMP JUMPDEST PUSH1 0x0 DUP3 DUP3 MSTORE PUSH1 0x20 DUP3 ADD SWAP1 POP SWAP3 SWAP2 POP POP JUMP JUMPDEST PUSH1 0x0 JUMPDEST DUP4 DUP2 LT ISZERO PUSH2 0x39C7 JUMPI DUP1 DUP3 ADD MLOAD DUP2 DUP5 ADD MSTORE PUSH1 0x20 DUP2 ADD SWAP1 POP PUSH2 0x39AC JUMP JUMPDEST DUP4 DUP2 GT ISZERO PUSH2 0x39D6 JUMPI PUSH1 0x0 DUP5 DUP5 ADD MSTORE JUMPDEST POP POP POP POP JUMP JUMPDEST PUSH1 0x0 PUSH2 0x39E7 DUP3 PUSH2 0x398D JUMP JUMPDEST PUSH2 0x39F1 DUP2 DUP6 PUSH2 0x3998 JUMP JUMPDEST SWAP4 POP PUSH2 0x3A01 DUP2 DUP6 PUSH1 0x20 DUP7 ADD PUSH2 0x39A9 JUMP JUMPDEST PUSH2 0x3A0A DUP2 PUSH2 0x348E JUMP JUMPDEST DUP5 ADD SWAP2 POP POP SWAP3 SWAP2 POP POP JUMP JUMPDEST PUSH1 0x0 PUSH1 0x20 DUP3 ADD SWAP1 POP DUP2 DUP2 SUB PUSH1 0x0 DUP4 ADD MSTORE PUSH2 0x3A2F DUP2 DUP5 PUSH2 0x39DC JUMP JUMPDEST SWAP1 POP SWAP3 SWAP2 POP POP JUMP JUMPDEST PUSH1 0x0 PUSH2 0x3A42 DUP3 PUSH2 0x36C1 JUMP JUMPDEST SWAP1 POP SWAP2 SWAP1 POP JUMP JUMPDEST PUSH2 0x3A52 DUP2 PUSH2 0x3A37 JUMP JUMPDEST DUP3 MSTORE POP POP JUMP JUMPDEST PUSH1 0x0 PUSH1 0x20 DUP3 ADD SWAP1 POP PUSH2 0x3A6D PUSH1 0x0 DUP4 ADD DUP5 PUSH2 0x3A49 JUMP JUMPDEST SWAP3 SWAP2 POP POP JUMP JUMPDEST PUSH1 0x0 DUP1 PUSH1 0x40 DUP4 DUP6 SUB SLT ISZERO PUSH2 0x3A8A JUMPI PUSH2 0x3A89 PUSH2 0x347A JUMP JUMPDEST JUMPDEST PUSH1 0x0 DUP4 ADD CALLDATALOAD PUSH8 0xFFFFFFFFFFFFFFFF DUP2 GT ISZERO PUSH2 0x3AA8 JUMPI PUSH2 0x3AA7 PUSH2 0x347F JUMP JUMPDEST JUMPDEST PUSH2 0x3AB4 DUP6 DUP3 DUP7 ADD PUSH2 0x359C JUMP JUMPDEST SWAP3 POP POP PUSH1 0x20 PUSH2 0x3AC5 DUP6 DUP3 DUP7 ADD PUSH2 0x3868 JUMP JUMPDEST SWAP2 POP POP SWAP3 POP SWAP3 SWAP1 POP JUMP JUMPDEST PUSH1 0x0 DUP1 PUSH1 0x0 DUP1 PUSH1 0x0 DUP1 PUSH1 0x0 PUSH1 0x80 DUP9 DUP11 SUB SLT ISZERO PUSH2 0x3AEE JUMPI PUSH2 0x3AED PUSH2 0x347A JUMP JUMPDEST JUMPDEST PUSH1 0x0 PUSH2 0x3AFC DUP11 DUP3 DUP12 ADD PUSH2 0x377C JUMP JUMPDEST SWAP8 POP POP PUSH1 0x20 DUP9 ADD CALLDATALOAD PUSH8 0xFFFFFFFFFFFFFFFF DUP2 GT ISZERO PUSH2 0x3B1D JUMPI PUSH2 0x3B1C PUSH2 0x347F JUMP JUMPDEST JUMPDEST PUSH2 0x3B29 DUP11 DUP3 DUP12 ADD PUSH2 0x379B JUMP JUMPDEST SWAP7 POP SWAP7 POP POP PUSH1 0x40 DUP9 ADD CALLDATALOAD PUSH8 0xFFFFFFFFFFFFFFFF DUP2 GT ISZERO PUSH2 0x3B4C JUMPI PUSH2 0x3B4B PUSH2 0x347F JUMP JUMPDEST JUMPDEST PUSH2 0x3B58 DUP11 DUP3 DUP12 ADD PUSH2 0x379B JUMP JUMPDEST SWAP5 POP SWAP5 POP POP PUSH1 0x60 DUP9 ADD CALLDATALOAD PUSH8 0xFFFFFFFFFFFFFFFF DUP2 GT ISZERO PUSH2 0x3B7B JUMPI PUSH2 0x3B7A PUSH2 0x347F JUMP JUMPDEST JUMPDEST PUSH2 0x3B87 DUP11 DUP3 DUP12 ADD PUSH2 0x37F1 JUMP JUMPDEST SWAP3 POP SWAP3 POP POP SWAP3 SWAP6 SWAP9 SWAP2 SWAP5 SWAP8 POP SWAP3 SWAP6 POP JUMP JUMPDEST PUSH2 0x3BA1 DUP2 PUSH2 0x3642 JUMP JUMPDEST DUP2 EQ PUSH2 0x3BAC JUMPI PUSH1 0x0 DUP1 REVERT JUMPDEST POP JUMP JUMPDEST PUSH1 0x0 DUP2 CALLDATALOAD SWAP1 POP PUSH2 0x3BBE DUP2 PUSH2 0x3B98 JUMP JUMPDEST SWAP3 SWAP2 POP POP JUMP JUMPDEST PUSH1 0x0 DUP1 PUSH1 0x0 DUP1 PUSH1 0x0 DUP1 PUSH1 0x0 PUSH1 0xE0 DUP9 DUP11 SUB SLT ISZERO PUSH2 0x3BE3 JUMPI PUSH2 0x3BE2 PUSH2 0x347A JUMP JUMPDEST JUMPDEST PUSH1 0x0 DUP9 ADD CALLDATALOAD PUSH8 0xFFFFFFFFFFFFFFFF DUP2 GT ISZERO PUSH2 0x3C01 JUMPI PUSH2 0x3C00 PUSH2 0x347F JUMP JUMPDEST JUMPDEST PUSH2 0x3C0D DUP11 DUP3 DUP12 ADD PUSH2 0x359C JUMP JUMPDEST SWAP8 POP POP PUSH1 0x20 DUP9 ADD CALLDATALOAD PUSH8 0xFFFFFFFFFFFFFFFF DUP2 GT ISZERO PUSH2 0x3C2E JUMPI PUSH2 0x3C2D PUSH2 0x347F JUMP JUMPDEST JUMPDEST PUSH2 0x3C3A DUP11 DUP3 DUP12 ADD PUSH2 0x359C JUMP JUMPDEST SWAP7 POP POP PUSH1 0x40 PUSH2 0x3C4B DUP11 DUP3 DUP12 ADD PUSH2 0x3868 JUMP JUMPDEST SWAP6 POP POP PUSH1 0x60 DUP9 ADD CALLDATALOAD PUSH8 0xFFFFFFFFFFFFFFFF DUP2 GT ISZERO PUSH2 0x3C6C JUMPI PUSH2 0x3C6B PUSH2 0x347F JUMP JUMPDEST JUMPDEST PUSH2 0x3C78 DUP11 DUP3 DUP12 ADD PUSH2 0x359C JUMP JUMPDEST SWAP5 POP POP PUSH1 0x80 PUSH2 0x3C89 DUP11 DUP3 DUP12 ADD PUSH2 0x3BAF JUMP JUMPDEST SWAP4 POP POP PUSH1 0xA0 DUP9 ADD CALLDATALOAD PUSH8 0xFFFFFFFFFFFFFFFF DUP2 GT ISZERO PUSH2 0x3CAA JUMPI PUSH2 0x3CA9 PUSH2 0x347F JUMP JUMPDEST JUMPDEST PUSH2 0x3CB6 DUP11 DUP3 DUP12 ADD PUSH2 0x359C JUMP JUMPDEST SWAP3 POP POP PUSH1 0xC0 DUP9 ADD CALLDATALOAD PUSH8 0xFFFFFFFFFFFFFFFF DUP2 GT ISZERO PUSH2 0x3CD7 JUMPI PUSH2 0x3CD6 PUSH2 0x347F JUMP JUMPDEST JUMPDEST PUSH2 0x3CE3 DUP11 DUP3 DUP12 ADD PUSH2 0x359C JUMP JUMPDEST SWAP2 POP POP SWAP3 SWAP6 SWAP9 SWAP2 SWAP5 SWAP8 POP SWAP3 SWAP6 POP JUMP JUMPDEST PUSH1 0x0 PUSH2 0x3CFD DUP3 PUSH2 0x370D JUMP JUMPDEST SWAP1 POP SWAP2 SWAP1 POP JUMP JUMPDEST PUSH2 0x3D0D DUP2 PUSH2 0x3CF2 JUMP JUMPDEST DUP3 MSTORE POP POP JUMP JUMPDEST PUSH1 0x0 PUSH1 0x20 DUP3 ADD SWAP1 POP PUSH2 0x3D28 PUSH1 0x0 DUP4 ADD DUP5 PUSH2 0x3D04 JUMP JUMPDEST SWAP3 SWAP2 POP POP JUMP JUMPDEST PUSH1 0x0 PUSH1 0x40 DUP3 ADD SWAP1 POP DUP2 DUP2 SUB PUSH1 0x0 DUP4 ADD MSTORE PUSH2 0x3D48 DUP2 DUP6 PUSH2 0x39DC JUMP JUMPDEST SWAP1 POP DUP2 DUP2 SUB PUSH1 0x20 DUP4 ADD MSTORE PUSH2 0x3D5C DUP2 DUP5 PUSH2 0x39DC JUMP JUMPDEST SWAP1 POP SWAP4 SWAP3 POP POP POP JUMP JUMPDEST PUSH2 0x3D6E DUP2 PUSH2 0x3A37 JUMP JUMPDEST DUP2 EQ PUSH2 0x3D79 JUMPI PUSH1 0x0 DUP1 REVERT JUMPDEST POP JUMP JUMPDEST PUSH1 0x0 DUP2 CALLDATALOAD SWAP1 POP PUSH2 0x3D8B DUP2 PUSH2 0x3D65 JUMP JUMPDEST SWAP3 SWAP2 POP POP JUMP JUMPDEST PUSH1 0x0 DUP1 PUSH1 0x40 DUP4 DUP6 SUB SLT ISZERO PUSH2 0x3DA8 JUMPI PUSH2 0x3DA7 PUSH2 0x347A JUMP JUMPDEST JUMPDEST PUSH1 0x0 PUSH2 0x3DB6 DUP6 DUP3 DUP7 ADD PUSH2 0x3D7C JUMP JUMPDEST SWAP3 POP POP PUSH1 0x20 DUP4 ADD CALLDATALOAD PUSH8 0xFFFFFFFFFFFFFFFF DUP2 GT ISZERO PUSH2 0x3DD7 JUMPI PUSH2 0x3DD6 PUSH2 0x347F JUMP JUMPDEST JUMPDEST PUSH2 0x3DE3 DUP6 DUP3 DUP7 ADD PUSH2 0x359C JUMP JUMPDEST SWAP2 POP POP SWAP3 POP SWAP3 SWAP1 POP JUMP JUMPDEST PUSH1 0x0 DUP1 PUSH1 0x0 DUP1 PUSH1 0x0 DUP1 PUSH1 0xC0 DUP8 DUP10 SUB SLT ISZERO PUSH2 0x3E0A JUMPI PUSH2 0x3E09 PUSH2 0x347A JUMP JUMPDEST JUMPDEST PUSH1 0x0 PUSH2 0x3E18 DUP10 DUP3 DUP11 ADD PUSH2 0x3868 JUMP JUMPDEST SWAP7 POP POP PUSH1 0x20 PUSH2 0x3E29 DUP10 DUP3 DUP11 ADD PUSH2 0x3868 JUMP JUMPDEST SWAP6 POP POP PUSH1 0x40 DUP8 ADD CALLDATALOAD PUSH8 0xFFFFFFFFFFFFFFFF DUP2 GT ISZERO PUSH2 0x3E4A JUMPI PUSH2 0x3E49 PUSH2 0x347F JUMP JUMPDEST JUMPDEST PUSH2 0x3E56 DUP10 DUP3 DUP11 ADD PUSH2 0x359C JUMP JUMPDEST SWAP5 POP POP PUSH1 0x60 PUSH2 0x3E67 DUP10 DUP3 DUP11 ADD PUSH2 0x3BAF JUMP JUMPDEST SWAP4 POP POP PUSH1 0x80 DUP8 ADD CALLDATALOAD PUSH8 0xFFFFFFFFFFFFFFFF DUP2 GT ISZERO PUSH2 0x3E88 JUMPI PUSH2 0x3E87 PUSH2 0x347F JUMP JUMPDEST JUMPDEST PUSH2 0x3E94 DUP10 DUP3 DUP11 ADD PUSH2 0x359C JUMP JUMPDEST SWAP3 POP POP PUSH1 0xA0 DUP8 ADD CALLDATALOAD PUSH8 0xFFFFFFFFFFFFFFFF DUP2 GT ISZERO PUSH2 0x3EB5 JUMPI PUSH2 0x3EB4 PUSH2 0x347F JUMP JUMPDEST JUMPDEST PUSH2 0x3EC1 DUP10 DUP3 DUP11 ADD PUSH2 0x359C JUMP JUMPDEST SWAP2 POP POP SWAP3 SWAP6 POP SWAP3 SWAP6 POP SWAP3 SWAP6 JUMP JUMPDEST PUSH1 0x0 DUP1 PUSH1 0x0 DUP1 PUSH1 0x80 DUP6 DUP8 SUB SLT ISZERO PUSH2 0x3EE8 JUMPI PUSH2 0x3EE7 PUSH2 0x347A JUMP JUMPDEST JUMPDEST PUSH1 0x0 DUP6 ADD CALLDATALOAD PUSH8 0xFFFFFFFFFFFFFFFF DUP2 GT ISZERO PUSH2 0x3F06 JUMPI PUSH2 0x3F05 PUSH2 0x347F JUMP JUMPDEST JUMPDEST PUSH2 0x3F12 DUP8 DUP3 DUP9 ADD PUSH2 0x359C JUMP JUMPDEST SWAP5 POP POP PUSH1 0x20 DUP6 ADD CALLDATALOAD PUSH8 0xFFFFFFFFFFFFFFFF DUP2 GT ISZERO PUSH2 0x3F33 JUMPI PUSH2 0x3F32 PUSH2 0x347F JUMP JUMPDEST JUMPDEST PUSH2 0x3F3F DUP8 DUP3 DUP9 ADD PUSH2 0x359C JUMP JUMPDEST SWAP4 POP POP PUSH1 0x40 PUSH2 0x3F50 DUP8 DUP3 DUP9 ADD PUSH2 0x3868 JUMP JUMPDEST SWAP3 POP POP PUSH1 0x60 DUP6 ADD CALLDATALOAD PUSH8 0xFFFFFFFFFFFFFFFF DUP2 GT ISZERO PUSH2 0x3F71 JUMPI PUSH2 0x3F70 PUSH2 0x347F JUMP JUMPDEST JUMPDEST PUSH2 0x3F7D DUP8 DUP3 DUP9 ADD PUSH2 0x359C JUMP JUMPDEST SWAP2 POP POP SWAP3 SWAP6 SWAP2 SWAP5 POP SWAP3 POP JUMP JUMPDEST PUSH1 0x0 DUP1 PUSH1 0x0 DUP1 PUSH1 0x0 PUSH1 0xA0 DUP7 DUP9 SUB SLT ISZERO PUSH2 0x3FA5 JUMPI PUSH2 0x3FA4 PUSH2 0x347A JUMP JUMPDEST JUMPDEST PUSH1 0x0 PUSH2 0x3FB3 DUP9 DUP3 DUP10 ADD PUSH2 0x3868 JUMP JUMPDEST SWAP6 POP POP PUSH1 0x20 DUP7 ADD CALLDATALOAD PUSH8 0xFFFFFFFFFFFFFFFF DUP2 GT ISZERO PUSH2 0x3FD4 JUMPI PUSH2 0x3FD3 PUSH2 0x347F JUMP JUMPDEST JUMPDEST PUSH2 0x3FE0 DUP9 DUP3 DUP10 ADD PUSH2 0x359C JUMP JUMPDEST SWAP5 POP POP PUSH1 0x40 PUSH2 0x3FF1 DUP9 DUP3 DUP10 ADD PUSH2 0x3BAF JUMP JUMPDEST SWAP4 POP POP PUSH1 0x60 DUP7 ADD CALLDATALOAD PUSH8 0xFFFFFFFFFFFFFFFF DUP2 GT ISZERO PUSH2 0x4012 JUMPI PUSH2 0x4011 PUSH2 0x347F JUMP JUMPDEST JUMPDEST PUSH2 0x401E DUP9 DUP3 DUP10 ADD PUSH2 0x359C JUMP JUMPDEST SWAP3 POP POP PUSH1 0x80 DUP7 ADD CALLDATALOAD PUSH8 0xFFFFFFFFFFFFFFFF DUP2 GT ISZERO PUSH2 0x403F JUMPI PUSH2 0x403E PUSH2 0x347F JUMP JUMPDEST JUMPDEST PUSH2 0x404B DUP9 DUP3 DUP10 ADD PUSH2 0x359C JUMP JUMPDEST SWAP2 POP POP SWAP3 SWAP6 POP SWAP3 SWAP6 SWAP1 SWAP4 POP JUMP JUMPDEST PUSH1 0x0 PUSH1 0x20 DUP3 DUP5 SUB SLT ISZERO PUSH2 0x406E JUMPI PUSH2 0x406D PUSH2 0x347A JUMP JUMPDEST JUMPDEST PUSH1 0x0 PUSH2 0x407C DUP5 DUP3 DUP6 ADD PUSH2 0x3868 JUMP JUMPDEST SWAP2 POP POP SWAP3 SWAP2 POP POP JUMP JUMPDEST PUSH1 0x0 DUP1 PUSH1 0x0 PUSH1 0x60 DUP5 DUP7 SUB SLT ISZERO PUSH2 0x409E JUMPI PUSH2 0x409D PUSH2 0x347A JUMP JUMPDEST JUMPDEST PUSH1 0x0 DUP5 ADD CALLDATALOAD PUSH8 0xFFFFFFFFFFFFFFFF DUP2 GT ISZERO PUSH2 0x40BC JUMPI PUSH2 0x40BB PUSH2 0x347F JUMP JUMPDEST JUMPDEST PUSH2 0x40C8 DUP7 DUP3 DUP8 ADD PUSH2 0x359C JUMP JUMPDEST SWAP4 POP POP PUSH1 0x20 DUP5 ADD CALLDATALOAD PUSH8 0xFFFFFFFFFFFFFFFF DUP2 GT ISZERO PUSH2 0x40E9 JUMPI PUSH2 0x40E8 PUSH2 0x347F JUMP JUMPDEST JUMPDEST PUSH2 0x40F5 DUP7 DUP3 DUP8 ADD PUSH2 0x359C JUMP JUMPDEST SWAP3 POP POP PUSH1 0x40 PUSH2 0x4106 DUP7 DUP3 DUP8 ADD PUSH2 0x3D7C JUMP JUMPDEST SWAP2 POP POP SWAP3 POP SWAP3 POP SWAP3 JUMP JUMPDEST PUSH1 0x0 PUSH1 0x20 DUP3 DUP5 SUB SLT ISZERO PUSH2 0x4126 JUMPI PUSH2 0x4125 PUSH2 0x347A JUMP JUMPDEST JUMPDEST PUSH1 0x0 PUSH2 0x4134 DUP5 DUP3 DUP6 ADD PUSH2 0x3D7C JUMP JUMPDEST SWAP2 POP POP SWAP3 SWAP2 POP POP JUMP JUMPDEST PUSH1 0x0 PUSH2 0x4148 DUP3 PUSH2 0x370D JUMP JUMPDEST SWAP1 POP SWAP2 SWAP1 POP JUMP JUMPDEST PUSH2 0x4158 DUP2 PUSH2 0x413D JUMP JUMPDEST DUP3 MSTORE POP POP JUMP JUMPDEST PUSH1 0x0 PUSH1 0x20 DUP3 ADD SWAP1 POP PUSH2 0x4173 PUSH1 0x0 DUP4 ADD DUP5 PUSH2 0x414F JUMP JUMPDEST SWAP3 SWAP2 POP POP JUMP JUMPDEST PUSH2 0x4182 DUP2 PUSH2 0x3847 JUMP JUMPDEST DUP3 MSTORE POP POP JUMP JUMPDEST PUSH1 0x0 PUSH1 0x20 DUP3 ADD SWAP1 POP PUSH2 0x419D PUSH1 0x0 DUP4 ADD DUP5 PUSH2 0x4179 JUMP JUMPDEST SWAP3 SWAP2 POP POP JUMP JUMPDEST PUSH32 0x616374696F6E206F6E6C7920666F722061646D696E0000000000000000000000 PUSH1 0x0 DUP3 ADD MSTORE POP JUMP JUMPDEST PUSH1 0x0 PUSH2 0x41D9 PUSH1 0x15 DUP4 PUSH2 0x3998 JUMP JUMPDEST SWAP2 POP PUSH2 0x41E4 DUP3 PUSH2 0x41A3 JUMP JUMPDEST PUSH1 0x20 DUP3 ADD SWAP1 POP SWAP2 SWAP1 POP JUMP JUMPDEST PUSH1 0x0 PUSH1 0x20 DUP3 ADD SWAP1 POP DUP2 DUP2 SUB PUSH1 0x0 DUP4 ADD MSTORE PUSH2 0x4208 DUP2 PUSH2 0x41CC JUMP JUMPDEST SWAP1 POP SWAP2 SWAP1 POP JUMP JUMPDEST PUSH1 0x0 DUP2 MLOAD SWAP1 POP PUSH2 0x421E DUP2 PUSH2 0x3D65 JUMP JUMPDEST SWAP3 SWAP2 POP POP JUMP JUMPDEST PUSH1 0x0 PUSH1 0x20 DUP3 DUP5 SUB SLT ISZERO PUSH2 0x423A JUMPI PUSH2 0x4239 PUSH2 0x347A JUMP JUMPDEST JUMPDEST PUSH1 0x0 PUSH2 0x4248 DUP5 DUP3 DUP6 ADD PUSH2 0x420F JUMP JUMPDEST SWAP2 POP POP SWAP3 SWAP2 POP POP JUMP JUMPDEST PUSH1 0x0 DUP2 SWAP1 POP SWAP3 SWAP2 POP POP JUMP JUMPDEST PUSH1 0x0 PUSH2 0x4268 DUP4 DUP6 PUSH2 0x4251 JUMP JUMPDEST SWAP4 POP PUSH2 0x4275 DUP4 DUP6 DUP5 PUSH2 0x354B JUMP JUMPDEST DUP3 DUP5 ADD SWAP1 POP SWAP4 SWAP3 POP POP POP JUMP JUMPDEST PUSH1 0x0 PUSH2 0x428E DUP3 DUP5 DUP7 PUSH2 0x425C JUMP JUMPDEST SWAP2 POP DUP2 SWAP1 POP SWAP4 SWAP3 POP POP POP JUMP JUMPDEST PUSH2 0x42A3 DUP2 PUSH2 0x375B JUMP JUMPDEST DUP3 MSTORE POP POP JUMP JUMPDEST PUSH1 0x0 PUSH2 0x42B5 DUP4 DUP6 PUSH2 0x3998 JUMP JUMPDEST SWAP4 POP PUSH2 0x42C2 DUP4 DUP6 DUP5 PUSH2 0x354B JUMP JUMPDEST PUSH2 0x42CB DUP4 PUSH2 0x348E JUMP JUMPDEST DUP5 ADD SWAP1 POP SWAP4 SWAP3 POP POP POP JUMP JUMPDEST PUSH1 0x0 PUSH1 0xC0 DUP3 ADD SWAP1 POP PUSH2 0x42EB PUSH1 0x0 DUP4 ADD DUP13 PUSH2 0x429A JUMP JUMPDEST DUP2 DUP2 SUB PUSH1 0x20 DUP4 ADD MSTORE PUSH2 0x42FE DUP2 DUP11 DUP13 PUSH2 0x42A9 JUMP JUMPDEST SWAP1 POP DUP2 DUP2 SUB PUSH1 0x40 DUP4 ADD MSTORE PUSH2 0x4313 DUP2 DUP9 DUP11 PUSH2 0x42A9 JUMP JUMPDEST SWAP1 POP PUSH2 0x4322 PUSH1 0x60 DUP4 ADD DUP8 PUSH2 0x429A JUMP JUMPDEST DUP2 DUP2 SUB PUSH1 0x80 DUP4 ADD MSTORE PUSH2 0x4335 DUP2 DUP6 DUP8 PUSH2 0x42A9 JUMP JUMPDEST SWAP1 POP PUSH2 0x4344 PUSH1 0xA0 DUP4 ADD DUP5 PUSH2 0x4179 JUMP JUMPDEST SWAP11 SWAP10 POP POP POP POP POP POP POP POP POP POP JUMP JUMPDEST PUSH1 0x0 DUP2 MLOAD SWAP1 POP PUSH2 0x4361 DUP2 PUSH2 0x3B98 JUMP JUMPDEST SWAP3 SWAP2 POP POP JUMP JUMPDEST PUSH1 0x0 PUSH1 0x20 DUP3 DUP5 SUB SLT ISZERO PUSH2 0x437D JUMPI PUSH2 0x437C PUSH2 0x347A JUMP JUMPDEST JUMPDEST PUSH1 0x0 PUSH2 0x438B DUP5 DUP3 DUP6 ADD PUSH2 0x4352 JUMP JUMPDEST SWAP2 POP POP SWAP3 SWAP2 POP POP JUMP JUMPDEST PUSH32 0x4E487B7100000000000000000000000000000000000000000000000000000000 PUSH1 0x0 MSTORE PUSH1 0x22 PUSH1 0x4 MSTORE PUSH1 0x24 PUSH1 0x0 REVERT JUMPDEST PUSH1 0x0 PUSH1 0x2 DUP3 DIV SWAP1 POP PUSH1 0x1 DUP3 AND DUP1 PUSH2 0x43DB JUMPI PUSH1 0x7F DUP3 AND SWAP2 POP JUMPDEST PUSH1 0x20 DUP3 LT DUP2 EQ ISZERO PUSH2 0x43EF JUMPI PUSH2 0x43EE PUSH2 0x4394 JUMP JUMPDEST JUMPDEST POP SWAP2 SWAP1 POP JUMP JUMPDEST PUSH1 0x0 DUP2 SWAP1 POP SWAP3 SWAP2 POP POP JUMP JUMPDEST PUSH1 0x0 PUSH2 0x440B DUP3 PUSH2 0x398D JUMP JUMPDEST PUSH2 0x4415 DUP2 DUP6 PUSH2 0x43F5 JUMP JUMPDEST SWAP4 POP PUSH2 0x4425 DUP2 DUP6 PUSH1 0x20 DUP7 ADD PUSH2 0x39A9 JUMP JUMPDEST DUP1 DUP5 ADD SWAP2 POP POP SWAP3 SWAP2 POP POP JUMP JUMPDEST PUSH1 0x0 PUSH2 0x443D DUP3 DUP5 PUSH2 0x4400 JUMP JUMPDEST SWAP2 POP DUP2 SWAP1 POP SWAP3 SWAP2 POP POP JUMP JUMPDEST PUSH1 0x0 PUSH1 0x60 DUP3 ADD SWAP1 POP PUSH2 0x445D PUSH1 0x0 DUP4 ADD DUP7 PUSH2 0x3A49 JUMP JUMPDEST PUSH2 0x446A PUSH1 0x20 DUP4 ADD DUP6 PUSH2 0x3A49 JUMP JUMPDEST PUSH2 0x4477 PUSH1 0x40 DUP4 ADD DUP5 PUSH2 0x4179 JUMP JUMPDEST SWAP5 SWAP4 POP POP POP POP JUMP JUMPDEST PUSH32 0x4E487B7100000000000000000000000000000000000000000000000000000000 PUSH1 0x0 MSTORE PUSH1 0x11 PUSH1 0x4 MSTORE PUSH1 0x24 PUSH1 0x0 REVERT JUMPDEST PUSH1 0x0 PUSH2 0x44B9 DUP3 PUSH2 0x3847 JUMP JUMPDEST SWAP2 POP PUSH2 0x44C4 DUP4 PUSH2 0x3847 JUMP JUMPDEST SWAP3 POP DUP3 PUSH32 0xFFFFFFFFFFFFFFFFFFFFFFFFFFFFFFFFFFFFFFFFFFFFFFFFFFFFFFFFFFFFFFFF SUB DUP3 GT ISZERO PUSH2 0x44F9 JUMPI PUSH2 0x44F8 PUSH2 0x447F JUMP JUMPDEST JUMPDEST DUP3 DUP3 ADD SWAP1 POP SWAP3 SWAP2 POP POP JUMP JUMPDEST PUSH1 0x0 PUSH1 0x80 DUP3 ADD SWAP1 POP PUSH2 0x4519 PUSH1 0x0 DUP4 ADD DUP10 PUSH2 0x429A JUMP JUMPDEST DUP2 DUP2 SUB PUSH1 0x20 DUP4 ADD MSTORE PUSH2 0x452C DUP2 DUP8 DUP10 PUSH2 0x42A9 JUMP JUMPDEST SWAP1 POP DUP2 DUP2 SUB PUSH1 0x40 DUP4 ADD MSTORE PUSH2 0x4541 DUP2 DUP6 DUP8 PUSH2 0x42A9 JUMP JUMPDEST SWAP1 POP PUSH2 0x4550 PUSH1 0x60 DUP4 ADD DUP5 PUSH2 0x429A JUMP JUMPDEST SWAP8 SWAP7 POP POP POP POP POP POP POP JUMP JUMPDEST PUSH1 0x0 PUSH1 0x40 DUP3 ADD SWAP1 POP PUSH2 0x4570 PUSH1 0x0 DUP4 ADD DUP6 PUSH2 0x3A49 JUMP JUMPDEST PUSH2 0x457D PUSH1 0x20 DUP4 ADD DUP5 PUSH2 0x4179 JUMP JUMPDEST SWAP4 SWAP3 POP POP POP JUMP JUMPDEST PUSH1 0x0 PUSH1 0x60 DUP3 ADD SWAP1 POP PUSH2 0x4599 PUSH1 0x0 DUP4 ADD DUP7 PUSH2 0x3A49 JUMP JUMPDEST DUP2 DUP2 SUB PUSH1 0x20 DUP4 ADD MSTORE PUSH2 0x45AB DUP2 DUP6 PUSH2 0x39DC JUMP JUMPDEST SWAP1 POP PUSH2 0x45BA PUSH1 0x40 DUP4 ADD DUP5 PUSH2 0x4179 JUMP JUMPDEST SWAP5 SWAP4 POP POP POP POP JUMP JUMPDEST PUSH1 0x0 PUSH1 0xA0 DUP3 ADD SWAP1 POP PUSH2 0x45D7 PUSH1 0x0 DUP4 ADD DUP9 PUSH2 0x4179 JUMP JUMPDEST DUP2 DUP2 SUB PUSH1 0x20 DUP4 ADD MSTORE PUSH2 0x45E9 DUP2 DUP8 PUSH2 0x39DC JUMP JUMPDEST SWAP1 POP PUSH2 0x45F8 PUSH1 0x40 DUP4 ADD DUP7 PUSH2 0x364E JUMP JUMPDEST DUP2 DUP2 SUB PUSH1 0x60 DUP4 ADD MSTORE PUSH2 0x460A DUP2 DUP6 PUSH2 0x39DC JUMP JUMPDEST SWAP1 POP DUP2 DUP2 SUB PUSH1 0x80 DUP4 ADD MSTORE PUSH2 0x461E DUP2 DUP5 PUSH2 0x39DC JUMP JUMPDEST SWAP1 POP SWAP7 SWAP6 POP POP POP POP POP POP JUMP JUMPDEST PUSH1 0x0 DUP2 MLOAD SWAP1 POP SWAP2 SWAP1 POP JUMP JUMPDEST PUSH1 0x0 DUP3 DUP3 MSTORE PUSH1 0x20 DUP3 ADD SWAP1 POP SWAP3 SWAP2 POP POP JUMP JUMPDEST PUSH1 0x0 PUSH2 0x4651 DUP3 PUSH2 0x462A JUMP JUMPDEST PUSH2 0x465B DUP2 DUP6 PUSH2 0x4635 JUMP JUMPDEST SWAP4 POP PUSH2 0x466B DUP2 DUP6 PUSH1 0x20 DUP7 ADD PUSH2 0x39A9 JUMP JUMPDEST PUSH2 0x4674 DUP2 PUSH2 0x348E JUMP JUMPDEST DUP5 ADD SWAP2 POP POP SWAP3 SWAP2 POP POP JUMP JUMPDEST PUSH1 0x0 PUSH1 0xA0 DUP3 ADD SWAP1 POP PUSH2 0x4694 PUSH1 0x0 DUP4 ADD DUP9 PUSH2 0x3A49 JUMP JUMPDEST DUP2 DUP2 SUB PUSH1 0x20 DUP4 ADD MSTORE PUSH2 0x46A6 DUP2 DUP8 PUSH2 0x39DC JUMP JUMPDEST SWAP1 POP DUP2 DUP2 SUB PUSH1 0x40 DUP4 ADD MSTORE PUSH2 0x46BA DUP2 DUP7 PUSH2 0x39DC JUMP JUMPDEST SWAP1 POP DUP2 DUP2 SUB PUSH1 0x60 DUP4 ADD MSTORE PUSH2 0x46CE DUP2 DUP6 PUSH2 0x4646 JUMP JUMPDEST SWAP1 POP PUSH2 0x46DD PUSH1 0x80 DUP4 ADD DUP5 PUSH2 0x3A49 JUMP JUMPDEST SWAP7 SWAP6 POP POP POP POP POP POP JUMP JUMPDEST PUSH1 0x0 PUSH1 0x60 DUP3 ADD SWAP1 POP DUP2 DUP2 SUB PUSH1 0x0 DUP4 ADD MSTORE PUSH2 0x4701 DUP2 DUP7 PUSH2 0x39DC JUMP JUMPDEST SWAP1 POP DUP2 DUP2 SUB PUSH1 0x20 DUP4 ADD MSTORE PUSH2 0x4715 DUP2 DUP6 PUSH2 0x39DC JUMP JUMPDEST SWAP1 POP DUP2 DUP2 SUB PUSH1 0x40 DUP4 ADD MSTORE PUSH2 0x4729 DUP2 DUP5 PUSH2 0x4646 JUMP JUMPDEST SWAP1 POP SWAP5 SWAP4 POP POP POP POP JUMP JUMPDEST PUSH32 0x4E487B7100000000000000000000000000000000000000000000000000000000 PUSH1 0x0 MSTORE PUSH1 0x32 PUSH1 0x4 MSTORE PUSH1 0x24 PUSH1 0x0 REVERT JUMPDEST PUSH1 0x0 DUP2 SWAP1 POP DUP2 PUSH1 0x0 MSTORE PUSH1 0x20 PUSH1 0x0 KECCAK256 SWAP1 POP SWAP2 SWAP1 POP JUMP JUMPDEST PUSH1 0x0 DUP2 SLOAD PUSH2 0x4784 DUP2 PUSH2 0x43C3 JUMP JUMPDEST PUSH2 0x478E DUP2 DUP7 PUSH2 0x3998 JUMP JUMPDEST SWAP5 POP PUSH1 0x1 DUP3 AND PUSH1 0x0 DUP2 EQ PUSH2 0x47A9 JUMPI PUSH1 0x1 DUP2 EQ PUSH2 0x47BB JUMPI PUSH2 0x47EE JUMP JUMPDEST PUSH1 0xFF NOT DUP4 AND DUP7 MSTORE PUSH1 0x20 DUP7 ADD SWAP4 POP PUSH2 0x47EE JUMP JUMPDEST PUSH2 0x47C4 DUP6 PUSH2 0x4762 JUMP JUMPDEST PUSH1 0x0 JUMPDEST DUP4 DUP2 LT ISZERO PUSH2 0x47E6 JUMPI DUP2 SLOAD DUP2 DUP10 ADD MSTORE PUSH1 0x1 DUP3 ADD SWAP2 POP PUSH1 0x20 DUP2 ADD SWAP1 POP PUSH2 0x47C7 JUMP JUMPDEST DUP1 DUP9 ADD SWAP6 POP POP POP JUMPDEST POP POP POP SWAP3 SWAP2 POP POP JUMP JUMPDEST PUSH1 0x0 PUSH1 0xE0 DUP3 ADD SWAP1 POP PUSH2 0x480C PUSH1 0x0 DUP4 ADD DUP11 PUSH2 0x3A49 JUMP JUMPDEST DUP2 DUP2 SUB PUSH1 0x20 DUP4 ADD MSTORE PUSH2 0x481E DUP2 DUP10 PUSH2 0x39DC JUMP JUMPDEST SWAP1 POP DUP2 DUP2 SUB PUSH1 0x40 DUP4 ADD MSTORE PUSH2 0x4832 DUP2 DUP9 PUSH2 0x39DC JUMP JUMPDEST SWAP1 POP DUP2 DUP2 SUB PUSH1 0x60 DUP4 ADD MSTORE PUSH2 0x4846 DUP2 DUP8 PUSH2 0x4646 JUMP JUMPDEST SWAP1 POP DUP2 DUP2 SUB PUSH1 0x80 DUP4 ADD MSTORE PUSH2 0x485A DUP2 DUP7 PUSH2 0x4777 JUMP JUMPDEST SWAP1 POP PUSH2 0x4869 PUSH1 0xA0 DUP4 ADD DUP6 PUSH2 0x4179 JUMP JUMPDEST PUSH2 0x4876 PUSH1 0xC0 DUP4 ADD DUP5 PUSH2 0x3A49 JUMP JUMPDEST SWAP9 SWAP8 POP POP POP POP POP POP POP POP JUMP JUMPDEST PUSH1 0x0 PUSH1 0xA0 DUP3 ADD SWAP1 POP DUP2 DUP2 SUB PUSH1 0x0 DUP4 ADD MSTORE PUSH2 0x489C DUP2 DUP9 PUSH2 0x39DC JUMP JUMPDEST SWAP1 POP DUP2 DUP2 SUB PUSH1 0x20 DUP4 ADD MSTORE PUSH2 0x48B0 DUP2 DUP8 PUSH2 0x39DC JUMP JUMPDEST SWAP1 POP DUP2 DUP2 SUB PUSH1 0x40 DUP4 ADD MSTORE PUSH2 0x48C4 DUP2 DUP7 PUSH2 0x4646 JUMP JUMPDEST SWAP1 POP DUP2 DUP2 SUB PUSH1 0x60 DUP4 ADD MSTORE PUSH2 0x48D8 DUP2 DUP6 PUSH2 0x4777 JUMP JUMPDEST SWAP1 POP PUSH2 0x48E7 PUSH1 0x80 DUP4 ADD DUP5 PUSH2 0x4179 JUMP JUMPDEST SWAP7 SWAP6 POP POP POP POP POP POP JUMP JUMPDEST PUSH1 0x0 DUP2 SWAP1 POP DUP2 PUSH1 0x0 MSTORE PUSH1 0x20 PUSH1 0x0 KECCAK256 SWAP1 POP SWAP2 SWAP1 POP JUMP JUMPDEST PUSH1 0x0 DUP2 SLOAD PUSH2 0x4913 DUP2 PUSH2 0x43C3 JUMP JUMPDEST PUSH2 0x491D DUP2 DUP7 PUSH2 0x4251 JUMP JUMPDEST SWAP5 POP PUSH1 0x1 DUP3 AND PUSH1 0x0 DUP2 EQ PUSH2 0x4938 JUMPI PUSH1 0x1 DUP2 EQ PUSH2 0x4949 JUMPI PUSH2 0x497C JUMP JUMPDEST PUSH1 0xFF NOT DUP4 AND DUP7 MSTORE DUP2 DUP7 ADD SWAP4 POP PUSH2 0x497C JUMP JUMPDEST PUSH2 0x4952 DUP6 PUSH2 0x48F1 JUMP JUMPDEST PUSH1 0x0 JUMPDEST DUP4 DUP2 LT ISZERO PUSH2 0x4974 JUMPI DUP2 SLOAD DUP2 DUP10 ADD MSTORE PUSH1 0x1 DUP3 ADD SWAP2 POP PUSH1 0x20 DUP2 ADD SWAP1 POP PUSH2 0x4955 JUMP JUMPDEST DUP4 DUP9 ADD SWAP6 POP POP POP JUMPDEST POP POP POP SWAP3 SWAP2 POP POP JUMP JUMPDEST PUSH1 0x0 PUSH2 0x4991 DUP3 DUP5 PUSH2 0x4906 JUMP JUMPDEST SWAP2 POP DUP2 SWAP1 POP SWAP3 SWAP2 POP POP JUMP JUMPDEST PUSH1 0x0 DUP2 SLOAD PUSH2 0x49A9 DUP2 PUSH2 0x43C3 JUMP JUMPDEST PUSH2 0x49B3 DUP2 DUP7 PUSH2 0x43F5 JUMP JUMPDEST SWAP5 POP PUSH1 0x1 DUP3 AND PUSH1 0x0 DUP2 EQ PUSH2 0x49CE JUMPI PUSH1 0x1 DUP2 EQ PUSH2 0x49DF JUMPI PUSH2 0x4A12 JUMP JUMPDEST PUSH1 0xFF NOT DUP4 AND DUP7 MSTORE DUP2 DUP7 ADD SWAP4 POP PUSH2 0x4A12 JUMP JUMPDEST PUSH2 0x49E8 DUP6 PUSH2 0x4762 JUMP JUMPDEST PUSH1 0x0 JUMPDEST DUP4 DUP2 LT ISZERO PUSH2 0x4A0A JUMPI DUP2 SLOAD DUP2 DUP10 ADD MSTORE PUSH1 0x1 DUP3 ADD SWAP2 POP PUSH1 0x20 DUP2 ADD SWAP1 POP PUSH2 0x49EB JUMP JUMPDEST DUP4 DUP9 ADD SWAP6 POP POP POP JUMPDEST POP POP POP SWAP3 SWAP2 POP POP JUMP JUMPDEST PUSH1 0x0 PUSH2 0x4A27 DUP3 DUP5 PUSH2 0x499C JUMP JUMPDEST SWAP2 POP DUP2 SWAP1 POP SWAP3 SWAP2 POP POP JUMP JUMPDEST PUSH1 0x0 PUSH2 0x4A3E DUP4 DUP6 PUSH2 0x43F5 JUMP JUMPDEST SWAP4 POP PUSH2 0x4A4B DUP4 DUP6 DUP5 PUSH2 0x354B JUMP JUMPDEST DUP3 DUP5 ADD SWAP1 POP SWAP4 SWAP3 POP POP POP JUMP JUMPDEST PUSH1 0x0 PUSH2 0x4A64 DUP3 DUP5 DUP7 PUSH2 0x4A32 JUMP JUMPDEST SWAP2 POP DUP2 SWAP1 POP SWAP4 SWAP3 POP POP POP JUMP JUMPDEST PUSH1 0x0 PUSH1 0x60 DUP3 ADD SWAP1 POP PUSH2 0x4A85 PUSH1 0x0 DUP4 ADD DUP7 PUSH2 0x364E JUMP JUMPDEST DUP2 DUP2 SUB PUSH1 0x20 DUP4 ADD MSTORE PUSH2 0x4A97 DUP2 DUP6 PUSH2 0x39DC JUMP JUMPDEST SWAP1 POP DUP2 DUP2 SUB PUSH1 0x40 DUP4 ADD MSTORE PUSH2 0x4AAB DUP2 DUP5 PUSH2 0x39DC JUMP JUMPDEST SWAP1 POP SWAP5 SWAP4 POP POP POP POP JUMP JUMPDEST PUSH1 0x0 PUSH1 0xFF DUP3 AND SWAP1 POP SWAP2 SWAP1 POP JUMP JUMPDEST PUSH1 0x0 PUSH2 0x4ACD DUP3 PUSH2 0x4AB5 JUMP JUMPDEST SWAP2 POP PUSH2 0x4AD8 DUP4 PUSH2 0x4AB5 JUMP JUMPDEST SWAP3 POP DUP3 DUP3 LT ISZERO PUSH2 0x4AEB JUMPI PUSH2 0x4AEA PUSH2 0x447F JUMP JUMPDEST JUMPDEST DUP3 DUP3 SUB SWAP1 POP SWAP3 SWAP2 POP POP JUMP JUMPDEST PUSH1 0x0 PUSH2 0x4B01 DUP3 PUSH2 0x3847 JUMP JUMPDEST SWAP2 POP PUSH2 0x4B0C DUP4 PUSH2 0x3847 JUMP JUMPDEST SWAP3 POP DUP3 DUP3 LT ISZERO PUSH2 0x4B1F JUMPI PUSH2 0x4B1E PUSH2 0x447F JUMP JUMPDEST JUMPDEST DUP3 DUP3 SUB SWAP1 POP SWAP3 SWAP2 POP POP JUMP JUMPDEST PUSH1 0x0 PUSH2 0x4B35 DUP3 PUSH2 0x3847 JUMP JUMPDEST SWAP2 POP PUSH32 0xFFFFFFFFFFFFFFFFFFFFFFFFFFFFFFFFFFFFFFFFFFFFFFFFFFFFFFFFFFFFFFFF DUP3 EQ ISZERO PUSH2 0x4B68 JUMPI PUSH2 0x4B67 PUSH2 0x447F JUMP JUMPDEST JUMPDEST PUSH1 0x1 DUP3 ADD SWAP1 POP SWAP2 SWAP1 POP JUMP JUMPDEST PUSH1 0x0 DUP2 PUSH1 0x60 SHL SWAP1 POP SWAP2 SWAP1 POP JUMP JUMPDEST PUSH1 0x0 PUSH2 0x4B8B DUP3 PUSH2 0x4B73 JUMP JUMPDEST SWAP1 POP SWAP2 SWAP1 POP JUMP JUMPDEST PUSH1 0x0 PUSH2 0x4B9D DUP3 PUSH2 0x4B80 JUMP JUMPDEST SWAP1 POP SWAP2 SWAP1 POP JUMP JUMPDEST PUSH2 0x4BB5 PUSH2 0x4BB0 DUP3 PUSH2 0x3A37 JUMP JUMPDEST PUSH2 0x4B92 JUMP JUMPDEST DUP3 MSTORE POP POP JUMP JUMPDEST PUSH1 0x0 PUSH2 0x4BC7 DUP3 DUP5 PUSH2 0x4BA4 JUMP JUMPDEST PUSH1 0x14 DUP3 ADD SWAP2 POP DUP2 SWAP1 POP SWAP3 SWAP2 POP POP JUMP JUMPDEST PUSH1 0x0 PUSH2 0x4BE1 DUP3 PUSH2 0x3847 JUMP JUMPDEST SWAP2 POP PUSH2 0x4BEC DUP4 PUSH2 0x3847 JUMP JUMPDEST SWAP3 POP DUP2 PUSH32 0xFFFFFFFFFFFFFFFFFFFFFFFFFFFFFFFFFFFFFFFFFFFFFFFFFFFFFFFFFFFFFFFF DIV DUP4 GT DUP3 ISZERO ISZERO AND ISZERO PUSH2 0x4C25 JUMPI PUSH2 0x4C24 PUSH2 0x447F JUMP JUMPDEST JUMPDEST DUP3 DUP3 MUL SWAP1 POP SWAP3 SWAP2 POP POP JUMP INVALID LOG2 PUSH5 0x6970667358 0x22 SLT KECCAK256 ORIGIN 0xE2 0x5F 0xCF 0xAF 0x2B 0xD7 SWAP5 0xE8 SSTORE 0xDE 0xED SIGNEXTEND 0xF6 0xFB POP JUMP PUSH32 0x44FFDC4B20274DB4C5E38EDC6C2664736F6C6343000809003300000000000000 "
    },
    "gasEstimates": {
      "creation": {
        "codeDepositCost": "3911600",
        "executionCost": "infinite",
        "totalCost": "infinite"
      },
      "external": {
        "admin()": "2646",
        "chainName()": "infinite",
        "execute(bytes32,string,string,bytes)": "infinite",
        "executeWithToken(bytes32,string,string,bytes,string,uint256)": "infinite",
        "gameBalance(string)": "infinite",
        "gameHashesArray(uint256)": "infinite",
        "gameToken()": "infinite",
        "gameTokenCurrency()": "2625",
        "gameTokenSymbol()": "infinite",
        "gameWinnerInfo(string)": "infinite",
        "games(string)": "infinite",
        "gamesIsPlayed(string)": "infinite",
        "gasService()": "infinite",
        "gateway()": "infinite",
        "globalGameState(string,string)": "infinite",
        "globalGameWinner(string,string)": "infinite",
        "globalGameWinningsReceived(string,string)": "infinite",
        "hasSatelite(string)": "infinite",
        "payPrize(string)": "infinite",
        "payToPlayGame(string,uint256)": "infinite",
        "payWinnerForeignChain(string,string,address)": "infinite",
        "routerAddress()": "2626",
        "satelites(string)": "infinite",
        "satelitesChainsArray(uint256)": "infinite",
        "sendMessage(string,string,uint256,string,bool,string,string)": "infinite",
        "sendMessageToLocalSatelite(uint256,string,bool,string,string)": "infinite",
        "sendMessageToSatelites(uint256,uint256,string,bool,string,string)": "infinite",
        "sendToMany(string,string,uint256,string)": "infinite",
        "setAcceptedCurrency(string)": "infinite",
        "setRouter(address)": "51204",
        "set_Satelite(address,string)": "infinite",
        "sourceAddress()": "infinite",
        "sourceChain()": "infinite",
        "transferWinningsToRouter(string)": "infinite"
      },
      "internal": {
        "_execute(string calldata,string calldata,bytes calldata)": "infinite",
        "_executeWithToken(string calldata,string calldata,bytes calldata,string calldata,uint256)": "infinite",
        "invalidateGame(string memory)": "infinite",
        "register_Game(string memory)": "infinite",
        "submitGameWinnerInfo(string memory,string memory,string memory)": "infinite",
        "unregister_Game(string memory)": "infinite"
      }
    },
    "methodIdentifiers": {
      "admin()": "f851a440",
      "chainName()": "1c93b03a",
      "execute(bytes32,string,string,bytes)": "49160658",
      "executeWithToken(bytes32,string,string,bytes,string,uint256)": "1a98b2e0",
      "gameBalance(string)": "f2dbd96c",
      "gameHashesArray(uint256)": "e541b13c",
      "gameToken()": "c3dfdae6",
      "gameTokenCurrency()": "c9e96f91",
      "gameTokenSymbol()": "d07767a6",
      "gameWinnerInfo(string)": "8164ef53",
      "games(string)": "6d20931a",
      "gamesIsPlayed(string)": "11f42388",
      "gasService()": "6a22d8cc",
      "gateway()": "116191b6",
      "globalGameState(string,string)": "dbcf0918",
      "globalGameWinner(string,string)": "c4802802",
      "globalGameWinningsReceived(string,string)": "01a7644f",
      "hasSatelite(string)": "8f405ac6",
      "payPrize(string)": "b79c4cca",
      "payToPlayGame(string,uint256)": "45cd2699",
      "payWinnerForeignChain(string,string,address)": "b41b7a83",
      "routerAddress()": "3268cc56",
      "satelites(string)": "72aa03ab",
      "satelitesChainsArray(uint256)": "ae48ddbe",
      "sendMessage(string,string,uint256,string,bool,string,string)": "5c51474e",
      "sendMessageToLocalSatelite(uint256,string,bool,string,string)": "91003578",
      "sendMessageToSatelites(uint256,uint256,string,bool,string,string)": "86a1f858",
      "sendToMany(string,string,uint256,string)": "879d5af0",
      "setAcceptedCurrency(string)": "06f6f867",
      "setRouter(address)": "c0d78655",
      "set_Satelite(address,string)": "85cd0756",
      "sourceAddress()": "b0fa8444",
      "sourceChain()": "1c6ffa46",
      "transferWinningsToRouter(string)": "553e2cfc"
    }
  },
  "abi": [
    {
      "inputs": [
        {
          "internalType": "address",
          "name": "_gateway",
          "type": "address"
        },
        {
          "internalType": "address",
          "name": "_gasReceiver",
          "type": "address"
        },
        {
          "internalType": "string",
          "name": "_chainName",
          "type": "string"
        }
      ],
      "stateMutability": "nonpayable",
      "type": "constructor"
    },
    {
      "inputs": [],
      "name": "InvalidAddress",
      "type": "error"
    },
    {
      "inputs": [],
      "name": "InvalidAddressString",
      "type": "error"
    },
    {
      "inputs": [],
      "name": "NotApprovedByGateway",
      "type": "error"
    },
    {
      "anonymous": false,
      "inputs": [
        {
          "indexed": true,
          "internalType": "address",
          "name": "from",
          "type": "address"
        },
        {
          "indexed": true,
          "internalType": "uint256",
          "name": "messageCode",
          "type": "uint256"
        },
        {
          "indexed": true,
          "internalType": "string",
          "name": "gameHash",
          "type": "string"
        },
        {
          "indexed": false,
          "internalType": "bool",
          "name": "gameState",
          "type": "bool"
        },
        {
          "indexed": false,
          "internalType": "string",
          "name": "winnerChain",
          "type": "string"
        },
        {
          "indexed": false,
          "internalType": "string",
          "name": "winner",
          "type": "string"
        }
      ],
      "name": "Executed",
      "type": "event"
    },
    {
      "inputs": [],
      "name": "admin",
      "outputs": [
        {
          "internalType": "address",
          "name": "",
          "type": "address"
        }
      ],
      "stateMutability": "view",
      "type": "function"
    },
    {
      "inputs": [],
      "name": "chainName",
      "outputs": [
        {
          "internalType": "string",
          "name": "",
          "type": "string"
        }
      ],
      "stateMutability": "view",
      "type": "function"
    },
    {
      "inputs": [
        {
          "internalType": "bytes32",
          "name": "commandId",
          "type": "bytes32"
        },
        {
          "internalType": "string",
          "name": "sourceChain",
          "type": "string"
        },
        {
          "internalType": "string",
          "name": "sourceAddress",
          "type": "string"
        },
        {
          "internalType": "bytes",
          "name": "payload",
          "type": "bytes"
        }
      ],
      "name": "execute",
      "outputs": [],
      "stateMutability": "nonpayable",
      "type": "function"
    },
    {
      "inputs": [
        {
          "internalType": "bytes32",
          "name": "commandId",
          "type": "bytes32"
        },
        {
          "internalType": "string",
          "name": "sourceChain",
          "type": "string"
        },
        {
          "internalType": "string",
          "name": "sourceAddress",
          "type": "string"
        },
        {
          "internalType": "bytes",
          "name": "payload",
          "type": "bytes"
        },
        {
          "internalType": "string",
          "name": "tokenSymbol",
          "type": "string"
        },
        {
          "internalType": "uint256",
          "name": "amount",
          "type": "uint256"
        }
      ],
      "name": "executeWithToken",
      "outputs": [],
      "stateMutability": "nonpayable",
      "type": "function"
    },
    {
      "inputs": [
        {
          "internalType": "string",
          "name": "",
          "type": "string"
        }
      ],
      "name": "gameBalance",
      "outputs": [
        {
          "internalType": "uint256",
          "name": "",
          "type": "uint256"
        }
      ],
      "stateMutability": "view",
      "type": "function"
    },
    {
      "inputs": [
        {
          "internalType": "uint256",
          "name": "",
          "type": "uint256"
        }
      ],
      "name": "gameHashesArray",
      "outputs": [
        {
          "internalType": "string",
          "name": "",
          "type": "string"
        }
      ],
      "stateMutability": "view",
      "type": "function"
    },
    {
      "inputs": [],
      "name": "gameToken",
      "outputs": [
        {
          "internalType": "contract IERC20",
          "name": "",
          "type": "address"
        }
      ],
      "stateMutability": "view",
      "type": "function"
    },
    {
      "inputs": [],
      "name": "gameTokenCurrency",
      "outputs": [
        {
          "internalType": "address",
          "name": "",
          "type": "address"
        }
      ],
      "stateMutability": "view",
      "type": "function"
    },
    {
      "inputs": [],
      "name": "gameTokenSymbol",
      "outputs": [
        {
          "internalType": "string",
          "name": "",
          "type": "string"
        }
      ],
      "stateMutability": "view",
      "type": "function"
    },
    {
      "inputs": [
        {
          "internalType": "string",
          "name": "",
          "type": "string"
        }
      ],
      "name": "gameWinnerInfo",
      "outputs": [
        {
          "internalType": "string",
          "name": "playerAddressString",
          "type": "string"
        },
        {
          "internalType": "string",
          "name": "playerChain",
          "type": "string"
        }
      ],
      "stateMutability": "view",
      "type": "function"
    },
    {
      "inputs": [
        {
          "internalType": "string",
          "name": "",
          "type": "string"
        }
      ],
      "name": "games",
      "outputs": [
        {
          "internalType": "bool",
          "name": "",
          "type": "bool"
        }
      ],
      "stateMutability": "view",
      "type": "function"
    },
    {
      "inputs": [
        {
          "internalType": "string",
          "name": "",
          "type": "string"
        }
      ],
      "name": "gamesIsPlayed",
      "outputs": [
        {
          "internalType": "bool",
          "name": "",
          "type": "bool"
        }
      ],
      "stateMutability": "view",
      "type": "function"
    },
    {
      "inputs": [],
      "name": "gasService",
      "outputs": [
        {
          "internalType": "contract IAxelarGasService",
          "name": "",
          "type": "address"
        }
      ],
      "stateMutability": "view",
      "type": "function"
    },
    {
      "inputs": [],
      "name": "gateway",
      "outputs": [
        {
          "internalType": "contract IAxelarGateway",
          "name": "",
          "type": "address"
        }
      ],
      "stateMutability": "view",
      "type": "function"
    },
    {
      "inputs": [
        {
          "internalType": "string",
          "name": "",
          "type": "string"
        },
        {
          "internalType": "string",
          "name": "",
          "type": "string"
        }
      ],
      "name": "globalGameState",
      "outputs": [
        {
          "internalType": "bool",
          "name": "",
          "type": "bool"
        }
      ],
      "stateMutability": "view",
      "type": "function"
    },
    {
      "inputs": [
        {
          "internalType": "string",
          "name": "",
          "type": "string"
        },
        {
          "internalType": "string",
          "name": "",
          "type": "string"
        }
      ],
      "name": "globalGameWinner",
      "outputs": [
        {
          "internalType": "string",
          "name": "playerAddressString",
          "type": "string"
        },
        {
          "internalType": "string",
          "name": "playerChain",
          "type": "string"
        }
      ],
      "stateMutability": "view",
      "type": "function"
    },
    {
      "inputs": [
        {
          "internalType": "string",
          "name": "",
          "type": "string"
        },
        {
          "internalType": "string",
          "name": "",
          "type": "string"
        }
      ],
      "name": "globalGameWinningsReceived",
      "outputs": [
        {
          "internalType": "bool",
          "name": "",
          "type": "bool"
        }
      ],
      "stateMutability": "view",
      "type": "function"
    },
    {
      "inputs": [
        {
          "internalType": "string",
          "name": "",
          "type": "string"
        }
      ],
      "name": "hasSatelite",
      "outputs": [
        {
          "internalType": "bool",
          "name": "",
          "type": "bool"
        }
      ],
      "stateMutability": "view",
      "type": "function"
    },
    {
      "inputs": [
        {
          "internalType": "string",
          "name": "gameHash",
          "type": "string"
        }
      ],
      "name": "payPrize",
      "outputs": [],
      "stateMutability": "payable",
      "type": "function"
    },
    {
      "inputs": [
        {
          "internalType": "string",
          "name": "gameHash",
          "type": "string"
        },
        {
          "internalType": "uint256",
          "name": "amount",
          "type": "uint256"
        }
      ],
      "name": "payToPlayGame",
      "outputs": [],
      "stateMutability": "nonpayable",
      "type": "function"
    },
    {
      "inputs": [
        {
          "internalType": "string",
          "name": "gameHash",
          "type": "string"
        },
        {
          "internalType": "string",
          "name": "destinationChain",
          "type": "string"
        },
        {
          "internalType": "address",
          "name": "destinationAddress",
          "type": "address"
        }
      ],
      "name": "payWinnerForeignChain",
      "outputs": [],
      "stateMutability": "payable",
      "type": "function"
    },
    {
      "inputs": [],
      "name": "routerAddress",
      "outputs": [
        {
          "internalType": "address",
          "name": "",
          "type": "address"
        }
      ],
      "stateMutability": "view",
      "type": "function"
    },
    {
      "inputs": [
        {
          "internalType": "string",
          "name": "",
          "type": "string"
        }
      ],
      "name": "satelites",
      "outputs": [
        {
          "internalType": "address",
          "name": "",
          "type": "address"
        }
      ],
      "stateMutability": "view",
      "type": "function"
    },
    {
      "inputs": [
        {
          "internalType": "uint256",
          "name": "",
          "type": "uint256"
        }
      ],
      "name": "satelitesChainsArray",
      "outputs": [
        {
          "internalType": "string",
          "name": "",
          "type": "string"
        }
      ],
      "stateMutability": "view",
      "type": "function"
    },
    {
      "inputs": [
        {
          "internalType": "string",
          "name": "destinationChain",
          "type": "string"
        },
        {
          "internalType": "string",
          "name": "destinationAddress",
          "type": "string"
        },
        {
          "internalType": "uint256",
          "name": "messageCode",
          "type": "uint256"
        },
        {
          "internalType": "string",
          "name": "gameHash",
          "type": "string"
        },
        {
          "internalType": "bool",
          "name": "gameState",
          "type": "bool"
        },
        {
          "internalType": "string",
          "name": "winnerChain",
          "type": "string"
        },
        {
          "internalType": "string",
          "name": "winner",
          "type": "string"
        }
      ],
      "name": "sendMessage",
      "outputs": [],
      "stateMutability": "payable",
      "type": "function"
    },
    {
      "inputs": [
        {
          "internalType": "uint256",
          "name": "messageCode",
          "type": "uint256"
        },
        {
          "internalType": "string",
          "name": "gameHash",
          "type": "string"
        },
        {
          "internalType": "bool",
          "name": "gameState",
          "type": "bool"
        },
        {
          "internalType": "string",
          "name": "winnerChain",
          "type": "string"
        },
        {
          "internalType": "string",
          "name": "winner",
          "type": "string"
        }
      ],
      "name": "sendMessageToLocalSatelite",
      "outputs": [],
      "stateMutability": "payable",
      "type": "function"
    },
    {
      "inputs": [
        {
          "internalType": "uint256",
          "name": "satelineNum",
          "type": "uint256"
        },
        {
          "internalType": "uint256",
          "name": "messageCode",
          "type": "uint256"
        },
        {
          "internalType": "string",
          "name": "gameHash",
          "type": "string"
        },
        {
          "internalType": "bool",
          "name": "gameState",
          "type": "bool"
        },
        {
          "internalType": "string",
          "name": "winnerChain",
          "type": "string"
        },
        {
          "internalType": "string",
          "name": "winner",
          "type": "string"
        }
      ],
      "name": "sendMessageToSatelites",
      "outputs": [],
      "stateMutability": "payable",
      "type": "function"
    },
    {
      "inputs": [
        {
          "internalType": "string",
          "name": "destinationChain",
          "type": "string"
        },
        {
          "internalType": "string",
          "name": "destinationAddress",
          "type": "string"
        },
        {
          "internalType": "uint256",
          "name": "amount",
          "type": "uint256"
        },
        {
          "internalType": "string",
          "name": "gameHash",
          "type": "string"
        }
      ],
      "name": "sendToMany",
      "outputs": [],
      "stateMutability": "payable",
      "type": "function"
    },
    {
      "inputs": [
        {
          "internalType": "string",
          "name": "_gameTokenSymbol",
          "type": "string"
        }
      ],
      "name": "setAcceptedCurrency",
      "outputs": [],
      "stateMutability": "nonpayable",
      "type": "function"
    },
    {
      "inputs": [
        {
          "internalType": "address",
          "name": "_routerAddress",
          "type": "address"
        }
      ],
      "name": "setRouter",
      "outputs": [],
      "stateMutability": "nonpayable",
      "type": "function"
    },
    {
      "inputs": [
        {
          "internalType": "address",
          "name": "sateliteAddress",
          "type": "address"
        },
        {
          "internalType": "string",
          "name": "chain_Name",
          "type": "string"
        }
      ],
      "name": "set_Satelite",
      "outputs": [],
      "stateMutability": "nonpayable",
      "type": "function"
    },
    {
      "inputs": [],
      "name": "sourceAddress",
      "outputs": [
        {
          "internalType": "string",
          "name": "",
          "type": "string"
        }
      ],
      "stateMutability": "view",
      "type": "function"
    },
    {
      "inputs": [],
      "name": "sourceChain",
      "outputs": [
        {
          "internalType": "string",
          "name": "",
          "type": "string"
        }
      ],
      "stateMutability": "view",
      "type": "function"
    },
    {
      "inputs": [
        {
          "internalType": "string",
          "name": "gameHash",
          "type": "string"
        }
      ],
      "name": "transferWinningsToRouter",
      "outputs": [],
      "stateMutability": "nonpayable",
      "type": "function"
    }
  ]
}