{
  "data": {
    "bytecode": {
      "linkReferences": {},
      "object": "60c06040523480156200001157600080fd5b50604051620050313803806200503183398181016040528101906200003791906200041e565b82600073ffffffffffffffffffffffffffffffffffffffff168173ffffffffffffffffffffffffffffffffffffffff161415620000a0576040517fe6c4247b00000000000000000000000000000000000000000000000000000000815260040160405180910390fd5b8073ffffffffffffffffffffffffffffffffffffffff1660808173ffffffffffffffffffffffffffffffffffffffff1681525050508173ffffffffffffffffffffffffffffffffffffffff1660a08173ffffffffffffffffffffffffffffffffffffffff168152505033600160006101000a81548173ffffffffffffffffffffffffffffffffffffffff021916908373ffffffffffffffffffffffffffffffffffffffff1602179055508060009080519060200190620001629291906200016c565b50505050620004fe565b8280546200017a90620004c8565b90600052602060002090601f0160209004810192826200019e5760008555620001ea565b82601f10620001b957805160ff1916838001178555620001ea565b82800160010185558215620001ea579182015b82811115620001e9578251825591602001919060010190620001cc565b5b509050620001f99190620001fd565b5090565b5b8082111562000218576000816000905550600101620001fe565b5090565b6000604051905090565b600080fd5b600080fd5b600073ffffffffffffffffffffffffffffffffffffffff82169050919050565b60006200025d8262000230565b9050919050565b6200026f8162000250565b81146200027b57600080fd5b50565b6000815190506200028f8162000264565b92915050565b600080fd5b600080fd5b6000601f19601f8301169050919050565b7f4e487b7100000000000000000000000000000000000000000000000000000000600052604160045260246000fd5b620002ea826200029f565b810181811067ffffffffffffffff821117156200030c576200030b620002b0565b5b80604052505050565b6000620003216200021c565b90506200032f8282620002df565b919050565b600067ffffffffffffffff821115620003525762000351620002b0565b5b6200035d826200029f565b9050602081019050919050565b60005b838110156200038a5780820151818401526020810190506200036d565b838111156200039a576000848401525b50505050565b6000620003b7620003b18462000334565b62000315565b905082815260208101848484011115620003d657620003d56200029a565b5b620003e38482856200036a565b509392505050565b600082601f83011262000403576200040262000295565b5b815162000415848260208601620003a0565b91505092915050565b6000806000606084860312156200043a576200043962000226565b5b60006200044a868287016200027e565b93505060206200045d868287016200027e565b925050604084015167ffffffffffffffff8111156200048157620004806200022b565b5b6200048f86828701620003eb565b9150509250925092565b7f4e487b7100000000000000000000000000000000000000000000000000000000600052602260045260246000fd5b60006002820490506001821680620004e157607f821691505b60208210811415620004f857620004f762000499565b5b50919050565b60805160a051614ad56200055c6000396000818161131b0152818161144901526118c80152600081816108c001528181610a2601528181610a9c01528181610e26015281816113b00152818161180901526119620152614ad56000f3fe6080604052600436106101e35760003560e01c806385cd075611610102578063c3dfdae611610095578063dbcf091811610064578063dbcf0918146106f1578063e541b13c1461072e578063f2dbd96c1461076b578063f851a440146107a8576101e3565b8063c3dfdae614610632578063c48028021461065d578063c9e96f911461069b578063d07767a6146106c6576101e3565b8063ae48ddbe116100d1578063ae48ddbe14610578578063b0fa8444146105b5578063b79c4cca146105e0578063c0d7865514610609576101e3565b806385cd0756146104da578063879d5af0146105035780638f405ac61461051f57806399d0da4f1461055c576101e3565b806345cd26991161017a5780636a22d8cc116101495780636a22d8cc146103f75780636d20931a1461042257806372aa03ab1461045f5780638164ef531461049c576101e3565b806345cd2699146103605780634916065814610389578063553e2cfc146103b25780635c51474e146103db576101e3565b80631a98b2e0116101b65780631a98b2e0146102b65780631c6ffa46146102df5780631c93b03a1461030a5780633268cc5614610335576101e3565b806301a7644f146101e857806306f6f86714610225578063116191b61461024e57806311f4238814610279575b600080fd5b3480156101f457600080fd5b5061020f600480360381019061020a91906135a5565b6107d3565b60405161021c9190613638565b60405180910390f35b34801561023157600080fd5b5061024c60048036038101906102479190613653565b61082e565b005b34801561025a57600080fd5b50610263610a24565b604051610270919061371b565b60405180910390f35b34801561028557600080fd5b506102a0600480360381019061029b9190613653565b610a48565b6040516102ad9190613638565b60405180910390f35b3480156102c257600080fd5b506102dd60048036038101906102d89190613858565b610a7e565b005b3480156102eb57600080fd5b506102f4610ba9565b60405161030191906139f0565b60405180910390f35b34801561031657600080fd5b5061031f610c37565b60405161032c91906139f0565b60405180910390f35b34801561034157600080fd5b5061034a610cc5565b6040516103579190613a33565b60405180910390f35b34801561036c57600080fd5b5061038760048036038101906103829190613a4e565b610ceb565b005b34801561039557600080fd5b506103b060048036038101906103ab9190613aaa565b610e08565b005b3480156103be57600080fd5b506103d960048036038101906103d49190613653565b610f27565b005b6103f560048036038101906103f09190613b9f565b6111fd565b005b34801561040357600080fd5b5061040c611447565b6040516104199190613cee565b60405180910390f35b34801561042e57600080fd5b5061044960048036038101906104449190613653565b61146b565b6040516104569190613638565b60405180910390f35b34801561046b57600080fd5b5061048660048036038101906104819190613653565b6114a1565b6040516104939190613a33565b60405180910390f35b3480156104a857600080fd5b506104c360048036038101906104be9190613653565b6114ea565b6040516104d1929190613d09565b60405180910390f35b3480156104e657600080fd5b5061050160048036038101906104fc9190613d6c565b611634565b005b61051d60048036038101906105189190613dc8565b6117c9565b005b34801561052b57600080fd5b5061054660048036038101906105419190613653565b6119fb565b6040516105539190613638565b60405180910390f35b61057660048036038101906105719190613e83565b611a31565b005b34801561058457600080fd5b5061059f600480360381019061059a9190613f52565b611b79565b6040516105ac91906139f0565b60405180910390f35b3480156105c157600080fd5b506105ca611c25565b6040516105d791906139f0565b60405180910390f35b3480156105ec57600080fd5b5061060760048036038101906106029190613653565b611cb3565b005b34801561061557600080fd5b50610630600480360381019061062b9190613f7f565b611e33565b005b34801561063e57600080fd5b50610647611f48565b6040516106549190613fcd565b60405180910390f35b34801561066957600080fd5b50610684600480360381019061067f91906135a5565b611f6e565b604051610692929190613d09565b60405180910390f35b3480156106a757600080fd5b506106b06120db565b6040516106bd9190613a33565b60405180910390f35b3480156106d257600080fd5b506106db612101565b6040516106e891906139f0565b60405180910390f35b3480156106fd57600080fd5b50610718600480360381019061071391906135a5565b61218f565b6040516107259190613638565b60405180910390f35b34801561073a57600080fd5b5061075560048036038101906107509190613f52565b6121ea565b60405161076291906139f0565b60405180910390f35b34801561077757600080fd5b50610792600480360381019061078d9190613653565b612296565b60405161079f9190613ff7565b60405180910390f35b3480156107b457600080fd5b506107bd6122c4565b6040516107ca9190613a33565b60405180910390f35b601382805160208101820180518482526020830160208501208183528095505050505050818051602081018201805184825260208301602085012081835280955050505050506000915091509054906101000a900460ff1681565b600160009054906101000a900473ffffffffffffffffffffffffffffffffffffffff1673ffffffffffffffffffffffffffffffffffffffff163373ffffffffffffffffffffffffffffffffffffffff16146108be576040517f08c379a00000000000000000000000000000000000000000000000000000000081526004016108b59061405e565b60405180910390fd5b7f000000000000000000000000000000000000000000000000000000000000000073ffffffffffffffffffffffffffffffffffffffff1663935b13f6826040518263ffffffff1660e01b815260040161091791906139f0565b60206040518083038186803b15801561092f57600080fd5b505afa158015610943573d6000803e3d6000fd5b505050506040513d601f19601f820116820180604052508101906109679190614093565b600960006101000a81548173ffffffffffffffffffffffffffffffffffffffff021916908373ffffffffffffffffffffffffffffffffffffffff16021790555080600b90805190602001906109bd92919061325e565b50600960009054906101000a900473ffffffffffffffffffffffffffffffffffffffff16600a60006101000a81548173ffffffffffffffffffffffffffffffffffffffff021916908373ffffffffffffffffffffffffffffffffffffffff16021790555050565b7f000000000000000000000000000000000000000000000000000000000000000081565b600d818051602081018201805184825260208301602085012081835280955050505050506000915054906101000a900460ff1681565b60008585604051610a909291906140f0565b604051809103902090507f000000000000000000000000000000000000000000000000000000000000000073ffffffffffffffffffffffffffffffffffffffff16631876eed98c8c8c8c8c878b8b8b6040518a63ffffffff1660e01b8152600401610b0399989796959493929190614145565b602060405180830381600087803b158015610b1d57600080fd5b505af1158015610b31573d6000803e3d6000fd5b505050506040513d601f19601f82011682018060405250810190610b5591906141d6565b610b8b576040517f500c44b400000000000000000000000000000000000000000000000000000000815260040160405180910390fd5b610b9c8a8a8a8a8a8a8a8a8a6122ea565b5050505050505050505050565b60048054610bb690614232565b80601f0160208091040260200160405190810160405280929190818152602001828054610be290614232565b8015610c2f5780601f10610c0457610100808354040283529160200191610c2f565b820191906000526020600020905b815481529060010190602001808311610c1257829003601f168201915b505050505081565b60008054610c4490614232565b80601f0160208091040260200160405190810160405280929190818152602001828054610c7090614232565b8015610cbd5780601f10610c9257610100808354040283529160200191610cbd565b820191906000526020600020905b815481529060010190602001808311610ca057829003601f168201915b505050505081565b600260009054906101000a900473ffffffffffffffffffffffffffffffffffffffff1681565b600c82604051610cfb91906142a0565b908152602001604051809103902060009054906101000a900460ff1615610e0457600a60009054906101000a900473ffffffffffffffffffffffffffffffffffffffff1673ffffffffffffffffffffffffffffffffffffffff166323b872dd3330846040518463ffffffff1660e01b8152600401610d7b939291906142b7565b602060405180830381600087803b158015610d9557600080fd5b505af1158015610da9573d6000803e3d6000fd5b505050506040513d601f19601f82011682018060405250810190610dcd91906141d6565b5080601083604051610ddf91906142a0565b90815260200160405180910390206000828254610dfc919061431d565b925050819055505b5050565b60008282604051610e1a9291906140f0565b604051809103902090507f000000000000000000000000000000000000000000000000000000000000000073ffffffffffffffffffffffffffffffffffffffff16635f6970c38989898989876040518763ffffffff1660e01b8152600401610e8796959493929190614373565b602060405180830381600087803b158015610ea157600080fd5b505af1158015610eb5573d6000803e3d6000fd5b505050506040513d601f19601f82011682018060405250810190610ed991906141d6565b610f0f576040517f500c44b400000000000000000000000000000000000000000000000000000000815260040160405180910390fd5b610f1d878787878787612393565b5050505050505050565b600c81604051610f3791906142a0565b908152602001604051809103902060009054906101000a900460ff16158015610f895750600d81604051610f6b91906142a0565b908152602001604051809103902060009054906101000a900460ff16155b156111fa576000611042600f83604051610fa391906142a0565b90815260200160405180910390206000018054610fbf90614232565b80601f0160208091040260200160405190810160405280929190818152602001828054610feb90614232565b80156110385780601f1061100d57610100808354040283529160200191611038565b820191906000526020600020905b81548152906001019060200180831161101b57829003601f168201915b5050505050612756565b9050600060108360405161105691906142a0565b9081526020016040518091039020549050600060108460405161107991906142a0565b908152602001604051809103902081905550600a60009054906101000a900473ffffffffffffffffffffffffffffffffffffffff1673ffffffffffffffffffffffffffffffffffffffff1663095ea7b3600260009054906101000a900473ffffffffffffffffffffffffffffffffffffffff16836040518363ffffffff1660e01b815260040161110a9291906143ca565b602060405180830381600087803b15801561112457600080fd5b505af1158015611138573d6000803e3d6000fd5b505050506040513d601f19601f8201168201806040525081019061115c91906141d6565b50600360009054906101000a900473ffffffffffffffffffffffffffffffffffffffff1673ffffffffffffffffffffffffffffffffffffffff16630152907d8385846040518463ffffffff1660e01b81526004016111bc939291906143f3565b600060405180830381600087803b1580156111d657600080fd5b505af11580156111ea573d6000803e3d6000fd5b505050506111f7836129a4565b50505b50565b60018514156112b65782156112a75761121584612a76565b600360009054906101000a900473ffffffffffffffffffffffffffffffffffffffff1673ffffffffffffffffffffffffffffffffffffffff16635cc00f7e856040518263ffffffff1660e01b815260040161127091906139f0565b600060405180830381600087803b15801561128a57600080fd5b505af115801561129e573d6000803e3d6000fd5b505050506112b1565b6112b084612ba8565b5b6112e4565b60028514156112cf576112ca848284612e1e565b6112e3565b60038514156112e2576112e184611cb3565b5b5b5b600085858585856040516020016112ff959493929190614431565b604051602081830303815290604052905060003411156113ae577f000000000000000000000000000000000000000000000000000000000000000073ffffffffffffffffffffffffffffffffffffffff16630c93e3bb34308b8b86336040518763ffffffff1660e01b815260040161137b9594939291906144ee565b6000604051808303818588803b15801561139457600080fd5b505af11580156113a8573d6000803e3d6000fd5b50505050505b7f000000000000000000000000000000000000000000000000000000000000000073ffffffffffffffffffffffffffffffffffffffff16631c92115f8989846040518463ffffffff1660e01b815260040161140b93929190614556565b600060405180830381600087803b15801561142557600080fd5b505af1158015611439573d6000803e3d6000fd5b505050505050505050505050565b7f000000000000000000000000000000000000000000000000000000000000000081565b600c818051602081018201805184825260208301602085012081835280955050505050506000915054906101000a900460ff1681565b6006818051602081018201805184825260208301602085012081835280955050505050506000915054906101000a900473ffffffffffffffffffffffffffffffffffffffff1681565b600f8180516020810182018051848252602083016020850120818352809550505050505060009150905080600001805461152390614232565b80601f016020809104026020016040519081016040528092919081815260200182805461154f90614232565b801561159c5780601f106115715761010080835404028352916020019161159c565b820191906000526020600020905b81548152906001019060200180831161157f57829003601f168201915b5050505050908060010180546115b190614232565b80601f01602080910402602001604051908101604052809291908181526020018280546115dd90614232565b801561162a5780601f106115ff5761010080835404028352916020019161162a565b820191906000526020600020905b81548152906001019060200180831161160d57829003601f168201915b5050505050905082565b600160009054906101000a900473ffffffffffffffffffffffffffffffffffffffff1673ffffffffffffffffffffffffffffffffffffffff163373ffffffffffffffffffffffffffffffffffffffff16146116c4576040517f08c379a00000000000000000000000000000000000000000000000000000000081526004016116bb9061405e565b60405180910390fd5b6007816040516116d491906142a0565b908152602001604051809103902060009054906101000a900460ff1661176857600160078260405161170691906142a0565b908152602001604051809103902060006101000a81548160ff02191690831515021790555060088190806001815401808255809150506001900390600052602060002001600090919091909150908051906020019061176692919061325e565b505b8160068260405161177991906142a0565b908152602001604051809103902060006101000a81548173ffffffffffffffffffffffffffffffffffffffff021916908373ffffffffffffffffffffffffffffffffffffffff1602179055505050565b600a60009054906101000a900473ffffffffffffffffffffffffffffffffffffffff1673ffffffffffffffffffffffffffffffffffffffff1663095ea7b37f0000000000000000000000000000000000000000000000000000000000000000846040518363ffffffff1660e01b81526004016118469291906143ca565b602060405180830381600087803b15801561186057600080fd5b505af1158015611874573d6000803e3d6000fd5b505050506040513d601f19601f8201168201806040525081019061189891906141d6565b506000816040516020016118ac91906139f0565b60405160208183030381529060405290506000341115611960577f000000000000000000000000000000000000000000000000000000000000000073ffffffffffffffffffffffffffffffffffffffff1663c62c20023430888886600b8a336040518963ffffffff1660e01b815260040161192d9796959493929190614637565b6000604051808303818588803b15801561194657600080fd5b505af115801561195a573d6000803e3d6000fd5b50505050505b7f000000000000000000000000000000000000000000000000000000000000000073ffffffffffffffffffffffffffffffffffffffff1663b5417084868684600b886040518663ffffffff1660e01b81526004016119c29594939291906146c2565b600060405180830381600087803b1580156119dc57600080fd5b505af11580156119f0573d6000803e3d6000fd5b505050505050505050565b6007818051602081018201805184825260208301602085012081835280955050505050506000915054906101000a900460ff1681565b60005b600880549050811015611b7157600060088281548110611a5757611a56614731565b5b906000526020600020018054611a6c90614232565b80601f0160208091040260200160405190810160405280929190818152602001828054611a9890614232565b8015611ae55780601f10611aba57610100808354040283529160200191611ae5565b820191906000526020600020905b815481529060010190602001808311611ac857829003601f168201915b505050505090506000611b4b600683604051611b0191906142a0565b908152602001604051809103902060009054906101000a900473ffffffffffffffffffffffffffffffffffffffff1673ffffffffffffffffffffffffffffffffffffffff16612e93565b9050611b5c82828a8a8a8a8a6111fd565b50508080611b6990614760565b915050611a34565b505050505050565b60088181548110611b8957600080fd5b906000526020600020016000915090508054611ba490614232565b80601f0160208091040260200160405190810160405280929190818152602001828054611bd090614232565b8015611c1d5780601f10611bf257610100808354040283529160200191611c1d565b820191906000526020600020905b815481529060010190602001808311611c0057829003601f168201915b505050505081565b60058054611c3290614232565b80601f0160208091040260200160405190810160405280929190818152602001828054611c5e90614232565b8015611cab5780601f10611c8057610100808354040283529160200191611cab565b820191906000526020600020905b815481529060010190602001808311611c8e57829003601f168201915b505050505081565b6000600f82604051611cc591906142a0565b90815260200160405180910390206001018054611ce190614232565b80601f0160208091040260200160405190810160405280929190818152602001828054611d0d90614232565b8015611d5a5780601f10611d2f57610100808354040283529160200191611d5a565b820191906000526020600020905b815481529060010190602001808311611d3d57829003601f168201915b505050505090506000604051611d70919061483d565b604051809103902081805190602001201415611ddf576001601383604051611d9891906142a0565b90815260200160405180910390206000604051611db591906148d3565b908152602001604051809103902060006101000a81548160ff021916908315150217905550611e2f565b6000600682604051611df191906142a0565b908152602001604051809103902060009054906101000a900473ffffffffffffffffffffffffffffffffffffffff169050611e2d8383836131b6565b505b5050565b600160009054906101000a900473ffffffffffffffffffffffffffffffffffffffff1673ffffffffffffffffffffffffffffffffffffffff163373ffffffffffffffffffffffffffffffffffffffff1614611ec3576040517f08c379a0000000000000000000000000000000000000000000000000000000008152600401611eba9061405e565b60405180910390fd5b80600260006101000a81548173ffffffffffffffffffffffffffffffffffffffff021916908373ffffffffffffffffffffffffffffffffffffffff16021790555080600360006101000a81548173ffffffffffffffffffffffffffffffffffffffff021916908373ffffffffffffffffffffffffffffffffffffffff16021790555050565b600a60009054906101000a900473ffffffffffffffffffffffffffffffffffffffff1681565b6012828051602081018201805184825260208301602085012081835280955050505050508180516020810182018051848252602083016020850120818352809550505050505060009150915050806000018054611fca90614232565b80601f0160208091040260200160405190810160405280929190818152602001828054611ff690614232565b80156120435780601f1061201857610100808354040283529160200191612043565b820191906000526020600020905b81548152906001019060200180831161202657829003601f168201915b50505050509080600101805461205890614232565b80601f016020809104026020016040519081016040528092919081815260200182805461208490614232565b80156120d15780601f106120a6576101008083540402835291602001916120d1565b820191906000526020600020905b8154815290600101906020018083116120b457829003601f168201915b5050505050905082565b600960009054906101000a900473ffffffffffffffffffffffffffffffffffffffff1681565b600b805461210e90614232565b80601f016020809104026020016040519081016040528092919081815260200182805461213a90614232565b80156121875780601f1061215c57610100808354040283529160200191612187565b820191906000526020600020905b81548152906001019060200180831161216a57829003601f168201915b505050505081565b601182805160208101820180518482526020830160208501208183528095505050505050818051602081018201805184825260208301602085012081835280955050505050506000915091509054906101000a900460ff1681565b600e81815481106121fa57600080fd5b90600052602060002001600091509050805461221590614232565b80601f016020809104026020016040519081016040528092919081815260200182805461224190614232565b801561228e5780601f106122635761010080835404028352916020019161228e565b820191906000526020600020905b81548152906001019060200180831161227157829003601f168201915b505050505081565b6010818051602081018201805184825260208301602085012081835280955050505050506000915090505481565b600160009054906101000a900473ffffffffffffffffffffffffffffffffffffffff1681565b600085858101906122fb9190613653565b9050600160138260405161230f91906142a0565b90815260200160405180910390208b8b60405161232d92919061490f565b908152602001604051809103902060006101000a81548160ff0219169083151502179055508160108260405161236391906142a0565b90815260200160405180910390206000828254612380919061431d565b9250508190555050505050505050505050565b600080600080600086868101906123aa9190613e83565b945094509450945094508a8a600491906123c59291906132e4565b508888600591906123d79291906132e4565b506001851415612529578215612482576123f084612a76565b600360009054906101000a900473ffffffffffffffffffffffffffffffffffffffff1673ffffffffffffffffffffffffffffffffffffffff16635cc00f7e856040518263ffffffff1660e01b815260040161244b91906139f0565b600060405180830381600087803b15801561246557600080fd5b505af1158015612479573d6000803e3d6000fd5b5050505061248c565b61248b84612ba8565b5b6125248b8b8080601f016020809104026020016040519081016040528093929190818152602001838380828437600081840152601f19601f820116905080830192505050505050508a8a8080601f016020809104026020016040519081016040528093929190818152602001838380828437600081840152601f19601f820116905080830192505050505050506000878787876111fd565b6126e0565b60028514156125da5761253d848284612e1e565b6125d58b8b8080601f016020809104026020016040519081016040528093929190818152602001838380828437600081840152601f19601f820116905080830192505050505050508a8a8080601f016020809104026020016040519081016040528093929190818152602001838380828437600081840152601f19601f820116905080830192505050505050506000878787876111fd565b6126df565b60038514156125f1576125ec84611cb3565b6126de565b60008514156126dd578260118560405161260b91906142a0565b90815260200160405180910390208c8c60405161262992919061490f565b908152602001604051809103902060006101000a81548160ff02191690831515021790555060405180604001604052808281526020018381525060128560405161267391906142a0565b90815260200160405180910390208c8c60405161269192919061490f565b908152602001604051809103902060008201518160000190805190602001906126bb92919061325e565b5060208201518160010190805190602001906126d892919061325e565b509050505b5b5b5b836040516126ee91906142a0565b6040518091039020853373ffffffffffffffffffffffffffffffffffffffff167f8a40688851e91e3bd6baf89a23ffaa0bcf0b0f6f442cc9052ccb46ded80c20a386868660405161274193929190614928565b60405180910390a45050505050505050505050565b600080829050600080602a83511415806127d057507f3000000000000000000000000000000000000000000000000000000000000000836000815181106127a05761279f614731565b5b602001015160f81c60f81b7effffffffffffffffffffffffffffffffffffffffffffffffffffffffffffff191614155b8061283b57507f78000000000000000000000000000000000000000000000000000000000000008360018151811061280b5761280a614731565b5b602001015160f81c60f81b7effffffffffffffffffffffffffffffffffffffffffffffffffffffffffffff191614155b15612872576040517fdf48f19e00000000000000000000000000000000000000000000000000000000815260040160405180910390fd5b6000600290505b602a8110156129985783818151811061289557612894614731565b5b602001015160f81c60f81b60f81c915060618260ff16101580156128bd575060668260ff1611155b156128d6576057826128cf919061497a565b915061296c565b60418260ff16101580156128ee575060468260ff1611155b1561290757603782612900919061497a565b915061296b565b60308260ff161015801561291f575060398260ff1611155b1561293857603082612931919061497a565b915061296a565b6040517fdf48f19e00000000000000000000000000000000000000000000000000000000815260040160405180910390fd5b5b5b600281602961297b91906149ae565b901b8260ff16901b831792508061299190614760565b9050612879565b50819350505050919050565b60006001905060005b600880549050811015612a3b576013836040516129ca91906142a0565b9081526020016040518091039020600882815481106129ec576129eb614731565b5b90600052602060002001604051612a0391906148d3565b908152602001604051809103902060009054906101000a900460ff16612a2857600091505b8080612a3390614760565b9150506129ad565b5080600d83604051612a4d91906142a0565b908152602001604051809103902060006101000a81548160ff0219169083151502179055505050565b600c81604051612a8691906142a0565b908152602001604051809103902060009054906101000a900460ff16158015612ad85750600d81604051612aba91906142a0565b908152602001604051809103902060009054906101000a900460ff16155b15612ba5576001600c82604051612aef91906142a0565b908152602001604051809103902060006101000a81548160ff021916908315150217905550600e81908060018154018082558091505060019003906000526020600020016000909190919091509080519060200190612b4f92919061325e565b506001601182604051612b6291906142a0565b90815260200160405180910390206000604051612b7f91906148d3565b908152602001604051809103902060006101000a81548160ff0219169083151502179055505b50565b600c81604051612bb891906142a0565b908152602001604051809103902060009054906101000a900460ff1615612e1b576000600c82604051612beb91906142a0565b908152602001604051809103902060006101000a81548160ff0219169083151502179055506000601182604051612c2291906142a0565b90815260200160405180910390206000604051612c3f91906148d3565b908152602001604051809103902060006101000a81548160ff02191690831515021790555060006001600e80549050612c7891906149ae565b67ffffffffffffffff811115612c9157612c9061347a565b5b604051908082528060200260200182016040528015612cc457816020015b6060815260200190600190039081612caf5790505b5090506000805b600e80549050811015612e00578380519060200120600e8281548110612cf457612cf3614731565b5b90600052602060002001604051612d0b919061483d565b604051809103902014612ded57600e8181548110612d2c57612d2b614731565b5b906000526020600020018054612d4190614232565b80601f0160208091040260200160405190810160405280929190818152602001828054612d6d90614232565b8015612dba5780601f10612d8f57610100808354040283529160200191612dba565b820191906000526020600020905b815481529060010190602001808311612d9d57829003601f168201915b5050505050838381518110612dd257612dd1614731565b5b6020026020010181905250600182612dea919061431d565b91505b8080612df890614760565b915050612ccb565b5081600e9080519060200190612e1792919061336a565b5050505b50565b604051806040016040528083815260200182815250600f84604051612e4391906142a0565b90815260200160405180910390206000820151816000019080519060200190612e6d92919061325e565b506020820151816001019080519060200190612e8a92919061325e565b50905050505050565b6060600082604051602001612ea89190614a2a565b604051602081830303815290604052905060008151905060006040518060400160405280601081526020017f30313233343536373839616263646566000000000000000000000000000000008152509050600060028451612f099190614a45565b6002612f15919061431d565b67ffffffffffffffff811115612f2e57612f2d61347a565b5b6040519080825280601f01601f191660200182016040528015612f605781602001600182028036833780820191505090505b5090507f300000000000000000000000000000000000000000000000000000000000000081600081518110612f9857612f97614731565b5b60200101907effffffffffffffffffffffffffffffffffffffffffffffffffffffffffffff1916908160001a9053507f780000000000000000000000000000000000000000000000000000000000000081600181518110612ffc57612ffb614731565b5b60200101907effffffffffffffffffffffffffffffffffffffffffffffffffffffffffffff1916908160001a90535060005b838110156131a95782600486838151811061304c5761304b614731565b5b602001015160f81c60f81b7effffffffffffffffffffffffffffffffffffffffffffffffffffffffffffff1916901c60f81c60ff168151811061309257613091614731565b5b602001015160f81c60f81b826002836130ab9190614a45565b60026130b7919061431d565b815181106130c8576130c7614731565b5b60200101907effffffffffffffffffffffffffffffffffffffffffffffffffffffffffffff1916908160001a90535082600f60f81b8683815181106131105761310f614731565b5b602001015160f81c60f81b1660f81c60ff168151811061313357613132614731565b5b602001015160f81c60f81b8260028361314c9190614a45565b6003613158919061431d565b8151811061316957613168614731565b5b60200101907effffffffffffffffffffffffffffffffffffffffffffffffffffffffffffff1916908160001a905350806131a290614760565b905061302e565b5080945050505050919050565b600c836040516131c691906142a0565b908152602001604051809103902060009054906101000a900460ff166132595760006010846040516131f891906142a0565b9081526020016040518091039020549050600060108560405161321b91906142a0565b908152602001604051809103902081905550613257836132508473ffffffffffffffffffffffffffffffffffffffff16612e93565b83876117c9565b505b505050565b82805461326a90614232565b90600052602060002090601f01602090048101928261328c57600085556132d3565b82601f106132a557805160ff19168380011785556132d3565b828001600101855582156132d3579182015b828111156132d25782518255916020019190600101906132b7565b5b5090506132e091906133ca565b5090565b8280546132f090614232565b90600052602060002090601f0160209004810192826133125760008555613359565b82601f1061332b57803560ff1916838001178555613359565b82800160010185558215613359579182015b8281111561335857823582559160200191906001019061333d565b5b50905061336691906133ca565b5090565b8280548282559060005260206000209081019282156133b9579160200282015b828111156133b85782518290805190602001906133a892919061325e565b509160200191906001019061338a565b5b5090506133c691906133e7565b5090565b5b808211156133e35760008160009055506001016133cb565b5090565b5b8082111561340757600081816133fe919061340b565b506001016133e8565b5090565b50805461341790614232565b6000825580601f106134295750613448565b601f01602090049060005260206000209081019061344791906133ca565b5b50565b6000604051905090565b600080fd5b600080fd5b600080fd5b600080fd5b6000601f19601f8301169050919050565b7f4e487b7100000000000000000000000000000000000000000000000000000000600052604160045260246000fd5b6134b282613469565b810181811067ffffffffffffffff821117156134d1576134d061347a565b5b80604052505050565b60006134e461344b565b90506134f082826134a9565b919050565b600067ffffffffffffffff8211156135105761350f61347a565b5b61351982613469565b9050602081019050919050565b82818337600083830152505050565b6000613548613543846134f5565b6134da565b90508281526020810184848401111561356457613563613464565b5b61356f848285613526565b509392505050565b600082601f83011261358c5761358b61345f565b5b813561359c848260208601613535565b91505092915050565b600080604083850312156135bc576135bb613455565b5b600083013567ffffffffffffffff8111156135da576135d961345a565b5b6135e685828601613577565b925050602083013567ffffffffffffffff8111156136075761360661345a565b5b61361385828601613577565b9150509250929050565b60008115159050919050565b6136328161361d565b82525050565b600060208201905061364d6000830184613629565b92915050565b60006020828403121561366957613668613455565b5b600082013567ffffffffffffffff8111156136875761368661345a565b5b61369384828501613577565b91505092915050565b600073ffffffffffffffffffffffffffffffffffffffff82169050919050565b6000819050919050565b60006136e16136dc6136d78461369c565b6136bc565b61369c565b9050919050565b60006136f3826136c6565b9050919050565b6000613705826136e8565b9050919050565b613715816136fa565b82525050565b6000602082019050613730600083018461370c565b92915050565b6000819050919050565b61374981613736565b811461375457600080fd5b50565b60008135905061376681613740565b92915050565b600080fd5b600080fd5b60008083601f84011261378c5761378b61345f565b5b8235905067ffffffffffffffff8111156137a9576137a861376c565b5b6020830191508360018202830111156137c5576137c4613771565b5b9250929050565b60008083601f8401126137e2576137e161345f565b5b8235905067ffffffffffffffff8111156137ff576137fe61376c565b5b60208301915083600182028301111561381b5761381a613771565b5b9250929050565b6000819050919050565b61383581613822565b811461384057600080fd5b50565b6000813590506138528161382c565b92915050565b60008060008060008060008060008060c08b8d03121561387b5761387a613455565b5b60006138898d828e01613757565b9a505060208b013567ffffffffffffffff8111156138aa576138a961345a565b5b6138b68d828e01613776565b995099505060408b013567ffffffffffffffff8111156138d9576138d861345a565b5b6138e58d828e01613776565b975097505060608b013567ffffffffffffffff8111156139085761390761345a565b5b6139148d828e016137cc565b955095505060808b013567ffffffffffffffff8111156139375761393661345a565b5b6139438d828e01613776565b935093505060a06139568d828e01613843565b9150509295989b9194979a5092959850565b600081519050919050565b600082825260208201905092915050565b60005b838110156139a2578082015181840152602081019050613987565b838111156139b1576000848401525b50505050565b60006139c282613968565b6139cc8185613973565b93506139dc818560208601613984565b6139e581613469565b840191505092915050565b60006020820190508181036000830152613a0a81846139b7565b905092915050565b6000613a1d8261369c565b9050919050565b613a2d81613a12565b82525050565b6000602082019050613a486000830184613a24565b92915050565b60008060408385031215613a6557613a64613455565b5b600083013567ffffffffffffffff811115613a8357613a8261345a565b5b613a8f85828601613577565b9250506020613aa085828601613843565b9150509250929050565b60008060008060008060006080888a031215613ac957613ac8613455565b5b6000613ad78a828b01613757565b975050602088013567ffffffffffffffff811115613af857613af761345a565b5b613b048a828b01613776565b9650965050604088013567ffffffffffffffff811115613b2757613b2661345a565b5b613b338a828b01613776565b9450945050606088013567ffffffffffffffff811115613b5657613b5561345a565b5b613b628a828b016137cc565b925092505092959891949750929550565b613b7c8161361d565b8114613b8757600080fd5b50565b600081359050613b9981613b73565b92915050565b600080600080600080600060e0888a031215613bbe57613bbd613455565b5b600088013567ffffffffffffffff811115613bdc57613bdb61345a565b5b613be88a828b01613577565b975050602088013567ffffffffffffffff811115613c0957613c0861345a565b5b613c158a828b01613577565b9650506040613c268a828b01613843565b955050606088013567ffffffffffffffff811115613c4757613c4661345a565b5b613c538a828b01613577565b9450506080613c648a828b01613b8a565b93505060a088013567ffffffffffffffff811115613c8557613c8461345a565b5b613c918a828b01613577565b92505060c088013567ffffffffffffffff811115613cb257613cb161345a565b5b613cbe8a828b01613577565b91505092959891949750929550565b6000613cd8826136e8565b9050919050565b613ce881613ccd565b82525050565b6000602082019050613d036000830184613cdf565b92915050565b60006040820190508181036000830152613d2381856139b7565b90508181036020830152613d3781846139b7565b90509392505050565b613d4981613a12565b8114613d5457600080fd5b50565b600081359050613d6681613d40565b92915050565b60008060408385031215613d8357613d82613455565b5b6000613d9185828601613d57565b925050602083013567ffffffffffffffff811115613db257613db161345a565b5b613dbe85828601613577565b9150509250929050565b60008060008060808587031215613de257613de1613455565b5b600085013567ffffffffffffffff811115613e0057613dff61345a565b5b613e0c87828801613577565b945050602085013567ffffffffffffffff811115613e2d57613e2c61345a565b5b613e3987828801613577565b9350506040613e4a87828801613843565b925050606085013567ffffffffffffffff811115613e6b57613e6a61345a565b5b613e7787828801613577565b91505092959194509250565b600080600080600060a08688031215613e9f57613e9e613455565b5b6000613ead88828901613843565b955050602086013567ffffffffffffffff811115613ece57613ecd61345a565b5b613eda88828901613577565b9450506040613eeb88828901613b8a565b935050606086013567ffffffffffffffff811115613f0c57613f0b61345a565b5b613f1888828901613577565b925050608086013567ffffffffffffffff811115613f3957613f3861345a565b5b613f4588828901613577565b9150509295509295909350565b600060208284031215613f6857613f67613455565b5b6000613f7684828501613843565b91505092915050565b600060208284031215613f9557613f94613455565b5b6000613fa384828501613d57565b91505092915050565b6000613fb7826136e8565b9050919050565b613fc781613fac565b82525050565b6000602082019050613fe26000830184613fbe565b92915050565b613ff181613822565b82525050565b600060208201905061400c6000830184613fe8565b92915050565b7f616374696f6e206f6e6c7920666f722061646d696e0000000000000000000000600082015250565b6000614048601583613973565b915061405382614012565b602082019050919050565b600060208201905081810360008301526140778161403b565b9050919050565b60008151905061408d81613d40565b92915050565b6000602082840312156140a9576140a8613455565b5b60006140b78482850161407e565b91505092915050565b600081905092915050565b60006140d783856140c0565b93506140e4838584613526565b82840190509392505050565b60006140fd8284866140cb565b91508190509392505050565b61411281613736565b82525050565b60006141248385613973565b9350614131838584613526565b61413a83613469565b840190509392505050565b600060c08201905061415a600083018c614109565b818103602083015261416d818a8c614118565b9050818103604083015261418281888a614118565b90506141916060830187614109565b81810360808301526141a4818587614118565b90506141b360a0830184613fe8565b9a9950505050505050505050565b6000815190506141d081613b73565b92915050565b6000602082840312156141ec576141eb613455565b5b60006141fa848285016141c1565b91505092915050565b7f4e487b7100000000000000000000000000000000000000000000000000000000600052602260045260246000fd5b6000600282049050600182168061424a57607f821691505b6020821081141561425e5761425d614203565b5b50919050565b600081905092915050565b600061427a82613968565b6142848185614264565b9350614294818560208601613984565b80840191505092915050565b60006142ac828461426f565b915081905092915050565b60006060820190506142cc6000830186613a24565b6142d96020830185613a24565b6142e66040830184613fe8565b949350505050565b7f4e487b7100000000000000000000000000000000000000000000000000000000600052601160045260246000fd5b600061432882613822565b915061433383613822565b9250827fffffffffffffffffffffffffffffffffffffffffffffffffffffffffffffffff03821115614368576143676142ee565b5b828201905092915050565b60006080820190506143886000830189614109565b818103602083015261439b818789614118565b905081810360408301526143b0818587614118565b90506143bf6060830184614109565b979650505050505050565b60006040820190506143df6000830185613a24565b6143ec6020830184613fe8565b9392505050565b60006060820190506144086000830186613a24565b818103602083015261441a81856139b7565b90506144296040830184613fe8565b949350505050565b600060a0820190506144466000830188613fe8565b818103602083015261445881876139b7565b90506144676040830186613629565b818103606083015261447981856139b7565b9050818103608083015261448d81846139b7565b90509695505050505050565b600081519050919050565b600082825260208201905092915050565b60006144c082614499565b6144ca81856144a4565b93506144da818560208601613984565b6144e381613469565b840191505092915050565b600060a0820190506145036000830188613a24565b818103602083015261451581876139b7565b9050818103604083015261452981866139b7565b9050818103606083015261453d81856144b5565b905061454c6080830184613a24565b9695505050505050565b6000606082019050818103600083015261457081866139b7565b9050818103602083015261458481856139b7565b9050818103604083015261459881846144b5565b9050949350505050565b60008190508160005260206000209050919050565b600081546145c481614232565b6145ce8186613973565b945060018216600081146145e957600181146145fb5761462e565b60ff198316865260208601935061462e565b614604856145a2565b60005b8381101561462657815481890152600182019150602081019050614607565b808801955050505b50505092915050565b600060e08201905061464c600083018a613a24565b818103602083015261465e81896139b7565b9050818103604083015261467281886139b7565b9050818103606083015261468681876144b5565b9050818103608083015261469a81866145b7565b90506146a960a0830185613fe8565b6146b660c0830184613a24565b98975050505050505050565b600060a08201905081810360008301526146dc81886139b7565b905081810360208301526146f081876139b7565b9050818103604083015261470481866144b5565b9050818103606083015261471881856145b7565b90506147276080830184613fe8565b9695505050505050565b7f4e487b7100000000000000000000000000000000000000000000000000000000600052603260045260246000fd5b600061476b82613822565b91507fffffffffffffffffffffffffffffffffffffffffffffffffffffffffffffffff82141561479e5761479d6142ee565b5b600182019050919050565b60008190508160005260206000209050919050565b600081546147cb81614232565b6147d581866140c0565b945060018216600081146147f0576001811461480157614834565b60ff19831686528186019350614834565b61480a856147a9565b60005b8381101561482c5781548189015260018201915060208101905061480d565b838801955050505b50505092915050565b600061484982846147be565b915081905092915050565b6000815461486181614232565b61486b8186614264565b945060018216600081146148865760018114614897576148ca565b60ff198316865281860193506148ca565b6148a0856145a2565b60005b838110156148c2578154818901526001820191506020810190506148a3565b838801955050505b50505092915050565b60006148df8284614854565b915081905092915050565b60006148f68385614264565b9350614903838584613526565b82840190509392505050565b600061491c8284866148ea565b91508190509392505050565b600060608201905061493d6000830186613629565b818103602083015261494f81856139b7565b9050818103604083015261496381846139b7565b9050949350505050565b600060ff82169050919050565b60006149858261496d565b91506149908361496d565b9250828210156149a3576149a26142ee565b5b828203905092915050565b60006149b982613822565b91506149c483613822565b9250828210156149d7576149d66142ee565b5b828203905092915050565b60008160601b9050919050565b60006149fa826149e2565b9050919050565b6000614a0c826149ef565b9050919050565b614a24614a1f82613a12565b614a01565b82525050565b6000614a368284614a13565b60148201915081905092915050565b6000614a5082613822565b9150614a5b83613822565b9250817fffffffffffffffffffffffffffffffffffffffffffffffffffffffffffffffff0483118215151615614a9457614a936142ee565b5b82820290509291505056fea2646970667358221220f65d40b26b79cdede1af677ec1cbb8c0dbc9f71750d667d67f1bf6c3aceb63aa64736f6c63430008090033",
      "opcodes": "PUSH1 0xC0 PUSH1 0x40 MSTORE CALLVALUE DUP1 ISZERO PUSH3 0x11 JUMPI PUSH1 0x0 DUP1 REVERT JUMPDEST POP PUSH1 0x40 MLOAD PUSH3 0x5031 CODESIZE SUB DUP1 PUSH3 0x5031 DUP4 CODECOPY DUP2 DUP2 ADD PUSH1 0x40 MSTORE DUP2 ADD SWAP1 PUSH3 0x37 SWAP2 SWAP1 PUSH3 0x41E JUMP JUMPDEST DUP3 PUSH1 0x0 PUSH20 0xFFFFFFFFFFFFFFFFFFFFFFFFFFFFFFFFFFFFFFFF AND DUP2 PUSH20 0xFFFFFFFFFFFFFFFFFFFFFFFFFFFFFFFFFFFFFFFF AND EQ ISZERO PUSH3 0xA0 JUMPI PUSH1 0x40 MLOAD PUSH32 0xE6C4247B00000000000000000000000000000000000000000000000000000000 DUP2 MSTORE PUSH1 0x4 ADD PUSH1 0x40 MLOAD DUP1 SWAP2 SUB SWAP1 REVERT JUMPDEST DUP1 PUSH20 0xFFFFFFFFFFFFFFFFFFFFFFFFFFFFFFFFFFFFFFFF AND PUSH1 0x80 DUP2 PUSH20 0xFFFFFFFFFFFFFFFFFFFFFFFFFFFFFFFFFFFFFFFF AND DUP2 MSTORE POP POP POP DUP2 PUSH20 0xFFFFFFFFFFFFFFFFFFFFFFFFFFFFFFFFFFFFFFFF AND PUSH1 0xA0 DUP2 PUSH20 0xFFFFFFFFFFFFFFFFFFFFFFFFFFFFFFFFFFFFFFFF AND DUP2 MSTORE POP POP CALLER PUSH1 0x1 PUSH1 0x0 PUSH2 0x100 EXP DUP2 SLOAD DUP2 PUSH20 0xFFFFFFFFFFFFFFFFFFFFFFFFFFFFFFFFFFFFFFFF MUL NOT AND SWAP1 DUP4 PUSH20 0xFFFFFFFFFFFFFFFFFFFFFFFFFFFFFFFFFFFFFFFF AND MUL OR SWAP1 SSTORE POP DUP1 PUSH1 0x0 SWAP1 DUP1 MLOAD SWAP1 PUSH1 0x20 ADD SWAP1 PUSH3 0x162 SWAP3 SWAP2 SWAP1 PUSH3 0x16C JUMP JUMPDEST POP POP POP POP PUSH3 0x4FE JUMP JUMPDEST DUP3 DUP1 SLOAD PUSH3 0x17A SWAP1 PUSH3 0x4C8 JUMP JUMPDEST SWAP1 PUSH1 0x0 MSTORE PUSH1 0x20 PUSH1 0x0 KECCAK256 SWAP1 PUSH1 0x1F ADD PUSH1 0x20 SWAP1 DIV DUP2 ADD SWAP3 DUP3 PUSH3 0x19E JUMPI PUSH1 0x0 DUP6 SSTORE PUSH3 0x1EA JUMP JUMPDEST DUP3 PUSH1 0x1F LT PUSH3 0x1B9 JUMPI DUP1 MLOAD PUSH1 0xFF NOT AND DUP4 DUP1 ADD OR DUP6 SSTORE PUSH3 0x1EA JUMP JUMPDEST DUP3 DUP1 ADD PUSH1 0x1 ADD DUP6 SSTORE DUP3 ISZERO PUSH3 0x1EA JUMPI SWAP2 DUP3 ADD JUMPDEST DUP3 DUP2 GT ISZERO PUSH3 0x1E9 JUMPI DUP3 MLOAD DUP3 SSTORE SWAP2 PUSH1 0x20 ADD SWAP2 SWAP1 PUSH1 0x1 ADD SWAP1 PUSH3 0x1CC JUMP JUMPDEST JUMPDEST POP SWAP1 POP PUSH3 0x1F9 SWAP2 SWAP1 PUSH3 0x1FD JUMP JUMPDEST POP SWAP1 JUMP JUMPDEST JUMPDEST DUP1 DUP3 GT ISZERO PUSH3 0x218 JUMPI PUSH1 0x0 DUP2 PUSH1 0x0 SWAP1 SSTORE POP PUSH1 0x1 ADD PUSH3 0x1FE JUMP JUMPDEST POP SWAP1 JUMP JUMPDEST PUSH1 0x0 PUSH1 0x40 MLOAD SWAP1 POP SWAP1 JUMP JUMPDEST PUSH1 0x0 DUP1 REVERT JUMPDEST PUSH1 0x0 DUP1 REVERT JUMPDEST PUSH1 0x0 PUSH20 0xFFFFFFFFFFFFFFFFFFFFFFFFFFFFFFFFFFFFFFFF DUP3 AND SWAP1 POP SWAP2 SWAP1 POP JUMP JUMPDEST PUSH1 0x0 PUSH3 0x25D DUP3 PUSH3 0x230 JUMP JUMPDEST SWAP1 POP SWAP2 SWAP1 POP JUMP JUMPDEST PUSH3 0x26F DUP2 PUSH3 0x250 JUMP JUMPDEST DUP2 EQ PUSH3 0x27B JUMPI PUSH1 0x0 DUP1 REVERT JUMPDEST POP JUMP JUMPDEST PUSH1 0x0 DUP2 MLOAD SWAP1 POP PUSH3 0x28F DUP2 PUSH3 0x264 JUMP JUMPDEST SWAP3 SWAP2 POP POP JUMP JUMPDEST PUSH1 0x0 DUP1 REVERT JUMPDEST PUSH1 0x0 DUP1 REVERT JUMPDEST PUSH1 0x0 PUSH1 0x1F NOT PUSH1 0x1F DUP4 ADD AND SWAP1 POP SWAP2 SWAP1 POP JUMP JUMPDEST PUSH32 0x4E487B7100000000000000000000000000000000000000000000000000000000 PUSH1 0x0 MSTORE PUSH1 0x41 PUSH1 0x4 MSTORE PUSH1 0x24 PUSH1 0x0 REVERT JUMPDEST PUSH3 0x2EA DUP3 PUSH3 0x29F JUMP JUMPDEST DUP2 ADD DUP2 DUP2 LT PUSH8 0xFFFFFFFFFFFFFFFF DUP3 GT OR ISZERO PUSH3 0x30C JUMPI PUSH3 0x30B PUSH3 0x2B0 JUMP JUMPDEST JUMPDEST DUP1 PUSH1 0x40 MSTORE POP POP POP JUMP JUMPDEST PUSH1 0x0 PUSH3 0x321 PUSH3 0x21C JUMP JUMPDEST SWAP1 POP PUSH3 0x32F DUP3 DUP3 PUSH3 0x2DF JUMP JUMPDEST SWAP2 SWAP1 POP JUMP JUMPDEST PUSH1 0x0 PUSH8 0xFFFFFFFFFFFFFFFF DUP3 GT ISZERO PUSH3 0x352 JUMPI PUSH3 0x351 PUSH3 0x2B0 JUMP JUMPDEST JUMPDEST PUSH3 0x35D DUP3 PUSH3 0x29F JUMP JUMPDEST SWAP1 POP PUSH1 0x20 DUP2 ADD SWAP1 POP SWAP2 SWAP1 POP JUMP JUMPDEST PUSH1 0x0 JUMPDEST DUP4 DUP2 LT ISZERO PUSH3 0x38A JUMPI DUP1 DUP3 ADD MLOAD DUP2 DUP5 ADD MSTORE PUSH1 0x20 DUP2 ADD SWAP1 POP PUSH3 0x36D JUMP JUMPDEST DUP4 DUP2 GT ISZERO PUSH3 0x39A JUMPI PUSH1 0x0 DUP5 DUP5 ADD MSTORE JUMPDEST POP POP POP POP JUMP JUMPDEST PUSH1 0x0 PUSH3 0x3B7 PUSH3 0x3B1 DUP5 PUSH3 0x334 JUMP JUMPDEST PUSH3 0x315 JUMP JUMPDEST SWAP1 POP DUP3 DUP2 MSTORE PUSH1 0x20 DUP2 ADD DUP5 DUP5 DUP5 ADD GT ISZERO PUSH3 0x3D6 JUMPI PUSH3 0x3D5 PUSH3 0x29A JUMP JUMPDEST JUMPDEST PUSH3 0x3E3 DUP5 DUP3 DUP6 PUSH3 0x36A JUMP JUMPDEST POP SWAP4 SWAP3 POP POP POP JUMP JUMPDEST PUSH1 0x0 DUP3 PUSH1 0x1F DUP4 ADD SLT PUSH3 0x403 JUMPI PUSH3 0x402 PUSH3 0x295 JUMP JUMPDEST JUMPDEST DUP2 MLOAD PUSH3 0x415 DUP5 DUP3 PUSH1 0x20 DUP7 ADD PUSH3 0x3A0 JUMP JUMPDEST SWAP2 POP POP SWAP3 SWAP2 POP POP JUMP JUMPDEST PUSH1 0x0 DUP1 PUSH1 0x0 PUSH1 0x60 DUP5 DUP7 SUB SLT ISZERO PUSH3 0x43A JUMPI PUSH3 0x439 PUSH3 0x226 JUMP JUMPDEST JUMPDEST PUSH1 0x0 PUSH3 0x44A DUP7 DUP3 DUP8 ADD PUSH3 0x27E JUMP JUMPDEST SWAP4 POP POP PUSH1 0x20 PUSH3 0x45D DUP7 DUP3 DUP8 ADD PUSH3 0x27E JUMP JUMPDEST SWAP3 POP POP PUSH1 0x40 DUP5 ADD MLOAD PUSH8 0xFFFFFFFFFFFFFFFF DUP2 GT ISZERO PUSH3 0x481 JUMPI PUSH3 0x480 PUSH3 0x22B JUMP JUMPDEST JUMPDEST PUSH3 0x48F DUP7 DUP3 DUP8 ADD PUSH3 0x3EB JUMP JUMPDEST SWAP2 POP POP SWAP3 POP SWAP3 POP SWAP3 JUMP JUMPDEST PUSH32 0x4E487B7100000000000000000000000000000000000000000000000000000000 PUSH1 0x0 MSTORE PUSH1 0x22 PUSH1 0x4 MSTORE PUSH1 0x24 PUSH1 0x0 REVERT JUMPDEST PUSH1 0x0 PUSH1 0x2 DUP3 DIV SWAP1 POP PUSH1 0x1 DUP3 AND DUP1 PUSH3 0x4E1 JUMPI PUSH1 0x7F DUP3 AND SWAP2 POP JUMPDEST PUSH1 0x20 DUP3 LT DUP2 EQ ISZERO PUSH3 0x4F8 JUMPI PUSH3 0x4F7 PUSH3 0x499 JUMP JUMPDEST JUMPDEST POP SWAP2 SWAP1 POP JUMP JUMPDEST PUSH1 0x80 MLOAD PUSH1 0xA0 MLOAD PUSH2 0x4AD5 PUSH3 0x55C PUSH1 0x0 CODECOPY PUSH1 0x0 DUP2 DUP2 PUSH2 0x131B ADD MSTORE DUP2 DUP2 PUSH2 0x1449 ADD MSTORE PUSH2 0x18C8 ADD MSTORE PUSH1 0x0 DUP2 DUP2 PUSH2 0x8C0 ADD MSTORE DUP2 DUP2 PUSH2 0xA26 ADD MSTORE DUP2 DUP2 PUSH2 0xA9C ADD MSTORE DUP2 DUP2 PUSH2 0xE26 ADD MSTORE DUP2 DUP2 PUSH2 0x13B0 ADD MSTORE DUP2 DUP2 PUSH2 0x1809 ADD MSTORE PUSH2 0x1962 ADD MSTORE PUSH2 0x4AD5 PUSH1 0x0 RETURN INVALID PUSH1 0x80 PUSH1 0x40 MSTORE PUSH1 0x4 CALLDATASIZE LT PUSH2 0x1E3 JUMPI PUSH1 0x0 CALLDATALOAD PUSH1 0xE0 SHR DUP1 PUSH4 0x85CD0756 GT PUSH2 0x102 JUMPI DUP1 PUSH4 0xC3DFDAE6 GT PUSH2 0x95 JUMPI DUP1 PUSH4 0xDBCF0918 GT PUSH2 0x64 JUMPI DUP1 PUSH4 0xDBCF0918 EQ PUSH2 0x6F1 JUMPI DUP1 PUSH4 0xE541B13C EQ PUSH2 0x72E JUMPI DUP1 PUSH4 0xF2DBD96C EQ PUSH2 0x76B JUMPI DUP1 PUSH4 0xF851A440 EQ PUSH2 0x7A8 JUMPI PUSH2 0x1E3 JUMP JUMPDEST DUP1 PUSH4 0xC3DFDAE6 EQ PUSH2 0x632 JUMPI DUP1 PUSH4 0xC4802802 EQ PUSH2 0x65D JUMPI DUP1 PUSH4 0xC9E96F91 EQ PUSH2 0x69B JUMPI DUP1 PUSH4 0xD07767A6 EQ PUSH2 0x6C6 JUMPI PUSH2 0x1E3 JUMP JUMPDEST DUP1 PUSH4 0xAE48DDBE GT PUSH2 0xD1 JUMPI DUP1 PUSH4 0xAE48DDBE EQ PUSH2 0x578 JUMPI DUP1 PUSH4 0xB0FA8444 EQ PUSH2 0x5B5 JUMPI DUP1 PUSH4 0xB79C4CCA EQ PUSH2 0x5E0 JUMPI DUP1 PUSH4 0xC0D78655 EQ PUSH2 0x609 JUMPI PUSH2 0x1E3 JUMP JUMPDEST DUP1 PUSH4 0x85CD0756 EQ PUSH2 0x4DA JUMPI DUP1 PUSH4 0x879D5AF0 EQ PUSH2 0x503 JUMPI DUP1 PUSH4 0x8F405AC6 EQ PUSH2 0x51F JUMPI DUP1 PUSH4 0x99D0DA4F EQ PUSH2 0x55C JUMPI PUSH2 0x1E3 JUMP JUMPDEST DUP1 PUSH4 0x45CD2699 GT PUSH2 0x17A JUMPI DUP1 PUSH4 0x6A22D8CC GT PUSH2 0x149 JUMPI DUP1 PUSH4 0x6A22D8CC EQ PUSH2 0x3F7 JUMPI DUP1 PUSH4 0x6D20931A EQ PUSH2 0x422 JUMPI DUP1 PUSH4 0x72AA03AB EQ PUSH2 0x45F JUMPI DUP1 PUSH4 0x8164EF53 EQ PUSH2 0x49C JUMPI PUSH2 0x1E3 JUMP JUMPDEST DUP1 PUSH4 0x45CD2699 EQ PUSH2 0x360 JUMPI DUP1 PUSH4 0x49160658 EQ PUSH2 0x389 JUMPI DUP1 PUSH4 0x553E2CFC EQ PUSH2 0x3B2 JUMPI DUP1 PUSH4 0x5C51474E EQ PUSH2 0x3DB JUMPI PUSH2 0x1E3 JUMP JUMPDEST DUP1 PUSH4 0x1A98B2E0 GT PUSH2 0x1B6 JUMPI DUP1 PUSH4 0x1A98B2E0 EQ PUSH2 0x2B6 JUMPI DUP1 PUSH4 0x1C6FFA46 EQ PUSH2 0x2DF JUMPI DUP1 PUSH4 0x1C93B03A EQ PUSH2 0x30A JUMPI DUP1 PUSH4 0x3268CC56 EQ PUSH2 0x335 JUMPI PUSH2 0x1E3 JUMP JUMPDEST DUP1 PUSH4 0x1A7644F EQ PUSH2 0x1E8 JUMPI DUP1 PUSH4 0x6F6F867 EQ PUSH2 0x225 JUMPI DUP1 PUSH4 0x116191B6 EQ PUSH2 0x24E JUMPI DUP1 PUSH4 0x11F42388 EQ PUSH2 0x279 JUMPI JUMPDEST PUSH1 0x0 DUP1 REVERT JUMPDEST CALLVALUE DUP1 ISZERO PUSH2 0x1F4 JUMPI PUSH1 0x0 DUP1 REVERT JUMPDEST POP PUSH2 0x20F PUSH1 0x4 DUP1 CALLDATASIZE SUB DUP2 ADD SWAP1 PUSH2 0x20A SWAP2 SWAP1 PUSH2 0x35A5 JUMP JUMPDEST PUSH2 0x7D3 JUMP JUMPDEST PUSH1 0x40 MLOAD PUSH2 0x21C SWAP2 SWAP1 PUSH2 0x3638 JUMP JUMPDEST PUSH1 0x40 MLOAD DUP1 SWAP2 SUB SWAP1 RETURN JUMPDEST CALLVALUE DUP1 ISZERO PUSH2 0x231 JUMPI PUSH1 0x0 DUP1 REVERT JUMPDEST POP PUSH2 0x24C PUSH1 0x4 DUP1 CALLDATASIZE SUB DUP2 ADD SWAP1 PUSH2 0x247 SWAP2 SWAP1 PUSH2 0x3653 JUMP JUMPDEST PUSH2 0x82E JUMP JUMPDEST STOP JUMPDEST CALLVALUE DUP1 ISZERO PUSH2 0x25A JUMPI PUSH1 0x0 DUP1 REVERT JUMPDEST POP PUSH2 0x263 PUSH2 0xA24 JUMP JUMPDEST PUSH1 0x40 MLOAD PUSH2 0x270 SWAP2 SWAP1 PUSH2 0x371B JUMP JUMPDEST PUSH1 0x40 MLOAD DUP1 SWAP2 SUB SWAP1 RETURN JUMPDEST CALLVALUE DUP1 ISZERO PUSH2 0x285 JUMPI PUSH1 0x0 DUP1 REVERT JUMPDEST POP PUSH2 0x2A0 PUSH1 0x4 DUP1 CALLDATASIZE SUB DUP2 ADD SWAP1 PUSH2 0x29B SWAP2 SWAP1 PUSH2 0x3653 JUMP JUMPDEST PUSH2 0xA48 JUMP JUMPDEST PUSH1 0x40 MLOAD PUSH2 0x2AD SWAP2 SWAP1 PUSH2 0x3638 JUMP JUMPDEST PUSH1 0x40 MLOAD DUP1 SWAP2 SUB SWAP1 RETURN JUMPDEST CALLVALUE DUP1 ISZERO PUSH2 0x2C2 JUMPI PUSH1 0x0 DUP1 REVERT JUMPDEST POP PUSH2 0x2DD PUSH1 0x4 DUP1 CALLDATASIZE SUB DUP2 ADD SWAP1 PUSH2 0x2D8 SWAP2 SWAP1 PUSH2 0x3858 JUMP JUMPDEST PUSH2 0xA7E JUMP JUMPDEST STOP JUMPDEST CALLVALUE DUP1 ISZERO PUSH2 0x2EB JUMPI PUSH1 0x0 DUP1 REVERT JUMPDEST POP PUSH2 0x2F4 PUSH2 0xBA9 JUMP JUMPDEST PUSH1 0x40 MLOAD PUSH2 0x301 SWAP2 SWAP1 PUSH2 0x39F0 JUMP JUMPDEST PUSH1 0x40 MLOAD DUP1 SWAP2 SUB SWAP1 RETURN JUMPDEST CALLVALUE DUP1 ISZERO PUSH2 0x316 JUMPI PUSH1 0x0 DUP1 REVERT JUMPDEST POP PUSH2 0x31F PUSH2 0xC37 JUMP JUMPDEST PUSH1 0x40 MLOAD PUSH2 0x32C SWAP2 SWAP1 PUSH2 0x39F0 JUMP JUMPDEST PUSH1 0x40 MLOAD DUP1 SWAP2 SUB SWAP1 RETURN JUMPDEST CALLVALUE DUP1 ISZERO PUSH2 0x341 JUMPI PUSH1 0x0 DUP1 REVERT JUMPDEST POP PUSH2 0x34A PUSH2 0xCC5 JUMP JUMPDEST PUSH1 0x40 MLOAD PUSH2 0x357 SWAP2 SWAP1 PUSH2 0x3A33 JUMP JUMPDEST PUSH1 0x40 MLOAD DUP1 SWAP2 SUB SWAP1 RETURN JUMPDEST CALLVALUE DUP1 ISZERO PUSH2 0x36C JUMPI PUSH1 0x0 DUP1 REVERT JUMPDEST POP PUSH2 0x387 PUSH1 0x4 DUP1 CALLDATASIZE SUB DUP2 ADD SWAP1 PUSH2 0x382 SWAP2 SWAP1 PUSH2 0x3A4E JUMP JUMPDEST PUSH2 0xCEB JUMP JUMPDEST STOP JUMPDEST CALLVALUE DUP1 ISZERO PUSH2 0x395 JUMPI PUSH1 0x0 DUP1 REVERT JUMPDEST POP PUSH2 0x3B0 PUSH1 0x4 DUP1 CALLDATASIZE SUB DUP2 ADD SWAP1 PUSH2 0x3AB SWAP2 SWAP1 PUSH2 0x3AAA JUMP JUMPDEST PUSH2 0xE08 JUMP JUMPDEST STOP JUMPDEST CALLVALUE DUP1 ISZERO PUSH2 0x3BE JUMPI PUSH1 0x0 DUP1 REVERT JUMPDEST POP PUSH2 0x3D9 PUSH1 0x4 DUP1 CALLDATASIZE SUB DUP2 ADD SWAP1 PUSH2 0x3D4 SWAP2 SWAP1 PUSH2 0x3653 JUMP JUMPDEST PUSH2 0xF27 JUMP JUMPDEST STOP JUMPDEST PUSH2 0x3F5 PUSH1 0x4 DUP1 CALLDATASIZE SUB DUP2 ADD SWAP1 PUSH2 0x3F0 SWAP2 SWAP1 PUSH2 0x3B9F JUMP JUMPDEST PUSH2 0x11FD JUMP JUMPDEST STOP JUMPDEST CALLVALUE DUP1 ISZERO PUSH2 0x403 JUMPI PUSH1 0x0 DUP1 REVERT JUMPDEST POP PUSH2 0x40C PUSH2 0x1447 JUMP JUMPDEST PUSH1 0x40 MLOAD PUSH2 0x419 SWAP2 SWAP1 PUSH2 0x3CEE JUMP JUMPDEST PUSH1 0x40 MLOAD DUP1 SWAP2 SUB SWAP1 RETURN JUMPDEST CALLVALUE DUP1 ISZERO PUSH2 0x42E JUMPI PUSH1 0x0 DUP1 REVERT JUMPDEST POP PUSH2 0x449 PUSH1 0x4 DUP1 CALLDATASIZE SUB DUP2 ADD SWAP1 PUSH2 0x444 SWAP2 SWAP1 PUSH2 0x3653 JUMP JUMPDEST PUSH2 0x146B JUMP JUMPDEST PUSH1 0x40 MLOAD PUSH2 0x456 SWAP2 SWAP1 PUSH2 0x3638 JUMP JUMPDEST PUSH1 0x40 MLOAD DUP1 SWAP2 SUB SWAP1 RETURN JUMPDEST CALLVALUE DUP1 ISZERO PUSH2 0x46B JUMPI PUSH1 0x0 DUP1 REVERT JUMPDEST POP PUSH2 0x486 PUSH1 0x4 DUP1 CALLDATASIZE SUB DUP2 ADD SWAP1 PUSH2 0x481 SWAP2 SWAP1 PUSH2 0x3653 JUMP JUMPDEST PUSH2 0x14A1 JUMP JUMPDEST PUSH1 0x40 MLOAD PUSH2 0x493 SWAP2 SWAP1 PUSH2 0x3A33 JUMP JUMPDEST PUSH1 0x40 MLOAD DUP1 SWAP2 SUB SWAP1 RETURN JUMPDEST CALLVALUE DUP1 ISZERO PUSH2 0x4A8 JUMPI PUSH1 0x0 DUP1 REVERT JUMPDEST POP PUSH2 0x4C3 PUSH1 0x4 DUP1 CALLDATASIZE SUB DUP2 ADD SWAP1 PUSH2 0x4BE SWAP2 SWAP1 PUSH2 0x3653 JUMP JUMPDEST PUSH2 0x14EA JUMP JUMPDEST PUSH1 0x40 MLOAD PUSH2 0x4D1 SWAP3 SWAP2 SWAP1 PUSH2 0x3D09 JUMP JUMPDEST PUSH1 0x40 MLOAD DUP1 SWAP2 SUB SWAP1 RETURN JUMPDEST CALLVALUE DUP1 ISZERO PUSH2 0x4E6 JUMPI PUSH1 0x0 DUP1 REVERT JUMPDEST POP PUSH2 0x501 PUSH1 0x4 DUP1 CALLDATASIZE SUB DUP2 ADD SWAP1 PUSH2 0x4FC SWAP2 SWAP1 PUSH2 0x3D6C JUMP JUMPDEST PUSH2 0x1634 JUMP JUMPDEST STOP JUMPDEST PUSH2 0x51D PUSH1 0x4 DUP1 CALLDATASIZE SUB DUP2 ADD SWAP1 PUSH2 0x518 SWAP2 SWAP1 PUSH2 0x3DC8 JUMP JUMPDEST PUSH2 0x17C9 JUMP JUMPDEST STOP JUMPDEST CALLVALUE DUP1 ISZERO PUSH2 0x52B JUMPI PUSH1 0x0 DUP1 REVERT JUMPDEST POP PUSH2 0x546 PUSH1 0x4 DUP1 CALLDATASIZE SUB DUP2 ADD SWAP1 PUSH2 0x541 SWAP2 SWAP1 PUSH2 0x3653 JUMP JUMPDEST PUSH2 0x19FB JUMP JUMPDEST PUSH1 0x40 MLOAD PUSH2 0x553 SWAP2 SWAP1 PUSH2 0x3638 JUMP JUMPDEST PUSH1 0x40 MLOAD DUP1 SWAP2 SUB SWAP1 RETURN JUMPDEST PUSH2 0x576 PUSH1 0x4 DUP1 CALLDATASIZE SUB DUP2 ADD SWAP1 PUSH2 0x571 SWAP2 SWAP1 PUSH2 0x3E83 JUMP JUMPDEST PUSH2 0x1A31 JUMP JUMPDEST STOP JUMPDEST CALLVALUE DUP1 ISZERO PUSH2 0x584 JUMPI PUSH1 0x0 DUP1 REVERT JUMPDEST POP PUSH2 0x59F PUSH1 0x4 DUP1 CALLDATASIZE SUB DUP2 ADD SWAP1 PUSH2 0x59A SWAP2 SWAP1 PUSH2 0x3F52 JUMP JUMPDEST PUSH2 0x1B79 JUMP JUMPDEST PUSH1 0x40 MLOAD PUSH2 0x5AC SWAP2 SWAP1 PUSH2 0x39F0 JUMP JUMPDEST PUSH1 0x40 MLOAD DUP1 SWAP2 SUB SWAP1 RETURN JUMPDEST CALLVALUE DUP1 ISZERO PUSH2 0x5C1 JUMPI PUSH1 0x0 DUP1 REVERT JUMPDEST POP PUSH2 0x5CA PUSH2 0x1C25 JUMP JUMPDEST PUSH1 0x40 MLOAD PUSH2 0x5D7 SWAP2 SWAP1 PUSH2 0x39F0 JUMP JUMPDEST PUSH1 0x40 MLOAD DUP1 SWAP2 SUB SWAP1 RETURN JUMPDEST CALLVALUE DUP1 ISZERO PUSH2 0x5EC JUMPI PUSH1 0x0 DUP1 REVERT JUMPDEST POP PUSH2 0x607 PUSH1 0x4 DUP1 CALLDATASIZE SUB DUP2 ADD SWAP1 PUSH2 0x602 SWAP2 SWAP1 PUSH2 0x3653 JUMP JUMPDEST PUSH2 0x1CB3 JUMP JUMPDEST STOP JUMPDEST CALLVALUE DUP1 ISZERO PUSH2 0x615 JUMPI PUSH1 0x0 DUP1 REVERT JUMPDEST POP PUSH2 0x630 PUSH1 0x4 DUP1 CALLDATASIZE SUB DUP2 ADD SWAP1 PUSH2 0x62B SWAP2 SWAP1 PUSH2 0x3F7F JUMP JUMPDEST PUSH2 0x1E33 JUMP JUMPDEST STOP JUMPDEST CALLVALUE DUP1 ISZERO PUSH2 0x63E JUMPI PUSH1 0x0 DUP1 REVERT JUMPDEST POP PUSH2 0x647 PUSH2 0x1F48 JUMP JUMPDEST PUSH1 0x40 MLOAD PUSH2 0x654 SWAP2 SWAP1 PUSH2 0x3FCD JUMP JUMPDEST PUSH1 0x40 MLOAD DUP1 SWAP2 SUB SWAP1 RETURN JUMPDEST CALLVALUE DUP1 ISZERO PUSH2 0x669 JUMPI PUSH1 0x0 DUP1 REVERT JUMPDEST POP PUSH2 0x684 PUSH1 0x4 DUP1 CALLDATASIZE SUB DUP2 ADD SWAP1 PUSH2 0x67F SWAP2 SWAP1 PUSH2 0x35A5 JUMP JUMPDEST PUSH2 0x1F6E JUMP JUMPDEST PUSH1 0x40 MLOAD PUSH2 0x692 SWAP3 SWAP2 SWAP1 PUSH2 0x3D09 JUMP JUMPDEST PUSH1 0x40 MLOAD DUP1 SWAP2 SUB SWAP1 RETURN JUMPDEST CALLVALUE DUP1 ISZERO PUSH2 0x6A7 JUMPI PUSH1 0x0 DUP1 REVERT JUMPDEST POP PUSH2 0x6B0 PUSH2 0x20DB JUMP JUMPDEST PUSH1 0x40 MLOAD PUSH2 0x6BD SWAP2 SWAP1 PUSH2 0x3A33 JUMP JUMPDEST PUSH1 0x40 MLOAD DUP1 SWAP2 SUB SWAP1 RETURN JUMPDEST CALLVALUE DUP1 ISZERO PUSH2 0x6D2 JUMPI PUSH1 0x0 DUP1 REVERT JUMPDEST POP PUSH2 0x6DB PUSH2 0x2101 JUMP JUMPDEST PUSH1 0x40 MLOAD PUSH2 0x6E8 SWAP2 SWAP1 PUSH2 0x39F0 JUMP JUMPDEST PUSH1 0x40 MLOAD DUP1 SWAP2 SUB SWAP1 RETURN JUMPDEST CALLVALUE DUP1 ISZERO PUSH2 0x6FD JUMPI PUSH1 0x0 DUP1 REVERT JUMPDEST POP PUSH2 0x718 PUSH1 0x4 DUP1 CALLDATASIZE SUB DUP2 ADD SWAP1 PUSH2 0x713 SWAP2 SWAP1 PUSH2 0x35A5 JUMP JUMPDEST PUSH2 0x218F JUMP JUMPDEST PUSH1 0x40 MLOAD PUSH2 0x725 SWAP2 SWAP1 PUSH2 0x3638 JUMP JUMPDEST PUSH1 0x40 MLOAD DUP1 SWAP2 SUB SWAP1 RETURN JUMPDEST CALLVALUE DUP1 ISZERO PUSH2 0x73A JUMPI PUSH1 0x0 DUP1 REVERT JUMPDEST POP PUSH2 0x755 PUSH1 0x4 DUP1 CALLDATASIZE SUB DUP2 ADD SWAP1 PUSH2 0x750 SWAP2 SWAP1 PUSH2 0x3F52 JUMP JUMPDEST PUSH2 0x21EA JUMP JUMPDEST PUSH1 0x40 MLOAD PUSH2 0x762 SWAP2 SWAP1 PUSH2 0x39F0 JUMP JUMPDEST PUSH1 0x40 MLOAD DUP1 SWAP2 SUB SWAP1 RETURN JUMPDEST CALLVALUE DUP1 ISZERO PUSH2 0x777 JUMPI PUSH1 0x0 DUP1 REVERT JUMPDEST POP PUSH2 0x792 PUSH1 0x4 DUP1 CALLDATASIZE SUB DUP2 ADD SWAP1 PUSH2 0x78D SWAP2 SWAP1 PUSH2 0x3653 JUMP JUMPDEST PUSH2 0x2296 JUMP JUMPDEST PUSH1 0x40 MLOAD PUSH2 0x79F SWAP2 SWAP1 PUSH2 0x3FF7 JUMP JUMPDEST PUSH1 0x40 MLOAD DUP1 SWAP2 SUB SWAP1 RETURN JUMPDEST CALLVALUE DUP1 ISZERO PUSH2 0x7B4 JUMPI PUSH1 0x0 DUP1 REVERT JUMPDEST POP PUSH2 0x7BD PUSH2 0x22C4 JUMP JUMPDEST PUSH1 0x40 MLOAD PUSH2 0x7CA SWAP2 SWAP1 PUSH2 0x3A33 JUMP JUMPDEST PUSH1 0x40 MLOAD DUP1 SWAP2 SUB SWAP1 RETURN JUMPDEST PUSH1 0x13 DUP3 DUP1 MLOAD PUSH1 0x20 DUP2 ADD DUP3 ADD DUP1 MLOAD DUP5 DUP3 MSTORE PUSH1 0x20 DUP4 ADD PUSH1 0x20 DUP6 ADD KECCAK256 DUP2 DUP4 MSTORE DUP1 SWAP6 POP POP POP POP POP POP DUP2 DUP1 MLOAD PUSH1 0x20 DUP2 ADD DUP3 ADD DUP1 MLOAD DUP5 DUP3 MSTORE PUSH1 0x20 DUP4 ADD PUSH1 0x20 DUP6 ADD KECCAK256 DUP2 DUP4 MSTORE DUP1 SWAP6 POP POP POP POP POP POP PUSH1 0x0 SWAP2 POP SWAP2 POP SWAP1 SLOAD SWAP1 PUSH2 0x100 EXP SWAP1 DIV PUSH1 0xFF AND DUP2 JUMP JUMPDEST PUSH1 0x1 PUSH1 0x0 SWAP1 SLOAD SWAP1 PUSH2 0x100 EXP SWAP1 DIV PUSH20 0xFFFFFFFFFFFFFFFFFFFFFFFFFFFFFFFFFFFFFFFF AND PUSH20 0xFFFFFFFFFFFFFFFFFFFFFFFFFFFFFFFFFFFFFFFF AND CALLER PUSH20 0xFFFFFFFFFFFFFFFFFFFFFFFFFFFFFFFFFFFFFFFF AND EQ PUSH2 0x8BE JUMPI PUSH1 0x40 MLOAD PUSH32 0x8C379A000000000000000000000000000000000000000000000000000000000 DUP2 MSTORE PUSH1 0x4 ADD PUSH2 0x8B5 SWAP1 PUSH2 0x405E JUMP JUMPDEST PUSH1 0x40 MLOAD DUP1 SWAP2 SUB SWAP1 REVERT JUMPDEST PUSH32 0x0 PUSH20 0xFFFFFFFFFFFFFFFFFFFFFFFFFFFFFFFFFFFFFFFF AND PUSH4 0x935B13F6 DUP3 PUSH1 0x40 MLOAD DUP3 PUSH4 0xFFFFFFFF AND PUSH1 0xE0 SHL DUP2 MSTORE PUSH1 0x4 ADD PUSH2 0x917 SWAP2 SWAP1 PUSH2 0x39F0 JUMP JUMPDEST PUSH1 0x20 PUSH1 0x40 MLOAD DUP1 DUP4 SUB DUP2 DUP7 DUP1 EXTCODESIZE ISZERO DUP1 ISZERO PUSH2 0x92F JUMPI PUSH1 0x0 DUP1 REVERT JUMPDEST POP GAS STATICCALL ISZERO DUP1 ISZERO PUSH2 0x943 JUMPI RETURNDATASIZE PUSH1 0x0 DUP1 RETURNDATACOPY RETURNDATASIZE PUSH1 0x0 REVERT JUMPDEST POP POP POP POP PUSH1 0x40 MLOAD RETURNDATASIZE PUSH1 0x1F NOT PUSH1 0x1F DUP3 ADD AND DUP3 ADD DUP1 PUSH1 0x40 MSTORE POP DUP2 ADD SWAP1 PUSH2 0x967 SWAP2 SWAP1 PUSH2 0x4093 JUMP JUMPDEST PUSH1 0x9 PUSH1 0x0 PUSH2 0x100 EXP DUP2 SLOAD DUP2 PUSH20 0xFFFFFFFFFFFFFFFFFFFFFFFFFFFFFFFFFFFFFFFF MUL NOT AND SWAP1 DUP4 PUSH20 0xFFFFFFFFFFFFFFFFFFFFFFFFFFFFFFFFFFFFFFFF AND MUL OR SWAP1 SSTORE POP DUP1 PUSH1 0xB SWAP1 DUP1 MLOAD SWAP1 PUSH1 0x20 ADD SWAP1 PUSH2 0x9BD SWAP3 SWAP2 SWAP1 PUSH2 0x325E JUMP JUMPDEST POP PUSH1 0x9 PUSH1 0x0 SWAP1 SLOAD SWAP1 PUSH2 0x100 EXP SWAP1 DIV PUSH20 0xFFFFFFFFFFFFFFFFFFFFFFFFFFFFFFFFFFFFFFFF AND PUSH1 0xA PUSH1 0x0 PUSH2 0x100 EXP DUP2 SLOAD DUP2 PUSH20 0xFFFFFFFFFFFFFFFFFFFFFFFFFFFFFFFFFFFFFFFF MUL NOT AND SWAP1 DUP4 PUSH20 0xFFFFFFFFFFFFFFFFFFFFFFFFFFFFFFFFFFFFFFFF AND MUL OR SWAP1 SSTORE POP POP JUMP JUMPDEST PUSH32 0x0 DUP2 JUMP JUMPDEST PUSH1 0xD DUP2 DUP1 MLOAD PUSH1 0x20 DUP2 ADD DUP3 ADD DUP1 MLOAD DUP5 DUP3 MSTORE PUSH1 0x20 DUP4 ADD PUSH1 0x20 DUP6 ADD KECCAK256 DUP2 DUP4 MSTORE DUP1 SWAP6 POP POP POP POP POP POP PUSH1 0x0 SWAP2 POP SLOAD SWAP1 PUSH2 0x100 EXP SWAP1 DIV PUSH1 0xFF AND DUP2 JUMP JUMPDEST PUSH1 0x0 DUP6 DUP6 PUSH1 0x40 MLOAD PUSH2 0xA90 SWAP3 SWAP2 SWAP1 PUSH2 0x40F0 JUMP JUMPDEST PUSH1 0x40 MLOAD DUP1 SWAP2 SUB SWAP1 KECCAK256 SWAP1 POP PUSH32 0x0 PUSH20 0xFFFFFFFFFFFFFFFFFFFFFFFFFFFFFFFFFFFFFFFF AND PUSH4 0x1876EED9 DUP13 DUP13 DUP13 DUP13 DUP13 DUP8 DUP12 DUP12 DUP12 PUSH1 0x40 MLOAD DUP11 PUSH4 0xFFFFFFFF AND PUSH1 0xE0 SHL DUP2 MSTORE PUSH1 0x4 ADD PUSH2 0xB03 SWAP10 SWAP9 SWAP8 SWAP7 SWAP6 SWAP5 SWAP4 SWAP3 SWAP2 SWAP1 PUSH2 0x4145 JUMP JUMPDEST PUSH1 0x20 PUSH1 0x40 MLOAD DUP1 DUP4 SUB DUP2 PUSH1 0x0 DUP8 DUP1 EXTCODESIZE ISZERO DUP1 ISZERO PUSH2 0xB1D JUMPI PUSH1 0x0 DUP1 REVERT JUMPDEST POP GAS CALL ISZERO DUP1 ISZERO PUSH2 0xB31 JUMPI RETURNDATASIZE PUSH1 0x0 DUP1 RETURNDATACOPY RETURNDATASIZE PUSH1 0x0 REVERT JUMPDEST POP POP POP POP PUSH1 0x40 MLOAD RETURNDATASIZE PUSH1 0x1F NOT PUSH1 0x1F DUP3 ADD AND DUP3 ADD DUP1 PUSH1 0x40 MSTORE POP DUP2 ADD SWAP1 PUSH2 0xB55 SWAP2 SWAP1 PUSH2 0x41D6 JUMP JUMPDEST PUSH2 0xB8B JUMPI PUSH1 0x40 MLOAD PUSH32 0x500C44B400000000000000000000000000000000000000000000000000000000 DUP2 MSTORE PUSH1 0x4 ADD PUSH1 0x40 MLOAD DUP1 SWAP2 SUB SWAP1 REVERT JUMPDEST PUSH2 0xB9C DUP11 DUP11 DUP11 DUP11 DUP11 DUP11 DUP11 DUP11 DUP11 PUSH2 0x22EA JUMP JUMPDEST POP POP POP POP POP POP POP POP POP POP POP JUMP JUMPDEST PUSH1 0x4 DUP1 SLOAD PUSH2 0xBB6 SWAP1 PUSH2 0x4232 JUMP JUMPDEST DUP1 PUSH1 0x1F ADD PUSH1 0x20 DUP1 SWAP2 DIV MUL PUSH1 0x20 ADD PUSH1 0x40 MLOAD SWAP1 DUP2 ADD PUSH1 0x40 MSTORE DUP1 SWAP3 SWAP2 SWAP1 DUP2 DUP2 MSTORE PUSH1 0x20 ADD DUP3 DUP1 SLOAD PUSH2 0xBE2 SWAP1 PUSH2 0x4232 JUMP JUMPDEST DUP1 ISZERO PUSH2 0xC2F JUMPI DUP1 PUSH1 0x1F LT PUSH2 0xC04 JUMPI PUSH2 0x100 DUP1 DUP4 SLOAD DIV MUL DUP4 MSTORE SWAP2 PUSH1 0x20 ADD SWAP2 PUSH2 0xC2F JUMP JUMPDEST DUP3 ADD SWAP2 SWAP1 PUSH1 0x0 MSTORE PUSH1 0x20 PUSH1 0x0 KECCAK256 SWAP1 JUMPDEST DUP2 SLOAD DUP2 MSTORE SWAP1 PUSH1 0x1 ADD SWAP1 PUSH1 0x20 ADD DUP1 DUP4 GT PUSH2 0xC12 JUMPI DUP3 SWAP1 SUB PUSH1 0x1F AND DUP3 ADD SWAP2 JUMPDEST POP POP POP POP POP DUP2 JUMP JUMPDEST PUSH1 0x0 DUP1 SLOAD PUSH2 0xC44 SWAP1 PUSH2 0x4232 JUMP JUMPDEST DUP1 PUSH1 0x1F ADD PUSH1 0x20 DUP1 SWAP2 DIV MUL PUSH1 0x20 ADD PUSH1 0x40 MLOAD SWAP1 DUP2 ADD PUSH1 0x40 MSTORE DUP1 SWAP3 SWAP2 SWAP1 DUP2 DUP2 MSTORE PUSH1 0x20 ADD DUP3 DUP1 SLOAD PUSH2 0xC70 SWAP1 PUSH2 0x4232 JUMP JUMPDEST DUP1 ISZERO PUSH2 0xCBD JUMPI DUP1 PUSH1 0x1F LT PUSH2 0xC92 JUMPI PUSH2 0x100 DUP1 DUP4 SLOAD DIV MUL DUP4 MSTORE SWAP2 PUSH1 0x20 ADD SWAP2 PUSH2 0xCBD JUMP JUMPDEST DUP3 ADD SWAP2 SWAP1 PUSH1 0x0 MSTORE PUSH1 0x20 PUSH1 0x0 KECCAK256 SWAP1 JUMPDEST DUP2 SLOAD DUP2 MSTORE SWAP1 PUSH1 0x1 ADD SWAP1 PUSH1 0x20 ADD DUP1 DUP4 GT PUSH2 0xCA0 JUMPI DUP3 SWAP1 SUB PUSH1 0x1F AND DUP3 ADD SWAP2 JUMPDEST POP POP POP POP POP DUP2 JUMP JUMPDEST PUSH1 0x2 PUSH1 0x0 SWAP1 SLOAD SWAP1 PUSH2 0x100 EXP SWAP1 DIV PUSH20 0xFFFFFFFFFFFFFFFFFFFFFFFFFFFFFFFFFFFFFFFF AND DUP2 JUMP JUMPDEST PUSH1 0xC DUP3 PUSH1 0x40 MLOAD PUSH2 0xCFB SWAP2 SWAP1 PUSH2 0x42A0 JUMP JUMPDEST SWAP1 DUP2 MSTORE PUSH1 0x20 ADD PUSH1 0x40 MLOAD DUP1 SWAP2 SUB SWAP1 KECCAK256 PUSH1 0x0 SWAP1 SLOAD SWAP1 PUSH2 0x100 EXP SWAP1 DIV PUSH1 0xFF AND ISZERO PUSH2 0xE04 JUMPI PUSH1 0xA PUSH1 0x0 SWAP1 SLOAD SWAP1 PUSH2 0x100 EXP SWAP1 DIV PUSH20 0xFFFFFFFFFFFFFFFFFFFFFFFFFFFFFFFFFFFFFFFF AND PUSH20 0xFFFFFFFFFFFFFFFFFFFFFFFFFFFFFFFFFFFFFFFF AND PUSH4 0x23B872DD CALLER ADDRESS DUP5 PUSH1 0x40 MLOAD DUP5 PUSH4 0xFFFFFFFF AND PUSH1 0xE0 SHL DUP2 MSTORE PUSH1 0x4 ADD PUSH2 0xD7B SWAP4 SWAP3 SWAP2 SWAP1 PUSH2 0x42B7 JUMP JUMPDEST PUSH1 0x20 PUSH1 0x40 MLOAD DUP1 DUP4 SUB DUP2 PUSH1 0x0 DUP8 DUP1 EXTCODESIZE ISZERO DUP1 ISZERO PUSH2 0xD95 JUMPI PUSH1 0x0 DUP1 REVERT JUMPDEST POP GAS CALL ISZERO DUP1 ISZERO PUSH2 0xDA9 JUMPI RETURNDATASIZE PUSH1 0x0 DUP1 RETURNDATACOPY RETURNDATASIZE PUSH1 0x0 REVERT JUMPDEST POP POP POP POP PUSH1 0x40 MLOAD RETURNDATASIZE PUSH1 0x1F NOT PUSH1 0x1F DUP3 ADD AND DUP3 ADD DUP1 PUSH1 0x40 MSTORE POP DUP2 ADD SWAP1 PUSH2 0xDCD SWAP2 SWAP1 PUSH2 0x41D6 JUMP JUMPDEST POP DUP1 PUSH1 0x10 DUP4 PUSH1 0x40 MLOAD PUSH2 0xDDF SWAP2 SWAP1 PUSH2 0x42A0 JUMP JUMPDEST SWAP1 DUP2 MSTORE PUSH1 0x20 ADD PUSH1 0x40 MLOAD DUP1 SWAP2 SUB SWAP1 KECCAK256 PUSH1 0x0 DUP3 DUP3 SLOAD PUSH2 0xDFC SWAP2 SWAP1 PUSH2 0x431D JUMP JUMPDEST SWAP3 POP POP DUP2 SWAP1 SSTORE POP JUMPDEST POP POP JUMP JUMPDEST PUSH1 0x0 DUP3 DUP3 PUSH1 0x40 MLOAD PUSH2 0xE1A SWAP3 SWAP2 SWAP1 PUSH2 0x40F0 JUMP JUMPDEST PUSH1 0x40 MLOAD DUP1 SWAP2 SUB SWAP1 KECCAK256 SWAP1 POP PUSH32 0x0 PUSH20 0xFFFFFFFFFFFFFFFFFFFFFFFFFFFFFFFFFFFFFFFF AND PUSH4 0x5F6970C3 DUP10 DUP10 DUP10 DUP10 DUP10 DUP8 PUSH1 0x40 MLOAD DUP8 PUSH4 0xFFFFFFFF AND PUSH1 0xE0 SHL DUP2 MSTORE PUSH1 0x4 ADD PUSH2 0xE87 SWAP7 SWAP6 SWAP5 SWAP4 SWAP3 SWAP2 SWAP1 PUSH2 0x4373 JUMP JUMPDEST PUSH1 0x20 PUSH1 0x40 MLOAD DUP1 DUP4 SUB DUP2 PUSH1 0x0 DUP8 DUP1 EXTCODESIZE ISZERO DUP1 ISZERO PUSH2 0xEA1 JUMPI PUSH1 0x0 DUP1 REVERT JUMPDEST POP GAS CALL ISZERO DUP1 ISZERO PUSH2 0xEB5 JUMPI RETURNDATASIZE PUSH1 0x0 DUP1 RETURNDATACOPY RETURNDATASIZE PUSH1 0x0 REVERT JUMPDEST POP POP POP POP PUSH1 0x40 MLOAD RETURNDATASIZE PUSH1 0x1F NOT PUSH1 0x1F DUP3 ADD AND DUP3 ADD DUP1 PUSH1 0x40 MSTORE POP DUP2 ADD SWAP1 PUSH2 0xED9 SWAP2 SWAP1 PUSH2 0x41D6 JUMP JUMPDEST PUSH2 0xF0F JUMPI PUSH1 0x40 MLOAD PUSH32 0x500C44B400000000000000000000000000000000000000000000000000000000 DUP2 MSTORE PUSH1 0x4 ADD PUSH1 0x40 MLOAD DUP1 SWAP2 SUB SWAP1 REVERT JUMPDEST PUSH2 0xF1D DUP8 DUP8 DUP8 DUP8 DUP8 DUP8 PUSH2 0x2393 JUMP JUMPDEST POP POP POP POP POP POP POP POP JUMP JUMPDEST PUSH1 0xC DUP2 PUSH1 0x40 MLOAD PUSH2 0xF37 SWAP2 SWAP1 PUSH2 0x42A0 JUMP JUMPDEST SWAP1 DUP2 MSTORE PUSH1 0x20 ADD PUSH1 0x40 MLOAD DUP1 SWAP2 SUB SWAP1 KECCAK256 PUSH1 0x0 SWAP1 SLOAD SWAP1 PUSH2 0x100 EXP SWAP1 DIV PUSH1 0xFF AND ISZERO DUP1 ISZERO PUSH2 0xF89 JUMPI POP PUSH1 0xD DUP2 PUSH1 0x40 MLOAD PUSH2 0xF6B SWAP2 SWAP1 PUSH2 0x42A0 JUMP JUMPDEST SWAP1 DUP2 MSTORE PUSH1 0x20 ADD PUSH1 0x40 MLOAD DUP1 SWAP2 SUB SWAP1 KECCAK256 PUSH1 0x0 SWAP1 SLOAD SWAP1 PUSH2 0x100 EXP SWAP1 DIV PUSH1 0xFF AND ISZERO JUMPDEST ISZERO PUSH2 0x11FA JUMPI PUSH1 0x0 PUSH2 0x1042 PUSH1 0xF DUP4 PUSH1 0x40 MLOAD PUSH2 0xFA3 SWAP2 SWAP1 PUSH2 0x42A0 JUMP JUMPDEST SWAP1 DUP2 MSTORE PUSH1 0x20 ADD PUSH1 0x40 MLOAD DUP1 SWAP2 SUB SWAP1 KECCAK256 PUSH1 0x0 ADD DUP1 SLOAD PUSH2 0xFBF SWAP1 PUSH2 0x4232 JUMP JUMPDEST DUP1 PUSH1 0x1F ADD PUSH1 0x20 DUP1 SWAP2 DIV MUL PUSH1 0x20 ADD PUSH1 0x40 MLOAD SWAP1 DUP2 ADD PUSH1 0x40 MSTORE DUP1 SWAP3 SWAP2 SWAP1 DUP2 DUP2 MSTORE PUSH1 0x20 ADD DUP3 DUP1 SLOAD PUSH2 0xFEB SWAP1 PUSH2 0x4232 JUMP JUMPDEST DUP1 ISZERO PUSH2 0x1038 JUMPI DUP1 PUSH1 0x1F LT PUSH2 0x100D JUMPI PUSH2 0x100 DUP1 DUP4 SLOAD DIV MUL DUP4 MSTORE SWAP2 PUSH1 0x20 ADD SWAP2 PUSH2 0x1038 JUMP JUMPDEST DUP3 ADD SWAP2 SWAP1 PUSH1 0x0 MSTORE PUSH1 0x20 PUSH1 0x0 KECCAK256 SWAP1 JUMPDEST DUP2 SLOAD DUP2 MSTORE SWAP1 PUSH1 0x1 ADD SWAP1 PUSH1 0x20 ADD DUP1 DUP4 GT PUSH2 0x101B JUMPI DUP3 SWAP1 SUB PUSH1 0x1F AND DUP3 ADD SWAP2 JUMPDEST POP POP POP POP POP PUSH2 0x2756 JUMP JUMPDEST SWAP1 POP PUSH1 0x0 PUSH1 0x10 DUP4 PUSH1 0x40 MLOAD PUSH2 0x1056 SWAP2 SWAP1 PUSH2 0x42A0 JUMP JUMPDEST SWAP1 DUP2 MSTORE PUSH1 0x20 ADD PUSH1 0x40 MLOAD DUP1 SWAP2 SUB SWAP1 KECCAK256 SLOAD SWAP1 POP PUSH1 0x0 PUSH1 0x10 DUP5 PUSH1 0x40 MLOAD PUSH2 0x1079 SWAP2 SWAP1 PUSH2 0x42A0 JUMP JUMPDEST SWAP1 DUP2 MSTORE PUSH1 0x20 ADD PUSH1 0x40 MLOAD DUP1 SWAP2 SUB SWAP1 KECCAK256 DUP2 SWAP1 SSTORE POP PUSH1 0xA PUSH1 0x0 SWAP1 SLOAD SWAP1 PUSH2 0x100 EXP SWAP1 DIV PUSH20 0xFFFFFFFFFFFFFFFFFFFFFFFFFFFFFFFFFFFFFFFF AND PUSH20 0xFFFFFFFFFFFFFFFFFFFFFFFFFFFFFFFFFFFFFFFF AND PUSH4 0x95EA7B3 PUSH1 0x2 PUSH1 0x0 SWAP1 SLOAD SWAP1 PUSH2 0x100 EXP SWAP1 DIV PUSH20 0xFFFFFFFFFFFFFFFFFFFFFFFFFFFFFFFFFFFFFFFF AND DUP4 PUSH1 0x40 MLOAD DUP4 PUSH4 0xFFFFFFFF AND PUSH1 0xE0 SHL DUP2 MSTORE PUSH1 0x4 ADD PUSH2 0x110A SWAP3 SWAP2 SWAP1 PUSH2 0x43CA JUMP JUMPDEST PUSH1 0x20 PUSH1 0x40 MLOAD DUP1 DUP4 SUB DUP2 PUSH1 0x0 DUP8 DUP1 EXTCODESIZE ISZERO DUP1 ISZERO PUSH2 0x1124 JUMPI PUSH1 0x0 DUP1 REVERT JUMPDEST POP GAS CALL ISZERO DUP1 ISZERO PUSH2 0x1138 JUMPI RETURNDATASIZE PUSH1 0x0 DUP1 RETURNDATACOPY RETURNDATASIZE PUSH1 0x0 REVERT JUMPDEST POP POP POP POP PUSH1 0x40 MLOAD RETURNDATASIZE PUSH1 0x1F NOT PUSH1 0x1F DUP3 ADD AND DUP3 ADD DUP1 PUSH1 0x40 MSTORE POP DUP2 ADD SWAP1 PUSH2 0x115C SWAP2 SWAP1 PUSH2 0x41D6 JUMP JUMPDEST POP PUSH1 0x3 PUSH1 0x0 SWAP1 SLOAD SWAP1 PUSH2 0x100 EXP SWAP1 DIV PUSH20 0xFFFFFFFFFFFFFFFFFFFFFFFFFFFFFFFFFFFFFFFF AND PUSH20 0xFFFFFFFFFFFFFFFFFFFFFFFFFFFFFFFFFFFFFFFF AND PUSH4 0x152907D DUP4 DUP6 DUP5 PUSH1 0x40 MLOAD DUP5 PUSH4 0xFFFFFFFF AND PUSH1 0xE0 SHL DUP2 MSTORE PUSH1 0x4 ADD PUSH2 0x11BC SWAP4 SWAP3 SWAP2 SWAP1 PUSH2 0x43F3 JUMP JUMPDEST PUSH1 0x0 PUSH1 0x40 MLOAD DUP1 DUP4 SUB DUP2 PUSH1 0x0 DUP8 DUP1 EXTCODESIZE ISZERO DUP1 ISZERO PUSH2 0x11D6 JUMPI PUSH1 0x0 DUP1 REVERT JUMPDEST POP GAS CALL ISZERO DUP1 ISZERO PUSH2 0x11EA JUMPI RETURNDATASIZE PUSH1 0x0 DUP1 RETURNDATACOPY RETURNDATASIZE PUSH1 0x0 REVERT JUMPDEST POP POP POP POP PUSH2 0x11F7 DUP4 PUSH2 0x29A4 JUMP JUMPDEST POP POP JUMPDEST POP JUMP JUMPDEST PUSH1 0x1 DUP6 EQ ISZERO PUSH2 0x12B6 JUMPI DUP3 ISZERO PUSH2 0x12A7 JUMPI PUSH2 0x1215 DUP5 PUSH2 0x2A76 JUMP JUMPDEST PUSH1 0x3 PUSH1 0x0 SWAP1 SLOAD SWAP1 PUSH2 0x100 EXP SWAP1 DIV PUSH20 0xFFFFFFFFFFFFFFFFFFFFFFFFFFFFFFFFFFFFFFFF AND PUSH20 0xFFFFFFFFFFFFFFFFFFFFFFFFFFFFFFFFFFFFFFFF AND PUSH4 0x5CC00F7E DUP6 PUSH1 0x40 MLOAD DUP3 PUSH4 0xFFFFFFFF AND PUSH1 0xE0 SHL DUP2 MSTORE PUSH1 0x4 ADD PUSH2 0x1270 SWAP2 SWAP1 PUSH2 0x39F0 JUMP JUMPDEST PUSH1 0x0 PUSH1 0x40 MLOAD DUP1 DUP4 SUB DUP2 PUSH1 0x0 DUP8 DUP1 EXTCODESIZE ISZERO DUP1 ISZERO PUSH2 0x128A JUMPI PUSH1 0x0 DUP1 REVERT JUMPDEST POP GAS CALL ISZERO DUP1 ISZERO PUSH2 0x129E JUMPI RETURNDATASIZE PUSH1 0x0 DUP1 RETURNDATACOPY RETURNDATASIZE PUSH1 0x0 REVERT JUMPDEST POP POP POP POP PUSH2 0x12B1 JUMP JUMPDEST PUSH2 0x12B0 DUP5 PUSH2 0x2BA8 JUMP JUMPDEST JUMPDEST PUSH2 0x12E4 JUMP JUMPDEST PUSH1 0x2 DUP6 EQ ISZERO PUSH2 0x12CF JUMPI PUSH2 0x12CA DUP5 DUP3 DUP5 PUSH2 0x2E1E JUMP JUMPDEST PUSH2 0x12E3 JUMP JUMPDEST PUSH1 0x3 DUP6 EQ ISZERO PUSH2 0x12E2 JUMPI PUSH2 0x12E1 DUP5 PUSH2 0x1CB3 JUMP JUMPDEST JUMPDEST JUMPDEST JUMPDEST PUSH1 0x0 DUP6 DUP6 DUP6 DUP6 DUP6 PUSH1 0x40 MLOAD PUSH1 0x20 ADD PUSH2 0x12FF SWAP6 SWAP5 SWAP4 SWAP3 SWAP2 SWAP1 PUSH2 0x4431 JUMP JUMPDEST PUSH1 0x40 MLOAD PUSH1 0x20 DUP2 DUP4 SUB SUB DUP2 MSTORE SWAP1 PUSH1 0x40 MSTORE SWAP1 POP PUSH1 0x0 CALLVALUE GT ISZERO PUSH2 0x13AE JUMPI PUSH32 0x0 PUSH20 0xFFFFFFFFFFFFFFFFFFFFFFFFFFFFFFFFFFFFFFFF AND PUSH4 0xC93E3BB CALLVALUE ADDRESS DUP12 DUP12 DUP7 CALLER PUSH1 0x40 MLOAD DUP8 PUSH4 0xFFFFFFFF AND PUSH1 0xE0 SHL DUP2 MSTORE PUSH1 0x4 ADD PUSH2 0x137B SWAP6 SWAP5 SWAP4 SWAP3 SWAP2 SWAP1 PUSH2 0x44EE JUMP JUMPDEST PUSH1 0x0 PUSH1 0x40 MLOAD DUP1 DUP4 SUB DUP2 DUP6 DUP9 DUP1 EXTCODESIZE ISZERO DUP1 ISZERO PUSH2 0x1394 JUMPI PUSH1 0x0 DUP1 REVERT JUMPDEST POP GAS CALL ISZERO DUP1 ISZERO PUSH2 0x13A8 JUMPI RETURNDATASIZE PUSH1 0x0 DUP1 RETURNDATACOPY RETURNDATASIZE PUSH1 0x0 REVERT JUMPDEST POP POP POP POP POP JUMPDEST PUSH32 0x0 PUSH20 0xFFFFFFFFFFFFFFFFFFFFFFFFFFFFFFFFFFFFFFFF AND PUSH4 0x1C92115F DUP10 DUP10 DUP5 PUSH1 0x40 MLOAD DUP5 PUSH4 0xFFFFFFFF AND PUSH1 0xE0 SHL DUP2 MSTORE PUSH1 0x4 ADD PUSH2 0x140B SWAP4 SWAP3 SWAP2 SWAP1 PUSH2 0x4556 JUMP JUMPDEST PUSH1 0x0 PUSH1 0x40 MLOAD DUP1 DUP4 SUB DUP2 PUSH1 0x0 DUP8 DUP1 EXTCODESIZE ISZERO DUP1 ISZERO PUSH2 0x1425 JUMPI PUSH1 0x0 DUP1 REVERT JUMPDEST POP GAS CALL ISZERO DUP1 ISZERO PUSH2 0x1439 JUMPI RETURNDATASIZE PUSH1 0x0 DUP1 RETURNDATACOPY RETURNDATASIZE PUSH1 0x0 REVERT JUMPDEST POP POP POP POP POP POP POP POP POP POP POP POP JUMP JUMPDEST PUSH32 0x0 DUP2 JUMP JUMPDEST PUSH1 0xC DUP2 DUP1 MLOAD PUSH1 0x20 DUP2 ADD DUP3 ADD DUP1 MLOAD DUP5 DUP3 MSTORE PUSH1 0x20 DUP4 ADD PUSH1 0x20 DUP6 ADD KECCAK256 DUP2 DUP4 MSTORE DUP1 SWAP6 POP POP POP POP POP POP PUSH1 0x0 SWAP2 POP SLOAD SWAP1 PUSH2 0x100 EXP SWAP1 DIV PUSH1 0xFF AND DUP2 JUMP JUMPDEST PUSH1 0x6 DUP2 DUP1 MLOAD PUSH1 0x20 DUP2 ADD DUP3 ADD DUP1 MLOAD DUP5 DUP3 MSTORE PUSH1 0x20 DUP4 ADD PUSH1 0x20 DUP6 ADD KECCAK256 DUP2 DUP4 MSTORE DUP1 SWAP6 POP POP POP POP POP POP PUSH1 0x0 SWAP2 POP SLOAD SWAP1 PUSH2 0x100 EXP SWAP1 DIV PUSH20 0xFFFFFFFFFFFFFFFFFFFFFFFFFFFFFFFFFFFFFFFF AND DUP2 JUMP JUMPDEST PUSH1 0xF DUP2 DUP1 MLOAD PUSH1 0x20 DUP2 ADD DUP3 ADD DUP1 MLOAD DUP5 DUP3 MSTORE PUSH1 0x20 DUP4 ADD PUSH1 0x20 DUP6 ADD KECCAK256 DUP2 DUP4 MSTORE DUP1 SWAP6 POP POP POP POP POP POP PUSH1 0x0 SWAP2 POP SWAP1 POP DUP1 PUSH1 0x0 ADD DUP1 SLOAD PUSH2 0x1523 SWAP1 PUSH2 0x4232 JUMP JUMPDEST DUP1 PUSH1 0x1F ADD PUSH1 0x20 DUP1 SWAP2 DIV MUL PUSH1 0x20 ADD PUSH1 0x40 MLOAD SWAP1 DUP2 ADD PUSH1 0x40 MSTORE DUP1 SWAP3 SWAP2 SWAP1 DUP2 DUP2 MSTORE PUSH1 0x20 ADD DUP3 DUP1 SLOAD PUSH2 0x154F SWAP1 PUSH2 0x4232 JUMP JUMPDEST DUP1 ISZERO PUSH2 0x159C JUMPI DUP1 PUSH1 0x1F LT PUSH2 0x1571 JUMPI PUSH2 0x100 DUP1 DUP4 SLOAD DIV MUL DUP4 MSTORE SWAP2 PUSH1 0x20 ADD SWAP2 PUSH2 0x159C JUMP JUMPDEST DUP3 ADD SWAP2 SWAP1 PUSH1 0x0 MSTORE PUSH1 0x20 PUSH1 0x0 KECCAK256 SWAP1 JUMPDEST DUP2 SLOAD DUP2 MSTORE SWAP1 PUSH1 0x1 ADD SWAP1 PUSH1 0x20 ADD DUP1 DUP4 GT PUSH2 0x157F JUMPI DUP3 SWAP1 SUB PUSH1 0x1F AND DUP3 ADD SWAP2 JUMPDEST POP POP POP POP POP SWAP1 DUP1 PUSH1 0x1 ADD DUP1 SLOAD PUSH2 0x15B1 SWAP1 PUSH2 0x4232 JUMP JUMPDEST DUP1 PUSH1 0x1F ADD PUSH1 0x20 DUP1 SWAP2 DIV MUL PUSH1 0x20 ADD PUSH1 0x40 MLOAD SWAP1 DUP2 ADD PUSH1 0x40 MSTORE DUP1 SWAP3 SWAP2 SWAP1 DUP2 DUP2 MSTORE PUSH1 0x20 ADD DUP3 DUP1 SLOAD PUSH2 0x15DD SWAP1 PUSH2 0x4232 JUMP JUMPDEST DUP1 ISZERO PUSH2 0x162A JUMPI DUP1 PUSH1 0x1F LT PUSH2 0x15FF JUMPI PUSH2 0x100 DUP1 DUP4 SLOAD DIV MUL DUP4 MSTORE SWAP2 PUSH1 0x20 ADD SWAP2 PUSH2 0x162A JUMP JUMPDEST DUP3 ADD SWAP2 SWAP1 PUSH1 0x0 MSTORE PUSH1 0x20 PUSH1 0x0 KECCAK256 SWAP1 JUMPDEST DUP2 SLOAD DUP2 MSTORE SWAP1 PUSH1 0x1 ADD SWAP1 PUSH1 0x20 ADD DUP1 DUP4 GT PUSH2 0x160D JUMPI DUP3 SWAP1 SUB PUSH1 0x1F AND DUP3 ADD SWAP2 JUMPDEST POP POP POP POP POP SWAP1 POP DUP3 JUMP JUMPDEST PUSH1 0x1 PUSH1 0x0 SWAP1 SLOAD SWAP1 PUSH2 0x100 EXP SWAP1 DIV PUSH20 0xFFFFFFFFFFFFFFFFFFFFFFFFFFFFFFFFFFFFFFFF AND PUSH20 0xFFFFFFFFFFFFFFFFFFFFFFFFFFFFFFFFFFFFFFFF AND CALLER PUSH20 0xFFFFFFFFFFFFFFFFFFFFFFFFFFFFFFFFFFFFFFFF AND EQ PUSH2 0x16C4 JUMPI PUSH1 0x40 MLOAD PUSH32 0x8C379A000000000000000000000000000000000000000000000000000000000 DUP2 MSTORE PUSH1 0x4 ADD PUSH2 0x16BB SWAP1 PUSH2 0x405E JUMP JUMPDEST PUSH1 0x40 MLOAD DUP1 SWAP2 SUB SWAP1 REVERT JUMPDEST PUSH1 0x7 DUP2 PUSH1 0x40 MLOAD PUSH2 0x16D4 SWAP2 SWAP1 PUSH2 0x42A0 JUMP JUMPDEST SWAP1 DUP2 MSTORE PUSH1 0x20 ADD PUSH1 0x40 MLOAD DUP1 SWAP2 SUB SWAP1 KECCAK256 PUSH1 0x0 SWAP1 SLOAD SWAP1 PUSH2 0x100 EXP SWAP1 DIV PUSH1 0xFF AND PUSH2 0x1768 JUMPI PUSH1 0x1 PUSH1 0x7 DUP3 PUSH1 0x40 MLOAD PUSH2 0x1706 SWAP2 SWAP1 PUSH2 0x42A0 JUMP JUMPDEST SWAP1 DUP2 MSTORE PUSH1 0x20 ADD PUSH1 0x40 MLOAD DUP1 SWAP2 SUB SWAP1 KECCAK256 PUSH1 0x0 PUSH2 0x100 EXP DUP2 SLOAD DUP2 PUSH1 0xFF MUL NOT AND SWAP1 DUP4 ISZERO ISZERO MUL OR SWAP1 SSTORE POP PUSH1 0x8 DUP2 SWAP1 DUP1 PUSH1 0x1 DUP2 SLOAD ADD DUP1 DUP3 SSTORE DUP1 SWAP2 POP POP PUSH1 0x1 SWAP1 SUB SWAP1 PUSH1 0x0 MSTORE PUSH1 0x20 PUSH1 0x0 KECCAK256 ADD PUSH1 0x0 SWAP1 SWAP2 SWAP1 SWAP2 SWAP1 SWAP2 POP SWAP1 DUP1 MLOAD SWAP1 PUSH1 0x20 ADD SWAP1 PUSH2 0x1766 SWAP3 SWAP2 SWAP1 PUSH2 0x325E JUMP JUMPDEST POP JUMPDEST DUP2 PUSH1 0x6 DUP3 PUSH1 0x40 MLOAD PUSH2 0x1779 SWAP2 SWAP1 PUSH2 0x42A0 JUMP JUMPDEST SWAP1 DUP2 MSTORE PUSH1 0x20 ADD PUSH1 0x40 MLOAD DUP1 SWAP2 SUB SWAP1 KECCAK256 PUSH1 0x0 PUSH2 0x100 EXP DUP2 SLOAD DUP2 PUSH20 0xFFFFFFFFFFFFFFFFFFFFFFFFFFFFFFFFFFFFFFFF MUL NOT AND SWAP1 DUP4 PUSH20 0xFFFFFFFFFFFFFFFFFFFFFFFFFFFFFFFFFFFFFFFF AND MUL OR SWAP1 SSTORE POP POP POP JUMP JUMPDEST PUSH1 0xA PUSH1 0x0 SWAP1 SLOAD SWAP1 PUSH2 0x100 EXP SWAP1 DIV PUSH20 0xFFFFFFFFFFFFFFFFFFFFFFFFFFFFFFFFFFFFFFFF AND PUSH20 0xFFFFFFFFFFFFFFFFFFFFFFFFFFFFFFFFFFFFFFFF AND PUSH4 0x95EA7B3 PUSH32 0x0 DUP5 PUSH1 0x40 MLOAD DUP4 PUSH4 0xFFFFFFFF AND PUSH1 0xE0 SHL DUP2 MSTORE PUSH1 0x4 ADD PUSH2 0x1846 SWAP3 SWAP2 SWAP1 PUSH2 0x43CA JUMP JUMPDEST PUSH1 0x20 PUSH1 0x40 MLOAD DUP1 DUP4 SUB DUP2 PUSH1 0x0 DUP8 DUP1 EXTCODESIZE ISZERO DUP1 ISZERO PUSH2 0x1860 JUMPI PUSH1 0x0 DUP1 REVERT JUMPDEST POP GAS CALL ISZERO DUP1 ISZERO PUSH2 0x1874 JUMPI RETURNDATASIZE PUSH1 0x0 DUP1 RETURNDATACOPY RETURNDATASIZE PUSH1 0x0 REVERT JUMPDEST POP POP POP POP PUSH1 0x40 MLOAD RETURNDATASIZE PUSH1 0x1F NOT PUSH1 0x1F DUP3 ADD AND DUP3 ADD DUP1 PUSH1 0x40 MSTORE POP DUP2 ADD SWAP1 PUSH2 0x1898 SWAP2 SWAP1 PUSH2 0x41D6 JUMP JUMPDEST POP PUSH1 0x0 DUP2 PUSH1 0x40 MLOAD PUSH1 0x20 ADD PUSH2 0x18AC SWAP2 SWAP1 PUSH2 0x39F0 JUMP JUMPDEST PUSH1 0x40 MLOAD PUSH1 0x20 DUP2 DUP4 SUB SUB DUP2 MSTORE SWAP1 PUSH1 0x40 MSTORE SWAP1 POP PUSH1 0x0 CALLVALUE GT ISZERO PUSH2 0x1960 JUMPI PUSH32 0x0 PUSH20 0xFFFFFFFFFFFFFFFFFFFFFFFFFFFFFFFFFFFFFFFF AND PUSH4 0xC62C2002 CALLVALUE ADDRESS DUP9 DUP9 DUP7 PUSH1 0xB DUP11 CALLER PUSH1 0x40 MLOAD DUP10 PUSH4 0xFFFFFFFF AND PUSH1 0xE0 SHL DUP2 MSTORE PUSH1 0x4 ADD PUSH2 0x192D SWAP8 SWAP7 SWAP6 SWAP5 SWAP4 SWAP3 SWAP2 SWAP1 PUSH2 0x4637 JUMP JUMPDEST PUSH1 0x0 PUSH1 0x40 MLOAD DUP1 DUP4 SUB DUP2 DUP6 DUP9 DUP1 EXTCODESIZE ISZERO DUP1 ISZERO PUSH2 0x1946 JUMPI PUSH1 0x0 DUP1 REVERT JUMPDEST POP GAS CALL ISZERO DUP1 ISZERO PUSH2 0x195A JUMPI RETURNDATASIZE PUSH1 0x0 DUP1 RETURNDATACOPY RETURNDATASIZE PUSH1 0x0 REVERT JUMPDEST POP POP POP POP POP JUMPDEST PUSH32 0x0 PUSH20 0xFFFFFFFFFFFFFFFFFFFFFFFFFFFFFFFFFFFFFFFF AND PUSH4 0xB5417084 DUP7 DUP7 DUP5 PUSH1 0xB DUP9 PUSH1 0x40 MLOAD DUP7 PUSH4 0xFFFFFFFF AND PUSH1 0xE0 SHL DUP2 MSTORE PUSH1 0x4 ADD PUSH2 0x19C2 SWAP6 SWAP5 SWAP4 SWAP3 SWAP2 SWAP1 PUSH2 0x46C2 JUMP JUMPDEST PUSH1 0x0 PUSH1 0x40 MLOAD DUP1 DUP4 SUB DUP2 PUSH1 0x0 DUP8 DUP1 EXTCODESIZE ISZERO DUP1 ISZERO PUSH2 0x19DC JUMPI PUSH1 0x0 DUP1 REVERT JUMPDEST POP GAS CALL ISZERO DUP1 ISZERO PUSH2 0x19F0 JUMPI RETURNDATASIZE PUSH1 0x0 DUP1 RETURNDATACOPY RETURNDATASIZE PUSH1 0x0 REVERT JUMPDEST POP POP POP POP POP POP POP POP POP JUMP JUMPDEST PUSH1 0x7 DUP2 DUP1 MLOAD PUSH1 0x20 DUP2 ADD DUP3 ADD DUP1 MLOAD DUP5 DUP3 MSTORE PUSH1 0x20 DUP4 ADD PUSH1 0x20 DUP6 ADD KECCAK256 DUP2 DUP4 MSTORE DUP1 SWAP6 POP POP POP POP POP POP PUSH1 0x0 SWAP2 POP SLOAD SWAP1 PUSH2 0x100 EXP SWAP1 DIV PUSH1 0xFF AND DUP2 JUMP JUMPDEST PUSH1 0x0 JUMPDEST PUSH1 0x8 DUP1 SLOAD SWAP1 POP DUP2 LT ISZERO PUSH2 0x1B71 JUMPI PUSH1 0x0 PUSH1 0x8 DUP3 DUP2 SLOAD DUP2 LT PUSH2 0x1A57 JUMPI PUSH2 0x1A56 PUSH2 0x4731 JUMP JUMPDEST JUMPDEST SWAP1 PUSH1 0x0 MSTORE PUSH1 0x20 PUSH1 0x0 KECCAK256 ADD DUP1 SLOAD PUSH2 0x1A6C SWAP1 PUSH2 0x4232 JUMP JUMPDEST DUP1 PUSH1 0x1F ADD PUSH1 0x20 DUP1 SWAP2 DIV MUL PUSH1 0x20 ADD PUSH1 0x40 MLOAD SWAP1 DUP2 ADD PUSH1 0x40 MSTORE DUP1 SWAP3 SWAP2 SWAP1 DUP2 DUP2 MSTORE PUSH1 0x20 ADD DUP3 DUP1 SLOAD PUSH2 0x1A98 SWAP1 PUSH2 0x4232 JUMP JUMPDEST DUP1 ISZERO PUSH2 0x1AE5 JUMPI DUP1 PUSH1 0x1F LT PUSH2 0x1ABA JUMPI PUSH2 0x100 DUP1 DUP4 SLOAD DIV MUL DUP4 MSTORE SWAP2 PUSH1 0x20 ADD SWAP2 PUSH2 0x1AE5 JUMP JUMPDEST DUP3 ADD SWAP2 SWAP1 PUSH1 0x0 MSTORE PUSH1 0x20 PUSH1 0x0 KECCAK256 SWAP1 JUMPDEST DUP2 SLOAD DUP2 MSTORE SWAP1 PUSH1 0x1 ADD SWAP1 PUSH1 0x20 ADD DUP1 DUP4 GT PUSH2 0x1AC8 JUMPI DUP3 SWAP1 SUB PUSH1 0x1F AND DUP3 ADD SWAP2 JUMPDEST POP POP POP POP POP SWAP1 POP PUSH1 0x0 PUSH2 0x1B4B PUSH1 0x6 DUP4 PUSH1 0x40 MLOAD PUSH2 0x1B01 SWAP2 SWAP1 PUSH2 0x42A0 JUMP JUMPDEST SWAP1 DUP2 MSTORE PUSH1 0x20 ADD PUSH1 0x40 MLOAD DUP1 SWAP2 SUB SWAP1 KECCAK256 PUSH1 0x0 SWAP1 SLOAD SWAP1 PUSH2 0x100 EXP SWAP1 DIV PUSH20 0xFFFFFFFFFFFFFFFFFFFFFFFFFFFFFFFFFFFFFFFF AND PUSH20 0xFFFFFFFFFFFFFFFFFFFFFFFFFFFFFFFFFFFFFFFF AND PUSH2 0x2E93 JUMP JUMPDEST SWAP1 POP PUSH2 0x1B5C DUP3 DUP3 DUP11 DUP11 DUP11 DUP11 DUP11 PUSH2 0x11FD JUMP JUMPDEST POP POP DUP1 DUP1 PUSH2 0x1B69 SWAP1 PUSH2 0x4760 JUMP JUMPDEST SWAP2 POP POP PUSH2 0x1A34 JUMP JUMPDEST POP POP POP POP POP POP JUMP JUMPDEST PUSH1 0x8 DUP2 DUP2 SLOAD DUP2 LT PUSH2 0x1B89 JUMPI PUSH1 0x0 DUP1 REVERT JUMPDEST SWAP1 PUSH1 0x0 MSTORE PUSH1 0x20 PUSH1 0x0 KECCAK256 ADD PUSH1 0x0 SWAP2 POP SWAP1 POP DUP1 SLOAD PUSH2 0x1BA4 SWAP1 PUSH2 0x4232 JUMP JUMPDEST DUP1 PUSH1 0x1F ADD PUSH1 0x20 DUP1 SWAP2 DIV MUL PUSH1 0x20 ADD PUSH1 0x40 MLOAD SWAP1 DUP2 ADD PUSH1 0x40 MSTORE DUP1 SWAP3 SWAP2 SWAP1 DUP2 DUP2 MSTORE PUSH1 0x20 ADD DUP3 DUP1 SLOAD PUSH2 0x1BD0 SWAP1 PUSH2 0x4232 JUMP JUMPDEST DUP1 ISZERO PUSH2 0x1C1D JUMPI DUP1 PUSH1 0x1F LT PUSH2 0x1BF2 JUMPI PUSH2 0x100 DUP1 DUP4 SLOAD DIV MUL DUP4 MSTORE SWAP2 PUSH1 0x20 ADD SWAP2 PUSH2 0x1C1D JUMP JUMPDEST DUP3 ADD SWAP2 SWAP1 PUSH1 0x0 MSTORE PUSH1 0x20 PUSH1 0x0 KECCAK256 SWAP1 JUMPDEST DUP2 SLOAD DUP2 MSTORE SWAP1 PUSH1 0x1 ADD SWAP1 PUSH1 0x20 ADD DUP1 DUP4 GT PUSH2 0x1C00 JUMPI DUP3 SWAP1 SUB PUSH1 0x1F AND DUP3 ADD SWAP2 JUMPDEST POP POP POP POP POP DUP2 JUMP JUMPDEST PUSH1 0x5 DUP1 SLOAD PUSH2 0x1C32 SWAP1 PUSH2 0x4232 JUMP JUMPDEST DUP1 PUSH1 0x1F ADD PUSH1 0x20 DUP1 SWAP2 DIV MUL PUSH1 0x20 ADD PUSH1 0x40 MLOAD SWAP1 DUP2 ADD PUSH1 0x40 MSTORE DUP1 SWAP3 SWAP2 SWAP1 DUP2 DUP2 MSTORE PUSH1 0x20 ADD DUP3 DUP1 SLOAD PUSH2 0x1C5E SWAP1 PUSH2 0x4232 JUMP JUMPDEST DUP1 ISZERO PUSH2 0x1CAB JUMPI DUP1 PUSH1 0x1F LT PUSH2 0x1C80 JUMPI PUSH2 0x100 DUP1 DUP4 SLOAD DIV MUL DUP4 MSTORE SWAP2 PUSH1 0x20 ADD SWAP2 PUSH2 0x1CAB JUMP JUMPDEST DUP3 ADD SWAP2 SWAP1 PUSH1 0x0 MSTORE PUSH1 0x20 PUSH1 0x0 KECCAK256 SWAP1 JUMPDEST DUP2 SLOAD DUP2 MSTORE SWAP1 PUSH1 0x1 ADD SWAP1 PUSH1 0x20 ADD DUP1 DUP4 GT PUSH2 0x1C8E JUMPI DUP3 SWAP1 SUB PUSH1 0x1F AND DUP3 ADD SWAP2 JUMPDEST POP POP POP POP POP DUP2 JUMP JUMPDEST PUSH1 0x0 PUSH1 0xF DUP3 PUSH1 0x40 MLOAD PUSH2 0x1CC5 SWAP2 SWAP1 PUSH2 0x42A0 JUMP JUMPDEST SWAP1 DUP2 MSTORE PUSH1 0x20 ADD PUSH1 0x40 MLOAD DUP1 SWAP2 SUB SWAP1 KECCAK256 PUSH1 0x1 ADD DUP1 SLOAD PUSH2 0x1CE1 SWAP1 PUSH2 0x4232 JUMP JUMPDEST DUP1 PUSH1 0x1F ADD PUSH1 0x20 DUP1 SWAP2 DIV MUL PUSH1 0x20 ADD PUSH1 0x40 MLOAD SWAP1 DUP2 ADD PUSH1 0x40 MSTORE DUP1 SWAP3 SWAP2 SWAP1 DUP2 DUP2 MSTORE PUSH1 0x20 ADD DUP3 DUP1 SLOAD PUSH2 0x1D0D SWAP1 PUSH2 0x4232 JUMP JUMPDEST DUP1 ISZERO PUSH2 0x1D5A JUMPI DUP1 PUSH1 0x1F LT PUSH2 0x1D2F JUMPI PUSH2 0x100 DUP1 DUP4 SLOAD DIV MUL DUP4 MSTORE SWAP2 PUSH1 0x20 ADD SWAP2 PUSH2 0x1D5A JUMP JUMPDEST DUP3 ADD SWAP2 SWAP1 PUSH1 0x0 MSTORE PUSH1 0x20 PUSH1 0x0 KECCAK256 SWAP1 JUMPDEST DUP2 SLOAD DUP2 MSTORE SWAP1 PUSH1 0x1 ADD SWAP1 PUSH1 0x20 ADD DUP1 DUP4 GT PUSH2 0x1D3D JUMPI DUP3 SWAP1 SUB PUSH1 0x1F AND DUP3 ADD SWAP2 JUMPDEST POP POP POP POP POP SWAP1 POP PUSH1 0x0 PUSH1 0x40 MLOAD PUSH2 0x1D70 SWAP2 SWAP1 PUSH2 0x483D JUMP JUMPDEST PUSH1 0x40 MLOAD DUP1 SWAP2 SUB SWAP1 KECCAK256 DUP2 DUP1 MLOAD SWAP1 PUSH1 0x20 ADD KECCAK256 EQ ISZERO PUSH2 0x1DDF JUMPI PUSH1 0x1 PUSH1 0x13 DUP4 PUSH1 0x40 MLOAD PUSH2 0x1D98 SWAP2 SWAP1 PUSH2 0x42A0 JUMP JUMPDEST SWAP1 DUP2 MSTORE PUSH1 0x20 ADD PUSH1 0x40 MLOAD DUP1 SWAP2 SUB SWAP1 KECCAK256 PUSH1 0x0 PUSH1 0x40 MLOAD PUSH2 0x1DB5 SWAP2 SWAP1 PUSH2 0x48D3 JUMP JUMPDEST SWAP1 DUP2 MSTORE PUSH1 0x20 ADD PUSH1 0x40 MLOAD DUP1 SWAP2 SUB SWAP1 KECCAK256 PUSH1 0x0 PUSH2 0x100 EXP DUP2 SLOAD DUP2 PUSH1 0xFF MUL NOT AND SWAP1 DUP4 ISZERO ISZERO MUL OR SWAP1 SSTORE POP PUSH2 0x1E2F JUMP JUMPDEST PUSH1 0x0 PUSH1 0x6 DUP3 PUSH1 0x40 MLOAD PUSH2 0x1DF1 SWAP2 SWAP1 PUSH2 0x42A0 JUMP JUMPDEST SWAP1 DUP2 MSTORE PUSH1 0x20 ADD PUSH1 0x40 MLOAD DUP1 SWAP2 SUB SWAP1 KECCAK256 PUSH1 0x0 SWAP1 SLOAD SWAP1 PUSH2 0x100 EXP SWAP1 DIV PUSH20 0xFFFFFFFFFFFFFFFFFFFFFFFFFFFFFFFFFFFFFFFF AND SWAP1 POP PUSH2 0x1E2D DUP4 DUP4 DUP4 PUSH2 0x31B6 JUMP JUMPDEST POP JUMPDEST POP POP JUMP JUMPDEST PUSH1 0x1 PUSH1 0x0 SWAP1 SLOAD SWAP1 PUSH2 0x100 EXP SWAP1 DIV PUSH20 0xFFFFFFFFFFFFFFFFFFFFFFFFFFFFFFFFFFFFFFFF AND PUSH20 0xFFFFFFFFFFFFFFFFFFFFFFFFFFFFFFFFFFFFFFFF AND CALLER PUSH20 0xFFFFFFFFFFFFFFFFFFFFFFFFFFFFFFFFFFFFFFFF AND EQ PUSH2 0x1EC3 JUMPI PUSH1 0x40 MLOAD PUSH32 0x8C379A000000000000000000000000000000000000000000000000000000000 DUP2 MSTORE PUSH1 0x4 ADD PUSH2 0x1EBA SWAP1 PUSH2 0x405E JUMP JUMPDEST PUSH1 0x40 MLOAD DUP1 SWAP2 SUB SWAP1 REVERT JUMPDEST DUP1 PUSH1 0x2 PUSH1 0x0 PUSH2 0x100 EXP DUP2 SLOAD DUP2 PUSH20 0xFFFFFFFFFFFFFFFFFFFFFFFFFFFFFFFFFFFFFFFF MUL NOT AND SWAP1 DUP4 PUSH20 0xFFFFFFFFFFFFFFFFFFFFFFFFFFFFFFFFFFFFFFFF AND MUL OR SWAP1 SSTORE POP DUP1 PUSH1 0x3 PUSH1 0x0 PUSH2 0x100 EXP DUP2 SLOAD DUP2 PUSH20 0xFFFFFFFFFFFFFFFFFFFFFFFFFFFFFFFFFFFFFFFF MUL NOT AND SWAP1 DUP4 PUSH20 0xFFFFFFFFFFFFFFFFFFFFFFFFFFFFFFFFFFFFFFFF AND MUL OR SWAP1 SSTORE POP POP JUMP JUMPDEST PUSH1 0xA PUSH1 0x0 SWAP1 SLOAD SWAP1 PUSH2 0x100 EXP SWAP1 DIV PUSH20 0xFFFFFFFFFFFFFFFFFFFFFFFFFFFFFFFFFFFFFFFF AND DUP2 JUMP JUMPDEST PUSH1 0x12 DUP3 DUP1 MLOAD PUSH1 0x20 DUP2 ADD DUP3 ADD DUP1 MLOAD DUP5 DUP3 MSTORE PUSH1 0x20 DUP4 ADD PUSH1 0x20 DUP6 ADD KECCAK256 DUP2 DUP4 MSTORE DUP1 SWAP6 POP POP POP POP POP POP DUP2 DUP1 MLOAD PUSH1 0x20 DUP2 ADD DUP3 ADD DUP1 MLOAD DUP5 DUP3 MSTORE PUSH1 0x20 DUP4 ADD PUSH1 0x20 DUP6 ADD KECCAK256 DUP2 DUP4 MSTORE DUP1 SWAP6 POP POP POP POP POP POP PUSH1 0x0 SWAP2 POP SWAP2 POP POP DUP1 PUSH1 0x0 ADD DUP1 SLOAD PUSH2 0x1FCA SWAP1 PUSH2 0x4232 JUMP JUMPDEST DUP1 PUSH1 0x1F ADD PUSH1 0x20 DUP1 SWAP2 DIV MUL PUSH1 0x20 ADD PUSH1 0x40 MLOAD SWAP1 DUP2 ADD PUSH1 0x40 MSTORE DUP1 SWAP3 SWAP2 SWAP1 DUP2 DUP2 MSTORE PUSH1 0x20 ADD DUP3 DUP1 SLOAD PUSH2 0x1FF6 SWAP1 PUSH2 0x4232 JUMP JUMPDEST DUP1 ISZERO PUSH2 0x2043 JUMPI DUP1 PUSH1 0x1F LT PUSH2 0x2018 JUMPI PUSH2 0x100 DUP1 DUP4 SLOAD DIV MUL DUP4 MSTORE SWAP2 PUSH1 0x20 ADD SWAP2 PUSH2 0x2043 JUMP JUMPDEST DUP3 ADD SWAP2 SWAP1 PUSH1 0x0 MSTORE PUSH1 0x20 PUSH1 0x0 KECCAK256 SWAP1 JUMPDEST DUP2 SLOAD DUP2 MSTORE SWAP1 PUSH1 0x1 ADD SWAP1 PUSH1 0x20 ADD DUP1 DUP4 GT PUSH2 0x2026 JUMPI DUP3 SWAP1 SUB PUSH1 0x1F AND DUP3 ADD SWAP2 JUMPDEST POP POP POP POP POP SWAP1 DUP1 PUSH1 0x1 ADD DUP1 SLOAD PUSH2 0x2058 SWAP1 PUSH2 0x4232 JUMP JUMPDEST DUP1 PUSH1 0x1F ADD PUSH1 0x20 DUP1 SWAP2 DIV MUL PUSH1 0x20 ADD PUSH1 0x40 MLOAD SWAP1 DUP2 ADD PUSH1 0x40 MSTORE DUP1 SWAP3 SWAP2 SWAP1 DUP2 DUP2 MSTORE PUSH1 0x20 ADD DUP3 DUP1 SLOAD PUSH2 0x2084 SWAP1 PUSH2 0x4232 JUMP JUMPDEST DUP1 ISZERO PUSH2 0x20D1 JUMPI DUP1 PUSH1 0x1F LT PUSH2 0x20A6 JUMPI PUSH2 0x100 DUP1 DUP4 SLOAD DIV MUL DUP4 MSTORE SWAP2 PUSH1 0x20 ADD SWAP2 PUSH2 0x20D1 JUMP JUMPDEST DUP3 ADD SWAP2 SWAP1 PUSH1 0x0 MSTORE PUSH1 0x20 PUSH1 0x0 KECCAK256 SWAP1 JUMPDEST DUP2 SLOAD DUP2 MSTORE SWAP1 PUSH1 0x1 ADD SWAP1 PUSH1 0x20 ADD DUP1 DUP4 GT PUSH2 0x20B4 JUMPI DUP3 SWAP1 SUB PUSH1 0x1F AND DUP3 ADD SWAP2 JUMPDEST POP POP POP POP POP SWAP1 POP DUP3 JUMP JUMPDEST PUSH1 0x9 PUSH1 0x0 SWAP1 SLOAD SWAP1 PUSH2 0x100 EXP SWAP1 DIV PUSH20 0xFFFFFFFFFFFFFFFFFFFFFFFFFFFFFFFFFFFFFFFF AND DUP2 JUMP JUMPDEST PUSH1 0xB DUP1 SLOAD PUSH2 0x210E SWAP1 PUSH2 0x4232 JUMP JUMPDEST DUP1 PUSH1 0x1F ADD PUSH1 0x20 DUP1 SWAP2 DIV MUL PUSH1 0x20 ADD PUSH1 0x40 MLOAD SWAP1 DUP2 ADD PUSH1 0x40 MSTORE DUP1 SWAP3 SWAP2 SWAP1 DUP2 DUP2 MSTORE PUSH1 0x20 ADD DUP3 DUP1 SLOAD PUSH2 0x213A SWAP1 PUSH2 0x4232 JUMP JUMPDEST DUP1 ISZERO PUSH2 0x2187 JUMPI DUP1 PUSH1 0x1F LT PUSH2 0x215C JUMPI PUSH2 0x100 DUP1 DUP4 SLOAD DIV MUL DUP4 MSTORE SWAP2 PUSH1 0x20 ADD SWAP2 PUSH2 0x2187 JUMP JUMPDEST DUP3 ADD SWAP2 SWAP1 PUSH1 0x0 MSTORE PUSH1 0x20 PUSH1 0x0 KECCAK256 SWAP1 JUMPDEST DUP2 SLOAD DUP2 MSTORE SWAP1 PUSH1 0x1 ADD SWAP1 PUSH1 0x20 ADD DUP1 DUP4 GT PUSH2 0x216A JUMPI DUP3 SWAP1 SUB PUSH1 0x1F AND DUP3 ADD SWAP2 JUMPDEST POP POP POP POP POP DUP2 JUMP JUMPDEST PUSH1 0x11 DUP3 DUP1 MLOAD PUSH1 0x20 DUP2 ADD DUP3 ADD DUP1 MLOAD DUP5 DUP3 MSTORE PUSH1 0x20 DUP4 ADD PUSH1 0x20 DUP6 ADD KECCAK256 DUP2 DUP4 MSTORE DUP1 SWAP6 POP POP POP POP POP POP DUP2 DUP1 MLOAD PUSH1 0x20 DUP2 ADD DUP3 ADD DUP1 MLOAD DUP5 DUP3 MSTORE PUSH1 0x20 DUP4 ADD PUSH1 0x20 DUP6 ADD KECCAK256 DUP2 DUP4 MSTORE DUP1 SWAP6 POP POP POP POP POP POP PUSH1 0x0 SWAP2 POP SWAP2 POP SWAP1 SLOAD SWAP1 PUSH2 0x100 EXP SWAP1 DIV PUSH1 0xFF AND DUP2 JUMP JUMPDEST PUSH1 0xE DUP2 DUP2 SLOAD DUP2 LT PUSH2 0x21FA JUMPI PUSH1 0x0 DUP1 REVERT JUMPDEST SWAP1 PUSH1 0x0 MSTORE PUSH1 0x20 PUSH1 0x0 KECCAK256 ADD PUSH1 0x0 SWAP2 POP SWAP1 POP DUP1 SLOAD PUSH2 0x2215 SWAP1 PUSH2 0x4232 JUMP JUMPDEST DUP1 PUSH1 0x1F ADD PUSH1 0x20 DUP1 SWAP2 DIV MUL PUSH1 0x20 ADD PUSH1 0x40 MLOAD SWAP1 DUP2 ADD PUSH1 0x40 MSTORE DUP1 SWAP3 SWAP2 SWAP1 DUP2 DUP2 MSTORE PUSH1 0x20 ADD DUP3 DUP1 SLOAD PUSH2 0x2241 SWAP1 PUSH2 0x4232 JUMP JUMPDEST DUP1 ISZERO PUSH2 0x228E JUMPI DUP1 PUSH1 0x1F LT PUSH2 0x2263 JUMPI PUSH2 0x100 DUP1 DUP4 SLOAD DIV MUL DUP4 MSTORE SWAP2 PUSH1 0x20 ADD SWAP2 PUSH2 0x228E JUMP JUMPDEST DUP3 ADD SWAP2 SWAP1 PUSH1 0x0 MSTORE PUSH1 0x20 PUSH1 0x0 KECCAK256 SWAP1 JUMPDEST DUP2 SLOAD DUP2 MSTORE SWAP1 PUSH1 0x1 ADD SWAP1 PUSH1 0x20 ADD DUP1 DUP4 GT PUSH2 0x2271 JUMPI DUP3 SWAP1 SUB PUSH1 0x1F AND DUP3 ADD SWAP2 JUMPDEST POP POP POP POP POP DUP2 JUMP JUMPDEST PUSH1 0x10 DUP2 DUP1 MLOAD PUSH1 0x20 DUP2 ADD DUP3 ADD DUP1 MLOAD DUP5 DUP3 MSTORE PUSH1 0x20 DUP4 ADD PUSH1 0x20 DUP6 ADD KECCAK256 DUP2 DUP4 MSTORE DUP1 SWAP6 POP POP POP POP POP POP PUSH1 0x0 SWAP2 POP SWAP1 POP SLOAD DUP2 JUMP JUMPDEST PUSH1 0x1 PUSH1 0x0 SWAP1 SLOAD SWAP1 PUSH2 0x100 EXP SWAP1 DIV PUSH20 0xFFFFFFFFFFFFFFFFFFFFFFFFFFFFFFFFFFFFFFFF AND DUP2 JUMP JUMPDEST PUSH1 0x0 DUP6 DUP6 DUP2 ADD SWAP1 PUSH2 0x22FB SWAP2 SWAP1 PUSH2 0x3653 JUMP JUMPDEST SWAP1 POP PUSH1 0x1 PUSH1 0x13 DUP3 PUSH1 0x40 MLOAD PUSH2 0x230F SWAP2 SWAP1 PUSH2 0x42A0 JUMP JUMPDEST SWAP1 DUP2 MSTORE PUSH1 0x20 ADD PUSH1 0x40 MLOAD DUP1 SWAP2 SUB SWAP1 KECCAK256 DUP12 DUP12 PUSH1 0x40 MLOAD PUSH2 0x232D SWAP3 SWAP2 SWAP1 PUSH2 0x490F JUMP JUMPDEST SWAP1 DUP2 MSTORE PUSH1 0x20 ADD PUSH1 0x40 MLOAD DUP1 SWAP2 SUB SWAP1 KECCAK256 PUSH1 0x0 PUSH2 0x100 EXP DUP2 SLOAD DUP2 PUSH1 0xFF MUL NOT AND SWAP1 DUP4 ISZERO ISZERO MUL OR SWAP1 SSTORE POP DUP2 PUSH1 0x10 DUP3 PUSH1 0x40 MLOAD PUSH2 0x2363 SWAP2 SWAP1 PUSH2 0x42A0 JUMP JUMPDEST SWAP1 DUP2 MSTORE PUSH1 0x20 ADD PUSH1 0x40 MLOAD DUP1 SWAP2 SUB SWAP1 KECCAK256 PUSH1 0x0 DUP3 DUP3 SLOAD PUSH2 0x2380 SWAP2 SWAP1 PUSH2 0x431D JUMP JUMPDEST SWAP3 POP POP DUP2 SWAP1 SSTORE POP POP POP POP POP POP POP POP POP POP POP JUMP JUMPDEST PUSH1 0x0 DUP1 PUSH1 0x0 DUP1 PUSH1 0x0 DUP7 DUP7 DUP2 ADD SWAP1 PUSH2 0x23AA SWAP2 SWAP1 PUSH2 0x3E83 JUMP JUMPDEST SWAP5 POP SWAP5 POP SWAP5 POP SWAP5 POP SWAP5 POP DUP11 DUP11 PUSH1 0x4 SWAP2 SWAP1 PUSH2 0x23C5 SWAP3 SWAP2 SWAP1 PUSH2 0x32E4 JUMP JUMPDEST POP DUP9 DUP9 PUSH1 0x5 SWAP2 SWAP1 PUSH2 0x23D7 SWAP3 SWAP2 SWAP1 PUSH2 0x32E4 JUMP JUMPDEST POP PUSH1 0x1 DUP6 EQ ISZERO PUSH2 0x2529 JUMPI DUP3 ISZERO PUSH2 0x2482 JUMPI PUSH2 0x23F0 DUP5 PUSH2 0x2A76 JUMP JUMPDEST PUSH1 0x3 PUSH1 0x0 SWAP1 SLOAD SWAP1 PUSH2 0x100 EXP SWAP1 DIV PUSH20 0xFFFFFFFFFFFFFFFFFFFFFFFFFFFFFFFFFFFFFFFF AND PUSH20 0xFFFFFFFFFFFFFFFFFFFFFFFFFFFFFFFFFFFFFFFF AND PUSH4 0x5CC00F7E DUP6 PUSH1 0x40 MLOAD DUP3 PUSH4 0xFFFFFFFF AND PUSH1 0xE0 SHL DUP2 MSTORE PUSH1 0x4 ADD PUSH2 0x244B SWAP2 SWAP1 PUSH2 0x39F0 JUMP JUMPDEST PUSH1 0x0 PUSH1 0x40 MLOAD DUP1 DUP4 SUB DUP2 PUSH1 0x0 DUP8 DUP1 EXTCODESIZE ISZERO DUP1 ISZERO PUSH2 0x2465 JUMPI PUSH1 0x0 DUP1 REVERT JUMPDEST POP GAS CALL ISZERO DUP1 ISZERO PUSH2 0x2479 JUMPI RETURNDATASIZE PUSH1 0x0 DUP1 RETURNDATACOPY RETURNDATASIZE PUSH1 0x0 REVERT JUMPDEST POP POP POP POP PUSH2 0x248C JUMP JUMPDEST PUSH2 0x248B DUP5 PUSH2 0x2BA8 JUMP JUMPDEST JUMPDEST PUSH2 0x2524 DUP12 DUP12 DUP1 DUP1 PUSH1 0x1F ADD PUSH1 0x20 DUP1 SWAP2 DIV MUL PUSH1 0x20 ADD PUSH1 0x40 MLOAD SWAP1 DUP2 ADD PUSH1 0x40 MSTORE DUP1 SWAP4 SWAP3 SWAP2 SWAP1 DUP2 DUP2 MSTORE PUSH1 0x20 ADD DUP4 DUP4 DUP1 DUP3 DUP5 CALLDATACOPY PUSH1 0x0 DUP2 DUP5 ADD MSTORE PUSH1 0x1F NOT PUSH1 0x1F DUP3 ADD AND SWAP1 POP DUP1 DUP4 ADD SWAP3 POP POP POP POP POP POP POP DUP11 DUP11 DUP1 DUP1 PUSH1 0x1F ADD PUSH1 0x20 DUP1 SWAP2 DIV MUL PUSH1 0x20 ADD PUSH1 0x40 MLOAD SWAP1 DUP2 ADD PUSH1 0x40 MSTORE DUP1 SWAP4 SWAP3 SWAP2 SWAP1 DUP2 DUP2 MSTORE PUSH1 0x20 ADD DUP4 DUP4 DUP1 DUP3 DUP5 CALLDATACOPY PUSH1 0x0 DUP2 DUP5 ADD MSTORE PUSH1 0x1F NOT PUSH1 0x1F DUP3 ADD AND SWAP1 POP DUP1 DUP4 ADD SWAP3 POP POP POP POP POP POP POP PUSH1 0x0 DUP8 DUP8 DUP8 DUP8 PUSH2 0x11FD JUMP JUMPDEST PUSH2 0x26E0 JUMP JUMPDEST PUSH1 0x2 DUP6 EQ ISZERO PUSH2 0x25DA JUMPI PUSH2 0x253D DUP5 DUP3 DUP5 PUSH2 0x2E1E JUMP JUMPDEST PUSH2 0x25D5 DUP12 DUP12 DUP1 DUP1 PUSH1 0x1F ADD PUSH1 0x20 DUP1 SWAP2 DIV MUL PUSH1 0x20 ADD PUSH1 0x40 MLOAD SWAP1 DUP2 ADD PUSH1 0x40 MSTORE DUP1 SWAP4 SWAP3 SWAP2 SWAP1 DUP2 DUP2 MSTORE PUSH1 0x20 ADD DUP4 DUP4 DUP1 DUP3 DUP5 CALLDATACOPY PUSH1 0x0 DUP2 DUP5 ADD MSTORE PUSH1 0x1F NOT PUSH1 0x1F DUP3 ADD AND SWAP1 POP DUP1 DUP4 ADD SWAP3 POP POP POP POP POP POP POP DUP11 DUP11 DUP1 DUP1 PUSH1 0x1F ADD PUSH1 0x20 DUP1 SWAP2 DIV MUL PUSH1 0x20 ADD PUSH1 0x40 MLOAD SWAP1 DUP2 ADD PUSH1 0x40 MSTORE DUP1 SWAP4 SWAP3 SWAP2 SWAP1 DUP2 DUP2 MSTORE PUSH1 0x20 ADD DUP4 DUP4 DUP1 DUP3 DUP5 CALLDATACOPY PUSH1 0x0 DUP2 DUP5 ADD MSTORE PUSH1 0x1F NOT PUSH1 0x1F DUP3 ADD AND SWAP1 POP DUP1 DUP4 ADD SWAP3 POP POP POP POP POP POP POP PUSH1 0x0 DUP8 DUP8 DUP8 DUP8 PUSH2 0x11FD JUMP JUMPDEST PUSH2 0x26DF JUMP JUMPDEST PUSH1 0x3 DUP6 EQ ISZERO PUSH2 0x25F1 JUMPI PUSH2 0x25EC DUP5 PUSH2 0x1CB3 JUMP JUMPDEST PUSH2 0x26DE JUMP JUMPDEST PUSH1 0x0 DUP6 EQ ISZERO PUSH2 0x26DD JUMPI DUP3 PUSH1 0x11 DUP6 PUSH1 0x40 MLOAD PUSH2 0x260B SWAP2 SWAP1 PUSH2 0x42A0 JUMP JUMPDEST SWAP1 DUP2 MSTORE PUSH1 0x20 ADD PUSH1 0x40 MLOAD DUP1 SWAP2 SUB SWAP1 KECCAK256 DUP13 DUP13 PUSH1 0x40 MLOAD PUSH2 0x2629 SWAP3 SWAP2 SWAP1 PUSH2 0x490F JUMP JUMPDEST SWAP1 DUP2 MSTORE PUSH1 0x20 ADD PUSH1 0x40 MLOAD DUP1 SWAP2 SUB SWAP1 KECCAK256 PUSH1 0x0 PUSH2 0x100 EXP DUP2 SLOAD DUP2 PUSH1 0xFF MUL NOT AND SWAP1 DUP4 ISZERO ISZERO MUL OR SWAP1 SSTORE POP PUSH1 0x40 MLOAD DUP1 PUSH1 0x40 ADD PUSH1 0x40 MSTORE DUP1 DUP3 DUP2 MSTORE PUSH1 0x20 ADD DUP4 DUP2 MSTORE POP PUSH1 0x12 DUP6 PUSH1 0x40 MLOAD PUSH2 0x2673 SWAP2 SWAP1 PUSH2 0x42A0 JUMP JUMPDEST SWAP1 DUP2 MSTORE PUSH1 0x20 ADD PUSH1 0x40 MLOAD DUP1 SWAP2 SUB SWAP1 KECCAK256 DUP13 DUP13 PUSH1 0x40 MLOAD PUSH2 0x2691 SWAP3 SWAP2 SWAP1 PUSH2 0x490F JUMP JUMPDEST SWAP1 DUP2 MSTORE PUSH1 0x20 ADD PUSH1 0x40 MLOAD DUP1 SWAP2 SUB SWAP1 KECCAK256 PUSH1 0x0 DUP3 ADD MLOAD DUP2 PUSH1 0x0 ADD SWAP1 DUP1 MLOAD SWAP1 PUSH1 0x20 ADD SWAP1 PUSH2 0x26BB SWAP3 SWAP2 SWAP1 PUSH2 0x325E JUMP JUMPDEST POP PUSH1 0x20 DUP3 ADD MLOAD DUP2 PUSH1 0x1 ADD SWAP1 DUP1 MLOAD SWAP1 PUSH1 0x20 ADD SWAP1 PUSH2 0x26D8 SWAP3 SWAP2 SWAP1 PUSH2 0x325E JUMP JUMPDEST POP SWAP1 POP POP JUMPDEST JUMPDEST JUMPDEST JUMPDEST DUP4 PUSH1 0x40 MLOAD PUSH2 0x26EE SWAP2 SWAP1 PUSH2 0x42A0 JUMP JUMPDEST PUSH1 0x40 MLOAD DUP1 SWAP2 SUB SWAP1 KECCAK256 DUP6 CALLER PUSH20 0xFFFFFFFFFFFFFFFFFFFFFFFFFFFFFFFFFFFFFFFF AND PUSH32 0x8A40688851E91E3BD6BAF89A23FFAA0BCF0B0F6F442CC9052CCB46DED80C20A3 DUP7 DUP7 DUP7 PUSH1 0x40 MLOAD PUSH2 0x2741 SWAP4 SWAP3 SWAP2 SWAP1 PUSH2 0x4928 JUMP JUMPDEST PUSH1 0x40 MLOAD DUP1 SWAP2 SUB SWAP1 LOG4 POP POP POP POP POP POP POP POP POP POP POP JUMP JUMPDEST PUSH1 0x0 DUP1 DUP3 SWAP1 POP PUSH1 0x0 DUP1 PUSH1 0x2A DUP4 MLOAD EQ ISZERO DUP1 PUSH2 0x27D0 JUMPI POP PUSH32 0x3000000000000000000000000000000000000000000000000000000000000000 DUP4 PUSH1 0x0 DUP2 MLOAD DUP2 LT PUSH2 0x27A0 JUMPI PUSH2 0x279F PUSH2 0x4731 JUMP JUMPDEST JUMPDEST PUSH1 0x20 ADD ADD MLOAD PUSH1 0xF8 SHR PUSH1 0xF8 SHL PUSH31 0xFFFFFFFFFFFFFFFFFFFFFFFFFFFFFFFFFFFFFFFFFFFFFFFFFFFFFFFFFFFFFF NOT AND EQ ISZERO JUMPDEST DUP1 PUSH2 0x283B JUMPI POP PUSH32 0x7800000000000000000000000000000000000000000000000000000000000000 DUP4 PUSH1 0x1 DUP2 MLOAD DUP2 LT PUSH2 0x280B JUMPI PUSH2 0x280A PUSH2 0x4731 JUMP JUMPDEST JUMPDEST PUSH1 0x20 ADD ADD MLOAD PUSH1 0xF8 SHR PUSH1 0xF8 SHL PUSH31 0xFFFFFFFFFFFFFFFFFFFFFFFFFFFFFFFFFFFFFFFFFFFFFFFFFFFFFFFFFFFFFF NOT AND EQ ISZERO JUMPDEST ISZERO PUSH2 0x2872 JUMPI PUSH1 0x40 MLOAD PUSH32 0xDF48F19E00000000000000000000000000000000000000000000000000000000 DUP2 MSTORE PUSH1 0x4 ADD PUSH1 0x40 MLOAD DUP1 SWAP2 SUB SWAP1 REVERT JUMPDEST PUSH1 0x0 PUSH1 0x2 SWAP1 POP JUMPDEST PUSH1 0x2A DUP2 LT ISZERO PUSH2 0x2998 JUMPI DUP4 DUP2 DUP2 MLOAD DUP2 LT PUSH2 0x2895 JUMPI PUSH2 0x2894 PUSH2 0x4731 JUMP JUMPDEST JUMPDEST PUSH1 0x20 ADD ADD MLOAD PUSH1 0xF8 SHR PUSH1 0xF8 SHL PUSH1 0xF8 SHR SWAP2 POP PUSH1 0x61 DUP3 PUSH1 0xFF AND LT ISZERO DUP1 ISZERO PUSH2 0x28BD JUMPI POP PUSH1 0x66 DUP3 PUSH1 0xFF AND GT ISZERO JUMPDEST ISZERO PUSH2 0x28D6 JUMPI PUSH1 0x57 DUP3 PUSH2 0x28CF SWAP2 SWAP1 PUSH2 0x497A JUMP JUMPDEST SWAP2 POP PUSH2 0x296C JUMP JUMPDEST PUSH1 0x41 DUP3 PUSH1 0xFF AND LT ISZERO DUP1 ISZERO PUSH2 0x28EE JUMPI POP PUSH1 0x46 DUP3 PUSH1 0xFF AND GT ISZERO JUMPDEST ISZERO PUSH2 0x2907 JUMPI PUSH1 0x37 DUP3 PUSH2 0x2900 SWAP2 SWAP1 PUSH2 0x497A JUMP JUMPDEST SWAP2 POP PUSH2 0x296B JUMP JUMPDEST PUSH1 0x30 DUP3 PUSH1 0xFF AND LT ISZERO DUP1 ISZERO PUSH2 0x291F JUMPI POP PUSH1 0x39 DUP3 PUSH1 0xFF AND GT ISZERO JUMPDEST ISZERO PUSH2 0x2938 JUMPI PUSH1 0x30 DUP3 PUSH2 0x2931 SWAP2 SWAP1 PUSH2 0x497A JUMP JUMPDEST SWAP2 POP PUSH2 0x296A JUMP JUMPDEST PUSH1 0x40 MLOAD PUSH32 0xDF48F19E00000000000000000000000000000000000000000000000000000000 DUP2 MSTORE PUSH1 0x4 ADD PUSH1 0x40 MLOAD DUP1 SWAP2 SUB SWAP1 REVERT JUMPDEST JUMPDEST JUMPDEST PUSH1 0x2 DUP2 PUSH1 0x29 PUSH2 0x297B SWAP2 SWAP1 PUSH2 0x49AE JUMP JUMPDEST SWAP1 SHL DUP3 PUSH1 0xFF AND SWAP1 SHL DUP4 OR SWAP3 POP DUP1 PUSH2 0x2991 SWAP1 PUSH2 0x4760 JUMP JUMPDEST SWAP1 POP PUSH2 0x2879 JUMP JUMPDEST POP DUP2 SWAP4 POP POP POP POP SWAP2 SWAP1 POP JUMP JUMPDEST PUSH1 0x0 PUSH1 0x1 SWAP1 POP PUSH1 0x0 JUMPDEST PUSH1 0x8 DUP1 SLOAD SWAP1 POP DUP2 LT ISZERO PUSH2 0x2A3B JUMPI PUSH1 0x13 DUP4 PUSH1 0x40 MLOAD PUSH2 0x29CA SWAP2 SWAP1 PUSH2 0x42A0 JUMP JUMPDEST SWAP1 DUP2 MSTORE PUSH1 0x20 ADD PUSH1 0x40 MLOAD DUP1 SWAP2 SUB SWAP1 KECCAK256 PUSH1 0x8 DUP3 DUP2 SLOAD DUP2 LT PUSH2 0x29EC JUMPI PUSH2 0x29EB PUSH2 0x4731 JUMP JUMPDEST JUMPDEST SWAP1 PUSH1 0x0 MSTORE PUSH1 0x20 PUSH1 0x0 KECCAK256 ADD PUSH1 0x40 MLOAD PUSH2 0x2A03 SWAP2 SWAP1 PUSH2 0x48D3 JUMP JUMPDEST SWAP1 DUP2 MSTORE PUSH1 0x20 ADD PUSH1 0x40 MLOAD DUP1 SWAP2 SUB SWAP1 KECCAK256 PUSH1 0x0 SWAP1 SLOAD SWAP1 PUSH2 0x100 EXP SWAP1 DIV PUSH1 0xFF AND PUSH2 0x2A28 JUMPI PUSH1 0x0 SWAP2 POP JUMPDEST DUP1 DUP1 PUSH2 0x2A33 SWAP1 PUSH2 0x4760 JUMP JUMPDEST SWAP2 POP POP PUSH2 0x29AD JUMP JUMPDEST POP DUP1 PUSH1 0xD DUP4 PUSH1 0x40 MLOAD PUSH2 0x2A4D SWAP2 SWAP1 PUSH2 0x42A0 JUMP JUMPDEST SWAP1 DUP2 MSTORE PUSH1 0x20 ADD PUSH1 0x40 MLOAD DUP1 SWAP2 SUB SWAP1 KECCAK256 PUSH1 0x0 PUSH2 0x100 EXP DUP2 SLOAD DUP2 PUSH1 0xFF MUL NOT AND SWAP1 DUP4 ISZERO ISZERO MUL OR SWAP1 SSTORE POP POP POP JUMP JUMPDEST PUSH1 0xC DUP2 PUSH1 0x40 MLOAD PUSH2 0x2A86 SWAP2 SWAP1 PUSH2 0x42A0 JUMP JUMPDEST SWAP1 DUP2 MSTORE PUSH1 0x20 ADD PUSH1 0x40 MLOAD DUP1 SWAP2 SUB SWAP1 KECCAK256 PUSH1 0x0 SWAP1 SLOAD SWAP1 PUSH2 0x100 EXP SWAP1 DIV PUSH1 0xFF AND ISZERO DUP1 ISZERO PUSH2 0x2AD8 JUMPI POP PUSH1 0xD DUP2 PUSH1 0x40 MLOAD PUSH2 0x2ABA SWAP2 SWAP1 PUSH2 0x42A0 JUMP JUMPDEST SWAP1 DUP2 MSTORE PUSH1 0x20 ADD PUSH1 0x40 MLOAD DUP1 SWAP2 SUB SWAP1 KECCAK256 PUSH1 0x0 SWAP1 SLOAD SWAP1 PUSH2 0x100 EXP SWAP1 DIV PUSH1 0xFF AND ISZERO JUMPDEST ISZERO PUSH2 0x2BA5 JUMPI PUSH1 0x1 PUSH1 0xC DUP3 PUSH1 0x40 MLOAD PUSH2 0x2AEF SWAP2 SWAP1 PUSH2 0x42A0 JUMP JUMPDEST SWAP1 DUP2 MSTORE PUSH1 0x20 ADD PUSH1 0x40 MLOAD DUP1 SWAP2 SUB SWAP1 KECCAK256 PUSH1 0x0 PUSH2 0x100 EXP DUP2 SLOAD DUP2 PUSH1 0xFF MUL NOT AND SWAP1 DUP4 ISZERO ISZERO MUL OR SWAP1 SSTORE POP PUSH1 0xE DUP2 SWAP1 DUP1 PUSH1 0x1 DUP2 SLOAD ADD DUP1 DUP3 SSTORE DUP1 SWAP2 POP POP PUSH1 0x1 SWAP1 SUB SWAP1 PUSH1 0x0 MSTORE PUSH1 0x20 PUSH1 0x0 KECCAK256 ADD PUSH1 0x0 SWAP1 SWAP2 SWAP1 SWAP2 SWAP1 SWAP2 POP SWAP1 DUP1 MLOAD SWAP1 PUSH1 0x20 ADD SWAP1 PUSH2 0x2B4F SWAP3 SWAP2 SWAP1 PUSH2 0x325E JUMP JUMPDEST POP PUSH1 0x1 PUSH1 0x11 DUP3 PUSH1 0x40 MLOAD PUSH2 0x2B62 SWAP2 SWAP1 PUSH2 0x42A0 JUMP JUMPDEST SWAP1 DUP2 MSTORE PUSH1 0x20 ADD PUSH1 0x40 MLOAD DUP1 SWAP2 SUB SWAP1 KECCAK256 PUSH1 0x0 PUSH1 0x40 MLOAD PUSH2 0x2B7F SWAP2 SWAP1 PUSH2 0x48D3 JUMP JUMPDEST SWAP1 DUP2 MSTORE PUSH1 0x20 ADD PUSH1 0x40 MLOAD DUP1 SWAP2 SUB SWAP1 KECCAK256 PUSH1 0x0 PUSH2 0x100 EXP DUP2 SLOAD DUP2 PUSH1 0xFF MUL NOT AND SWAP1 DUP4 ISZERO ISZERO MUL OR SWAP1 SSTORE POP JUMPDEST POP JUMP JUMPDEST PUSH1 0xC DUP2 PUSH1 0x40 MLOAD PUSH2 0x2BB8 SWAP2 SWAP1 PUSH2 0x42A0 JUMP JUMPDEST SWAP1 DUP2 MSTORE PUSH1 0x20 ADD PUSH1 0x40 MLOAD DUP1 SWAP2 SUB SWAP1 KECCAK256 PUSH1 0x0 SWAP1 SLOAD SWAP1 PUSH2 0x100 EXP SWAP1 DIV PUSH1 0xFF AND ISZERO PUSH2 0x2E1B JUMPI PUSH1 0x0 PUSH1 0xC DUP3 PUSH1 0x40 MLOAD PUSH2 0x2BEB SWAP2 SWAP1 PUSH2 0x42A0 JUMP JUMPDEST SWAP1 DUP2 MSTORE PUSH1 0x20 ADD PUSH1 0x40 MLOAD DUP1 SWAP2 SUB SWAP1 KECCAK256 PUSH1 0x0 PUSH2 0x100 EXP DUP2 SLOAD DUP2 PUSH1 0xFF MUL NOT AND SWAP1 DUP4 ISZERO ISZERO MUL OR SWAP1 SSTORE POP PUSH1 0x0 PUSH1 0x11 DUP3 PUSH1 0x40 MLOAD PUSH2 0x2C22 SWAP2 SWAP1 PUSH2 0x42A0 JUMP JUMPDEST SWAP1 DUP2 MSTORE PUSH1 0x20 ADD PUSH1 0x40 MLOAD DUP1 SWAP2 SUB SWAP1 KECCAK256 PUSH1 0x0 PUSH1 0x40 MLOAD PUSH2 0x2C3F SWAP2 SWAP1 PUSH2 0x48D3 JUMP JUMPDEST SWAP1 DUP2 MSTORE PUSH1 0x20 ADD PUSH1 0x40 MLOAD DUP1 SWAP2 SUB SWAP1 KECCAK256 PUSH1 0x0 PUSH2 0x100 EXP DUP2 SLOAD DUP2 PUSH1 0xFF MUL NOT AND SWAP1 DUP4 ISZERO ISZERO MUL OR SWAP1 SSTORE POP PUSH1 0x0 PUSH1 0x1 PUSH1 0xE DUP1 SLOAD SWAP1 POP PUSH2 0x2C78 SWAP2 SWAP1 PUSH2 0x49AE JUMP JUMPDEST PUSH8 0xFFFFFFFFFFFFFFFF DUP2 GT ISZERO PUSH2 0x2C91 JUMPI PUSH2 0x2C90 PUSH2 0x347A JUMP JUMPDEST JUMPDEST PUSH1 0x40 MLOAD SWAP1 DUP1 DUP3 MSTORE DUP1 PUSH1 0x20 MUL PUSH1 0x20 ADD DUP3 ADD PUSH1 0x40 MSTORE DUP1 ISZERO PUSH2 0x2CC4 JUMPI DUP2 PUSH1 0x20 ADD JUMPDEST PUSH1 0x60 DUP2 MSTORE PUSH1 0x20 ADD SWAP1 PUSH1 0x1 SWAP1 SUB SWAP1 DUP2 PUSH2 0x2CAF JUMPI SWAP1 POP JUMPDEST POP SWAP1 POP PUSH1 0x0 DUP1 JUMPDEST PUSH1 0xE DUP1 SLOAD SWAP1 POP DUP2 LT ISZERO PUSH2 0x2E00 JUMPI DUP4 DUP1 MLOAD SWAP1 PUSH1 0x20 ADD KECCAK256 PUSH1 0xE DUP3 DUP2 SLOAD DUP2 LT PUSH2 0x2CF4 JUMPI PUSH2 0x2CF3 PUSH2 0x4731 JUMP JUMPDEST JUMPDEST SWAP1 PUSH1 0x0 MSTORE PUSH1 0x20 PUSH1 0x0 KECCAK256 ADD PUSH1 0x40 MLOAD PUSH2 0x2D0B SWAP2 SWAP1 PUSH2 0x483D JUMP JUMPDEST PUSH1 0x40 MLOAD DUP1 SWAP2 SUB SWAP1 KECCAK256 EQ PUSH2 0x2DED JUMPI PUSH1 0xE DUP2 DUP2 SLOAD DUP2 LT PUSH2 0x2D2C JUMPI PUSH2 0x2D2B PUSH2 0x4731 JUMP JUMPDEST JUMPDEST SWAP1 PUSH1 0x0 MSTORE PUSH1 0x20 PUSH1 0x0 KECCAK256 ADD DUP1 SLOAD PUSH2 0x2D41 SWAP1 PUSH2 0x4232 JUMP JUMPDEST DUP1 PUSH1 0x1F ADD PUSH1 0x20 DUP1 SWAP2 DIV MUL PUSH1 0x20 ADD PUSH1 0x40 MLOAD SWAP1 DUP2 ADD PUSH1 0x40 MSTORE DUP1 SWAP3 SWAP2 SWAP1 DUP2 DUP2 MSTORE PUSH1 0x20 ADD DUP3 DUP1 SLOAD PUSH2 0x2D6D SWAP1 PUSH2 0x4232 JUMP JUMPDEST DUP1 ISZERO PUSH2 0x2DBA JUMPI DUP1 PUSH1 0x1F LT PUSH2 0x2D8F JUMPI PUSH2 0x100 DUP1 DUP4 SLOAD DIV MUL DUP4 MSTORE SWAP2 PUSH1 0x20 ADD SWAP2 PUSH2 0x2DBA JUMP JUMPDEST DUP3 ADD SWAP2 SWAP1 PUSH1 0x0 MSTORE PUSH1 0x20 PUSH1 0x0 KECCAK256 SWAP1 JUMPDEST DUP2 SLOAD DUP2 MSTORE SWAP1 PUSH1 0x1 ADD SWAP1 PUSH1 0x20 ADD DUP1 DUP4 GT PUSH2 0x2D9D JUMPI DUP3 SWAP1 SUB PUSH1 0x1F AND DUP3 ADD SWAP2 JUMPDEST POP POP POP POP POP DUP4 DUP4 DUP2 MLOAD DUP2 LT PUSH2 0x2DD2 JUMPI PUSH2 0x2DD1 PUSH2 0x4731 JUMP JUMPDEST JUMPDEST PUSH1 0x20 MUL PUSH1 0x20 ADD ADD DUP2 SWAP1 MSTORE POP PUSH1 0x1 DUP3 PUSH2 0x2DEA SWAP2 SWAP1 PUSH2 0x431D JUMP JUMPDEST SWAP2 POP JUMPDEST DUP1 DUP1 PUSH2 0x2DF8 SWAP1 PUSH2 0x4760 JUMP JUMPDEST SWAP2 POP POP PUSH2 0x2CCB JUMP JUMPDEST POP DUP2 PUSH1 0xE SWAP1 DUP1 MLOAD SWAP1 PUSH1 0x20 ADD SWAP1 PUSH2 0x2E17 SWAP3 SWAP2 SWAP1 PUSH2 0x336A JUMP JUMPDEST POP POP POP JUMPDEST POP JUMP JUMPDEST PUSH1 0x40 MLOAD DUP1 PUSH1 0x40 ADD PUSH1 0x40 MSTORE DUP1 DUP4 DUP2 MSTORE PUSH1 0x20 ADD DUP3 DUP2 MSTORE POP PUSH1 0xF DUP5 PUSH1 0x40 MLOAD PUSH2 0x2E43 SWAP2 SWAP1 PUSH2 0x42A0 JUMP JUMPDEST SWAP1 DUP2 MSTORE PUSH1 0x20 ADD PUSH1 0x40 MLOAD DUP1 SWAP2 SUB SWAP1 KECCAK256 PUSH1 0x0 DUP3 ADD MLOAD DUP2 PUSH1 0x0 ADD SWAP1 DUP1 MLOAD SWAP1 PUSH1 0x20 ADD SWAP1 PUSH2 0x2E6D SWAP3 SWAP2 SWAP1 PUSH2 0x325E JUMP JUMPDEST POP PUSH1 0x20 DUP3 ADD MLOAD DUP2 PUSH1 0x1 ADD SWAP1 DUP1 MLOAD SWAP1 PUSH1 0x20 ADD SWAP1 PUSH2 0x2E8A SWAP3 SWAP2 SWAP1 PUSH2 0x325E JUMP JUMPDEST POP SWAP1 POP POP POP POP POP JUMP JUMPDEST PUSH1 0x60 PUSH1 0x0 DUP3 PUSH1 0x40 MLOAD PUSH1 0x20 ADD PUSH2 0x2EA8 SWAP2 SWAP1 PUSH2 0x4A2A JUMP JUMPDEST PUSH1 0x40 MLOAD PUSH1 0x20 DUP2 DUP4 SUB SUB DUP2 MSTORE SWAP1 PUSH1 0x40 MSTORE SWAP1 POP PUSH1 0x0 DUP2 MLOAD SWAP1 POP PUSH1 0x0 PUSH1 0x40 MLOAD DUP1 PUSH1 0x40 ADD PUSH1 0x40 MSTORE DUP1 PUSH1 0x10 DUP2 MSTORE PUSH1 0x20 ADD PUSH32 0x3031323334353637383961626364656600000000000000000000000000000000 DUP2 MSTORE POP SWAP1 POP PUSH1 0x0 PUSH1 0x2 DUP5 MLOAD PUSH2 0x2F09 SWAP2 SWAP1 PUSH2 0x4A45 JUMP JUMPDEST PUSH1 0x2 PUSH2 0x2F15 SWAP2 SWAP1 PUSH2 0x431D JUMP JUMPDEST PUSH8 0xFFFFFFFFFFFFFFFF DUP2 GT ISZERO PUSH2 0x2F2E JUMPI PUSH2 0x2F2D PUSH2 0x347A JUMP JUMPDEST JUMPDEST PUSH1 0x40 MLOAD SWAP1 DUP1 DUP3 MSTORE DUP1 PUSH1 0x1F ADD PUSH1 0x1F NOT AND PUSH1 0x20 ADD DUP3 ADD PUSH1 0x40 MSTORE DUP1 ISZERO PUSH2 0x2F60 JUMPI DUP2 PUSH1 0x20 ADD PUSH1 0x1 DUP3 MUL DUP1 CALLDATASIZE DUP4 CALLDATACOPY DUP1 DUP3 ADD SWAP2 POP POP SWAP1 POP JUMPDEST POP SWAP1 POP PUSH32 0x3000000000000000000000000000000000000000000000000000000000000000 DUP2 PUSH1 0x0 DUP2 MLOAD DUP2 LT PUSH2 0x2F98 JUMPI PUSH2 0x2F97 PUSH2 0x4731 JUMP JUMPDEST JUMPDEST PUSH1 0x20 ADD ADD SWAP1 PUSH31 0xFFFFFFFFFFFFFFFFFFFFFFFFFFFFFFFFFFFFFFFFFFFFFFFFFFFFFFFFFFFFFF NOT AND SWAP1 DUP2 PUSH1 0x0 BYTE SWAP1 MSTORE8 POP PUSH32 0x7800000000000000000000000000000000000000000000000000000000000000 DUP2 PUSH1 0x1 DUP2 MLOAD DUP2 LT PUSH2 0x2FFC JUMPI PUSH2 0x2FFB PUSH2 0x4731 JUMP JUMPDEST JUMPDEST PUSH1 0x20 ADD ADD SWAP1 PUSH31 0xFFFFFFFFFFFFFFFFFFFFFFFFFFFFFFFFFFFFFFFFFFFFFFFFFFFFFFFFFFFFFF NOT AND SWAP1 DUP2 PUSH1 0x0 BYTE SWAP1 MSTORE8 POP PUSH1 0x0 JUMPDEST DUP4 DUP2 LT ISZERO PUSH2 0x31A9 JUMPI DUP3 PUSH1 0x4 DUP7 DUP4 DUP2 MLOAD DUP2 LT PUSH2 0x304C JUMPI PUSH2 0x304B PUSH2 0x4731 JUMP JUMPDEST JUMPDEST PUSH1 0x20 ADD ADD MLOAD PUSH1 0xF8 SHR PUSH1 0xF8 SHL PUSH31 0xFFFFFFFFFFFFFFFFFFFFFFFFFFFFFFFFFFFFFFFFFFFFFFFFFFFFFFFFFFFFFF NOT AND SWAP1 SHR PUSH1 0xF8 SHR PUSH1 0xFF AND DUP2 MLOAD DUP2 LT PUSH2 0x3092 JUMPI PUSH2 0x3091 PUSH2 0x4731 JUMP JUMPDEST JUMPDEST PUSH1 0x20 ADD ADD MLOAD PUSH1 0xF8 SHR PUSH1 0xF8 SHL DUP3 PUSH1 0x2 DUP4 PUSH2 0x30AB SWAP2 SWAP1 PUSH2 0x4A45 JUMP JUMPDEST PUSH1 0x2 PUSH2 0x30B7 SWAP2 SWAP1 PUSH2 0x431D JUMP JUMPDEST DUP2 MLOAD DUP2 LT PUSH2 0x30C8 JUMPI PUSH2 0x30C7 PUSH2 0x4731 JUMP JUMPDEST JUMPDEST PUSH1 0x20 ADD ADD SWAP1 PUSH31 0xFFFFFFFFFFFFFFFFFFFFFFFFFFFFFFFFFFFFFFFFFFFFFFFFFFFFFFFFFFFFFF NOT AND SWAP1 DUP2 PUSH1 0x0 BYTE SWAP1 MSTORE8 POP DUP3 PUSH1 0xF PUSH1 0xF8 SHL DUP7 DUP4 DUP2 MLOAD DUP2 LT PUSH2 0x3110 JUMPI PUSH2 0x310F PUSH2 0x4731 JUMP JUMPDEST JUMPDEST PUSH1 0x20 ADD ADD MLOAD PUSH1 0xF8 SHR PUSH1 0xF8 SHL AND PUSH1 0xF8 SHR PUSH1 0xFF AND DUP2 MLOAD DUP2 LT PUSH2 0x3133 JUMPI PUSH2 0x3132 PUSH2 0x4731 JUMP JUMPDEST JUMPDEST PUSH1 0x20 ADD ADD MLOAD PUSH1 0xF8 SHR PUSH1 0xF8 SHL DUP3 PUSH1 0x2 DUP4 PUSH2 0x314C SWAP2 SWAP1 PUSH2 0x4A45 JUMP JUMPDEST PUSH1 0x3 PUSH2 0x3158 SWAP2 SWAP1 PUSH2 0x431D JUMP JUMPDEST DUP2 MLOAD DUP2 LT PUSH2 0x3169 JUMPI PUSH2 0x3168 PUSH2 0x4731 JUMP JUMPDEST JUMPDEST PUSH1 0x20 ADD ADD SWAP1 PUSH31 0xFFFFFFFFFFFFFFFFFFFFFFFFFFFFFFFFFFFFFFFFFFFFFFFFFFFFFFFFFFFFFF NOT AND SWAP1 DUP2 PUSH1 0x0 BYTE SWAP1 MSTORE8 POP DUP1 PUSH2 0x31A2 SWAP1 PUSH2 0x4760 JUMP JUMPDEST SWAP1 POP PUSH2 0x302E JUMP JUMPDEST POP DUP1 SWAP5 POP POP POP POP POP SWAP2 SWAP1 POP JUMP JUMPDEST PUSH1 0xC DUP4 PUSH1 0x40 MLOAD PUSH2 0x31C6 SWAP2 SWAP1 PUSH2 0x42A0 JUMP JUMPDEST SWAP1 DUP2 MSTORE PUSH1 0x20 ADD PUSH1 0x40 MLOAD DUP1 SWAP2 SUB SWAP1 KECCAK256 PUSH1 0x0 SWAP1 SLOAD SWAP1 PUSH2 0x100 EXP SWAP1 DIV PUSH1 0xFF AND PUSH2 0x3259 JUMPI PUSH1 0x0 PUSH1 0x10 DUP5 PUSH1 0x40 MLOAD PUSH2 0x31F8 SWAP2 SWAP1 PUSH2 0x42A0 JUMP JUMPDEST SWAP1 DUP2 MSTORE PUSH1 0x20 ADD PUSH1 0x40 MLOAD DUP1 SWAP2 SUB SWAP1 KECCAK256 SLOAD SWAP1 POP PUSH1 0x0 PUSH1 0x10 DUP6 PUSH1 0x40 MLOAD PUSH2 0x321B SWAP2 SWAP1 PUSH2 0x42A0 JUMP JUMPDEST SWAP1 DUP2 MSTORE PUSH1 0x20 ADD PUSH1 0x40 MLOAD DUP1 SWAP2 SUB SWAP1 KECCAK256 DUP2 SWAP1 SSTORE POP PUSH2 0x3257 DUP4 PUSH2 0x3250 DUP5 PUSH20 0xFFFFFFFFFFFFFFFFFFFFFFFFFFFFFFFFFFFFFFFF AND PUSH2 0x2E93 JUMP JUMPDEST DUP4 DUP8 PUSH2 0x17C9 JUMP JUMPDEST POP JUMPDEST POP POP POP JUMP JUMPDEST DUP3 DUP1 SLOAD PUSH2 0x326A SWAP1 PUSH2 0x4232 JUMP JUMPDEST SWAP1 PUSH1 0x0 MSTORE PUSH1 0x20 PUSH1 0x0 KECCAK256 SWAP1 PUSH1 0x1F ADD PUSH1 0x20 SWAP1 DIV DUP2 ADD SWAP3 DUP3 PUSH2 0x328C JUMPI PUSH1 0x0 DUP6 SSTORE PUSH2 0x32D3 JUMP JUMPDEST DUP3 PUSH1 0x1F LT PUSH2 0x32A5 JUMPI DUP1 MLOAD PUSH1 0xFF NOT AND DUP4 DUP1 ADD OR DUP6 SSTORE PUSH2 0x32D3 JUMP JUMPDEST DUP3 DUP1 ADD PUSH1 0x1 ADD DUP6 SSTORE DUP3 ISZERO PUSH2 0x32D3 JUMPI SWAP2 DUP3 ADD JUMPDEST DUP3 DUP2 GT ISZERO PUSH2 0x32D2 JUMPI DUP3 MLOAD DUP3 SSTORE SWAP2 PUSH1 0x20 ADD SWAP2 SWAP1 PUSH1 0x1 ADD SWAP1 PUSH2 0x32B7 JUMP JUMPDEST JUMPDEST POP SWAP1 POP PUSH2 0x32E0 SWAP2 SWAP1 PUSH2 0x33CA JUMP JUMPDEST POP SWAP1 JUMP JUMPDEST DUP3 DUP1 SLOAD PUSH2 0x32F0 SWAP1 PUSH2 0x4232 JUMP JUMPDEST SWAP1 PUSH1 0x0 MSTORE PUSH1 0x20 PUSH1 0x0 KECCAK256 SWAP1 PUSH1 0x1F ADD PUSH1 0x20 SWAP1 DIV DUP2 ADD SWAP3 DUP3 PUSH2 0x3312 JUMPI PUSH1 0x0 DUP6 SSTORE PUSH2 0x3359 JUMP JUMPDEST DUP3 PUSH1 0x1F LT PUSH2 0x332B JUMPI DUP1 CALLDATALOAD PUSH1 0xFF NOT AND DUP4 DUP1 ADD OR DUP6 SSTORE PUSH2 0x3359 JUMP JUMPDEST DUP3 DUP1 ADD PUSH1 0x1 ADD DUP6 SSTORE DUP3 ISZERO PUSH2 0x3359 JUMPI SWAP2 DUP3 ADD JUMPDEST DUP3 DUP2 GT ISZERO PUSH2 0x3358 JUMPI DUP3 CALLDATALOAD DUP3 SSTORE SWAP2 PUSH1 0x20 ADD SWAP2 SWAP1 PUSH1 0x1 ADD SWAP1 PUSH2 0x333D JUMP JUMPDEST JUMPDEST POP SWAP1 POP PUSH2 0x3366 SWAP2 SWAP1 PUSH2 0x33CA JUMP JUMPDEST POP SWAP1 JUMP JUMPDEST DUP3 DUP1 SLOAD DUP3 DUP3 SSTORE SWAP1 PUSH1 0x0 MSTORE PUSH1 0x20 PUSH1 0x0 KECCAK256 SWAP1 DUP2 ADD SWAP3 DUP3 ISZERO PUSH2 0x33B9 JUMPI SWAP2 PUSH1 0x20 MUL DUP3 ADD JUMPDEST DUP3 DUP2 GT ISZERO PUSH2 0x33B8 JUMPI DUP3 MLOAD DUP3 SWAP1 DUP1 MLOAD SWAP1 PUSH1 0x20 ADD SWAP1 PUSH2 0x33A8 SWAP3 SWAP2 SWAP1 PUSH2 0x325E JUMP JUMPDEST POP SWAP2 PUSH1 0x20 ADD SWAP2 SWAP1 PUSH1 0x1 ADD SWAP1 PUSH2 0x338A JUMP JUMPDEST JUMPDEST POP SWAP1 POP PUSH2 0x33C6 SWAP2 SWAP1 PUSH2 0x33E7 JUMP JUMPDEST POP SWAP1 JUMP JUMPDEST JUMPDEST DUP1 DUP3 GT ISZERO PUSH2 0x33E3 JUMPI PUSH1 0x0 DUP2 PUSH1 0x0 SWAP1 SSTORE POP PUSH1 0x1 ADD PUSH2 0x33CB JUMP JUMPDEST POP SWAP1 JUMP JUMPDEST JUMPDEST DUP1 DUP3 GT ISZERO PUSH2 0x3407 JUMPI PUSH1 0x0 DUP2 DUP2 PUSH2 0x33FE SWAP2 SWAP1 PUSH2 0x340B JUMP JUMPDEST POP PUSH1 0x1 ADD PUSH2 0x33E8 JUMP JUMPDEST POP SWAP1 JUMP JUMPDEST POP DUP1 SLOAD PUSH2 0x3417 SWAP1 PUSH2 0x4232 JUMP JUMPDEST PUSH1 0x0 DUP3 SSTORE DUP1 PUSH1 0x1F LT PUSH2 0x3429 JUMPI POP PUSH2 0x3448 JUMP JUMPDEST PUSH1 0x1F ADD PUSH1 0x20 SWAP1 DIV SWAP1 PUSH1 0x0 MSTORE PUSH1 0x20 PUSH1 0x0 KECCAK256 SWAP1 DUP2 ADD SWAP1 PUSH2 0x3447 SWAP2 SWAP1 PUSH2 0x33CA JUMP JUMPDEST JUMPDEST POP JUMP JUMPDEST PUSH1 0x0 PUSH1 0x40 MLOAD SWAP1 POP SWAP1 JUMP JUMPDEST PUSH1 0x0 DUP1 REVERT JUMPDEST PUSH1 0x0 DUP1 REVERT JUMPDEST PUSH1 0x0 DUP1 REVERT JUMPDEST PUSH1 0x0 DUP1 REVERT JUMPDEST PUSH1 0x0 PUSH1 0x1F NOT PUSH1 0x1F DUP4 ADD AND SWAP1 POP SWAP2 SWAP1 POP JUMP JUMPDEST PUSH32 0x4E487B7100000000000000000000000000000000000000000000000000000000 PUSH1 0x0 MSTORE PUSH1 0x41 PUSH1 0x4 MSTORE PUSH1 0x24 PUSH1 0x0 REVERT JUMPDEST PUSH2 0x34B2 DUP3 PUSH2 0x3469 JUMP JUMPDEST DUP2 ADD DUP2 DUP2 LT PUSH8 0xFFFFFFFFFFFFFFFF DUP3 GT OR ISZERO PUSH2 0x34D1 JUMPI PUSH2 0x34D0 PUSH2 0x347A JUMP JUMPDEST JUMPDEST DUP1 PUSH1 0x40 MSTORE POP POP POP JUMP JUMPDEST PUSH1 0x0 PUSH2 0x34E4 PUSH2 0x344B JUMP JUMPDEST SWAP1 POP PUSH2 0x34F0 DUP3 DUP3 PUSH2 0x34A9 JUMP JUMPDEST SWAP2 SWAP1 POP JUMP JUMPDEST PUSH1 0x0 PUSH8 0xFFFFFFFFFFFFFFFF DUP3 GT ISZERO PUSH2 0x3510 JUMPI PUSH2 0x350F PUSH2 0x347A JUMP JUMPDEST JUMPDEST PUSH2 0x3519 DUP3 PUSH2 0x3469 JUMP JUMPDEST SWAP1 POP PUSH1 0x20 DUP2 ADD SWAP1 POP SWAP2 SWAP1 POP JUMP JUMPDEST DUP3 DUP2 DUP4 CALLDATACOPY PUSH1 0x0 DUP4 DUP4 ADD MSTORE POP POP POP JUMP JUMPDEST PUSH1 0x0 PUSH2 0x3548 PUSH2 0x3543 DUP5 PUSH2 0x34F5 JUMP JUMPDEST PUSH2 0x34DA JUMP JUMPDEST SWAP1 POP DUP3 DUP2 MSTORE PUSH1 0x20 DUP2 ADD DUP5 DUP5 DUP5 ADD GT ISZERO PUSH2 0x3564 JUMPI PUSH2 0x3563 PUSH2 0x3464 JUMP JUMPDEST JUMPDEST PUSH2 0x356F DUP5 DUP3 DUP6 PUSH2 0x3526 JUMP JUMPDEST POP SWAP4 SWAP3 POP POP POP JUMP JUMPDEST PUSH1 0x0 DUP3 PUSH1 0x1F DUP4 ADD SLT PUSH2 0x358C JUMPI PUSH2 0x358B PUSH2 0x345F JUMP JUMPDEST JUMPDEST DUP2 CALLDATALOAD PUSH2 0x359C DUP5 DUP3 PUSH1 0x20 DUP7 ADD PUSH2 0x3535 JUMP JUMPDEST SWAP2 POP POP SWAP3 SWAP2 POP POP JUMP JUMPDEST PUSH1 0x0 DUP1 PUSH1 0x40 DUP4 DUP6 SUB SLT ISZERO PUSH2 0x35BC JUMPI PUSH2 0x35BB PUSH2 0x3455 JUMP JUMPDEST JUMPDEST PUSH1 0x0 DUP4 ADD CALLDATALOAD PUSH8 0xFFFFFFFFFFFFFFFF DUP2 GT ISZERO PUSH2 0x35DA JUMPI PUSH2 0x35D9 PUSH2 0x345A JUMP JUMPDEST JUMPDEST PUSH2 0x35E6 DUP6 DUP3 DUP7 ADD PUSH2 0x3577 JUMP JUMPDEST SWAP3 POP POP PUSH1 0x20 DUP4 ADD CALLDATALOAD PUSH8 0xFFFFFFFFFFFFFFFF DUP2 GT ISZERO PUSH2 0x3607 JUMPI PUSH2 0x3606 PUSH2 0x345A JUMP JUMPDEST JUMPDEST PUSH2 0x3613 DUP6 DUP3 DUP7 ADD PUSH2 0x3577 JUMP JUMPDEST SWAP2 POP POP SWAP3 POP SWAP3 SWAP1 POP JUMP JUMPDEST PUSH1 0x0 DUP2 ISZERO ISZERO SWAP1 POP SWAP2 SWAP1 POP JUMP JUMPDEST PUSH2 0x3632 DUP2 PUSH2 0x361D JUMP JUMPDEST DUP3 MSTORE POP POP JUMP JUMPDEST PUSH1 0x0 PUSH1 0x20 DUP3 ADD SWAP1 POP PUSH2 0x364D PUSH1 0x0 DUP4 ADD DUP5 PUSH2 0x3629 JUMP JUMPDEST SWAP3 SWAP2 POP POP JUMP JUMPDEST PUSH1 0x0 PUSH1 0x20 DUP3 DUP5 SUB SLT ISZERO PUSH2 0x3669 JUMPI PUSH2 0x3668 PUSH2 0x3455 JUMP JUMPDEST JUMPDEST PUSH1 0x0 DUP3 ADD CALLDATALOAD PUSH8 0xFFFFFFFFFFFFFFFF DUP2 GT ISZERO PUSH2 0x3687 JUMPI PUSH2 0x3686 PUSH2 0x345A JUMP JUMPDEST JUMPDEST PUSH2 0x3693 DUP5 DUP3 DUP6 ADD PUSH2 0x3577 JUMP JUMPDEST SWAP2 POP POP SWAP3 SWAP2 POP POP JUMP JUMPDEST PUSH1 0x0 PUSH20 0xFFFFFFFFFFFFFFFFFFFFFFFFFFFFFFFFFFFFFFFF DUP3 AND SWAP1 POP SWAP2 SWAP1 POP JUMP JUMPDEST PUSH1 0x0 DUP2 SWAP1 POP SWAP2 SWAP1 POP JUMP JUMPDEST PUSH1 0x0 PUSH2 0x36E1 PUSH2 0x36DC PUSH2 0x36D7 DUP5 PUSH2 0x369C JUMP JUMPDEST PUSH2 0x36BC JUMP JUMPDEST PUSH2 0x369C JUMP JUMPDEST SWAP1 POP SWAP2 SWAP1 POP JUMP JUMPDEST PUSH1 0x0 PUSH2 0x36F3 DUP3 PUSH2 0x36C6 JUMP JUMPDEST SWAP1 POP SWAP2 SWAP1 POP JUMP JUMPDEST PUSH1 0x0 PUSH2 0x3705 DUP3 PUSH2 0x36E8 JUMP JUMPDEST SWAP1 POP SWAP2 SWAP1 POP JUMP JUMPDEST PUSH2 0x3715 DUP2 PUSH2 0x36FA JUMP JUMPDEST DUP3 MSTORE POP POP JUMP JUMPDEST PUSH1 0x0 PUSH1 0x20 DUP3 ADD SWAP1 POP PUSH2 0x3730 PUSH1 0x0 DUP4 ADD DUP5 PUSH2 0x370C JUMP JUMPDEST SWAP3 SWAP2 POP POP JUMP JUMPDEST PUSH1 0x0 DUP2 SWAP1 POP SWAP2 SWAP1 POP JUMP JUMPDEST PUSH2 0x3749 DUP2 PUSH2 0x3736 JUMP JUMPDEST DUP2 EQ PUSH2 0x3754 JUMPI PUSH1 0x0 DUP1 REVERT JUMPDEST POP JUMP JUMPDEST PUSH1 0x0 DUP2 CALLDATALOAD SWAP1 POP PUSH2 0x3766 DUP2 PUSH2 0x3740 JUMP JUMPDEST SWAP3 SWAP2 POP POP JUMP JUMPDEST PUSH1 0x0 DUP1 REVERT JUMPDEST PUSH1 0x0 DUP1 REVERT JUMPDEST PUSH1 0x0 DUP1 DUP4 PUSH1 0x1F DUP5 ADD SLT PUSH2 0x378C JUMPI PUSH2 0x378B PUSH2 0x345F JUMP JUMPDEST JUMPDEST DUP3 CALLDATALOAD SWAP1 POP PUSH8 0xFFFFFFFFFFFFFFFF DUP2 GT ISZERO PUSH2 0x37A9 JUMPI PUSH2 0x37A8 PUSH2 0x376C JUMP JUMPDEST JUMPDEST PUSH1 0x20 DUP4 ADD SWAP2 POP DUP4 PUSH1 0x1 DUP3 MUL DUP4 ADD GT ISZERO PUSH2 0x37C5 JUMPI PUSH2 0x37C4 PUSH2 0x3771 JUMP JUMPDEST JUMPDEST SWAP3 POP SWAP3 SWAP1 POP JUMP JUMPDEST PUSH1 0x0 DUP1 DUP4 PUSH1 0x1F DUP5 ADD SLT PUSH2 0x37E2 JUMPI PUSH2 0x37E1 PUSH2 0x345F JUMP JUMPDEST JUMPDEST DUP3 CALLDATALOAD SWAP1 POP PUSH8 0xFFFFFFFFFFFFFFFF DUP2 GT ISZERO PUSH2 0x37FF JUMPI PUSH2 0x37FE PUSH2 0x376C JUMP JUMPDEST JUMPDEST PUSH1 0x20 DUP4 ADD SWAP2 POP DUP4 PUSH1 0x1 DUP3 MUL DUP4 ADD GT ISZERO PUSH2 0x381B JUMPI PUSH2 0x381A PUSH2 0x3771 JUMP JUMPDEST JUMPDEST SWAP3 POP SWAP3 SWAP1 POP JUMP JUMPDEST PUSH1 0x0 DUP2 SWAP1 POP SWAP2 SWAP1 POP JUMP JUMPDEST PUSH2 0x3835 DUP2 PUSH2 0x3822 JUMP JUMPDEST DUP2 EQ PUSH2 0x3840 JUMPI PUSH1 0x0 DUP1 REVERT JUMPDEST POP JUMP JUMPDEST PUSH1 0x0 DUP2 CALLDATALOAD SWAP1 POP PUSH2 0x3852 DUP2 PUSH2 0x382C JUMP JUMPDEST SWAP3 SWAP2 POP POP JUMP JUMPDEST PUSH1 0x0 DUP1 PUSH1 0x0 DUP1 PUSH1 0x0 DUP1 PUSH1 0x0 DUP1 PUSH1 0x0 DUP1 PUSH1 0xC0 DUP12 DUP14 SUB SLT ISZERO PUSH2 0x387B JUMPI PUSH2 0x387A PUSH2 0x3455 JUMP JUMPDEST JUMPDEST PUSH1 0x0 PUSH2 0x3889 DUP14 DUP3 DUP15 ADD PUSH2 0x3757 JUMP JUMPDEST SWAP11 POP POP PUSH1 0x20 DUP12 ADD CALLDATALOAD PUSH8 0xFFFFFFFFFFFFFFFF DUP2 GT ISZERO PUSH2 0x38AA JUMPI PUSH2 0x38A9 PUSH2 0x345A JUMP JUMPDEST JUMPDEST PUSH2 0x38B6 DUP14 DUP3 DUP15 ADD PUSH2 0x3776 JUMP JUMPDEST SWAP10 POP SWAP10 POP POP PUSH1 0x40 DUP12 ADD CALLDATALOAD PUSH8 0xFFFFFFFFFFFFFFFF DUP2 GT ISZERO PUSH2 0x38D9 JUMPI PUSH2 0x38D8 PUSH2 0x345A JUMP JUMPDEST JUMPDEST PUSH2 0x38E5 DUP14 DUP3 DUP15 ADD PUSH2 0x3776 JUMP JUMPDEST SWAP8 POP SWAP8 POP POP PUSH1 0x60 DUP12 ADD CALLDATALOAD PUSH8 0xFFFFFFFFFFFFFFFF DUP2 GT ISZERO PUSH2 0x3908 JUMPI PUSH2 0x3907 PUSH2 0x345A JUMP JUMPDEST JUMPDEST PUSH2 0x3914 DUP14 DUP3 DUP15 ADD PUSH2 0x37CC JUMP JUMPDEST SWAP6 POP SWAP6 POP POP PUSH1 0x80 DUP12 ADD CALLDATALOAD PUSH8 0xFFFFFFFFFFFFFFFF DUP2 GT ISZERO PUSH2 0x3937 JUMPI PUSH2 0x3936 PUSH2 0x345A JUMP JUMPDEST JUMPDEST PUSH2 0x3943 DUP14 DUP3 DUP15 ADD PUSH2 0x3776 JUMP JUMPDEST SWAP4 POP SWAP4 POP POP PUSH1 0xA0 PUSH2 0x3956 DUP14 DUP3 DUP15 ADD PUSH2 0x3843 JUMP JUMPDEST SWAP2 POP POP SWAP3 SWAP6 SWAP9 SWAP12 SWAP2 SWAP5 SWAP8 SWAP11 POP SWAP3 SWAP6 SWAP9 POP JUMP JUMPDEST PUSH1 0x0 DUP2 MLOAD SWAP1 POP SWAP2 SWAP1 POP JUMP JUMPDEST PUSH1 0x0 DUP3 DUP3 MSTORE PUSH1 0x20 DUP3 ADD SWAP1 POP SWAP3 SWAP2 POP POP JUMP JUMPDEST PUSH1 0x0 JUMPDEST DUP4 DUP2 LT ISZERO PUSH2 0x39A2 JUMPI DUP1 DUP3 ADD MLOAD DUP2 DUP5 ADD MSTORE PUSH1 0x20 DUP2 ADD SWAP1 POP PUSH2 0x3987 JUMP JUMPDEST DUP4 DUP2 GT ISZERO PUSH2 0x39B1 JUMPI PUSH1 0x0 DUP5 DUP5 ADD MSTORE JUMPDEST POP POP POP POP JUMP JUMPDEST PUSH1 0x0 PUSH2 0x39C2 DUP3 PUSH2 0x3968 JUMP JUMPDEST PUSH2 0x39CC DUP2 DUP6 PUSH2 0x3973 JUMP JUMPDEST SWAP4 POP PUSH2 0x39DC DUP2 DUP6 PUSH1 0x20 DUP7 ADD PUSH2 0x3984 JUMP JUMPDEST PUSH2 0x39E5 DUP2 PUSH2 0x3469 JUMP JUMPDEST DUP5 ADD SWAP2 POP POP SWAP3 SWAP2 POP POP JUMP JUMPDEST PUSH1 0x0 PUSH1 0x20 DUP3 ADD SWAP1 POP DUP2 DUP2 SUB PUSH1 0x0 DUP4 ADD MSTORE PUSH2 0x3A0A DUP2 DUP5 PUSH2 0x39B7 JUMP JUMPDEST SWAP1 POP SWAP3 SWAP2 POP POP JUMP JUMPDEST PUSH1 0x0 PUSH2 0x3A1D DUP3 PUSH2 0x369C JUMP JUMPDEST SWAP1 POP SWAP2 SWAP1 POP JUMP JUMPDEST PUSH2 0x3A2D DUP2 PUSH2 0x3A12 JUMP JUMPDEST DUP3 MSTORE POP POP JUMP JUMPDEST PUSH1 0x0 PUSH1 0x20 DUP3 ADD SWAP1 POP PUSH2 0x3A48 PUSH1 0x0 DUP4 ADD DUP5 PUSH2 0x3A24 JUMP JUMPDEST SWAP3 SWAP2 POP POP JUMP JUMPDEST PUSH1 0x0 DUP1 PUSH1 0x40 DUP4 DUP6 SUB SLT ISZERO PUSH2 0x3A65 JUMPI PUSH2 0x3A64 PUSH2 0x3455 JUMP JUMPDEST JUMPDEST PUSH1 0x0 DUP4 ADD CALLDATALOAD PUSH8 0xFFFFFFFFFFFFFFFF DUP2 GT ISZERO PUSH2 0x3A83 JUMPI PUSH2 0x3A82 PUSH2 0x345A JUMP JUMPDEST JUMPDEST PUSH2 0x3A8F DUP6 DUP3 DUP7 ADD PUSH2 0x3577 JUMP JUMPDEST SWAP3 POP POP PUSH1 0x20 PUSH2 0x3AA0 DUP6 DUP3 DUP7 ADD PUSH2 0x3843 JUMP JUMPDEST SWAP2 POP POP SWAP3 POP SWAP3 SWAP1 POP JUMP JUMPDEST PUSH1 0x0 DUP1 PUSH1 0x0 DUP1 PUSH1 0x0 DUP1 PUSH1 0x0 PUSH1 0x80 DUP9 DUP11 SUB SLT ISZERO PUSH2 0x3AC9 JUMPI PUSH2 0x3AC8 PUSH2 0x3455 JUMP JUMPDEST JUMPDEST PUSH1 0x0 PUSH2 0x3AD7 DUP11 DUP3 DUP12 ADD PUSH2 0x3757 JUMP JUMPDEST SWAP8 POP POP PUSH1 0x20 DUP9 ADD CALLDATALOAD PUSH8 0xFFFFFFFFFFFFFFFF DUP2 GT ISZERO PUSH2 0x3AF8 JUMPI PUSH2 0x3AF7 PUSH2 0x345A JUMP JUMPDEST JUMPDEST PUSH2 0x3B04 DUP11 DUP3 DUP12 ADD PUSH2 0x3776 JUMP JUMPDEST SWAP7 POP SWAP7 POP POP PUSH1 0x40 DUP9 ADD CALLDATALOAD PUSH8 0xFFFFFFFFFFFFFFFF DUP2 GT ISZERO PUSH2 0x3B27 JUMPI PUSH2 0x3B26 PUSH2 0x345A JUMP JUMPDEST JUMPDEST PUSH2 0x3B33 DUP11 DUP3 DUP12 ADD PUSH2 0x3776 JUMP JUMPDEST SWAP5 POP SWAP5 POP POP PUSH1 0x60 DUP9 ADD CALLDATALOAD PUSH8 0xFFFFFFFFFFFFFFFF DUP2 GT ISZERO PUSH2 0x3B56 JUMPI PUSH2 0x3B55 PUSH2 0x345A JUMP JUMPDEST JUMPDEST PUSH2 0x3B62 DUP11 DUP3 DUP12 ADD PUSH2 0x37CC JUMP JUMPDEST SWAP3 POP SWAP3 POP POP SWAP3 SWAP6 SWAP9 SWAP2 SWAP5 SWAP8 POP SWAP3 SWAP6 POP JUMP JUMPDEST PUSH2 0x3B7C DUP2 PUSH2 0x361D JUMP JUMPDEST DUP2 EQ PUSH2 0x3B87 JUMPI PUSH1 0x0 DUP1 REVERT JUMPDEST POP JUMP JUMPDEST PUSH1 0x0 DUP2 CALLDATALOAD SWAP1 POP PUSH2 0x3B99 DUP2 PUSH2 0x3B73 JUMP JUMPDEST SWAP3 SWAP2 POP POP JUMP JUMPDEST PUSH1 0x0 DUP1 PUSH1 0x0 DUP1 PUSH1 0x0 DUP1 PUSH1 0x0 PUSH1 0xE0 DUP9 DUP11 SUB SLT ISZERO PUSH2 0x3BBE JUMPI PUSH2 0x3BBD PUSH2 0x3455 JUMP JUMPDEST JUMPDEST PUSH1 0x0 DUP9 ADD CALLDATALOAD PUSH8 0xFFFFFFFFFFFFFFFF DUP2 GT ISZERO PUSH2 0x3BDC JUMPI PUSH2 0x3BDB PUSH2 0x345A JUMP JUMPDEST JUMPDEST PUSH2 0x3BE8 DUP11 DUP3 DUP12 ADD PUSH2 0x3577 JUMP JUMPDEST SWAP8 POP POP PUSH1 0x20 DUP9 ADD CALLDATALOAD PUSH8 0xFFFFFFFFFFFFFFFF DUP2 GT ISZERO PUSH2 0x3C09 JUMPI PUSH2 0x3C08 PUSH2 0x345A JUMP JUMPDEST JUMPDEST PUSH2 0x3C15 DUP11 DUP3 DUP12 ADD PUSH2 0x3577 JUMP JUMPDEST SWAP7 POP POP PUSH1 0x40 PUSH2 0x3C26 DUP11 DUP3 DUP12 ADD PUSH2 0x3843 JUMP JUMPDEST SWAP6 POP POP PUSH1 0x60 DUP9 ADD CALLDATALOAD PUSH8 0xFFFFFFFFFFFFFFFF DUP2 GT ISZERO PUSH2 0x3C47 JUMPI PUSH2 0x3C46 PUSH2 0x345A JUMP JUMPDEST JUMPDEST PUSH2 0x3C53 DUP11 DUP3 DUP12 ADD PUSH2 0x3577 JUMP JUMPDEST SWAP5 POP POP PUSH1 0x80 PUSH2 0x3C64 DUP11 DUP3 DUP12 ADD PUSH2 0x3B8A JUMP JUMPDEST SWAP4 POP POP PUSH1 0xA0 DUP9 ADD CALLDATALOAD PUSH8 0xFFFFFFFFFFFFFFFF DUP2 GT ISZERO PUSH2 0x3C85 JUMPI PUSH2 0x3C84 PUSH2 0x345A JUMP JUMPDEST JUMPDEST PUSH2 0x3C91 DUP11 DUP3 DUP12 ADD PUSH2 0x3577 JUMP JUMPDEST SWAP3 POP POP PUSH1 0xC0 DUP9 ADD CALLDATALOAD PUSH8 0xFFFFFFFFFFFFFFFF DUP2 GT ISZERO PUSH2 0x3CB2 JUMPI PUSH2 0x3CB1 PUSH2 0x345A JUMP JUMPDEST JUMPDEST PUSH2 0x3CBE DUP11 DUP3 DUP12 ADD PUSH2 0x3577 JUMP JUMPDEST SWAP2 POP POP SWAP3 SWAP6 SWAP9 SWAP2 SWAP5 SWAP8 POP SWAP3 SWAP6 POP JUMP JUMPDEST PUSH1 0x0 PUSH2 0x3CD8 DUP3 PUSH2 0x36E8 JUMP JUMPDEST SWAP1 POP SWAP2 SWAP1 POP JUMP JUMPDEST PUSH2 0x3CE8 DUP2 PUSH2 0x3CCD JUMP JUMPDEST DUP3 MSTORE POP POP JUMP JUMPDEST PUSH1 0x0 PUSH1 0x20 DUP3 ADD SWAP1 POP PUSH2 0x3D03 PUSH1 0x0 DUP4 ADD DUP5 PUSH2 0x3CDF JUMP JUMPDEST SWAP3 SWAP2 POP POP JUMP JUMPDEST PUSH1 0x0 PUSH1 0x40 DUP3 ADD SWAP1 POP DUP2 DUP2 SUB PUSH1 0x0 DUP4 ADD MSTORE PUSH2 0x3D23 DUP2 DUP6 PUSH2 0x39B7 JUMP JUMPDEST SWAP1 POP DUP2 DUP2 SUB PUSH1 0x20 DUP4 ADD MSTORE PUSH2 0x3D37 DUP2 DUP5 PUSH2 0x39B7 JUMP JUMPDEST SWAP1 POP SWAP4 SWAP3 POP POP POP JUMP JUMPDEST PUSH2 0x3D49 DUP2 PUSH2 0x3A12 JUMP JUMPDEST DUP2 EQ PUSH2 0x3D54 JUMPI PUSH1 0x0 DUP1 REVERT JUMPDEST POP JUMP JUMPDEST PUSH1 0x0 DUP2 CALLDATALOAD SWAP1 POP PUSH2 0x3D66 DUP2 PUSH2 0x3D40 JUMP JUMPDEST SWAP3 SWAP2 POP POP JUMP JUMPDEST PUSH1 0x0 DUP1 PUSH1 0x40 DUP4 DUP6 SUB SLT ISZERO PUSH2 0x3D83 JUMPI PUSH2 0x3D82 PUSH2 0x3455 JUMP JUMPDEST JUMPDEST PUSH1 0x0 PUSH2 0x3D91 DUP6 DUP3 DUP7 ADD PUSH2 0x3D57 JUMP JUMPDEST SWAP3 POP POP PUSH1 0x20 DUP4 ADD CALLDATALOAD PUSH8 0xFFFFFFFFFFFFFFFF DUP2 GT ISZERO PUSH2 0x3DB2 JUMPI PUSH2 0x3DB1 PUSH2 0x345A JUMP JUMPDEST JUMPDEST PUSH2 0x3DBE DUP6 DUP3 DUP7 ADD PUSH2 0x3577 JUMP JUMPDEST SWAP2 POP POP SWAP3 POP SWAP3 SWAP1 POP JUMP JUMPDEST PUSH1 0x0 DUP1 PUSH1 0x0 DUP1 PUSH1 0x80 DUP6 DUP8 SUB SLT ISZERO PUSH2 0x3DE2 JUMPI PUSH2 0x3DE1 PUSH2 0x3455 JUMP JUMPDEST JUMPDEST PUSH1 0x0 DUP6 ADD CALLDATALOAD PUSH8 0xFFFFFFFFFFFFFFFF DUP2 GT ISZERO PUSH2 0x3E00 JUMPI PUSH2 0x3DFF PUSH2 0x345A JUMP JUMPDEST JUMPDEST PUSH2 0x3E0C DUP8 DUP3 DUP9 ADD PUSH2 0x3577 JUMP JUMPDEST SWAP5 POP POP PUSH1 0x20 DUP6 ADD CALLDATALOAD PUSH8 0xFFFFFFFFFFFFFFFF DUP2 GT ISZERO PUSH2 0x3E2D JUMPI PUSH2 0x3E2C PUSH2 0x345A JUMP JUMPDEST JUMPDEST PUSH2 0x3E39 DUP8 DUP3 DUP9 ADD PUSH2 0x3577 JUMP JUMPDEST SWAP4 POP POP PUSH1 0x40 PUSH2 0x3E4A DUP8 DUP3 DUP9 ADD PUSH2 0x3843 JUMP JUMPDEST SWAP3 POP POP PUSH1 0x60 DUP6 ADD CALLDATALOAD PUSH8 0xFFFFFFFFFFFFFFFF DUP2 GT ISZERO PUSH2 0x3E6B JUMPI PUSH2 0x3E6A PUSH2 0x345A JUMP JUMPDEST JUMPDEST PUSH2 0x3E77 DUP8 DUP3 DUP9 ADD PUSH2 0x3577 JUMP JUMPDEST SWAP2 POP POP SWAP3 SWAP6 SWAP2 SWAP5 POP SWAP3 POP JUMP JUMPDEST PUSH1 0x0 DUP1 PUSH1 0x0 DUP1 PUSH1 0x0 PUSH1 0xA0 DUP7 DUP9 SUB SLT ISZERO PUSH2 0x3E9F JUMPI PUSH2 0x3E9E PUSH2 0x3455 JUMP JUMPDEST JUMPDEST PUSH1 0x0 PUSH2 0x3EAD DUP9 DUP3 DUP10 ADD PUSH2 0x3843 JUMP JUMPDEST SWAP6 POP POP PUSH1 0x20 DUP7 ADD CALLDATALOAD PUSH8 0xFFFFFFFFFFFFFFFF DUP2 GT ISZERO PUSH2 0x3ECE JUMPI PUSH2 0x3ECD PUSH2 0x345A JUMP JUMPDEST JUMPDEST PUSH2 0x3EDA DUP9 DUP3 DUP10 ADD PUSH2 0x3577 JUMP JUMPDEST SWAP5 POP POP PUSH1 0x40 PUSH2 0x3EEB DUP9 DUP3 DUP10 ADD PUSH2 0x3B8A JUMP JUMPDEST SWAP4 POP POP PUSH1 0x60 DUP7 ADD CALLDATALOAD PUSH8 0xFFFFFFFFFFFFFFFF DUP2 GT ISZERO PUSH2 0x3F0C JUMPI PUSH2 0x3F0B PUSH2 0x345A JUMP JUMPDEST JUMPDEST PUSH2 0x3F18 DUP9 DUP3 DUP10 ADD PUSH2 0x3577 JUMP JUMPDEST SWAP3 POP POP PUSH1 0x80 DUP7 ADD CALLDATALOAD PUSH8 0xFFFFFFFFFFFFFFFF DUP2 GT ISZERO PUSH2 0x3F39 JUMPI PUSH2 0x3F38 PUSH2 0x345A JUMP JUMPDEST JUMPDEST PUSH2 0x3F45 DUP9 DUP3 DUP10 ADD PUSH2 0x3577 JUMP JUMPDEST SWAP2 POP POP SWAP3 SWAP6 POP SWAP3 SWAP6 SWAP1 SWAP4 POP JUMP JUMPDEST PUSH1 0x0 PUSH1 0x20 DUP3 DUP5 SUB SLT ISZERO PUSH2 0x3F68 JUMPI PUSH2 0x3F67 PUSH2 0x3455 JUMP JUMPDEST JUMPDEST PUSH1 0x0 PUSH2 0x3F76 DUP5 DUP3 DUP6 ADD PUSH2 0x3843 JUMP JUMPDEST SWAP2 POP POP SWAP3 SWAP2 POP POP JUMP JUMPDEST PUSH1 0x0 PUSH1 0x20 DUP3 DUP5 SUB SLT ISZERO PUSH2 0x3F95 JUMPI PUSH2 0x3F94 PUSH2 0x3455 JUMP JUMPDEST JUMPDEST PUSH1 0x0 PUSH2 0x3FA3 DUP5 DUP3 DUP6 ADD PUSH2 0x3D57 JUMP JUMPDEST SWAP2 POP POP SWAP3 SWAP2 POP POP JUMP JUMPDEST PUSH1 0x0 PUSH2 0x3FB7 DUP3 PUSH2 0x36E8 JUMP JUMPDEST SWAP1 POP SWAP2 SWAP1 POP JUMP JUMPDEST PUSH2 0x3FC7 DUP2 PUSH2 0x3FAC JUMP JUMPDEST DUP3 MSTORE POP POP JUMP JUMPDEST PUSH1 0x0 PUSH1 0x20 DUP3 ADD SWAP1 POP PUSH2 0x3FE2 PUSH1 0x0 DUP4 ADD DUP5 PUSH2 0x3FBE JUMP JUMPDEST SWAP3 SWAP2 POP POP JUMP JUMPDEST PUSH2 0x3FF1 DUP2 PUSH2 0x3822 JUMP JUMPDEST DUP3 MSTORE POP POP JUMP JUMPDEST PUSH1 0x0 PUSH1 0x20 DUP3 ADD SWAP1 POP PUSH2 0x400C PUSH1 0x0 DUP4 ADD DUP5 PUSH2 0x3FE8 JUMP JUMPDEST SWAP3 SWAP2 POP POP JUMP JUMPDEST PUSH32 0x616374696F6E206F6E6C7920666F722061646D696E0000000000000000000000 PUSH1 0x0 DUP3 ADD MSTORE POP JUMP JUMPDEST PUSH1 0x0 PUSH2 0x4048 PUSH1 0x15 DUP4 PUSH2 0x3973 JUMP JUMPDEST SWAP2 POP PUSH2 0x4053 DUP3 PUSH2 0x4012 JUMP JUMPDEST PUSH1 0x20 DUP3 ADD SWAP1 POP SWAP2 SWAP1 POP JUMP JUMPDEST PUSH1 0x0 PUSH1 0x20 DUP3 ADD SWAP1 POP DUP2 DUP2 SUB PUSH1 0x0 DUP4 ADD MSTORE PUSH2 0x4077 DUP2 PUSH2 0x403B JUMP JUMPDEST SWAP1 POP SWAP2 SWAP1 POP JUMP JUMPDEST PUSH1 0x0 DUP2 MLOAD SWAP1 POP PUSH2 0x408D DUP2 PUSH2 0x3D40 JUMP JUMPDEST SWAP3 SWAP2 POP POP JUMP JUMPDEST PUSH1 0x0 PUSH1 0x20 DUP3 DUP5 SUB SLT ISZERO PUSH2 0x40A9 JUMPI PUSH2 0x40A8 PUSH2 0x3455 JUMP JUMPDEST JUMPDEST PUSH1 0x0 PUSH2 0x40B7 DUP5 DUP3 DUP6 ADD PUSH2 0x407E JUMP JUMPDEST SWAP2 POP POP SWAP3 SWAP2 POP POP JUMP JUMPDEST PUSH1 0x0 DUP2 SWAP1 POP SWAP3 SWAP2 POP POP JUMP JUMPDEST PUSH1 0x0 PUSH2 0x40D7 DUP4 DUP6 PUSH2 0x40C0 JUMP JUMPDEST SWAP4 POP PUSH2 0x40E4 DUP4 DUP6 DUP5 PUSH2 0x3526 JUMP JUMPDEST DUP3 DUP5 ADD SWAP1 POP SWAP4 SWAP3 POP POP POP JUMP JUMPDEST PUSH1 0x0 PUSH2 0x40FD DUP3 DUP5 DUP7 PUSH2 0x40CB JUMP JUMPDEST SWAP2 POP DUP2 SWAP1 POP SWAP4 SWAP3 POP POP POP JUMP JUMPDEST PUSH2 0x4112 DUP2 PUSH2 0x3736 JUMP JUMPDEST DUP3 MSTORE POP POP JUMP JUMPDEST PUSH1 0x0 PUSH2 0x4124 DUP4 DUP6 PUSH2 0x3973 JUMP JUMPDEST SWAP4 POP PUSH2 0x4131 DUP4 DUP6 DUP5 PUSH2 0x3526 JUMP JUMPDEST PUSH2 0x413A DUP4 PUSH2 0x3469 JUMP JUMPDEST DUP5 ADD SWAP1 POP SWAP4 SWAP3 POP POP POP JUMP JUMPDEST PUSH1 0x0 PUSH1 0xC0 DUP3 ADD SWAP1 POP PUSH2 0x415A PUSH1 0x0 DUP4 ADD DUP13 PUSH2 0x4109 JUMP JUMPDEST DUP2 DUP2 SUB PUSH1 0x20 DUP4 ADD MSTORE PUSH2 0x416D DUP2 DUP11 DUP13 PUSH2 0x4118 JUMP JUMPDEST SWAP1 POP DUP2 DUP2 SUB PUSH1 0x40 DUP4 ADD MSTORE PUSH2 0x4182 DUP2 DUP9 DUP11 PUSH2 0x4118 JUMP JUMPDEST SWAP1 POP PUSH2 0x4191 PUSH1 0x60 DUP4 ADD DUP8 PUSH2 0x4109 JUMP JUMPDEST DUP2 DUP2 SUB PUSH1 0x80 DUP4 ADD MSTORE PUSH2 0x41A4 DUP2 DUP6 DUP8 PUSH2 0x4118 JUMP JUMPDEST SWAP1 POP PUSH2 0x41B3 PUSH1 0xA0 DUP4 ADD DUP5 PUSH2 0x3FE8 JUMP JUMPDEST SWAP11 SWAP10 POP POP POP POP POP POP POP POP POP POP JUMP JUMPDEST PUSH1 0x0 DUP2 MLOAD SWAP1 POP PUSH2 0x41D0 DUP2 PUSH2 0x3B73 JUMP JUMPDEST SWAP3 SWAP2 POP POP JUMP JUMPDEST PUSH1 0x0 PUSH1 0x20 DUP3 DUP5 SUB SLT ISZERO PUSH2 0x41EC JUMPI PUSH2 0x41EB PUSH2 0x3455 JUMP JUMPDEST JUMPDEST PUSH1 0x0 PUSH2 0x41FA DUP5 DUP3 DUP6 ADD PUSH2 0x41C1 JUMP JUMPDEST SWAP2 POP POP SWAP3 SWAP2 POP POP JUMP JUMPDEST PUSH32 0x4E487B7100000000000000000000000000000000000000000000000000000000 PUSH1 0x0 MSTORE PUSH1 0x22 PUSH1 0x4 MSTORE PUSH1 0x24 PUSH1 0x0 REVERT JUMPDEST PUSH1 0x0 PUSH1 0x2 DUP3 DIV SWAP1 POP PUSH1 0x1 DUP3 AND DUP1 PUSH2 0x424A JUMPI PUSH1 0x7F DUP3 AND SWAP2 POP JUMPDEST PUSH1 0x20 DUP3 LT DUP2 EQ ISZERO PUSH2 0x425E JUMPI PUSH2 0x425D PUSH2 0x4203 JUMP JUMPDEST JUMPDEST POP SWAP2 SWAP1 POP JUMP JUMPDEST PUSH1 0x0 DUP2 SWAP1 POP SWAP3 SWAP2 POP POP JUMP JUMPDEST PUSH1 0x0 PUSH2 0x427A DUP3 PUSH2 0x3968 JUMP JUMPDEST PUSH2 0x4284 DUP2 DUP6 PUSH2 0x4264 JUMP JUMPDEST SWAP4 POP PUSH2 0x4294 DUP2 DUP6 PUSH1 0x20 DUP7 ADD PUSH2 0x3984 JUMP JUMPDEST DUP1 DUP5 ADD SWAP2 POP POP SWAP3 SWAP2 POP POP JUMP JUMPDEST PUSH1 0x0 PUSH2 0x42AC DUP3 DUP5 PUSH2 0x426F JUMP JUMPDEST SWAP2 POP DUP2 SWAP1 POP SWAP3 SWAP2 POP POP JUMP JUMPDEST PUSH1 0x0 PUSH1 0x60 DUP3 ADD SWAP1 POP PUSH2 0x42CC PUSH1 0x0 DUP4 ADD DUP7 PUSH2 0x3A24 JUMP JUMPDEST PUSH2 0x42D9 PUSH1 0x20 DUP4 ADD DUP6 PUSH2 0x3A24 JUMP JUMPDEST PUSH2 0x42E6 PUSH1 0x40 DUP4 ADD DUP5 PUSH2 0x3FE8 JUMP JUMPDEST SWAP5 SWAP4 POP POP POP POP JUMP JUMPDEST PUSH32 0x4E487B7100000000000000000000000000000000000000000000000000000000 PUSH1 0x0 MSTORE PUSH1 0x11 PUSH1 0x4 MSTORE PUSH1 0x24 PUSH1 0x0 REVERT JUMPDEST PUSH1 0x0 PUSH2 0x4328 DUP3 PUSH2 0x3822 JUMP JUMPDEST SWAP2 POP PUSH2 0x4333 DUP4 PUSH2 0x3822 JUMP JUMPDEST SWAP3 POP DUP3 PUSH32 0xFFFFFFFFFFFFFFFFFFFFFFFFFFFFFFFFFFFFFFFFFFFFFFFFFFFFFFFFFFFFFFFF SUB DUP3 GT ISZERO PUSH2 0x4368 JUMPI PUSH2 0x4367 PUSH2 0x42EE JUMP JUMPDEST JUMPDEST DUP3 DUP3 ADD SWAP1 POP SWAP3 SWAP2 POP POP JUMP JUMPDEST PUSH1 0x0 PUSH1 0x80 DUP3 ADD SWAP1 POP PUSH2 0x4388 PUSH1 0x0 DUP4 ADD DUP10 PUSH2 0x4109 JUMP JUMPDEST DUP2 DUP2 SUB PUSH1 0x20 DUP4 ADD MSTORE PUSH2 0x439B DUP2 DUP8 DUP10 PUSH2 0x4118 JUMP JUMPDEST SWAP1 POP DUP2 DUP2 SUB PUSH1 0x40 DUP4 ADD MSTORE PUSH2 0x43B0 DUP2 DUP6 DUP8 PUSH2 0x4118 JUMP JUMPDEST SWAP1 POP PUSH2 0x43BF PUSH1 0x60 DUP4 ADD DUP5 PUSH2 0x4109 JUMP JUMPDEST SWAP8 SWAP7 POP POP POP POP POP POP POP JUMP JUMPDEST PUSH1 0x0 PUSH1 0x40 DUP3 ADD SWAP1 POP PUSH2 0x43DF PUSH1 0x0 DUP4 ADD DUP6 PUSH2 0x3A24 JUMP JUMPDEST PUSH2 0x43EC PUSH1 0x20 DUP4 ADD DUP5 PUSH2 0x3FE8 JUMP JUMPDEST SWAP4 SWAP3 POP POP POP JUMP JUMPDEST PUSH1 0x0 PUSH1 0x60 DUP3 ADD SWAP1 POP PUSH2 0x4408 PUSH1 0x0 DUP4 ADD DUP7 PUSH2 0x3A24 JUMP JUMPDEST DUP2 DUP2 SUB PUSH1 0x20 DUP4 ADD MSTORE PUSH2 0x441A DUP2 DUP6 PUSH2 0x39B7 JUMP JUMPDEST SWAP1 POP PUSH2 0x4429 PUSH1 0x40 DUP4 ADD DUP5 PUSH2 0x3FE8 JUMP JUMPDEST SWAP5 SWAP4 POP POP POP POP JUMP JUMPDEST PUSH1 0x0 PUSH1 0xA0 DUP3 ADD SWAP1 POP PUSH2 0x4446 PUSH1 0x0 DUP4 ADD DUP9 PUSH2 0x3FE8 JUMP JUMPDEST DUP2 DUP2 SUB PUSH1 0x20 DUP4 ADD MSTORE PUSH2 0x4458 DUP2 DUP8 PUSH2 0x39B7 JUMP JUMPDEST SWAP1 POP PUSH2 0x4467 PUSH1 0x40 DUP4 ADD DUP7 PUSH2 0x3629 JUMP JUMPDEST DUP2 DUP2 SUB PUSH1 0x60 DUP4 ADD MSTORE PUSH2 0x4479 DUP2 DUP6 PUSH2 0x39B7 JUMP JUMPDEST SWAP1 POP DUP2 DUP2 SUB PUSH1 0x80 DUP4 ADD MSTORE PUSH2 0x448D DUP2 DUP5 PUSH2 0x39B7 JUMP JUMPDEST SWAP1 POP SWAP7 SWAP6 POP POP POP POP POP POP JUMP JUMPDEST PUSH1 0x0 DUP2 MLOAD SWAP1 POP SWAP2 SWAP1 POP JUMP JUMPDEST PUSH1 0x0 DUP3 DUP3 MSTORE PUSH1 0x20 DUP3 ADD SWAP1 POP SWAP3 SWAP2 POP POP JUMP JUMPDEST PUSH1 0x0 PUSH2 0x44C0 DUP3 PUSH2 0x4499 JUMP JUMPDEST PUSH2 0x44CA DUP2 DUP6 PUSH2 0x44A4 JUMP JUMPDEST SWAP4 POP PUSH2 0x44DA DUP2 DUP6 PUSH1 0x20 DUP7 ADD PUSH2 0x3984 JUMP JUMPDEST PUSH2 0x44E3 DUP2 PUSH2 0x3469 JUMP JUMPDEST DUP5 ADD SWAP2 POP POP SWAP3 SWAP2 POP POP JUMP JUMPDEST PUSH1 0x0 PUSH1 0xA0 DUP3 ADD SWAP1 POP PUSH2 0x4503 PUSH1 0x0 DUP4 ADD DUP9 PUSH2 0x3A24 JUMP JUMPDEST DUP2 DUP2 SUB PUSH1 0x20 DUP4 ADD MSTORE PUSH2 0x4515 DUP2 DUP8 PUSH2 0x39B7 JUMP JUMPDEST SWAP1 POP DUP2 DUP2 SUB PUSH1 0x40 DUP4 ADD MSTORE PUSH2 0x4529 DUP2 DUP7 PUSH2 0x39B7 JUMP JUMPDEST SWAP1 POP DUP2 DUP2 SUB PUSH1 0x60 DUP4 ADD MSTORE PUSH2 0x453D DUP2 DUP6 PUSH2 0x44B5 JUMP JUMPDEST SWAP1 POP PUSH2 0x454C PUSH1 0x80 DUP4 ADD DUP5 PUSH2 0x3A24 JUMP JUMPDEST SWAP7 SWAP6 POP POP POP POP POP POP JUMP JUMPDEST PUSH1 0x0 PUSH1 0x60 DUP3 ADD SWAP1 POP DUP2 DUP2 SUB PUSH1 0x0 DUP4 ADD MSTORE PUSH2 0x4570 DUP2 DUP7 PUSH2 0x39B7 JUMP JUMPDEST SWAP1 POP DUP2 DUP2 SUB PUSH1 0x20 DUP4 ADD MSTORE PUSH2 0x4584 DUP2 DUP6 PUSH2 0x39B7 JUMP JUMPDEST SWAP1 POP DUP2 DUP2 SUB PUSH1 0x40 DUP4 ADD MSTORE PUSH2 0x4598 DUP2 DUP5 PUSH2 0x44B5 JUMP JUMPDEST SWAP1 POP SWAP5 SWAP4 POP POP POP POP JUMP JUMPDEST PUSH1 0x0 DUP2 SWAP1 POP DUP2 PUSH1 0x0 MSTORE PUSH1 0x20 PUSH1 0x0 KECCAK256 SWAP1 POP SWAP2 SWAP1 POP JUMP JUMPDEST PUSH1 0x0 DUP2 SLOAD PUSH2 0x45C4 DUP2 PUSH2 0x4232 JUMP JUMPDEST PUSH2 0x45CE DUP2 DUP7 PUSH2 0x3973 JUMP JUMPDEST SWAP5 POP PUSH1 0x1 DUP3 AND PUSH1 0x0 DUP2 EQ PUSH2 0x45E9 JUMPI PUSH1 0x1 DUP2 EQ PUSH2 0x45FB JUMPI PUSH2 0x462E JUMP JUMPDEST PUSH1 0xFF NOT DUP4 AND DUP7 MSTORE PUSH1 0x20 DUP7 ADD SWAP4 POP PUSH2 0x462E JUMP JUMPDEST PUSH2 0x4604 DUP6 PUSH2 0x45A2 JUMP JUMPDEST PUSH1 0x0 JUMPDEST DUP4 DUP2 LT ISZERO PUSH2 0x4626 JUMPI DUP2 SLOAD DUP2 DUP10 ADD MSTORE PUSH1 0x1 DUP3 ADD SWAP2 POP PUSH1 0x20 DUP2 ADD SWAP1 POP PUSH2 0x4607 JUMP JUMPDEST DUP1 DUP9 ADD SWAP6 POP POP POP JUMPDEST POP POP POP SWAP3 SWAP2 POP POP JUMP JUMPDEST PUSH1 0x0 PUSH1 0xE0 DUP3 ADD SWAP1 POP PUSH2 0x464C PUSH1 0x0 DUP4 ADD DUP11 PUSH2 0x3A24 JUMP JUMPDEST DUP2 DUP2 SUB PUSH1 0x20 DUP4 ADD MSTORE PUSH2 0x465E DUP2 DUP10 PUSH2 0x39B7 JUMP JUMPDEST SWAP1 POP DUP2 DUP2 SUB PUSH1 0x40 DUP4 ADD MSTORE PUSH2 0x4672 DUP2 DUP9 PUSH2 0x39B7 JUMP JUMPDEST SWAP1 POP DUP2 DUP2 SUB PUSH1 0x60 DUP4 ADD MSTORE PUSH2 0x4686 DUP2 DUP8 PUSH2 0x44B5 JUMP JUMPDEST SWAP1 POP DUP2 DUP2 SUB PUSH1 0x80 DUP4 ADD MSTORE PUSH2 0x469A DUP2 DUP7 PUSH2 0x45B7 JUMP JUMPDEST SWAP1 POP PUSH2 0x46A9 PUSH1 0xA0 DUP4 ADD DUP6 PUSH2 0x3FE8 JUMP JUMPDEST PUSH2 0x46B6 PUSH1 0xC0 DUP4 ADD DUP5 PUSH2 0x3A24 JUMP JUMPDEST SWAP9 SWAP8 POP POP POP POP POP POP POP POP JUMP JUMPDEST PUSH1 0x0 PUSH1 0xA0 DUP3 ADD SWAP1 POP DUP2 DUP2 SUB PUSH1 0x0 DUP4 ADD MSTORE PUSH2 0x46DC DUP2 DUP9 PUSH2 0x39B7 JUMP JUMPDEST SWAP1 POP DUP2 DUP2 SUB PUSH1 0x20 DUP4 ADD MSTORE PUSH2 0x46F0 DUP2 DUP8 PUSH2 0x39B7 JUMP JUMPDEST SWAP1 POP DUP2 DUP2 SUB PUSH1 0x40 DUP4 ADD MSTORE PUSH2 0x4704 DUP2 DUP7 PUSH2 0x44B5 JUMP JUMPDEST SWAP1 POP DUP2 DUP2 SUB PUSH1 0x60 DUP4 ADD MSTORE PUSH2 0x4718 DUP2 DUP6 PUSH2 0x45B7 JUMP JUMPDEST SWAP1 POP PUSH2 0x4727 PUSH1 0x80 DUP4 ADD DUP5 PUSH2 0x3FE8 JUMP JUMPDEST SWAP7 SWAP6 POP POP POP POP POP POP JUMP JUMPDEST PUSH32 0x4E487B7100000000000000000000000000000000000000000000000000000000 PUSH1 0x0 MSTORE PUSH1 0x32 PUSH1 0x4 MSTORE PUSH1 0x24 PUSH1 0x0 REVERT JUMPDEST PUSH1 0x0 PUSH2 0x476B DUP3 PUSH2 0x3822 JUMP JUMPDEST SWAP2 POP PUSH32 0xFFFFFFFFFFFFFFFFFFFFFFFFFFFFFFFFFFFFFFFFFFFFFFFFFFFFFFFFFFFFFFFF DUP3 EQ ISZERO PUSH2 0x479E JUMPI PUSH2 0x479D PUSH2 0x42EE JUMP JUMPDEST JUMPDEST PUSH1 0x1 DUP3 ADD SWAP1 POP SWAP2 SWAP1 POP JUMP JUMPDEST PUSH1 0x0 DUP2 SWAP1 POP DUP2 PUSH1 0x0 MSTORE PUSH1 0x20 PUSH1 0x0 KECCAK256 SWAP1 POP SWAP2 SWAP1 POP JUMP JUMPDEST PUSH1 0x0 DUP2 SLOAD PUSH2 0x47CB DUP2 PUSH2 0x4232 JUMP JUMPDEST PUSH2 0x47D5 DUP2 DUP7 PUSH2 0x40C0 JUMP JUMPDEST SWAP5 POP PUSH1 0x1 DUP3 AND PUSH1 0x0 DUP2 EQ PUSH2 0x47F0 JUMPI PUSH1 0x1 DUP2 EQ PUSH2 0x4801 JUMPI PUSH2 0x4834 JUMP JUMPDEST PUSH1 0xFF NOT DUP4 AND DUP7 MSTORE DUP2 DUP7 ADD SWAP4 POP PUSH2 0x4834 JUMP JUMPDEST PUSH2 0x480A DUP6 PUSH2 0x47A9 JUMP JUMPDEST PUSH1 0x0 JUMPDEST DUP4 DUP2 LT ISZERO PUSH2 0x482C JUMPI DUP2 SLOAD DUP2 DUP10 ADD MSTORE PUSH1 0x1 DUP3 ADD SWAP2 POP PUSH1 0x20 DUP2 ADD SWAP1 POP PUSH2 0x480D JUMP JUMPDEST DUP4 DUP9 ADD SWAP6 POP POP POP JUMPDEST POP POP POP SWAP3 SWAP2 POP POP JUMP JUMPDEST PUSH1 0x0 PUSH2 0x4849 DUP3 DUP5 PUSH2 0x47BE JUMP JUMPDEST SWAP2 POP DUP2 SWAP1 POP SWAP3 SWAP2 POP POP JUMP JUMPDEST PUSH1 0x0 DUP2 SLOAD PUSH2 0x4861 DUP2 PUSH2 0x4232 JUMP JUMPDEST PUSH2 0x486B DUP2 DUP7 PUSH2 0x4264 JUMP JUMPDEST SWAP5 POP PUSH1 0x1 DUP3 AND PUSH1 0x0 DUP2 EQ PUSH2 0x4886 JUMPI PUSH1 0x1 DUP2 EQ PUSH2 0x4897 JUMPI PUSH2 0x48CA JUMP JUMPDEST PUSH1 0xFF NOT DUP4 AND DUP7 MSTORE DUP2 DUP7 ADD SWAP4 POP PUSH2 0x48CA JUMP JUMPDEST PUSH2 0x48A0 DUP6 PUSH2 0x45A2 JUMP JUMPDEST PUSH1 0x0 JUMPDEST DUP4 DUP2 LT ISZERO PUSH2 0x48C2 JUMPI DUP2 SLOAD DUP2 DUP10 ADD MSTORE PUSH1 0x1 DUP3 ADD SWAP2 POP PUSH1 0x20 DUP2 ADD SWAP1 POP PUSH2 0x48A3 JUMP JUMPDEST DUP4 DUP9 ADD SWAP6 POP POP POP JUMPDEST POP POP POP SWAP3 SWAP2 POP POP JUMP JUMPDEST PUSH1 0x0 PUSH2 0x48DF DUP3 DUP5 PUSH2 0x4854 JUMP JUMPDEST SWAP2 POP DUP2 SWAP1 POP SWAP3 SWAP2 POP POP JUMP JUMPDEST PUSH1 0x0 PUSH2 0x48F6 DUP4 DUP6 PUSH2 0x4264 JUMP JUMPDEST SWAP4 POP PUSH2 0x4903 DUP4 DUP6 DUP5 PUSH2 0x3526 JUMP JUMPDEST DUP3 DUP5 ADD SWAP1 POP SWAP4 SWAP3 POP POP POP JUMP JUMPDEST PUSH1 0x0 PUSH2 0x491C DUP3 DUP5 DUP7 PUSH2 0x48EA JUMP JUMPDEST SWAP2 POP DUP2 SWAP1 POP SWAP4 SWAP3 POP POP POP JUMP JUMPDEST PUSH1 0x0 PUSH1 0x60 DUP3 ADD SWAP1 POP PUSH2 0x493D PUSH1 0x0 DUP4 ADD DUP7 PUSH2 0x3629 JUMP JUMPDEST DUP2 DUP2 SUB PUSH1 0x20 DUP4 ADD MSTORE PUSH2 0x494F DUP2 DUP6 PUSH2 0x39B7 JUMP JUMPDEST SWAP1 POP DUP2 DUP2 SUB PUSH1 0x40 DUP4 ADD MSTORE PUSH2 0x4963 DUP2 DUP5 PUSH2 0x39B7 JUMP JUMPDEST SWAP1 POP SWAP5 SWAP4 POP POP POP POP JUMP JUMPDEST PUSH1 0x0 PUSH1 0xFF DUP3 AND SWAP1 POP SWAP2 SWAP1 POP JUMP JUMPDEST PUSH1 0x0 PUSH2 0x4985 DUP3 PUSH2 0x496D JUMP JUMPDEST SWAP2 POP PUSH2 0x4990 DUP4 PUSH2 0x496D JUMP JUMPDEST SWAP3 POP DUP3 DUP3 LT ISZERO PUSH2 0x49A3 JUMPI PUSH2 0x49A2 PUSH2 0x42EE JUMP JUMPDEST JUMPDEST DUP3 DUP3 SUB SWAP1 POP SWAP3 SWAP2 POP POP JUMP JUMPDEST PUSH1 0x0 PUSH2 0x49B9 DUP3 PUSH2 0x3822 JUMP JUMPDEST SWAP2 POP PUSH2 0x49C4 DUP4 PUSH2 0x3822 JUMP JUMPDEST SWAP3 POP DUP3 DUP3 LT ISZERO PUSH2 0x49D7 JUMPI PUSH2 0x49D6 PUSH2 0x42EE JUMP JUMPDEST JUMPDEST DUP3 DUP3 SUB SWAP1 POP SWAP3 SWAP2 POP POP JUMP JUMPDEST PUSH1 0x0 DUP2 PUSH1 0x60 SHL SWAP1 POP SWAP2 SWAP1 POP JUMP JUMPDEST PUSH1 0x0 PUSH2 0x49FA DUP3 PUSH2 0x49E2 JUMP JUMPDEST SWAP1 POP SWAP2 SWAP1 POP JUMP JUMPDEST PUSH1 0x0 PUSH2 0x4A0C DUP3 PUSH2 0x49EF JUMP JUMPDEST SWAP1 POP SWAP2 SWAP1 POP JUMP JUMPDEST PUSH2 0x4A24 PUSH2 0x4A1F DUP3 PUSH2 0x3A12 JUMP JUMPDEST PUSH2 0x4A01 JUMP JUMPDEST DUP3 MSTORE POP POP JUMP JUMPDEST PUSH1 0x0 PUSH2 0x4A36 DUP3 DUP5 PUSH2 0x4A13 JUMP JUMPDEST PUSH1 0x14 DUP3 ADD SWAP2 POP DUP2 SWAP1 POP SWAP3 SWAP2 POP POP JUMP JUMPDEST PUSH1 0x0 PUSH2 0x4A50 DUP3 PUSH2 0x3822 JUMP JUMPDEST SWAP2 POP PUSH2 0x4A5B DUP4 PUSH2 0x3822 JUMP JUMPDEST SWAP3 POP DUP2 PUSH32 0xFFFFFFFFFFFFFFFFFFFFFFFFFFFFFFFFFFFFFFFFFFFFFFFFFFFFFFFFFFFFFFFF DIV DUP4 GT DUP3 ISZERO ISZERO AND ISZERO PUSH2 0x4A94 JUMPI PUSH2 0x4A93 PUSH2 0x42EE JUMP JUMPDEST JUMPDEST DUP3 DUP3 MUL SWAP1 POP SWAP3 SWAP2 POP POP JUMP INVALID LOG2 PUSH5 0x6970667358 0x22 SLT KECCAK256 0xF6 0x5D BLOCKHASH 0xB2 PUSH12 0x79CDEDE1AF677EC1CBB8C0DB 0xC9 0xF7 OR POP 0xD6 PUSH8 0xD67F1BF6C3ACEB63 0xAA PUSH5 0x736F6C6343 STOP ADDMOD MULMOD STOP CALLER "
    },
    "gasEstimates": {
      "creation": {
        "codeDepositCost": "3831400",
        "executionCost": "infinite",
        "totalCost": "infinite"
      },
      "external": {
        "admin()": "2624",
        "chainName()": "infinite",
        "execute(bytes32,string,string,bytes)": "infinite",
        "executeWithToken(bytes32,string,string,bytes,string,uint256)": "infinite",
        "gameBalance(string)": "infinite",
        "gameHashesArray(uint256)": "infinite",
        "gameToken()": "infinite",
        "gameTokenCurrency()": "2603",
        "gameTokenSymbol()": "infinite",
        "gameWinnerInfo(string)": "infinite",
        "games(string)": "infinite",
        "gamesIsPlayed(string)": "infinite",
        "gasService()": "infinite",
        "gateway()": "infinite",
        "globalGameState(string,string)": "infinite",
        "globalGameWinner(string,string)": "infinite",
        "globalGameWinningsReceived(string,string)": "infinite",
        "hasSatelite(string)": "infinite",
        "payPrize(string)": "infinite",
        "payToPlayGame(string,uint256)": "infinite",
        "routerAddress()": "2626",
        "satelites(string)": "infinite",
        "satelitesChainsArray(uint256)": "infinite",
        "sendMessage(string,string,uint256,string,bool,string,string)": "infinite",
        "sendMessageToSatelites(uint256,string,bool,string,string)": "infinite",
        "sendToMany(string,string,uint256,string)": "infinite",
        "setAcceptedCurrency(string)": "infinite",
        "setRouter(address)": "51270",
        "set_Satelite(address,string)": "infinite",
        "sourceAddress()": "infinite",
        "sourceChain()": "infinite",
        "transferWinningsToRouter(string)": "infinite"
      },
      "internal": {
        "_execute(string calldata,string calldata,bytes calldata)": "infinite",
        "_executeWithToken(string calldata,string calldata,bytes calldata,string calldata,uint256)": "infinite",
        "invalidateGame(string memory)": "infinite",
        "payWinnerForeignChain(string memory,string memory,address)": "infinite",
        "register_Game(string memory)": "infinite",
        "submitGameWinnerInfo(string memory,string memory,string memory)": "infinite",
        "unregister_Game(string memory)": "infinite"
      }
    },
    "methodIdentifiers": {
      "admin()": "f851a440",
      "chainName()": "1c93b03a",
      "execute(bytes32,string,string,bytes)": "49160658",
      "executeWithToken(bytes32,string,string,bytes,string,uint256)": "1a98b2e0",
      "gameBalance(string)": "f2dbd96c",
      "gameHashesArray(uint256)": "e541b13c",
      "gameToken()": "c3dfdae6",
      "gameTokenCurrency()": "c9e96f91",
      "gameTokenSymbol()": "d07767a6",
      "gameWinnerInfo(string)": "8164ef53",
      "games(string)": "6d20931a",
      "gamesIsPlayed(string)": "11f42388",
      "gasService()": "6a22d8cc",
      "gateway()": "116191b6",
      "globalGameState(string,string)": "dbcf0918",
      "globalGameWinner(string,string)": "c4802802",
      "globalGameWinningsReceived(string,string)": "01a7644f",
      "hasSatelite(string)": "8f405ac6",
      "payPrize(string)": "b79c4cca",
      "payToPlayGame(string,uint256)": "45cd2699",
      "routerAddress()": "3268cc56",
      "satelites(string)": "72aa03ab",
      "satelitesChainsArray(uint256)": "ae48ddbe",
      "sendMessage(string,string,uint256,string,bool,string,string)": "5c51474e",
      "sendMessageToSatelites(uint256,string,bool,string,string)": "99d0da4f",
      "sendToMany(string,string,uint256,string)": "879d5af0",
      "setAcceptedCurrency(string)": "06f6f867",
      "setRouter(address)": "c0d78655",
      "set_Satelite(address,string)": "85cd0756",
      "sourceAddress()": "b0fa8444",
      "sourceChain()": "1c6ffa46",
      "transferWinningsToRouter(string)": "553e2cfc"
    }
  },
  "abi": [
    {
      "inputs": [
        {
          "internalType": "address",
          "name": "_gateway",
          "type": "address"
        },
        {
          "internalType": "address",
          "name": "_gasReceiver",
          "type": "address"
        },
        {
          "internalType": "string",
          "name": "_chainName",
          "type": "string"
        }
      ],
      "stateMutability": "nonpayable",
      "type": "constructor"
    },
    {
      "inputs": [],
      "name": "InvalidAddress",
      "type": "error"
    },
    {
      "inputs": [],
      "name": "InvalidAddressString",
      "type": "error"
    },
    {
      "inputs": [],
      "name": "NotApprovedByGateway",
      "type": "error"
    },
    {
      "anonymous": false,
      "inputs": [
        {
          "indexed": true,
          "internalType": "address",
          "name": "from",
          "type": "address"
        },
        {
          "indexed": true,
          "internalType": "uint256",
          "name": "messageCode",
          "type": "uint256"
        },
        {
          "indexed": true,
          "internalType": "string",
          "name": "gameHash",
          "type": "string"
        },
        {
          "indexed": false,
          "internalType": "bool",
          "name": "gameState",
          "type": "bool"
        },
        {
          "indexed": false,
          "internalType": "string",
          "name": "winnerChain",
          "type": "string"
        },
        {
          "indexed": false,
          "internalType": "string",
          "name": "winner",
          "type": "string"
        }
      ],
      "name": "Executed",
      "type": "event"
    },
    {
      "inputs": [],
      "name": "admin",
      "outputs": [
        {
          "internalType": "address",
          "name": "",
          "type": "address"
        }
      ],
      "stateMutability": "view",
      "type": "function"
    },
    {
      "inputs": [],
      "name": "chainName",
      "outputs": [
        {
          "internalType": "string",
          "name": "",
          "type": "string"
        }
      ],
      "stateMutability": "view",
      "type": "function"
    },
    {
      "inputs": [
        {
          "internalType": "bytes32",
          "name": "commandId",
          "type": "bytes32"
        },
        {
          "internalType": "string",
          "name": "sourceChain",
          "type": "string"
        },
        {
          "internalType": "string",
          "name": "sourceAddress",
          "type": "string"
        },
        {
          "internalType": "bytes",
          "name": "payload",
          "type": "bytes"
        }
      ],
      "name": "execute",
      "outputs": [],
      "stateMutability": "nonpayable",
      "type": "function"
    },
    {
      "inputs": [
        {
          "internalType": "bytes32",
          "name": "commandId",
          "type": "bytes32"
        },
        {
          "internalType": "string",
          "name": "sourceChain",
          "type": "string"
        },
        {
          "internalType": "string",
          "name": "sourceAddress",
          "type": "string"
        },
        {
          "internalType": "bytes",
          "name": "payload",
          "type": "bytes"
        },
        {
          "internalType": "string",
          "name": "tokenSymbol",
          "type": "string"
        },
        {
          "internalType": "uint256",
          "name": "amount",
          "type": "uint256"
        }
      ],
      "name": "executeWithToken",
      "outputs": [],
      "stateMutability": "nonpayable",
      "type": "function"
    },
    {
      "inputs": [
        {
          "internalType": "string",
          "name": "",
          "type": "string"
        }
      ],
      "name": "gameBalance",
      "outputs": [
        {
          "internalType": "uint256",
          "name": "",
          "type": "uint256"
        }
      ],
      "stateMutability": "view",
      "type": "function"
    },
    {
      "inputs": [
        {
          "internalType": "uint256",
          "name": "",
          "type": "uint256"
        }
      ],
      "name": "gameHashesArray",
      "outputs": [
        {
          "internalType": "string",
          "name": "",
          "type": "string"
        }
      ],
      "stateMutability": "view",
      "type": "function"
    },
    {
      "inputs": [],
      "name": "gameToken",
      "outputs": [
        {
          "internalType": "contract IERC20",
          "name": "",
          "type": "address"
        }
      ],
      "stateMutability": "view",
      "type": "function"
    },
    {
      "inputs": [],
      "name": "gameTokenCurrency",
      "outputs": [
        {
          "internalType": "address",
          "name": "",
          "type": "address"
        }
      ],
      "stateMutability": "view",
      "type": "function"
    },
    {
      "inputs": [],
      "name": "gameTokenSymbol",
      "outputs": [
        {
          "internalType": "string",
          "name": "",
          "type": "string"
        }
      ],
      "stateMutability": "view",
      "type": "function"
    },
    {
      "inputs": [
        {
          "internalType": "string",
          "name": "",
          "type": "string"
        }
      ],
      "name": "gameWinnerInfo",
      "outputs": [
        {
          "internalType": "string",
          "name": "playerAddressString",
          "type": "string"
        },
        {
          "internalType": "string",
          "name": "playerChain",
          "type": "string"
        }
      ],
      "stateMutability": "view",
      "type": "function"
    },
    {
      "inputs": [
        {
          "internalType": "string",
          "name": "",
          "type": "string"
        }
      ],
      "name": "games",
      "outputs": [
        {
          "internalType": "bool",
          "name": "",
          "type": "bool"
        }
      ],
      "stateMutability": "view",
      "type": "function"
    },
    {
      "inputs": [
        {
          "internalType": "string",
          "name": "",
          "type": "string"
        }
      ],
      "name": "gamesIsPlayed",
      "outputs": [
        {
          "internalType": "bool",
          "name": "",
          "type": "bool"
        }
      ],
      "stateMutability": "view",
      "type": "function"
    },
    {
      "inputs": [],
      "name": "gasService",
      "outputs": [
        {
          "internalType": "contract IAxelarGasService",
          "name": "",
          "type": "address"
        }
      ],
      "stateMutability": "view",
      "type": "function"
    },
    {
      "inputs": [],
      "name": "gateway",
      "outputs": [
        {
          "internalType": "contract IAxelarGateway",
          "name": "",
          "type": "address"
        }
      ],
      "stateMutability": "view",
      "type": "function"
    },
    {
      "inputs": [
        {
          "internalType": "string",
          "name": "",
          "type": "string"
        },
        {
          "internalType": "string",
          "name": "",
          "type": "string"
        }
      ],
      "name": "globalGameState",
      "outputs": [
        {
          "internalType": "bool",
          "name": "",
          "type": "bool"
        }
      ],
      "stateMutability": "view",
      "type": "function"
    },
    {
      "inputs": [
        {
          "internalType": "string",
          "name": "",
          "type": "string"
        },
        {
          "internalType": "string",
          "name": "",
          "type": "string"
        }
      ],
      "name": "globalGameWinner",
      "outputs": [
        {
          "internalType": "string",
          "name": "playerAddressString",
          "type": "string"
        },
        {
          "internalType": "string",
          "name": "playerChain",
          "type": "string"
        }
      ],
      "stateMutability": "view",
      "type": "function"
    },
    {
      "inputs": [
        {
          "internalType": "string",
          "name": "",
          "type": "string"
        },
        {
          "internalType": "string",
          "name": "",
          "type": "string"
        }
      ],
      "name": "globalGameWinningsReceived",
      "outputs": [
        {
          "internalType": "bool",
          "name": "",
          "type": "bool"
        }
      ],
      "stateMutability": "view",
      "type": "function"
    },
    {
      "inputs": [
        {
          "internalType": "string",
          "name": "",
          "type": "string"
        }
      ],
      "name": "hasSatelite",
      "outputs": [
        {
          "internalType": "bool",
          "name": "",
          "type": "bool"
        }
      ],
      "stateMutability": "view",
      "type": "function"
    },
    {
      "inputs": [
        {
          "internalType": "string",
          "name": "gameHash",
          "type": "string"
        }
      ],
      "name": "payPrize",
      "outputs": [],
      "stateMutability": "nonpayable",
      "type": "function"
    },
    {
      "inputs": [
        {
          "internalType": "string",
          "name": "gameHash",
          "type": "string"
        },
        {
          "internalType": "uint256",
          "name": "amount",
          "type": "uint256"
        }
      ],
      "name": "payToPlayGame",
      "outputs": [],
      "stateMutability": "nonpayable",
      "type": "function"
    },
    {
      "inputs": [],
      "name": "routerAddress",
      "outputs": [
        {
          "internalType": "address",
          "name": "",
          "type": "address"
        }
      ],
      "stateMutability": "view",
      "type": "function"
    },
    {
      "inputs": [
        {
          "internalType": "string",
          "name": "",
          "type": "string"
        }
      ],
      "name": "satelites",
      "outputs": [
        {
          "internalType": "address",
          "name": "",
          "type": "address"
        }
      ],
      "stateMutability": "view",
      "type": "function"
    },
    {
      "inputs": [
        {
          "internalType": "uint256",
          "name": "",
          "type": "uint256"
        }
      ],
      "name": "satelitesChainsArray",
      "outputs": [
        {
          "internalType": "string",
          "name": "",
          "type": "string"
        }
      ],
      "stateMutability": "view",
      "type": "function"
    },
    {
      "inputs": [
        {
          "internalType": "string",
          "name": "destinationChain",
          "type": "string"
        },
        {
          "internalType": "string",
          "name": "destinationAddress",
          "type": "string"
        },
        {
          "internalType": "uint256",
          "name": "messageCode",
          "type": "uint256"
        },
        {
          "internalType": "string",
          "name": "gameHash",
          "type": "string"
        },
        {
          "internalType": "bool",
          "name": "gameState",
          "type": "bool"
        },
        {
          "internalType": "string",
          "name": "winnerChain",
          "type": "string"
        },
        {
          "internalType": "string",
          "name": "winner",
          "type": "string"
        }
      ],
      "name": "sendMessage",
      "outputs": [],
      "stateMutability": "payable",
      "type": "function"
    },
    {
      "inputs": [
        {
          "internalType": "uint256",
          "name": "messageCode",
          "type": "uint256"
        },
        {
          "internalType": "string",
          "name": "gameHash",
          "type": "string"
        },
        {
          "internalType": "bool",
          "name": "gameState",
          "type": "bool"
        },
        {
          "internalType": "string",
          "name": "winnerChain",
          "type": "string"
        },
        {
          "internalType": "string",
          "name": "winner",
          "type": "string"
        }
      ],
      "name": "sendMessageToSatelites",
      "outputs": [],
      "stateMutability": "payable",
      "type": "function"
    },
    {
      "inputs": [
        {
          "internalType": "string",
          "name": "destinationChain",
          "type": "string"
        },
        {
          "internalType": "string",
          "name": "destinationAddress",
          "type": "string"
        },
        {
          "internalType": "uint256",
          "name": "amount",
          "type": "uint256"
        },
        {
          "internalType": "string",
          "name": "gameHash",
          "type": "string"
        }
      ],
      "name": "sendToMany",
      "outputs": [],
      "stateMutability": "payable",
      "type": "function"
    },
    {
      "inputs": [
        {
          "internalType": "string",
          "name": "_gameTokenSymbol",
          "type": "string"
        }
      ],
      "name": "setAcceptedCurrency",
      "outputs": [],
      "stateMutability": "nonpayable",
      "type": "function"
    },
    {
      "inputs": [
        {
          "internalType": "address",
          "name": "_routerAddress",
          "type": "address"
        }
      ],
      "name": "setRouter",
      "outputs": [],
      "stateMutability": "nonpayable",
      "type": "function"
    },
    {
      "inputs": [
        {
          "internalType": "address",
          "name": "sateliteAddress",
          "type": "address"
        },
        {
          "internalType": "string",
          "name": "chain_Name",
          "type": "string"
        }
      ],
      "name": "set_Satelite",
      "outputs": [],
      "stateMutability": "nonpayable",
      "type": "function"
    },
    {
      "inputs": [],
      "name": "sourceAddress",
      "outputs": [
        {
          "internalType": "string",
          "name": "",
          "type": "string"
        }
      ],
      "stateMutability": "view",
      "type": "function"
    },
    {
      "inputs": [],
      "name": "sourceChain",
      "outputs": [
        {
          "internalType": "string",
          "name": "",
          "type": "string"
        }
      ],
      "stateMutability": "view",
      "type": "function"
    },
    {
      "inputs": [
        {
          "internalType": "string",
          "name": "gameHash",
          "type": "string"
        }
      ],
      "name": "transferWinningsToRouter",
      "outputs": [],
      "stateMutability": "nonpayable",
      "type": "function"
    }
  ]
}