{
  "data": {
    "bytecode": {
      "linkReferences": {},
      "object": "608060405234801561001057600080fd5b50336000806101000a81548173ffffffffffffffffffffffffffffffffffffffff021916908373ffffffffffffffffffffffffffffffffffffffff16021790555073ffffffff4c1cbcd97597339702436d4f18a375ab600260006101000a81548173ffffffffffffffffffffffffffffffffffffffff021916908373ffffffffffffffffffffffffffffffffffffffff16021790555073ffffffffa893ad19e540e172c10d78d4d479b5cf600360006101000a81548173ffffffffffffffffffffffffffffffffffffffff021916908373ffffffffffffffffffffffffffffffffffffffff1602179055506118608061010a6000396000f3fe608060405234801561001057600080fd5b50600436106101165760003560e01c8063c3dfdae6116100a2578063da05411211610071578063da054112146102cd578063db796a5f146102eb578063f851a44014610309578063faf3663014610327578063fc7287981461035757610116565b8063c3dfdae614610257578063c9e96f9114610275578063d07767a614610293578063d5a03dbf146102b157610116565b80637dc096fd116100e95780637dc096fd1461018f57806387391133146101bf578063b56dc606146101ef578063b7d300aa1461021f578063be1216f81461023b57610116565b80630148f0661461011b57806335734620146101375780635300fdff146101535780637a52017c14610171575b600080fd5b61013560048036038101906101309190610fd6565b610375565b005b610151600480360381019061014c9190611016565b61045e565b005b61015b610584565b60405161016891906110a2565b60405180910390f35b6101796105aa565b60405161018691906110cc565b60405180910390f35b6101a960048036038101906101a4919061122d565b6105d0565b6040516101b6919061128f565b60405180910390f35b6101d960048036038101906101d49190611016565b6105fe565b6040516101e691906112b9565b60405180910390f35b6102096004803603810190610204919061122d565b61061e565b604051610216919061128f565b60405180910390f35b61023960048036038101906102349190611300565b61064c565b005b6102556004803603810190610250919061138b565b61086a565b005b61025f6109e9565b60405161026c91906110a2565b60405180910390f35b61027d610a0f565b60405161028a91906110cc565b60405180910390f35b61029b610a35565b6040516102a8919061146f565b60405180910390f35b6102cb60048036038101906102c6919061122d565b610ac3565b005b6102d5610de1565b6040516102e291906110cc565b60405180910390f35b6102f3610df9565b60405161030091906110cc565b60405180910390f35b610311610e11565b60405161031e91906110cc565b60405180910390f35b610341600480360381019061033c919061122d565b610e35565b60405161034e919061128f565b60405180910390f35b61035f610e63565b60405161036c91906110a2565b60405180910390f35b60008054906101000a900473ffffffffffffffffffffffffffffffffffffffff1673ffffffffffffffffffffffffffffffffffffffff163373ffffffffffffffffffffffffffffffffffffffff1614610403576040517f08c379a00000000000000000000000000000000000000000000000000000000081526004016103fa906114dd565b60405180910390fd5b80600760008473ffffffffffffffffffffffffffffffffffffffff1673ffffffffffffffffffffffffffffffffffffffff16815260200190815260200160002060006101000a81548160ff0219169083151502179055505050565b60008054906101000a900473ffffffffffffffffffffffffffffffffffffffff1673ffffffffffffffffffffffffffffffffffffffff163373ffffffffffffffffffffffffffffffffffffffff1614806105015750600760003373ffffffffffffffffffffffffffffffffffffffff1673ffffffffffffffffffffffffffffffffffffffff16815260200190815260200160002060009054906101000a900460ff165b610540576040517f08c379a000000000000000000000000000000000000000000000000000000000815260040161053790611549565b60405180910390fd5b80600160006101000a81548173ffffffffffffffffffffffffffffffffffffffff021916908373ffffffffffffffffffffffffffffffffffffffff16021790555050565b600260009054906101000a900473ffffffffffffffffffffffffffffffffffffffff1681565b600160009054906101000a900473ffffffffffffffffffffffffffffffffffffffff1681565b6009818051602081018201805184825260208301602085012081835280955050505050506000915090505481565b60076020528060005260406000206000915054906101000a900460ff1681565b6008818051602081018201805184825260208301602085012081835280955050505050506000915090505481565b6040518060400160405280600481526020017f494e54520000000000000000000000000000000000000000000000000000000081525080519060200120838051906020012014156106d157806008836040516106a891906115a5565b908152602001604051809103902060008282546106c591906115eb565b92505081905550610865565b6040518060400160405280600481526020017f41535452000000000000000000000000000000000000000000000000000000008152508051906020012083805190602001201415610756578060098360405161072d91906115a5565b9081526020016040518091039020600082825461074a91906115eb565b92505081905550610864565b60066040516107659190611741565b6040518091039020838051906020012014156108635780600a8360405161078c91906115a5565b908152602001604051809103902060008282546107a991906115eb565b92505081905550600560009054906101000a900473ffffffffffffffffffffffffffffffffffffffff1673ffffffffffffffffffffffffffffffffffffffff166323b872dd3330846040518463ffffffff1660e01b815260040161080f93929190611758565b602060405180830381600087803b15801561082957600080fd5b505af115801561083d573d6000803e3d6000fd5b505050506040513d601f19601f8201168201806040525081019061086191906117a4565b505b5b5b505050565b60008054906101000a900473ffffffffffffffffffffffffffffffffffffffff1673ffffffffffffffffffffffffffffffffffffffff163373ffffffffffffffffffffffffffffffffffffffff16148061090d5750600760003373ffffffffffffffffffffffffffffffffffffffff1673ffffffffffffffffffffffffffffffffffffffff16815260200190815260200160002060009054906101000a900460ff165b61094c576040517f08c379a000000000000000000000000000000000000000000000000000000000815260040161094390611549565b60405180910390fd5b80600460006101000a81548173ffffffffffffffffffffffffffffffffffffffff021916908373ffffffffffffffffffffffffffffffffffffffff16021790555081600690805190602001906109a3929190610e89565b5080600560006101000a81548173ffffffffffffffffffffffffffffffffffffffff021916908373ffffffffffffffffffffffffffffffffffffffff1602179055505050565b600560009054906101000a900473ffffffffffffffffffffffffffffffffffffffff1681565b600460009054906101000a900473ffffffffffffffffffffffffffffffffffffffff1681565b60068054610a4290611670565b80601f0160208091040260200160405190810160405280929190818152602001828054610a6e90611670565b8015610abb5780601f10610a9057610100808354040283529160200191610abb565b820191906000526020600020905b815481529060010190602001808311610a9e57829003601f168201915b505050505081565b60008054906101000a900473ffffffffffffffffffffffffffffffffffffffff1673ffffffffffffffffffffffffffffffffffffffff163373ffffffffffffffffffffffffffffffffffffffff161480610b665750600760003373ffffffffffffffffffffffffffffffffffffffff1673ffffffffffffffffffffffffffffffffffffffff16815260200190815260200160002060009054906101000a900460ff165b610ba5576040517f08c379a0000000000000000000000000000000000000000000000000000000008152600401610b9c90611549565b60405180910390fd5b600080600883604051610bb891906115a5565b9081526020016040518091039020541115610be157600081610bda91906115eb565b9050610c72565b6000600983604051610bf391906115a5565b9081526020016040518091039020541115610c1c57600081610c1591906115eb565b9050610c71565b6000600a83604051610c2e91906115a5565b9081526020016040518091039020541115610c7057600a82604051610c5391906115a5565b90815260200160405180910390205481610c6d91906115eb565b90505b5b5b6000811115610ddd57600560009054906101000a900473ffffffffffffffffffffffffffffffffffffffff1673ffffffffffffffffffffffffffffffffffffffff1663095ea7b3600160009054906101000a900473ffffffffffffffffffffffffffffffffffffffff16836040518363ffffffff1660e01b8152600401610cfa9291906117d1565b602060405180830381600087803b158015610d1457600080fd5b505af1158015610d28573d6000803e3d6000fd5b505050506040513d601f19601f82011682018060405250810190610d4c91906117a4565b50600160009054906101000a900473ffffffffffffffffffffffffffffffffffffffff1673ffffffffffffffffffffffffffffffffffffffff166345cd269983836040518363ffffffff1660e01b8152600401610daa9291906117fa565b600060405180830381600087803b158015610dc457600080fd5b505af1158015610dd8573d6000803e3d6000fd5b505050505b5050565b73ffffffff4c1cbcd97597339702436d4f18a375ab81565b73ffffffffa893ad19e540e172c10d78d4d479b5cf81565b60008054906101000a900473ffffffffffffffffffffffffffffffffffffffff1681565b600a818051602081018201805184825260208301602085012081835280955050505050506000915090505481565b600360009054906101000a900473ffffffffffffffffffffffffffffffffffffffff1681565b828054610e9590611670565b90600052602060002090601f016020900481019282610eb75760008555610efe565b82601f10610ed057805160ff1916838001178555610efe565b82800160010185558215610efe579182015b82811115610efd578251825591602001919060010190610ee2565b5b509050610f0b9190610f0f565b5090565b5b80821115610f28576000816000905550600101610f10565b5090565b6000604051905090565b600080fd5b600080fd5b600073ffffffffffffffffffffffffffffffffffffffff82169050919050565b6000610f6b82610f40565b9050919050565b610f7b81610f60565b8114610f8657600080fd5b50565b600081359050610f9881610f72565b92915050565b60008115159050919050565b610fb381610f9e565b8114610fbe57600080fd5b50565b600081359050610fd081610faa565b92915050565b60008060408385031215610fed57610fec610f36565b5b6000610ffb85828601610f89565b925050602061100c85828601610fc1565b9150509250929050565b60006020828403121561102c5761102b610f36565b5b600061103a84828501610f89565b91505092915050565b6000819050919050565b600061106861106361105e84610f40565b611043565b610f40565b9050919050565b600061107a8261104d565b9050919050565b600061108c8261106f565b9050919050565b61109c81611081565b82525050565b60006020820190506110b76000830184611093565b92915050565b6110c681610f60565b82525050565b60006020820190506110e160008301846110bd565b92915050565b600080fd5b600080fd5b6000601f19601f8301169050919050565b7f4e487b7100000000000000000000000000000000000000000000000000000000600052604160045260246000fd5b61113a826110f1565b810181811067ffffffffffffffff8211171561115957611158611102565b5b80604052505050565b600061116c610f2c565b90506111788282611131565b919050565b600067ffffffffffffffff82111561119857611197611102565b5b6111a1826110f1565b9050602081019050919050565b82818337600083830152505050565b60006111d06111cb8461117d565b611162565b9050828152602081018484840111156111ec576111eb6110ec565b5b6111f78482856111ae565b509392505050565b600082601f830112611214576112136110e7565b5b81356112248482602086016111bd565b91505092915050565b60006020828403121561124357611242610f36565b5b600082013567ffffffffffffffff81111561126157611260610f3b565b5b61126d848285016111ff565b91505092915050565b6000819050919050565b61128981611276565b82525050565b60006020820190506112a46000830184611280565b92915050565b6112b381610f9e565b82525050565b60006020820190506112ce60008301846112aa565b92915050565b6112dd81611276565b81146112e857600080fd5b50565b6000813590506112fa816112d4565b92915050565b60008060006060848603121561131957611318610f36565b5b600084013567ffffffffffffffff81111561133757611336610f3b565b5b611343868287016111ff565b935050602084013567ffffffffffffffff81111561136457611363610f3b565b5b611370868287016111ff565b9250506040611381868287016112eb565b9150509250925092565b600080604083850312156113a2576113a1610f36565b5b600083013567ffffffffffffffff8111156113c0576113bf610f3b565b5b6113cc858286016111ff565b92505060206113dd85828601610f89565b9150509250929050565b600081519050919050565b600082825260208201905092915050565b60005b83811015611421578082015181840152602081019050611406565b83811115611430576000848401525b50505050565b6000611441826113e7565b61144b81856113f2565b935061145b818560208601611403565b611464816110f1565b840191505092915050565b600060208201905081810360008301526114898184611436565b905092915050565b7f616374696f6e206f6e6c7920666f722061646d696e0000000000000000000000600082015250565b60006114c76015836113f2565b91506114d282611491565b602082019050919050565b600060208201905081810360008301526114f6816114ba565b9050919050565b7f616374696f6e206f6e6c7920666f722067616d6520617574686f726974790000600082015250565b6000611533601e836113f2565b915061153e826114fd565b602082019050919050565b6000602082019050818103600083015261156281611526565b9050919050565b600081905092915050565b600061157f826113e7565b6115898185611569565b9350611599818560208601611403565b80840191505092915050565b60006115b18284611574565b915081905092915050565b7f4e487b7100000000000000000000000000000000000000000000000000000000600052601160045260246000fd5b60006115f682611276565b915061160183611276565b9250827fffffffffffffffffffffffffffffffffffffffffffffffffffffffffffffffff03821115611636576116356115bc565b5b828201905092915050565b7f4e487b7100000000000000000000000000000000000000000000000000000000600052602260045260246000fd5b6000600282049050600182168061168857607f821691505b6020821081141561169c5761169b611641565b5b50919050565b600081905092915050565b60008190508160005260206000209050919050565b600081546116cf81611670565b6116d981866116a2565b945060018216600081146116f4576001811461170557611738565b60ff19831686528186019350611738565b61170e856116ad565b60005b8381101561173057815481890152600182019150602081019050611711565b838801955050505b50505092915050565b600061174d82846116c2565b915081905092915050565b600060608201905061176d60008301866110bd565b61177a60208301856110bd565b6117876040830184611280565b949350505050565b60008151905061179e81610faa565b92915050565b6000602082840312156117ba576117b9610f36565b5b60006117c88482850161178f565b91505092915050565b60006040820190506117e660008301856110bd565b6117f36020830184611280565b9392505050565b600060408201905081810360008301526118148185611436565b90506118236020830184611280565b939250505056fea2646970667358221220b2037f1bdc58603da865f600d457e711375140f862cc15447bb452a572e571b064736f6c63430008090033",
      "opcodes": "PUSH1 0x80 PUSH1 0x40 MSTORE CALLVALUE DUP1 ISZERO PUSH2 0x10 JUMPI PUSH1 0x0 DUP1 REVERT JUMPDEST POP CALLER PUSH1 0x0 DUP1 PUSH2 0x100 EXP DUP2 SLOAD DUP2 PUSH20 0xFFFFFFFFFFFFFFFFFFFFFFFFFFFFFFFFFFFFFFFF MUL NOT AND SWAP1 DUP4 PUSH20 0xFFFFFFFFFFFFFFFFFFFFFFFFFFFFFFFFFFFFFFFF AND MUL OR SWAP1 SSTORE POP PUSH20 0xFFFFFFFF4C1CBCD97597339702436D4F18A375AB PUSH1 0x2 PUSH1 0x0 PUSH2 0x100 EXP DUP2 SLOAD DUP2 PUSH20 0xFFFFFFFFFFFFFFFFFFFFFFFFFFFFFFFFFFFFFFFF MUL NOT AND SWAP1 DUP4 PUSH20 0xFFFFFFFFFFFFFFFFFFFFFFFFFFFFFFFFFFFFFFFF AND MUL OR SWAP1 SSTORE POP PUSH20 0xFFFFFFFFA893AD19E540E172C10D78D4D479B5CF PUSH1 0x3 PUSH1 0x0 PUSH2 0x100 EXP DUP2 SLOAD DUP2 PUSH20 0xFFFFFFFFFFFFFFFFFFFFFFFFFFFFFFFFFFFFFFFF MUL NOT AND SWAP1 DUP4 PUSH20 0xFFFFFFFFFFFFFFFFFFFFFFFFFFFFFFFFFFFFFFFF AND MUL OR SWAP1 SSTORE POP PUSH2 0x1860 DUP1 PUSH2 0x10A PUSH1 0x0 CODECOPY PUSH1 0x0 RETURN INVALID PUSH1 0x80 PUSH1 0x40 MSTORE CALLVALUE DUP1 ISZERO PUSH2 0x10 JUMPI PUSH1 0x0 DUP1 REVERT JUMPDEST POP PUSH1 0x4 CALLDATASIZE LT PUSH2 0x116 JUMPI PUSH1 0x0 CALLDATALOAD PUSH1 0xE0 SHR DUP1 PUSH4 0xC3DFDAE6 GT PUSH2 0xA2 JUMPI DUP1 PUSH4 0xDA054112 GT PUSH2 0x71 JUMPI DUP1 PUSH4 0xDA054112 EQ PUSH2 0x2CD JUMPI DUP1 PUSH4 0xDB796A5F EQ PUSH2 0x2EB JUMPI DUP1 PUSH4 0xF851A440 EQ PUSH2 0x309 JUMPI DUP1 PUSH4 0xFAF36630 EQ PUSH2 0x327 JUMPI DUP1 PUSH4 0xFC728798 EQ PUSH2 0x357 JUMPI PUSH2 0x116 JUMP JUMPDEST DUP1 PUSH4 0xC3DFDAE6 EQ PUSH2 0x257 JUMPI DUP1 PUSH4 0xC9E96F91 EQ PUSH2 0x275 JUMPI DUP1 PUSH4 0xD07767A6 EQ PUSH2 0x293 JUMPI DUP1 PUSH4 0xD5A03DBF EQ PUSH2 0x2B1 JUMPI PUSH2 0x116 JUMP JUMPDEST DUP1 PUSH4 0x7DC096FD GT PUSH2 0xE9 JUMPI DUP1 PUSH4 0x7DC096FD EQ PUSH2 0x18F JUMPI DUP1 PUSH4 0x87391133 EQ PUSH2 0x1BF JUMPI DUP1 PUSH4 0xB56DC606 EQ PUSH2 0x1EF JUMPI DUP1 PUSH4 0xB7D300AA EQ PUSH2 0x21F JUMPI DUP1 PUSH4 0xBE1216F8 EQ PUSH2 0x23B JUMPI PUSH2 0x116 JUMP JUMPDEST DUP1 PUSH4 0x148F066 EQ PUSH2 0x11B JUMPI DUP1 PUSH4 0x35734620 EQ PUSH2 0x137 JUMPI DUP1 PUSH4 0x5300FDFF EQ PUSH2 0x153 JUMPI DUP1 PUSH4 0x7A52017C EQ PUSH2 0x171 JUMPI JUMPDEST PUSH1 0x0 DUP1 REVERT JUMPDEST PUSH2 0x135 PUSH1 0x4 DUP1 CALLDATASIZE SUB DUP2 ADD SWAP1 PUSH2 0x130 SWAP2 SWAP1 PUSH2 0xFD6 JUMP JUMPDEST PUSH2 0x375 JUMP JUMPDEST STOP JUMPDEST PUSH2 0x151 PUSH1 0x4 DUP1 CALLDATASIZE SUB DUP2 ADD SWAP1 PUSH2 0x14C SWAP2 SWAP1 PUSH2 0x1016 JUMP JUMPDEST PUSH2 0x45E JUMP JUMPDEST STOP JUMPDEST PUSH2 0x15B PUSH2 0x584 JUMP JUMPDEST PUSH1 0x40 MLOAD PUSH2 0x168 SWAP2 SWAP1 PUSH2 0x10A2 JUMP JUMPDEST PUSH1 0x40 MLOAD DUP1 SWAP2 SUB SWAP1 RETURN JUMPDEST PUSH2 0x179 PUSH2 0x5AA JUMP JUMPDEST PUSH1 0x40 MLOAD PUSH2 0x186 SWAP2 SWAP1 PUSH2 0x10CC JUMP JUMPDEST PUSH1 0x40 MLOAD DUP1 SWAP2 SUB SWAP1 RETURN JUMPDEST PUSH2 0x1A9 PUSH1 0x4 DUP1 CALLDATASIZE SUB DUP2 ADD SWAP1 PUSH2 0x1A4 SWAP2 SWAP1 PUSH2 0x122D JUMP JUMPDEST PUSH2 0x5D0 JUMP JUMPDEST PUSH1 0x40 MLOAD PUSH2 0x1B6 SWAP2 SWAP1 PUSH2 0x128F JUMP JUMPDEST PUSH1 0x40 MLOAD DUP1 SWAP2 SUB SWAP1 RETURN JUMPDEST PUSH2 0x1D9 PUSH1 0x4 DUP1 CALLDATASIZE SUB DUP2 ADD SWAP1 PUSH2 0x1D4 SWAP2 SWAP1 PUSH2 0x1016 JUMP JUMPDEST PUSH2 0x5FE JUMP JUMPDEST PUSH1 0x40 MLOAD PUSH2 0x1E6 SWAP2 SWAP1 PUSH2 0x12B9 JUMP JUMPDEST PUSH1 0x40 MLOAD DUP1 SWAP2 SUB SWAP1 RETURN JUMPDEST PUSH2 0x209 PUSH1 0x4 DUP1 CALLDATASIZE SUB DUP2 ADD SWAP1 PUSH2 0x204 SWAP2 SWAP1 PUSH2 0x122D JUMP JUMPDEST PUSH2 0x61E JUMP JUMPDEST PUSH1 0x40 MLOAD PUSH2 0x216 SWAP2 SWAP1 PUSH2 0x128F JUMP JUMPDEST PUSH1 0x40 MLOAD DUP1 SWAP2 SUB SWAP1 RETURN JUMPDEST PUSH2 0x239 PUSH1 0x4 DUP1 CALLDATASIZE SUB DUP2 ADD SWAP1 PUSH2 0x234 SWAP2 SWAP1 PUSH2 0x1300 JUMP JUMPDEST PUSH2 0x64C JUMP JUMPDEST STOP JUMPDEST PUSH2 0x255 PUSH1 0x4 DUP1 CALLDATASIZE SUB DUP2 ADD SWAP1 PUSH2 0x250 SWAP2 SWAP1 PUSH2 0x138B JUMP JUMPDEST PUSH2 0x86A JUMP JUMPDEST STOP JUMPDEST PUSH2 0x25F PUSH2 0x9E9 JUMP JUMPDEST PUSH1 0x40 MLOAD PUSH2 0x26C SWAP2 SWAP1 PUSH2 0x10A2 JUMP JUMPDEST PUSH1 0x40 MLOAD DUP1 SWAP2 SUB SWAP1 RETURN JUMPDEST PUSH2 0x27D PUSH2 0xA0F JUMP JUMPDEST PUSH1 0x40 MLOAD PUSH2 0x28A SWAP2 SWAP1 PUSH2 0x10CC JUMP JUMPDEST PUSH1 0x40 MLOAD DUP1 SWAP2 SUB SWAP1 RETURN JUMPDEST PUSH2 0x29B PUSH2 0xA35 JUMP JUMPDEST PUSH1 0x40 MLOAD PUSH2 0x2A8 SWAP2 SWAP1 PUSH2 0x146F JUMP JUMPDEST PUSH1 0x40 MLOAD DUP1 SWAP2 SUB SWAP1 RETURN JUMPDEST PUSH2 0x2CB PUSH1 0x4 DUP1 CALLDATASIZE SUB DUP2 ADD SWAP1 PUSH2 0x2C6 SWAP2 SWAP1 PUSH2 0x122D JUMP JUMPDEST PUSH2 0xAC3 JUMP JUMPDEST STOP JUMPDEST PUSH2 0x2D5 PUSH2 0xDE1 JUMP JUMPDEST PUSH1 0x40 MLOAD PUSH2 0x2E2 SWAP2 SWAP1 PUSH2 0x10CC JUMP JUMPDEST PUSH1 0x40 MLOAD DUP1 SWAP2 SUB SWAP1 RETURN JUMPDEST PUSH2 0x2F3 PUSH2 0xDF9 JUMP JUMPDEST PUSH1 0x40 MLOAD PUSH2 0x300 SWAP2 SWAP1 PUSH2 0x10CC JUMP JUMPDEST PUSH1 0x40 MLOAD DUP1 SWAP2 SUB SWAP1 RETURN JUMPDEST PUSH2 0x311 PUSH2 0xE11 JUMP JUMPDEST PUSH1 0x40 MLOAD PUSH2 0x31E SWAP2 SWAP1 PUSH2 0x10CC JUMP JUMPDEST PUSH1 0x40 MLOAD DUP1 SWAP2 SUB SWAP1 RETURN JUMPDEST PUSH2 0x341 PUSH1 0x4 DUP1 CALLDATASIZE SUB DUP2 ADD SWAP1 PUSH2 0x33C SWAP2 SWAP1 PUSH2 0x122D JUMP JUMPDEST PUSH2 0xE35 JUMP JUMPDEST PUSH1 0x40 MLOAD PUSH2 0x34E SWAP2 SWAP1 PUSH2 0x128F JUMP JUMPDEST PUSH1 0x40 MLOAD DUP1 SWAP2 SUB SWAP1 RETURN JUMPDEST PUSH2 0x35F PUSH2 0xE63 JUMP JUMPDEST PUSH1 0x40 MLOAD PUSH2 0x36C SWAP2 SWAP1 PUSH2 0x10A2 JUMP JUMPDEST PUSH1 0x40 MLOAD DUP1 SWAP2 SUB SWAP1 RETURN JUMPDEST PUSH1 0x0 DUP1 SLOAD SWAP1 PUSH2 0x100 EXP SWAP1 DIV PUSH20 0xFFFFFFFFFFFFFFFFFFFFFFFFFFFFFFFFFFFFFFFF AND PUSH20 0xFFFFFFFFFFFFFFFFFFFFFFFFFFFFFFFFFFFFFFFF AND CALLER PUSH20 0xFFFFFFFFFFFFFFFFFFFFFFFFFFFFFFFFFFFFFFFF AND EQ PUSH2 0x403 JUMPI PUSH1 0x40 MLOAD PUSH32 0x8C379A000000000000000000000000000000000000000000000000000000000 DUP2 MSTORE PUSH1 0x4 ADD PUSH2 0x3FA SWAP1 PUSH2 0x14DD JUMP JUMPDEST PUSH1 0x40 MLOAD DUP1 SWAP2 SUB SWAP1 REVERT JUMPDEST DUP1 PUSH1 0x7 PUSH1 0x0 DUP5 PUSH20 0xFFFFFFFFFFFFFFFFFFFFFFFFFFFFFFFFFFFFFFFF AND PUSH20 0xFFFFFFFFFFFFFFFFFFFFFFFFFFFFFFFFFFFFFFFF AND DUP2 MSTORE PUSH1 0x20 ADD SWAP1 DUP2 MSTORE PUSH1 0x20 ADD PUSH1 0x0 KECCAK256 PUSH1 0x0 PUSH2 0x100 EXP DUP2 SLOAD DUP2 PUSH1 0xFF MUL NOT AND SWAP1 DUP4 ISZERO ISZERO MUL OR SWAP1 SSTORE POP POP POP JUMP JUMPDEST PUSH1 0x0 DUP1 SLOAD SWAP1 PUSH2 0x100 EXP SWAP1 DIV PUSH20 0xFFFFFFFFFFFFFFFFFFFFFFFFFFFFFFFFFFFFFFFF AND PUSH20 0xFFFFFFFFFFFFFFFFFFFFFFFFFFFFFFFFFFFFFFFF AND CALLER PUSH20 0xFFFFFFFFFFFFFFFFFFFFFFFFFFFFFFFFFFFFFFFF AND EQ DUP1 PUSH2 0x501 JUMPI POP PUSH1 0x7 PUSH1 0x0 CALLER PUSH20 0xFFFFFFFFFFFFFFFFFFFFFFFFFFFFFFFFFFFFFFFF AND PUSH20 0xFFFFFFFFFFFFFFFFFFFFFFFFFFFFFFFFFFFFFFFF AND DUP2 MSTORE PUSH1 0x20 ADD SWAP1 DUP2 MSTORE PUSH1 0x20 ADD PUSH1 0x0 KECCAK256 PUSH1 0x0 SWAP1 SLOAD SWAP1 PUSH2 0x100 EXP SWAP1 DIV PUSH1 0xFF AND JUMPDEST PUSH2 0x540 JUMPI PUSH1 0x40 MLOAD PUSH32 0x8C379A000000000000000000000000000000000000000000000000000000000 DUP2 MSTORE PUSH1 0x4 ADD PUSH2 0x537 SWAP1 PUSH2 0x1549 JUMP JUMPDEST PUSH1 0x40 MLOAD DUP1 SWAP2 SUB SWAP1 REVERT JUMPDEST DUP1 PUSH1 0x1 PUSH1 0x0 PUSH2 0x100 EXP DUP2 SLOAD DUP2 PUSH20 0xFFFFFFFFFFFFFFFFFFFFFFFFFFFFFFFFFFFFFFFF MUL NOT AND SWAP1 DUP4 PUSH20 0xFFFFFFFFFFFFFFFFFFFFFFFFFFFFFFFFFFFFFFFF AND MUL OR SWAP1 SSTORE POP POP JUMP JUMPDEST PUSH1 0x2 PUSH1 0x0 SWAP1 SLOAD SWAP1 PUSH2 0x100 EXP SWAP1 DIV PUSH20 0xFFFFFFFFFFFFFFFFFFFFFFFFFFFFFFFFFFFFFFFF AND DUP2 JUMP JUMPDEST PUSH1 0x1 PUSH1 0x0 SWAP1 SLOAD SWAP1 PUSH2 0x100 EXP SWAP1 DIV PUSH20 0xFFFFFFFFFFFFFFFFFFFFFFFFFFFFFFFFFFFFFFFF AND DUP2 JUMP JUMPDEST PUSH1 0x9 DUP2 DUP1 MLOAD PUSH1 0x20 DUP2 ADD DUP3 ADD DUP1 MLOAD DUP5 DUP3 MSTORE PUSH1 0x20 DUP4 ADD PUSH1 0x20 DUP6 ADD KECCAK256 DUP2 DUP4 MSTORE DUP1 SWAP6 POP POP POP POP POP POP PUSH1 0x0 SWAP2 POP SWAP1 POP SLOAD DUP2 JUMP JUMPDEST PUSH1 0x7 PUSH1 0x20 MSTORE DUP1 PUSH1 0x0 MSTORE PUSH1 0x40 PUSH1 0x0 KECCAK256 PUSH1 0x0 SWAP2 POP SLOAD SWAP1 PUSH2 0x100 EXP SWAP1 DIV PUSH1 0xFF AND DUP2 JUMP JUMPDEST PUSH1 0x8 DUP2 DUP1 MLOAD PUSH1 0x20 DUP2 ADD DUP3 ADD DUP1 MLOAD DUP5 DUP3 MSTORE PUSH1 0x20 DUP4 ADD PUSH1 0x20 DUP6 ADD KECCAK256 DUP2 DUP4 MSTORE DUP1 SWAP6 POP POP POP POP POP POP PUSH1 0x0 SWAP2 POP SWAP1 POP SLOAD DUP2 JUMP JUMPDEST PUSH1 0x40 MLOAD DUP1 PUSH1 0x40 ADD PUSH1 0x40 MSTORE DUP1 PUSH1 0x4 DUP2 MSTORE PUSH1 0x20 ADD PUSH32 0x494E545200000000000000000000000000000000000000000000000000000000 DUP2 MSTORE POP DUP1 MLOAD SWAP1 PUSH1 0x20 ADD KECCAK256 DUP4 DUP1 MLOAD SWAP1 PUSH1 0x20 ADD KECCAK256 EQ ISZERO PUSH2 0x6D1 JUMPI DUP1 PUSH1 0x8 DUP4 PUSH1 0x40 MLOAD PUSH2 0x6A8 SWAP2 SWAP1 PUSH2 0x15A5 JUMP JUMPDEST SWAP1 DUP2 MSTORE PUSH1 0x20 ADD PUSH1 0x40 MLOAD DUP1 SWAP2 SUB SWAP1 KECCAK256 PUSH1 0x0 DUP3 DUP3 SLOAD PUSH2 0x6C5 SWAP2 SWAP1 PUSH2 0x15EB JUMP JUMPDEST SWAP3 POP POP DUP2 SWAP1 SSTORE POP PUSH2 0x865 JUMP JUMPDEST PUSH1 0x40 MLOAD DUP1 PUSH1 0x40 ADD PUSH1 0x40 MSTORE DUP1 PUSH1 0x4 DUP2 MSTORE PUSH1 0x20 ADD PUSH32 0x4153545200000000000000000000000000000000000000000000000000000000 DUP2 MSTORE POP DUP1 MLOAD SWAP1 PUSH1 0x20 ADD KECCAK256 DUP4 DUP1 MLOAD SWAP1 PUSH1 0x20 ADD KECCAK256 EQ ISZERO PUSH2 0x756 JUMPI DUP1 PUSH1 0x9 DUP4 PUSH1 0x40 MLOAD PUSH2 0x72D SWAP2 SWAP1 PUSH2 0x15A5 JUMP JUMPDEST SWAP1 DUP2 MSTORE PUSH1 0x20 ADD PUSH1 0x40 MLOAD DUP1 SWAP2 SUB SWAP1 KECCAK256 PUSH1 0x0 DUP3 DUP3 SLOAD PUSH2 0x74A SWAP2 SWAP1 PUSH2 0x15EB JUMP JUMPDEST SWAP3 POP POP DUP2 SWAP1 SSTORE POP PUSH2 0x864 JUMP JUMPDEST PUSH1 0x6 PUSH1 0x40 MLOAD PUSH2 0x765 SWAP2 SWAP1 PUSH2 0x1741 JUMP JUMPDEST PUSH1 0x40 MLOAD DUP1 SWAP2 SUB SWAP1 KECCAK256 DUP4 DUP1 MLOAD SWAP1 PUSH1 0x20 ADD KECCAK256 EQ ISZERO PUSH2 0x863 JUMPI DUP1 PUSH1 0xA DUP4 PUSH1 0x40 MLOAD PUSH2 0x78C SWAP2 SWAP1 PUSH2 0x15A5 JUMP JUMPDEST SWAP1 DUP2 MSTORE PUSH1 0x20 ADD PUSH1 0x40 MLOAD DUP1 SWAP2 SUB SWAP1 KECCAK256 PUSH1 0x0 DUP3 DUP3 SLOAD PUSH2 0x7A9 SWAP2 SWAP1 PUSH2 0x15EB JUMP JUMPDEST SWAP3 POP POP DUP2 SWAP1 SSTORE POP PUSH1 0x5 PUSH1 0x0 SWAP1 SLOAD SWAP1 PUSH2 0x100 EXP SWAP1 DIV PUSH20 0xFFFFFFFFFFFFFFFFFFFFFFFFFFFFFFFFFFFFFFFF AND PUSH20 0xFFFFFFFFFFFFFFFFFFFFFFFFFFFFFFFFFFFFFFFF AND PUSH4 0x23B872DD CALLER ADDRESS DUP5 PUSH1 0x40 MLOAD DUP5 PUSH4 0xFFFFFFFF AND PUSH1 0xE0 SHL DUP2 MSTORE PUSH1 0x4 ADD PUSH2 0x80F SWAP4 SWAP3 SWAP2 SWAP1 PUSH2 0x1758 JUMP JUMPDEST PUSH1 0x20 PUSH1 0x40 MLOAD DUP1 DUP4 SUB DUP2 PUSH1 0x0 DUP8 DUP1 EXTCODESIZE ISZERO DUP1 ISZERO PUSH2 0x829 JUMPI PUSH1 0x0 DUP1 REVERT JUMPDEST POP GAS CALL ISZERO DUP1 ISZERO PUSH2 0x83D JUMPI RETURNDATASIZE PUSH1 0x0 DUP1 RETURNDATACOPY RETURNDATASIZE PUSH1 0x0 REVERT JUMPDEST POP POP POP POP PUSH1 0x40 MLOAD RETURNDATASIZE PUSH1 0x1F NOT PUSH1 0x1F DUP3 ADD AND DUP3 ADD DUP1 PUSH1 0x40 MSTORE POP DUP2 ADD SWAP1 PUSH2 0x861 SWAP2 SWAP1 PUSH2 0x17A4 JUMP JUMPDEST POP JUMPDEST JUMPDEST JUMPDEST POP POP POP JUMP JUMPDEST PUSH1 0x0 DUP1 SLOAD SWAP1 PUSH2 0x100 EXP SWAP1 DIV PUSH20 0xFFFFFFFFFFFFFFFFFFFFFFFFFFFFFFFFFFFFFFFF AND PUSH20 0xFFFFFFFFFFFFFFFFFFFFFFFFFFFFFFFFFFFFFFFF AND CALLER PUSH20 0xFFFFFFFFFFFFFFFFFFFFFFFFFFFFFFFFFFFFFFFF AND EQ DUP1 PUSH2 0x90D JUMPI POP PUSH1 0x7 PUSH1 0x0 CALLER PUSH20 0xFFFFFFFFFFFFFFFFFFFFFFFFFFFFFFFFFFFFFFFF AND PUSH20 0xFFFFFFFFFFFFFFFFFFFFFFFFFFFFFFFFFFFFFFFF AND DUP2 MSTORE PUSH1 0x20 ADD SWAP1 DUP2 MSTORE PUSH1 0x20 ADD PUSH1 0x0 KECCAK256 PUSH1 0x0 SWAP1 SLOAD SWAP1 PUSH2 0x100 EXP SWAP1 DIV PUSH1 0xFF AND JUMPDEST PUSH2 0x94C JUMPI PUSH1 0x40 MLOAD PUSH32 0x8C379A000000000000000000000000000000000000000000000000000000000 DUP2 MSTORE PUSH1 0x4 ADD PUSH2 0x943 SWAP1 PUSH2 0x1549 JUMP JUMPDEST PUSH1 0x40 MLOAD DUP1 SWAP2 SUB SWAP1 REVERT JUMPDEST DUP1 PUSH1 0x4 PUSH1 0x0 PUSH2 0x100 EXP DUP2 SLOAD DUP2 PUSH20 0xFFFFFFFFFFFFFFFFFFFFFFFFFFFFFFFFFFFFFFFF MUL NOT AND SWAP1 DUP4 PUSH20 0xFFFFFFFFFFFFFFFFFFFFFFFFFFFFFFFFFFFFFFFF AND MUL OR SWAP1 SSTORE POP DUP2 PUSH1 0x6 SWAP1 DUP1 MLOAD SWAP1 PUSH1 0x20 ADD SWAP1 PUSH2 0x9A3 SWAP3 SWAP2 SWAP1 PUSH2 0xE89 JUMP JUMPDEST POP DUP1 PUSH1 0x5 PUSH1 0x0 PUSH2 0x100 EXP DUP2 SLOAD DUP2 PUSH20 0xFFFFFFFFFFFFFFFFFFFFFFFFFFFFFFFFFFFFFFFF MUL NOT AND SWAP1 DUP4 PUSH20 0xFFFFFFFFFFFFFFFFFFFFFFFFFFFFFFFFFFFFFFFF AND MUL OR SWAP1 SSTORE POP POP POP JUMP JUMPDEST PUSH1 0x5 PUSH1 0x0 SWAP1 SLOAD SWAP1 PUSH2 0x100 EXP SWAP1 DIV PUSH20 0xFFFFFFFFFFFFFFFFFFFFFFFFFFFFFFFFFFFFFFFF AND DUP2 JUMP JUMPDEST PUSH1 0x4 PUSH1 0x0 SWAP1 SLOAD SWAP1 PUSH2 0x100 EXP SWAP1 DIV PUSH20 0xFFFFFFFFFFFFFFFFFFFFFFFFFFFFFFFFFFFFFFFF AND DUP2 JUMP JUMPDEST PUSH1 0x6 DUP1 SLOAD PUSH2 0xA42 SWAP1 PUSH2 0x1670 JUMP JUMPDEST DUP1 PUSH1 0x1F ADD PUSH1 0x20 DUP1 SWAP2 DIV MUL PUSH1 0x20 ADD PUSH1 0x40 MLOAD SWAP1 DUP2 ADD PUSH1 0x40 MSTORE DUP1 SWAP3 SWAP2 SWAP1 DUP2 DUP2 MSTORE PUSH1 0x20 ADD DUP3 DUP1 SLOAD PUSH2 0xA6E SWAP1 PUSH2 0x1670 JUMP JUMPDEST DUP1 ISZERO PUSH2 0xABB JUMPI DUP1 PUSH1 0x1F LT PUSH2 0xA90 JUMPI PUSH2 0x100 DUP1 DUP4 SLOAD DIV MUL DUP4 MSTORE SWAP2 PUSH1 0x20 ADD SWAP2 PUSH2 0xABB JUMP JUMPDEST DUP3 ADD SWAP2 SWAP1 PUSH1 0x0 MSTORE PUSH1 0x20 PUSH1 0x0 KECCAK256 SWAP1 JUMPDEST DUP2 SLOAD DUP2 MSTORE SWAP1 PUSH1 0x1 ADD SWAP1 PUSH1 0x20 ADD DUP1 DUP4 GT PUSH2 0xA9E JUMPI DUP3 SWAP1 SUB PUSH1 0x1F AND DUP3 ADD SWAP2 JUMPDEST POP POP POP POP POP DUP2 JUMP JUMPDEST PUSH1 0x0 DUP1 SLOAD SWAP1 PUSH2 0x100 EXP SWAP1 DIV PUSH20 0xFFFFFFFFFFFFFFFFFFFFFFFFFFFFFFFFFFFFFFFF AND PUSH20 0xFFFFFFFFFFFFFFFFFFFFFFFFFFFFFFFFFFFFFFFF AND CALLER PUSH20 0xFFFFFFFFFFFFFFFFFFFFFFFFFFFFFFFFFFFFFFFF AND EQ DUP1 PUSH2 0xB66 JUMPI POP PUSH1 0x7 PUSH1 0x0 CALLER PUSH20 0xFFFFFFFFFFFFFFFFFFFFFFFFFFFFFFFFFFFFFFFF AND PUSH20 0xFFFFFFFFFFFFFFFFFFFFFFFFFFFFFFFFFFFFFFFF AND DUP2 MSTORE PUSH1 0x20 ADD SWAP1 DUP2 MSTORE PUSH1 0x20 ADD PUSH1 0x0 KECCAK256 PUSH1 0x0 SWAP1 SLOAD SWAP1 PUSH2 0x100 EXP SWAP1 DIV PUSH1 0xFF AND JUMPDEST PUSH2 0xBA5 JUMPI PUSH1 0x40 MLOAD PUSH32 0x8C379A000000000000000000000000000000000000000000000000000000000 DUP2 MSTORE PUSH1 0x4 ADD PUSH2 0xB9C SWAP1 PUSH2 0x1549 JUMP JUMPDEST PUSH1 0x40 MLOAD DUP1 SWAP2 SUB SWAP1 REVERT JUMPDEST PUSH1 0x0 DUP1 PUSH1 0x8 DUP4 PUSH1 0x40 MLOAD PUSH2 0xBB8 SWAP2 SWAP1 PUSH2 0x15A5 JUMP JUMPDEST SWAP1 DUP2 MSTORE PUSH1 0x20 ADD PUSH1 0x40 MLOAD DUP1 SWAP2 SUB SWAP1 KECCAK256 SLOAD GT ISZERO PUSH2 0xBE1 JUMPI PUSH1 0x0 DUP2 PUSH2 0xBDA SWAP2 SWAP1 PUSH2 0x15EB JUMP JUMPDEST SWAP1 POP PUSH2 0xC72 JUMP JUMPDEST PUSH1 0x0 PUSH1 0x9 DUP4 PUSH1 0x40 MLOAD PUSH2 0xBF3 SWAP2 SWAP1 PUSH2 0x15A5 JUMP JUMPDEST SWAP1 DUP2 MSTORE PUSH1 0x20 ADD PUSH1 0x40 MLOAD DUP1 SWAP2 SUB SWAP1 KECCAK256 SLOAD GT ISZERO PUSH2 0xC1C JUMPI PUSH1 0x0 DUP2 PUSH2 0xC15 SWAP2 SWAP1 PUSH2 0x15EB JUMP JUMPDEST SWAP1 POP PUSH2 0xC71 JUMP JUMPDEST PUSH1 0x0 PUSH1 0xA DUP4 PUSH1 0x40 MLOAD PUSH2 0xC2E SWAP2 SWAP1 PUSH2 0x15A5 JUMP JUMPDEST SWAP1 DUP2 MSTORE PUSH1 0x20 ADD PUSH1 0x40 MLOAD DUP1 SWAP2 SUB SWAP1 KECCAK256 SLOAD GT ISZERO PUSH2 0xC70 JUMPI PUSH1 0xA DUP3 PUSH1 0x40 MLOAD PUSH2 0xC53 SWAP2 SWAP1 PUSH2 0x15A5 JUMP JUMPDEST SWAP1 DUP2 MSTORE PUSH1 0x20 ADD PUSH1 0x40 MLOAD DUP1 SWAP2 SUB SWAP1 KECCAK256 SLOAD DUP2 PUSH2 0xC6D SWAP2 SWAP1 PUSH2 0x15EB JUMP JUMPDEST SWAP1 POP JUMPDEST JUMPDEST JUMPDEST PUSH1 0x0 DUP2 GT ISZERO PUSH2 0xDDD JUMPI PUSH1 0x5 PUSH1 0x0 SWAP1 SLOAD SWAP1 PUSH2 0x100 EXP SWAP1 DIV PUSH20 0xFFFFFFFFFFFFFFFFFFFFFFFFFFFFFFFFFFFFFFFF AND PUSH20 0xFFFFFFFFFFFFFFFFFFFFFFFFFFFFFFFFFFFFFFFF AND PUSH4 0x95EA7B3 PUSH1 0x1 PUSH1 0x0 SWAP1 SLOAD SWAP1 PUSH2 0x100 EXP SWAP1 DIV PUSH20 0xFFFFFFFFFFFFFFFFFFFFFFFFFFFFFFFFFFFFFFFF AND DUP4 PUSH1 0x40 MLOAD DUP4 PUSH4 0xFFFFFFFF AND PUSH1 0xE0 SHL DUP2 MSTORE PUSH1 0x4 ADD PUSH2 0xCFA SWAP3 SWAP2 SWAP1 PUSH2 0x17D1 JUMP JUMPDEST PUSH1 0x20 PUSH1 0x40 MLOAD DUP1 DUP4 SUB DUP2 PUSH1 0x0 DUP8 DUP1 EXTCODESIZE ISZERO DUP1 ISZERO PUSH2 0xD14 JUMPI PUSH1 0x0 DUP1 REVERT JUMPDEST POP GAS CALL ISZERO DUP1 ISZERO PUSH2 0xD28 JUMPI RETURNDATASIZE PUSH1 0x0 DUP1 RETURNDATACOPY RETURNDATASIZE PUSH1 0x0 REVERT JUMPDEST POP POP POP POP PUSH1 0x40 MLOAD RETURNDATASIZE PUSH1 0x1F NOT PUSH1 0x1F DUP3 ADD AND DUP3 ADD DUP1 PUSH1 0x40 MSTORE POP DUP2 ADD SWAP1 PUSH2 0xD4C SWAP2 SWAP1 PUSH2 0x17A4 JUMP JUMPDEST POP PUSH1 0x1 PUSH1 0x0 SWAP1 SLOAD SWAP1 PUSH2 0x100 EXP SWAP1 DIV PUSH20 0xFFFFFFFFFFFFFFFFFFFFFFFFFFFFFFFFFFFFFFFF AND PUSH20 0xFFFFFFFFFFFFFFFFFFFFFFFFFFFFFFFFFFFFFFFF AND PUSH4 0x45CD2699 DUP4 DUP4 PUSH1 0x40 MLOAD DUP4 PUSH4 0xFFFFFFFF AND PUSH1 0xE0 SHL DUP2 MSTORE PUSH1 0x4 ADD PUSH2 0xDAA SWAP3 SWAP2 SWAP1 PUSH2 0x17FA JUMP JUMPDEST PUSH1 0x0 PUSH1 0x40 MLOAD DUP1 DUP4 SUB DUP2 PUSH1 0x0 DUP8 DUP1 EXTCODESIZE ISZERO DUP1 ISZERO PUSH2 0xDC4 JUMPI PUSH1 0x0 DUP1 REVERT JUMPDEST POP GAS CALL ISZERO DUP1 ISZERO PUSH2 0xDD8 JUMPI RETURNDATASIZE PUSH1 0x0 DUP1 RETURNDATACOPY RETURNDATASIZE PUSH1 0x0 REVERT JUMPDEST POP POP POP POP JUMPDEST POP POP JUMP JUMPDEST PUSH20 0xFFFFFFFF4C1CBCD97597339702436D4F18A375AB DUP2 JUMP JUMPDEST PUSH20 0xFFFFFFFFA893AD19E540E172C10D78D4D479B5CF DUP2 JUMP JUMPDEST PUSH1 0x0 DUP1 SLOAD SWAP1 PUSH2 0x100 EXP SWAP1 DIV PUSH20 0xFFFFFFFFFFFFFFFFFFFFFFFFFFFFFFFFFFFFFFFF AND DUP2 JUMP JUMPDEST PUSH1 0xA DUP2 DUP1 MLOAD PUSH1 0x20 DUP2 ADD DUP3 ADD DUP1 MLOAD DUP5 DUP3 MSTORE PUSH1 0x20 DUP4 ADD PUSH1 0x20 DUP6 ADD KECCAK256 DUP2 DUP4 MSTORE DUP1 SWAP6 POP POP POP POP POP POP PUSH1 0x0 SWAP2 POP SWAP1 POP SLOAD DUP2 JUMP JUMPDEST PUSH1 0x3 PUSH1 0x0 SWAP1 SLOAD SWAP1 PUSH2 0x100 EXP SWAP1 DIV PUSH20 0xFFFFFFFFFFFFFFFFFFFFFFFFFFFFFFFFFFFFFFFF AND DUP2 JUMP JUMPDEST DUP3 DUP1 SLOAD PUSH2 0xE95 SWAP1 PUSH2 0x1670 JUMP JUMPDEST SWAP1 PUSH1 0x0 MSTORE PUSH1 0x20 PUSH1 0x0 KECCAK256 SWAP1 PUSH1 0x1F ADD PUSH1 0x20 SWAP1 DIV DUP2 ADD SWAP3 DUP3 PUSH2 0xEB7 JUMPI PUSH1 0x0 DUP6 SSTORE PUSH2 0xEFE JUMP JUMPDEST DUP3 PUSH1 0x1F LT PUSH2 0xED0 JUMPI DUP1 MLOAD PUSH1 0xFF NOT AND DUP4 DUP1 ADD OR DUP6 SSTORE PUSH2 0xEFE JUMP JUMPDEST DUP3 DUP1 ADD PUSH1 0x1 ADD DUP6 SSTORE DUP3 ISZERO PUSH2 0xEFE JUMPI SWAP2 DUP3 ADD JUMPDEST DUP3 DUP2 GT ISZERO PUSH2 0xEFD JUMPI DUP3 MLOAD DUP3 SSTORE SWAP2 PUSH1 0x20 ADD SWAP2 SWAP1 PUSH1 0x1 ADD SWAP1 PUSH2 0xEE2 JUMP JUMPDEST JUMPDEST POP SWAP1 POP PUSH2 0xF0B SWAP2 SWAP1 PUSH2 0xF0F JUMP JUMPDEST POP SWAP1 JUMP JUMPDEST JUMPDEST DUP1 DUP3 GT ISZERO PUSH2 0xF28 JUMPI PUSH1 0x0 DUP2 PUSH1 0x0 SWAP1 SSTORE POP PUSH1 0x1 ADD PUSH2 0xF10 JUMP JUMPDEST POP SWAP1 JUMP JUMPDEST PUSH1 0x0 PUSH1 0x40 MLOAD SWAP1 POP SWAP1 JUMP JUMPDEST PUSH1 0x0 DUP1 REVERT JUMPDEST PUSH1 0x0 DUP1 REVERT JUMPDEST PUSH1 0x0 PUSH20 0xFFFFFFFFFFFFFFFFFFFFFFFFFFFFFFFFFFFFFFFF DUP3 AND SWAP1 POP SWAP2 SWAP1 POP JUMP JUMPDEST PUSH1 0x0 PUSH2 0xF6B DUP3 PUSH2 0xF40 JUMP JUMPDEST SWAP1 POP SWAP2 SWAP1 POP JUMP JUMPDEST PUSH2 0xF7B DUP2 PUSH2 0xF60 JUMP JUMPDEST DUP2 EQ PUSH2 0xF86 JUMPI PUSH1 0x0 DUP1 REVERT JUMPDEST POP JUMP JUMPDEST PUSH1 0x0 DUP2 CALLDATALOAD SWAP1 POP PUSH2 0xF98 DUP2 PUSH2 0xF72 JUMP JUMPDEST SWAP3 SWAP2 POP POP JUMP JUMPDEST PUSH1 0x0 DUP2 ISZERO ISZERO SWAP1 POP SWAP2 SWAP1 POP JUMP JUMPDEST PUSH2 0xFB3 DUP2 PUSH2 0xF9E JUMP JUMPDEST DUP2 EQ PUSH2 0xFBE JUMPI PUSH1 0x0 DUP1 REVERT JUMPDEST POP JUMP JUMPDEST PUSH1 0x0 DUP2 CALLDATALOAD SWAP1 POP PUSH2 0xFD0 DUP2 PUSH2 0xFAA JUMP JUMPDEST SWAP3 SWAP2 POP POP JUMP JUMPDEST PUSH1 0x0 DUP1 PUSH1 0x40 DUP4 DUP6 SUB SLT ISZERO PUSH2 0xFED JUMPI PUSH2 0xFEC PUSH2 0xF36 JUMP JUMPDEST JUMPDEST PUSH1 0x0 PUSH2 0xFFB DUP6 DUP3 DUP7 ADD PUSH2 0xF89 JUMP JUMPDEST SWAP3 POP POP PUSH1 0x20 PUSH2 0x100C DUP6 DUP3 DUP7 ADD PUSH2 0xFC1 JUMP JUMPDEST SWAP2 POP POP SWAP3 POP SWAP3 SWAP1 POP JUMP JUMPDEST PUSH1 0x0 PUSH1 0x20 DUP3 DUP5 SUB SLT ISZERO PUSH2 0x102C JUMPI PUSH2 0x102B PUSH2 0xF36 JUMP JUMPDEST JUMPDEST PUSH1 0x0 PUSH2 0x103A DUP5 DUP3 DUP6 ADD PUSH2 0xF89 JUMP JUMPDEST SWAP2 POP POP SWAP3 SWAP2 POP POP JUMP JUMPDEST PUSH1 0x0 DUP2 SWAP1 POP SWAP2 SWAP1 POP JUMP JUMPDEST PUSH1 0x0 PUSH2 0x1068 PUSH2 0x1063 PUSH2 0x105E DUP5 PUSH2 0xF40 JUMP JUMPDEST PUSH2 0x1043 JUMP JUMPDEST PUSH2 0xF40 JUMP JUMPDEST SWAP1 POP SWAP2 SWAP1 POP JUMP JUMPDEST PUSH1 0x0 PUSH2 0x107A DUP3 PUSH2 0x104D JUMP JUMPDEST SWAP1 POP SWAP2 SWAP1 POP JUMP JUMPDEST PUSH1 0x0 PUSH2 0x108C DUP3 PUSH2 0x106F JUMP JUMPDEST SWAP1 POP SWAP2 SWAP1 POP JUMP JUMPDEST PUSH2 0x109C DUP2 PUSH2 0x1081 JUMP JUMPDEST DUP3 MSTORE POP POP JUMP JUMPDEST PUSH1 0x0 PUSH1 0x20 DUP3 ADD SWAP1 POP PUSH2 0x10B7 PUSH1 0x0 DUP4 ADD DUP5 PUSH2 0x1093 JUMP JUMPDEST SWAP3 SWAP2 POP POP JUMP JUMPDEST PUSH2 0x10C6 DUP2 PUSH2 0xF60 JUMP JUMPDEST DUP3 MSTORE POP POP JUMP JUMPDEST PUSH1 0x0 PUSH1 0x20 DUP3 ADD SWAP1 POP PUSH2 0x10E1 PUSH1 0x0 DUP4 ADD DUP5 PUSH2 0x10BD JUMP JUMPDEST SWAP3 SWAP2 POP POP JUMP JUMPDEST PUSH1 0x0 DUP1 REVERT JUMPDEST PUSH1 0x0 DUP1 REVERT JUMPDEST PUSH1 0x0 PUSH1 0x1F NOT PUSH1 0x1F DUP4 ADD AND SWAP1 POP SWAP2 SWAP1 POP JUMP JUMPDEST PUSH32 0x4E487B7100000000000000000000000000000000000000000000000000000000 PUSH1 0x0 MSTORE PUSH1 0x41 PUSH1 0x4 MSTORE PUSH1 0x24 PUSH1 0x0 REVERT JUMPDEST PUSH2 0x113A DUP3 PUSH2 0x10F1 JUMP JUMPDEST DUP2 ADD DUP2 DUP2 LT PUSH8 0xFFFFFFFFFFFFFFFF DUP3 GT OR ISZERO PUSH2 0x1159 JUMPI PUSH2 0x1158 PUSH2 0x1102 JUMP JUMPDEST JUMPDEST DUP1 PUSH1 0x40 MSTORE POP POP POP JUMP JUMPDEST PUSH1 0x0 PUSH2 0x116C PUSH2 0xF2C JUMP JUMPDEST SWAP1 POP PUSH2 0x1178 DUP3 DUP3 PUSH2 0x1131 JUMP JUMPDEST SWAP2 SWAP1 POP JUMP JUMPDEST PUSH1 0x0 PUSH8 0xFFFFFFFFFFFFFFFF DUP3 GT ISZERO PUSH2 0x1198 JUMPI PUSH2 0x1197 PUSH2 0x1102 JUMP JUMPDEST JUMPDEST PUSH2 0x11A1 DUP3 PUSH2 0x10F1 JUMP JUMPDEST SWAP1 POP PUSH1 0x20 DUP2 ADD SWAP1 POP SWAP2 SWAP1 POP JUMP JUMPDEST DUP3 DUP2 DUP4 CALLDATACOPY PUSH1 0x0 DUP4 DUP4 ADD MSTORE POP POP POP JUMP JUMPDEST PUSH1 0x0 PUSH2 0x11D0 PUSH2 0x11CB DUP5 PUSH2 0x117D JUMP JUMPDEST PUSH2 0x1162 JUMP JUMPDEST SWAP1 POP DUP3 DUP2 MSTORE PUSH1 0x20 DUP2 ADD DUP5 DUP5 DUP5 ADD GT ISZERO PUSH2 0x11EC JUMPI PUSH2 0x11EB PUSH2 0x10EC JUMP JUMPDEST JUMPDEST PUSH2 0x11F7 DUP5 DUP3 DUP6 PUSH2 0x11AE JUMP JUMPDEST POP SWAP4 SWAP3 POP POP POP JUMP JUMPDEST PUSH1 0x0 DUP3 PUSH1 0x1F DUP4 ADD SLT PUSH2 0x1214 JUMPI PUSH2 0x1213 PUSH2 0x10E7 JUMP JUMPDEST JUMPDEST DUP2 CALLDATALOAD PUSH2 0x1224 DUP5 DUP3 PUSH1 0x20 DUP7 ADD PUSH2 0x11BD JUMP JUMPDEST SWAP2 POP POP SWAP3 SWAP2 POP POP JUMP JUMPDEST PUSH1 0x0 PUSH1 0x20 DUP3 DUP5 SUB SLT ISZERO PUSH2 0x1243 JUMPI PUSH2 0x1242 PUSH2 0xF36 JUMP JUMPDEST JUMPDEST PUSH1 0x0 DUP3 ADD CALLDATALOAD PUSH8 0xFFFFFFFFFFFFFFFF DUP2 GT ISZERO PUSH2 0x1261 JUMPI PUSH2 0x1260 PUSH2 0xF3B JUMP JUMPDEST JUMPDEST PUSH2 0x126D DUP5 DUP3 DUP6 ADD PUSH2 0x11FF JUMP JUMPDEST SWAP2 POP POP SWAP3 SWAP2 POP POP JUMP JUMPDEST PUSH1 0x0 DUP2 SWAP1 POP SWAP2 SWAP1 POP JUMP JUMPDEST PUSH2 0x1289 DUP2 PUSH2 0x1276 JUMP JUMPDEST DUP3 MSTORE POP POP JUMP JUMPDEST PUSH1 0x0 PUSH1 0x20 DUP3 ADD SWAP1 POP PUSH2 0x12A4 PUSH1 0x0 DUP4 ADD DUP5 PUSH2 0x1280 JUMP JUMPDEST SWAP3 SWAP2 POP POP JUMP JUMPDEST PUSH2 0x12B3 DUP2 PUSH2 0xF9E JUMP JUMPDEST DUP3 MSTORE POP POP JUMP JUMPDEST PUSH1 0x0 PUSH1 0x20 DUP3 ADD SWAP1 POP PUSH2 0x12CE PUSH1 0x0 DUP4 ADD DUP5 PUSH2 0x12AA JUMP JUMPDEST SWAP3 SWAP2 POP POP JUMP JUMPDEST PUSH2 0x12DD DUP2 PUSH2 0x1276 JUMP JUMPDEST DUP2 EQ PUSH2 0x12E8 JUMPI PUSH1 0x0 DUP1 REVERT JUMPDEST POP JUMP JUMPDEST PUSH1 0x0 DUP2 CALLDATALOAD SWAP1 POP PUSH2 0x12FA DUP2 PUSH2 0x12D4 JUMP JUMPDEST SWAP3 SWAP2 POP POP JUMP JUMPDEST PUSH1 0x0 DUP1 PUSH1 0x0 PUSH1 0x60 DUP5 DUP7 SUB SLT ISZERO PUSH2 0x1319 JUMPI PUSH2 0x1318 PUSH2 0xF36 JUMP JUMPDEST JUMPDEST PUSH1 0x0 DUP5 ADD CALLDATALOAD PUSH8 0xFFFFFFFFFFFFFFFF DUP2 GT ISZERO PUSH2 0x1337 JUMPI PUSH2 0x1336 PUSH2 0xF3B JUMP JUMPDEST JUMPDEST PUSH2 0x1343 DUP7 DUP3 DUP8 ADD PUSH2 0x11FF JUMP JUMPDEST SWAP4 POP POP PUSH1 0x20 DUP5 ADD CALLDATALOAD PUSH8 0xFFFFFFFFFFFFFFFF DUP2 GT ISZERO PUSH2 0x1364 JUMPI PUSH2 0x1363 PUSH2 0xF3B JUMP JUMPDEST JUMPDEST PUSH2 0x1370 DUP7 DUP3 DUP8 ADD PUSH2 0x11FF JUMP JUMPDEST SWAP3 POP POP PUSH1 0x40 PUSH2 0x1381 DUP7 DUP3 DUP8 ADD PUSH2 0x12EB JUMP JUMPDEST SWAP2 POP POP SWAP3 POP SWAP3 POP SWAP3 JUMP JUMPDEST PUSH1 0x0 DUP1 PUSH1 0x40 DUP4 DUP6 SUB SLT ISZERO PUSH2 0x13A2 JUMPI PUSH2 0x13A1 PUSH2 0xF36 JUMP JUMPDEST JUMPDEST PUSH1 0x0 DUP4 ADD CALLDATALOAD PUSH8 0xFFFFFFFFFFFFFFFF DUP2 GT ISZERO PUSH2 0x13C0 JUMPI PUSH2 0x13BF PUSH2 0xF3B JUMP JUMPDEST JUMPDEST PUSH2 0x13CC DUP6 DUP3 DUP7 ADD PUSH2 0x11FF JUMP JUMPDEST SWAP3 POP POP PUSH1 0x20 PUSH2 0x13DD DUP6 DUP3 DUP7 ADD PUSH2 0xF89 JUMP JUMPDEST SWAP2 POP POP SWAP3 POP SWAP3 SWAP1 POP JUMP JUMPDEST PUSH1 0x0 DUP2 MLOAD SWAP1 POP SWAP2 SWAP1 POP JUMP JUMPDEST PUSH1 0x0 DUP3 DUP3 MSTORE PUSH1 0x20 DUP3 ADD SWAP1 POP SWAP3 SWAP2 POP POP JUMP JUMPDEST PUSH1 0x0 JUMPDEST DUP4 DUP2 LT ISZERO PUSH2 0x1421 JUMPI DUP1 DUP3 ADD MLOAD DUP2 DUP5 ADD MSTORE PUSH1 0x20 DUP2 ADD SWAP1 POP PUSH2 0x1406 JUMP JUMPDEST DUP4 DUP2 GT ISZERO PUSH2 0x1430 JUMPI PUSH1 0x0 DUP5 DUP5 ADD MSTORE JUMPDEST POP POP POP POP JUMP JUMPDEST PUSH1 0x0 PUSH2 0x1441 DUP3 PUSH2 0x13E7 JUMP JUMPDEST PUSH2 0x144B DUP2 DUP6 PUSH2 0x13F2 JUMP JUMPDEST SWAP4 POP PUSH2 0x145B DUP2 DUP6 PUSH1 0x20 DUP7 ADD PUSH2 0x1403 JUMP JUMPDEST PUSH2 0x1464 DUP2 PUSH2 0x10F1 JUMP JUMPDEST DUP5 ADD SWAP2 POP POP SWAP3 SWAP2 POP POP JUMP JUMPDEST PUSH1 0x0 PUSH1 0x20 DUP3 ADD SWAP1 POP DUP2 DUP2 SUB PUSH1 0x0 DUP4 ADD MSTORE PUSH2 0x1489 DUP2 DUP5 PUSH2 0x1436 JUMP JUMPDEST SWAP1 POP SWAP3 SWAP2 POP POP JUMP JUMPDEST PUSH32 0x616374696F6E206F6E6C7920666F722061646D696E0000000000000000000000 PUSH1 0x0 DUP3 ADD MSTORE POP JUMP JUMPDEST PUSH1 0x0 PUSH2 0x14C7 PUSH1 0x15 DUP4 PUSH2 0x13F2 JUMP JUMPDEST SWAP2 POP PUSH2 0x14D2 DUP3 PUSH2 0x1491 JUMP JUMPDEST PUSH1 0x20 DUP3 ADD SWAP1 POP SWAP2 SWAP1 POP JUMP JUMPDEST PUSH1 0x0 PUSH1 0x20 DUP3 ADD SWAP1 POP DUP2 DUP2 SUB PUSH1 0x0 DUP4 ADD MSTORE PUSH2 0x14F6 DUP2 PUSH2 0x14BA JUMP JUMPDEST SWAP1 POP SWAP2 SWAP1 POP JUMP JUMPDEST PUSH32 0x616374696F6E206F6E6C7920666F722067616D6520617574686F726974790000 PUSH1 0x0 DUP3 ADD MSTORE POP JUMP JUMPDEST PUSH1 0x0 PUSH2 0x1533 PUSH1 0x1E DUP4 PUSH2 0x13F2 JUMP JUMPDEST SWAP2 POP PUSH2 0x153E DUP3 PUSH2 0x14FD JUMP JUMPDEST PUSH1 0x20 DUP3 ADD SWAP1 POP SWAP2 SWAP1 POP JUMP JUMPDEST PUSH1 0x0 PUSH1 0x20 DUP3 ADD SWAP1 POP DUP2 DUP2 SUB PUSH1 0x0 DUP4 ADD MSTORE PUSH2 0x1562 DUP2 PUSH2 0x1526 JUMP JUMPDEST SWAP1 POP SWAP2 SWAP1 POP JUMP JUMPDEST PUSH1 0x0 DUP2 SWAP1 POP SWAP3 SWAP2 POP POP JUMP JUMPDEST PUSH1 0x0 PUSH2 0x157F DUP3 PUSH2 0x13E7 JUMP JUMPDEST PUSH2 0x1589 DUP2 DUP6 PUSH2 0x1569 JUMP JUMPDEST SWAP4 POP PUSH2 0x1599 DUP2 DUP6 PUSH1 0x20 DUP7 ADD PUSH2 0x1403 JUMP JUMPDEST DUP1 DUP5 ADD SWAP2 POP POP SWAP3 SWAP2 POP POP JUMP JUMPDEST PUSH1 0x0 PUSH2 0x15B1 DUP3 DUP5 PUSH2 0x1574 JUMP JUMPDEST SWAP2 POP DUP2 SWAP1 POP SWAP3 SWAP2 POP POP JUMP JUMPDEST PUSH32 0x4E487B7100000000000000000000000000000000000000000000000000000000 PUSH1 0x0 MSTORE PUSH1 0x11 PUSH1 0x4 MSTORE PUSH1 0x24 PUSH1 0x0 REVERT JUMPDEST PUSH1 0x0 PUSH2 0x15F6 DUP3 PUSH2 0x1276 JUMP JUMPDEST SWAP2 POP PUSH2 0x1601 DUP4 PUSH2 0x1276 JUMP JUMPDEST SWAP3 POP DUP3 PUSH32 0xFFFFFFFFFFFFFFFFFFFFFFFFFFFFFFFFFFFFFFFFFFFFFFFFFFFFFFFFFFFFFFFF SUB DUP3 GT ISZERO PUSH2 0x1636 JUMPI PUSH2 0x1635 PUSH2 0x15BC JUMP JUMPDEST JUMPDEST DUP3 DUP3 ADD SWAP1 POP SWAP3 SWAP2 POP POP JUMP JUMPDEST PUSH32 0x4E487B7100000000000000000000000000000000000000000000000000000000 PUSH1 0x0 MSTORE PUSH1 0x22 PUSH1 0x4 MSTORE PUSH1 0x24 PUSH1 0x0 REVERT JUMPDEST PUSH1 0x0 PUSH1 0x2 DUP3 DIV SWAP1 POP PUSH1 0x1 DUP3 AND DUP1 PUSH2 0x1688 JUMPI PUSH1 0x7F DUP3 AND SWAP2 POP JUMPDEST PUSH1 0x20 DUP3 LT DUP2 EQ ISZERO PUSH2 0x169C JUMPI PUSH2 0x169B PUSH2 0x1641 JUMP JUMPDEST JUMPDEST POP SWAP2 SWAP1 POP JUMP JUMPDEST PUSH1 0x0 DUP2 SWAP1 POP SWAP3 SWAP2 POP POP JUMP JUMPDEST PUSH1 0x0 DUP2 SWAP1 POP DUP2 PUSH1 0x0 MSTORE PUSH1 0x20 PUSH1 0x0 KECCAK256 SWAP1 POP SWAP2 SWAP1 POP JUMP JUMPDEST PUSH1 0x0 DUP2 SLOAD PUSH2 0x16CF DUP2 PUSH2 0x1670 JUMP JUMPDEST PUSH2 0x16D9 DUP2 DUP7 PUSH2 0x16A2 JUMP JUMPDEST SWAP5 POP PUSH1 0x1 DUP3 AND PUSH1 0x0 DUP2 EQ PUSH2 0x16F4 JUMPI PUSH1 0x1 DUP2 EQ PUSH2 0x1705 JUMPI PUSH2 0x1738 JUMP JUMPDEST PUSH1 0xFF NOT DUP4 AND DUP7 MSTORE DUP2 DUP7 ADD SWAP4 POP PUSH2 0x1738 JUMP JUMPDEST PUSH2 0x170E DUP6 PUSH2 0x16AD JUMP JUMPDEST PUSH1 0x0 JUMPDEST DUP4 DUP2 LT ISZERO PUSH2 0x1730 JUMPI DUP2 SLOAD DUP2 DUP10 ADD MSTORE PUSH1 0x1 DUP3 ADD SWAP2 POP PUSH1 0x20 DUP2 ADD SWAP1 POP PUSH2 0x1711 JUMP JUMPDEST DUP4 DUP9 ADD SWAP6 POP POP POP JUMPDEST POP POP POP SWAP3 SWAP2 POP POP JUMP JUMPDEST PUSH1 0x0 PUSH2 0x174D DUP3 DUP5 PUSH2 0x16C2 JUMP JUMPDEST SWAP2 POP DUP2 SWAP1 POP SWAP3 SWAP2 POP POP JUMP JUMPDEST PUSH1 0x0 PUSH1 0x60 DUP3 ADD SWAP1 POP PUSH2 0x176D PUSH1 0x0 DUP4 ADD DUP7 PUSH2 0x10BD JUMP JUMPDEST PUSH2 0x177A PUSH1 0x20 DUP4 ADD DUP6 PUSH2 0x10BD JUMP JUMPDEST PUSH2 0x1787 PUSH1 0x40 DUP4 ADD DUP5 PUSH2 0x1280 JUMP JUMPDEST SWAP5 SWAP4 POP POP POP POP JUMP JUMPDEST PUSH1 0x0 DUP2 MLOAD SWAP1 POP PUSH2 0x179E DUP2 PUSH2 0xFAA JUMP JUMPDEST SWAP3 SWAP2 POP POP JUMP JUMPDEST PUSH1 0x0 PUSH1 0x20 DUP3 DUP5 SUB SLT ISZERO PUSH2 0x17BA JUMPI PUSH2 0x17B9 PUSH2 0xF36 JUMP JUMPDEST JUMPDEST PUSH1 0x0 PUSH2 0x17C8 DUP5 DUP3 DUP6 ADD PUSH2 0x178F JUMP JUMPDEST SWAP2 POP POP SWAP3 SWAP2 POP POP JUMP JUMPDEST PUSH1 0x0 PUSH1 0x40 DUP3 ADD SWAP1 POP PUSH2 0x17E6 PUSH1 0x0 DUP4 ADD DUP6 PUSH2 0x10BD JUMP JUMPDEST PUSH2 0x17F3 PUSH1 0x20 DUP4 ADD DUP5 PUSH2 0x1280 JUMP JUMPDEST SWAP4 SWAP3 POP POP POP JUMP JUMPDEST PUSH1 0x0 PUSH1 0x40 DUP3 ADD SWAP1 POP DUP2 DUP2 SUB PUSH1 0x0 DUP4 ADD MSTORE PUSH2 0x1814 DUP2 DUP6 PUSH2 0x1436 JUMP JUMPDEST SWAP1 POP PUSH2 0x1823 PUSH1 0x20 DUP4 ADD DUP5 PUSH2 0x1280 JUMP JUMPDEST SWAP4 SWAP3 POP POP POP JUMP INVALID LOG2 PUSH5 0x6970667358 0x22 SLT KECCAK256 0xB2 SUB PUSH32 0x1BDC58603DA865F600D457E711375140F862CC15447BB452A572E571B064736F PUSH13 0x63430008090033000000000000 "
    },
    "gasEstimates": {
      "creation": {
        "codeDepositCost": "1248000",
        "executionCost": "74095",
        "totalCost": "1322095"
      },
      "external": {
        "admin()": "2577",
        "allocateDeposits(string,string,uint256)": "infinite",
        "axelarManagerAddress()": "2604",
        "depositFundsToGame(string)": "infinite",
        "gameDeposit_ASTR(string)": "infinite",
        "gameDeposit_AXLUSDC(string)": "infinite",
        "gameDeposit_INTR(string)": "infinite",
        "gameManagers(address)": "2890",
        "gameToken()": "infinite",
        "gameTokenCurrency()": "2559",
        "gameTokenSymbol()": "infinite",
        "setAcceptedCurrency(string,address)": "infinite",
        "set_Axelar_Manager(address)": "29182",
        "set_Game_Manager(address,bool)": "27182",
        "xcASTR()": "infinite",
        "xcASTRaddress()": "422",
        "xcINTR()": "infinite",
        "xcINTRaddress()": "400"
      }
    },
    "methodIdentifiers": {
      "admin()": "f851a440",
      "allocateDeposits(string,string,uint256)": "b7d300aa",
      "axelarManagerAddress()": "7a52017c",
      "depositFundsToGame(string)": "d5a03dbf",
      "gameDeposit_ASTR(string)": "7dc096fd",
      "gameDeposit_AXLUSDC(string)": "faf36630",
      "gameDeposit_INTR(string)": "b56dc606",
      "gameManagers(address)": "87391133",
      "gameToken()": "c3dfdae6",
      "gameTokenCurrency()": "c9e96f91",
      "gameTokenSymbol()": "d07767a6",
      "setAcceptedCurrency(string,address)": "be1216f8",
      "set_Axelar_Manager(address)": "35734620",
      "set_Game_Manager(address,bool)": "0148f066",
      "xcASTR()": "fc728798",
      "xcASTRaddress()": "db796a5f",
      "xcINTR()": "5300fdff",
      "xcINTRaddress()": "da054112"
    }
  },
  "abi": [
    {
      "inputs": [],
      "stateMutability": "nonpayable",
      "type": "constructor"
    },
    {
      "inputs": [],
      "name": "admin",
      "outputs": [
        {
          "internalType": "address",
          "name": "",
          "type": "address"
        }
      ],
      "stateMutability": "view",
      "type": "function"
    },
    {
      "inputs": [
        {
          "internalType": "string",
          "name": "symbol",
          "type": "string"
        },
        {
          "internalType": "string",
          "name": "gameHash",
          "type": "string"
        },
        {
          "internalType": "uint256",
          "name": "amount",
          "type": "uint256"
        }
      ],
      "name": "allocateDeposits",
      "outputs": [],
      "stateMutability": "nonpayable",
      "type": "function"
    },
    {
      "inputs": [],
      "name": "axelarManagerAddress",
      "outputs": [
        {
          "internalType": "address",
          "name": "",
          "type": "address"
        }
      ],
      "stateMutability": "view",
      "type": "function"
    },
    {
      "inputs": [
        {
          "internalType": "string",
          "name": "gameHash",
          "type": "string"
        }
      ],
      "name": "depositFundsToGame",
      "outputs": [],
      "stateMutability": "nonpayable",
      "type": "function"
    },
    {
      "inputs": [
        {
          "internalType": "string",
          "name": "",
          "type": "string"
        }
      ],
      "name": "gameDeposit_ASTR",
      "outputs": [
        {
          "internalType": "uint256",
          "name": "",
          "type": "uint256"
        }
      ],
      "stateMutability": "view",
      "type": "function"
    },
    {
      "inputs": [
        {
          "internalType": "string",
          "name": "",
          "type": "string"
        }
      ],
      "name": "gameDeposit_AXLUSDC",
      "outputs": [
        {
          "internalType": "uint256",
          "name": "",
          "type": "uint256"
        }
      ],
      "stateMutability": "view",
      "type": "function"
    },
    {
      "inputs": [
        {
          "internalType": "string",
          "name": "",
          "type": "string"
        }
      ],
      "name": "gameDeposit_INTR",
      "outputs": [
        {
          "internalType": "uint256",
          "name": "",
          "type": "uint256"
        }
      ],
      "stateMutability": "view",
      "type": "function"
    },
    {
      "inputs": [
        {
          "internalType": "address",
          "name": "",
          "type": "address"
        }
      ],
      "name": "gameManagers",
      "outputs": [
        {
          "internalType": "bool",
          "name": "",
          "type": "bool"
        }
      ],
      "stateMutability": "view",
      "type": "function"
    },
    {
      "inputs": [],
      "name": "gameToken",
      "outputs": [
        {
          "internalType": "contract IERC20",
          "name": "",
          "type": "address"
        }
      ],
      "stateMutability": "view",
      "type": "function"
    },
    {
      "inputs": [],
      "name": "gameTokenCurrency",
      "outputs": [
        {
          "internalType": "address",
          "name": "",
          "type": "address"
        }
      ],
      "stateMutability": "view",
      "type": "function"
    },
    {
      "inputs": [],
      "name": "gameTokenSymbol",
      "outputs": [
        {
          "internalType": "string",
          "name": "",
          "type": "string"
        }
      ],
      "stateMutability": "view",
      "type": "function"
    },
    {
      "inputs": [
        {
          "internalType": "string",
          "name": "_gameTokenSymbol",
          "type": "string"
        },
        {
          "internalType": "address",
          "name": "_gameTokenCurrency",
          "type": "address"
        }
      ],
      "name": "setAcceptedCurrency",
      "outputs": [],
      "stateMutability": "nonpayable",
      "type": "function"
    },
    {
      "inputs": [
        {
          "internalType": "address",
          "name": "_axelarManagerAddress",
          "type": "address"
        }
      ],
      "name": "set_Axelar_Manager",
      "outputs": [],
      "stateMutability": "nonpayable",
      "type": "function"
    },
    {
      "inputs": [
        {
          "internalType": "address",
          "name": "_gameManager",
          "type": "address"
        },
        {
          "internalType": "bool",
          "name": "approveManager",
          "type": "bool"
        }
      ],
      "name": "set_Game_Manager",
      "outputs": [],
      "stateMutability": "nonpayable",
      "type": "function"
    },
    {
      "inputs": [],
      "name": "xcASTR",
      "outputs": [
        {
          "internalType": "contract IERC20",
          "name": "",
          "type": "address"
        }
      ],
      "stateMutability": "view",
      "type": "function"
    },
    {
      "inputs": [],
      "name": "xcASTRaddress",
      "outputs": [
        {
          "internalType": "address",
          "name": "",
          "type": "address"
        }
      ],
      "stateMutability": "view",
      "type": "function"
    },
    {
      "inputs": [],
      "name": "xcINTR",
      "outputs": [
        {
          "internalType": "contract IERC20",
          "name": "",
          "type": "address"
        }
      ],
      "stateMutability": "view",
      "type": "function"
    },
    {
      "inputs": [],
      "name": "xcINTRaddress",
      "outputs": [
        {
          "internalType": "address",
          "name": "",
          "type": "address"
        }
      ],
      "stateMutability": "view",
      "type": "function"
    }
  ]
}